:1000000000000120750300005D0300005F03000095
:1000100061030000630300006503000000000000AE
:100020000000000000000000000000006703000066
:1000300069030000000000006B0300006D03000076
:100040006F0300006F0300006F0300006F030000E8
:100050006F0300006F0300007D0D00006F030000C0
:100060006F030000A51500006F0300006F03000080
:100070006F0300006F0300006F0300006F030000B8
:100080006F030000090900006F0300006F03000008
:100090006F0300006F0300006F0300006F03000098
:1000A0006F0300006F0300006F0300006F03000088
:1000B0006F0300006F03000000000000000000005C
:1000C0006F0300006F0300006F0300006F03000068
:1000D0006F0300006F0300006F03000000000000CA
:1000E0000000000000000000000000000000000010
:1000F0000000000000000000000000000000000000
:1001000000000000000000000000000000000000EF
:1001100000000000000000000000000000000000DF
:1001200000000000000000000000000000000000CF
:1001300000000000000000000000000000000000BF
:1001400000000000000000000000000000000000AF
:10015000000000000000000000000000000000009F
:10016000000000000000000000000000000000008F
:10017000000000000000000000000000000000007F
:10018000000000000000000000000000000000006F
:10019000000000000000000000000000000000005F
:1001A000000000000000000000000000000000004F
:1001B000000000000000000000000000000000003F
:1001C000000000000000000000000000000000002F
:1001D000000000000000000000000000000000001F
:1001E000000000000000000000000000000000000F
:1001F00000000000000000000000000000000000FF
:10020000354936480A1A02D0072291438D463449AF
:1002100034480A1A06D00722914381F30988022242
:1002200082F3148830483149314A00F044F83148AB
:100230003149324A00F03FF831483249324A00F041
:100240003AF832483249334A00F035F832483349F7
:10025000334A00F030F833483349344A00F02BF881
:1002600033483449344A00F026F8344834490022EF
:1002700000F02CF833483449002200F027F83348C6
:100280003349091A082902DB002202604160314A21
:1002900090471F481F49884205D00268043003B4C4
:1002A000904703BCF7E700208646EC46002000217B
:1002B000294A9047FEE7884207D0521A05D00378B2
:1002C00001300B700131013AF9D17047884202D0F8
:1002D00002700130FAE770470000012000E00020C2
:1002E0000000012000000120582300000000002031
:1002F00004000020D0030000D00300001420000000
:1003000058230000000000200000002014200000FE
:10031000142000001420000014200000142000000D
:1003200014200000142000001420000056230000B8
:100330005C230000040000200400002004000020D2
:1003400091000020940000209400002094000020E0
:10035000942000209D0300000D180000FEE7FEE73A
:10036000FEE7FEE7FEE7FEE7FEE7FEE7FEE7FEE765
:1003700000F002B8FFF7FCBF0F484FF007018843B9
:1003800085460E4880470E48016841F470010160BF
:10039000BFF34F8FBFF36F8FFFF732BF09480A4992
:1003A0000A4A884207D0521A05D0037801300B70F0
:1003B0000131013AF9D17047000001203D1D0000D4
:1003C00088ED00E014200000000000200000002064
:1003D00000B583B00190019B1B68184600F0D7F868
:1003E0000346002B04D105494FF4F67000F09AFA49
:1003F0004FF0A043184603B05DF804FB1420000042
:1004000000B585B00190084611461A4603468DF89E
:1004100003300B468DF8023013468DF8013001ABE6
:100420001846FFF7D5FF03909DF803209DF8023092
:100430005B001A439DF801309B001A439DF8183069
:100440001B0242EA03019DF81C301B04019A194368
:10045000039B02F5E07243F8221000BF05B05DF87F
:1004600004FB00B585B003900023019300230093A3
:100470000023012201210398FFF7C2FF00BF05B04E
:100480005DF804FB00B585B003900B468DF80B308A
:100490009DF80B30002201920022009200220021E0
:1004A0000398FFF7ADFF00BF05B05DF804FB00B592
:1004B00085B0019001AB1846FFF78AFF0390019BBE
:1004C000012202FA03F31946039800F04CF800BF2A
:1004D00005B05DF804FB00B585B0019001AB18468E
:1004E000FFF776FF0390019B012202FA03F31946FE
:1004F000039800F042F800BF05B05DF804FB00B5BA
:1005000085B0019001AB1846FFF762FF0390039B93
:10051000D3F804350293029BDA43019B012101FACF
:1005200003F31A40039BC3F80825019B01229A405C
:10053000029B1A40039BC3F80C2500BF05B05DF871
:1005400004FB00B583B001900091009B002B03D108
:100550000198FFF7C0FF02E00198FFF7A8FF00BF76
:1005600003B05DF804FB82B001900091019B009AFA
:10057000C3F8082500BF02B0704782B00190009117
:10058000019B009AC3F80C2500BF02B0704784B0ED
:100590000190019B5B09029300230393029B002BB4
:1005A00003D14FF0FF33039300BF019B03F01F0300
:1005B0000193039A019B22FA03F303F00103002B3A
:1005C00014BF01230023DBB2184604B070470000BB
:1005D00000B583B00190019B012B03D9074941204D
:1005E00000F0A0F9064A019B13441B78002118462D
:1005F000FFF7A7FF00BF03B05DF804FB4420000035
:10060000B420000000B583B00190019B012B03D9F9
:100610000749472000F086F9064A019B13441B78DE
:1006200001211846FFF78DFF00BF03B05DF804FB02
:1006300044200000B420000000B583B000230193E3
:1006400005E00198FFF7DEFF019B01330193019B59
:10065000012BF6D900BF00BF03B05DF804FB00001A
:1006600000B583B00190019B012B03D907495F209E
:1006700000F058F9064A019B13441B781846FFF70F
:100680003EFF00BF03B05DF804FB00BF4420000044
:10069000B420000000B583B00023019309E0094AAB
:1006A000019B13441B781846FFF7DBFE019B0133C7
:1006B0000193019B012BF2D9FFF7BEFF00BF03B0EE
:1006C0005DF804FBB420000000B583B00023019363
:1006D0000AE0094A019B13441B7803211846FFF7DF
:1006E000D1FE019B01330193019B032BF1D900BF84
:1006F00000BF03B05DF804FBB820000000B583B074
:100700000190019B03F00103002B01D0FFF7C2FF12
:10071000019B03F00203002B01D0FFF7D5FF00BFC0
:1007200003B05DF804FB00B583B002900091019224
:1007300044F2010071466A4600F06DFF03B000BD4F
:1007400000BF000000B583B003460091ADF806304D
:10075000BDF80630B3F5A07F0DD1094B1B78002BF7
:1007600002D1084B02221A70074B1B68074A126815
:100770001046984700E000BF00BF03B05DF804FBDF
:100780000400002010000020080000200C000020C1
:1007900000B585B00023039300238DF804300023B7
:1007A0008DF8053000238DF8063006238DF80730CC
:1007B0000023029300238DF8053000238DF80630C6
:1007C00004238DF8043001AB084A1946084800F0AC
:1007D000A9FC0390039B002B02D1064B01221A7047
:1007E000039B184605B05DF804FB00BF45070000F9
:1007F000BC2000001000002000B58BB004910393D2
:1008000003468DF817301346ADF8143000230893D3
:10081000049B002B01D10E2353E09DF81730012BD0
:1008200003D10123ADF826300AE09DF81730002BE4
:1008300004D14FF48073ADF8263001E0072340E087
:10084000224B1B78002B01D108233AE01F4B1B7869
:10085000032B0CD100F046F80890089B0793079BE8
:10086000002B04D01A4A89210798FFF75CFF174B29
:100870001B78022B02D1174800F0C2FD164A9DF8E2
:1008800017301370154A049B1360154A039B1360BD
:10089000BDF81420BDF826300121009100210D483B
:1008A00000F009FE094B1B78022B03D1094800F028
:1008B00063FD02E0074800F031FD044B03221A708B
:1008C000002318460BB05DF804FB00BF10000020A9
:1008D000C4200000BC20000004000020080000200C
:1008E0000C00002008B5064B1B78032B05D10548EA
:1008F00000F064FD024B02221A700023184608BD66
:1009000010000020BC20000008B5044B1B68044AFE
:1009100012681046984700BF08BD00BF14000020B1
:100920001800002000B585B003460091ADF80630F0
:10093000BDF806300293009B039302AB1A460021D8
:1009400044F2020000F067FE00BF05B05DF804FB52
:1009500000B583B00346ADF80630BDF80630184642
:1009600000F026F803461B68012B0CBF012300236F
:10097000DBB2184603B05DF804FB00B585B0034652
:10098000ADF80630BDF80630184600F011F8034601
:100990001A4600231360BDF80630184600F008F828
:1009A00003461B680393039B00BF05B05DF804FB7F
:1009B00082B00346ADF80630BDF8063003F180433F
:1009C00003F5C043184602B07047000082B00190A2
:1009D000034BD3F80423019B1340184602B0704721
:1009E0000060004082B00190054A019B03F5A273AC
:1009F00052F823301B0A03F01F03184602B0704759
:100A00000060004082B00190064A019B03F5A2738A
:100A100052F823301B0C03F00303DBB2184602B07C
:100A2000704700BF0060004000B583B00190019B9B
:100A30001B68184600F096F80346002B04D10549C0
:100A40004FF4F670FFF76EFF4FF0A043184603B067
:100A50005DF804FB7C21000000B585B001900B46D9
:100A60008DF8033001AB1846FFF7DEFF0390019AC3
:100A7000039B02F5E07253F82230019A23F44031CF
:100A8000039B02F5E07243F82210019A039B02F5E2
:100A9000E07253F822309DF8032012041146019AA7
:100AA0001943039B02F5E07243F8221000BF05B022
:100AB0005DF804FB00B585B0019001AB1846FFF767
:100AC000B3FF0390019A039B02F5E07253F82230C2
:100AD0001B0C03F00303DBB2184605B05DF804FB02
:100AE00086B00390029101924FF0A0430493039BC0
:100AF000059319E0059B9B0018336B4453F8083CA1
:100B0000D3F82025019B1A60059B9B0018336B448A
:100B100053F8083C019A1268C3F82025019B04335E
:100B20000193059B01330593039A029B1344059A95
:100B30009A42DFD300BF00BF06B0704700B585B052
:100B4000019001AB1846FFF76FFF0390019B012254
:100B500002FA03F31A46039BC3F8202500BF05B031
:100B60005DF804FB84B00190019B5B0902930023B4
:100B70000393029B002B03D14FF0FF33039300BF7D
:100B8000019B03F01F030193039A019B22FA03F3D5
:100B900003F00103002B14BF01230023DBB218462E
:100BA00004B0704784B001900091009B0393019BB7
:100BB000DB080293019B03F0070301930122019BD1
:100BC00002FA03F30399029A0A4412781340184672
:100BD00004B0704782B00190044A019B1344303343
:100BE00093F90030184602B0704700BF2000002083
:100BF00082B00190034A019B52F82330184602B09C
:100C0000704700BF2000002084B00190074A019B7C
:100C10001344503393F900308DF80F309DF80F30A6
:100C200023F0C003184604B0704700BF2000002026
:100C300084B00190074A019B1344503393F900306C
:100C40008DF80F309DF80F309B09DBB2184604B0C9
:100C5000704700BF2000002000B585B00190019AC8
:100C600001210020FFF73CFF002303930BE0039BCF
:100C70009B00019A13441B68002B01D0012306E05E
:100C8000039B01330393039B002BF0D000231846F2
:100C900005B05DF804FB000000B587B001900023AB
:100CA00005935BE0344A059B1344503393F90030BD
:100CB000B3F1FF3F4ED00598FFF7A6FF04900199CE
:100CC0000498FFF76FFF0346002B44D00598FFF709
:100CD000AFFF03468DF80F300498FFF7EBFE034695
:100CE0008DF80E309DF80E30022B01D1032300E069
:100CF00002238DF80D309DF80D3019460498FFF74A
:100D0000ABFE0498FFF71AFF0498FFF763FF034652
:100D10001846FFF76DFF0290029B002B1BD09DF839
:100D20000F30032B0FD09DF80E30022B03D19DF80E
:100D30000F30012B07D09DF80E30032B0BD19DF8FF
:100D40000F30022B07D19DF80F20029B114604980B
:100D5000984700E000BF059B01330593059B032BDB
:100D6000A0D90198FFF778FF0346002B97D100BF69
:100D700000BF07B05DF804FB2000002000B589B07B
:100D800000230793002300934FF48073ADF81630CF
:100D9000012304930023069321E0BDF81630184682
:100DA000FFF7D6FD0346002B0ED00498FFF70EFE8A
:100DB0000346002B08D0BDF816301846FFF7DDFDBE
:100DC000079A049B13430793049B5B000493BDF8AD
:100DD00016300433ADF81630069B01330693069B9C
:100DE000072BDAD94FF4BE70FFF7B2FD0346002B94
:100DF0000DD04FF4BE70FFF7C0FD079B43F00043DA
:100E000007936B461A4601210020FFF769FE079BF6
:100E1000DBB2002B29D0012304930023069321E0A9
:100E2000049A079B1340002B16D00698FFF7DAFDB3
:100E300003900698FFF7E6FD03468DF80B30069801
:100E4000FFF7D6FE0190019B002B05D09DF80B20EB
:100E5000019B114603989847049B5B000493069BF3
:100E600001330693069B072BDAD9079B002B03DA85
:100E70006B461846FFF710FF00BF09B05DF804FB92
:100E800082B003468DF807309DF90730002B0CDB4C
:100E90009DF8073003F01F0205499DF907305B09F3
:100EA000012000FA02F241F8232000BF02B070478F
:100EB00000E100E082B0034600918DF807309DF913
:100EC0000730002B0ADB009BDAB20C499DF9073092
:100ED0005201D2B20B4483F800230BE0009BDAB23C
:100EE00007499DF8073003F00F03043B5201D2B2CB
:100EF0000B441A7600BF02B0704700BF00E100E06B
:100F000000ED00E082B00190019B1B0B5BB2184624
:100F100002B0704700B583B003460A468DF807302B
:100F200013468DF806309DF80630072B03D9084983
:100F30006B20FFF7F7FC9DF806209DF9073011465E
:100F40001846FFF7B7FF00BF03B05DF804FB00BF12
:100F50002822000000B583B003468DF807309DF9C4
:100F600007301846FFF78CFF00BF03B05DF804FBA5
:100F700082B001900B468DF803309DF80330019A42
:100F8000134401221A6000BF02B0704784B0019080
:100F90000B46ADF80230BDF80230019A134400222E
:100FA0001A60BDF80230019A13441B680393039B37
:100FB00000BF04B0704782B001900B46ADF802301C
:100FC000BDF80230019A13441B68002B14BF0123A3
:100FD0000023DBB2184602B0704782B00190009146
:100FE000019BD3F80022009B1A43019BC3F8002207
:100FF00000BF02B0704782B001900091019BD3F80E
:101000000022009BDB431A40019BC3F8002200BF73
:1010100002B0704782B001900091019B009AC3F822
:10102000042300BF02B0704782B001900091019B81
:10103000009AC3F8082300BF02B0704782B0019045
:101040000091019BD3F80423009B1340002B14BF95
:1010500001230023DBB2184602B0704782B0019032
:101060000B468DF80330019BD3F8043523F00302BF
:101070009DF8033003F003031A43019BC3F80425D2
:1010800000BF02B0704782B001900B468DF803306C
:10109000019BD3F8083523F003029DF8033003F0D9
:1010A00003031A43019BC3F8082500BF02B0704731
:1010B00082B001900B468DF80330019BD3F81035B8
:1010C00023F00F029DF8033003F00F031A43019B36
:1010D000C3F8102500BF02B0704784B003900B46E0
:1010E00001928DF80B309DF80B20039B02F5A8723E
:1010F000019943F8221000BF04B0704782B00190FC
:10110000019B9B0003F5A0739BB2184602B0704789
:1011100082B001904FF48032019B02FA03F318462B
:1011200002B0704710B588B0039002910192039B02
:101130001B791A4613465B0013449B00704A134404
:101140000693029B002B03D16E494A20FFF7EAFB6E
:10115000019B002B03D16B494B20FFF7E3FB069B60
:101160001B7A002B03D008230593059BC4E0039B47
:101170001B68654A93420FD1029B9B78012B64D078
:10118000029B9B78002B60D0029B9B78022B5CD04B
:10119000029B9B78032B58D0039B1B685B4A9342AE
:1011A0000FD1029B9B78012B4FD0029B9B78002B89
:1011B0004BD0029B9B78022B47D0029B9B78032B42
:1011C00043D0039B1B68524A93420FD1029B9B78EA
:1011D000012B3AD0029B9B78002B36D0029B9B7848
:1011E000022B32D0029B9B78032B2ED0039B1B68D3
:1011F000484A93420FD1029B9B78012B25D0029B3A
:101200009B78002B21D0029B9B78022B1DD0029B48
:101210009B78032B19D0039B1B683F4A93420FD145
:10122000029B9B78012B10D0029B9B78002B0CD04B
:10123000029B9B78022B08D0029B9B78032B04D047
:1012400030495F20FFF76EFB00E000BF069B019A6C
:101250001A60029B5A68069B5A6000238DF81F3063
:1012600010E0039B1C689DF81F301846FFF746FFEF
:10127000034619462046FFF789FE9DF81F300133CB
:101280008DF81F30039B5B799DF81F209A42E8D3AD
:10129000039B1B681846FFF735FE03461A46029B60
:1012A000DB7819461046FFF735FE039B1B6818468E
:1012B000FFF728FE03461846FFF74CFE039B1A680B
:1012C000029B5B7819461046FFF7C8FE039B1A681D
:1012D000029B9B7819461046FFF7D5FE039B1A68C0
:1012E000029B1B7819461046FFF7E2FE069B01227F
:1012F0001A7200230593059B184608B010BD00BF65
:101300007C00002058220000008000400090004037
:1013100000A0004000A0014000B0014000B583B033
:101320000190019B1B791946114A0B465B000B4447
:101330009B00134408331B78012B03D00D498F20E9
:10134000FFF7F0FA019B1B6800211846FFF710FE1B
:10135000019B1B791946064A0B465B000B449B0018
:101360001344083302221A7000BF03B05DF804FB77
:101370007C0000205822000000B583B00190019B42
:101380001B7919460B4A0B465B000B449B00134428
:1013900008331B78002B03D10749A520FFF7C2FAB9
:1013A000019B1B6800211846FFF7E2FD00BF03B058
:1013B0005DF804FB7C0000205822000000B583B0DB
:1013C0000190019B1B7919460B4A0B465B000B44AD
:1013D0009B00134408331B78002B03D10749AC2032
:1013E000FFF7A0FA019B1B6804211846FFF7C0FD18
:1013F00000BF03B05DF804FB7C0000205822000011
:1014000000B583B00190019B1B7919460B4A0B462E
:101410005B000B449B00134408331B78002B03D163
:101420000749B320FFF77EFA019B1B680C21184681
:10143000FFF79EFD00BF03B05DF804FB7C000020B9
:101440005822000010B586B0039001921A460B4650
:101450008DF80B3013468DF80A309DF80B30184686
:10146000FFF756FE05909DF80A30002B12D0039B23
:101470001C689DF80B301846FFF740FE03461946DE
:101480002046FFF783FD039B1B6805991846FFF76D
:10149000C1FD05E0039B1B6805991846FFF7C4FDD5
:1014A000039B1B689DF80B10019A1846FFF715FE69
:1014B00000BF06B010BD00B585B0039001921A467A
:1014C0000B468DF80B301346ADF80830039B1868B7
:1014D0009DF80B304FF480729A409DF80B3001213B
:1014E00001FA03F313431946FFF785FD039B1B68BD
:1014F000BDF8082011461846FFF76FFD9DF818301B
:101500009DF80B10019A0398FFF79CFF00BF05B0F0
:101510005DF804FB00B587B00390029113468DF887
:10152000073000238DF8173030E09DF8173018464B
:10153000FFF7E4FD0346ADF814309DF81730184668
:10154000FFF7E6FD0490BDF8143019460398FFF745
:1015500032FD0346002B14D004990398FFF76EFD6B
:101560000346002B0DD0BDF8143019460398FFF741
:101570000DFD029B1B68029A5168BDF814201046AD
:1015800098479DF8173001338DF817309DF81720D4
:101590009DF807309A42C8D300BF00BF07B05DF87E
:1015A00004FB000008B5042202490348FFF7B2FF1C
:1015B00000BF08BD7C0000200090004000B585B051
:1015C0000190019B002B0AD0074B43F001030393CA
:1015D000019B9B010293039B0298984700E000BF88
:1015E00005B05DF804FB00BF5023000000B583B0D8
:1015F0000190019B002B0AD04FF47A70FFF7DEFFB9
:10160000019B013B0193019B002BF5D100E000BF42
:1016100003B05DF804FB00B585B003900291019220
:10162000FFF70AF84FF47A70FFF7E0FF0020FFF7AA
:1016300017F80120FFF714F8F4E7000000B585B0B3
:1016400001900B468DF803300198FFF709F80E4B17
:1016500028221A600D4B0A221A609DF8030000230D
:101660004CF250320A49FFF7C7F80390039B0293EC
:10167000029B002B04D0074A68210298FFF753F819
:1016800000BF05B05DF804FB880000208C0000203E
:1016900001170000D022000008B50E4B1B78DBB20A
:1016A000002B02D0012B05D009E000210020FFF71C
:1016B000C5FF0DE001210120FFF7C0FF08E0054B49
:1016C0001B78DBB2044A7B211846FFF72CF800BFD9
:1016D00000BF08BD90000020D022000000B583B0FC
:1016E00003468DF80730054A9DF807301370FFF761
:1016F000D3FF00BF03B05DF804FB00BF90000020E3
:1017000000B587B00190394B1B78DBB2002B02D0BB
:10171000012B2BD05AE0364B1B68013B344A136037
:10172000002B1FD0334B1B68013B324A1360002B48
:1017300005D1304B0A221A600020FEF791FF0023EA
:101740004CF250322C490020FFF756F80590059BCB
:101750000393039B002B42D0284A9F210398FEF756
:10176000E2FF3CE00120FFF7B9FF38E0204B1B68A7
:10177000013B1F4A1360002B0DD01E4B1B68013B21
:101780001C4A1360002B2CD11A4B0A221A6001202C
:10179000FEF766FF25E00020FEF71AFF0120FEF7A6
:1017A00017FFFFF79FF80590059B0493049B002B00
:1017B00004D0124AB6210498FEF7B5FF4FF47A70B0
:1017C000FFF714FF0020FFF789FF0AE0074B1B78A3
:1017D000DBB20A4ABF211846FEF7A5FF02E000BFB0
:1017E00000E000BF00BF07B05DF804FB90000020E0
:1017F000880000208C00002001170000D02200008B
:1018000020BF40BF20BF00BF7047000000B583B0BD
:10181000FEF7BEFF0190019B0093009B002B04D0BC
:101820000B4AD7210098FEF77EFF0120FEF766FFE6
:101830000020FEF7CDFE0120FEF7CAFE4FF47A70BD
:10184000FFF7D4FE0020FFF749FFFFF7D9FFFCE7C1
:10185000D0220000BFF34F8F00BF064BDB6803F4BC
:10186000E0620449044B1343CB60BFF34F8F00BFCA
:1018700000BFFDE700ED00E00400FA0582B01A4B5E
:101880001B68B3F1FF3F0AD1184B1B68DBB2019311
:10189000174B1B681B0903F00F03009305E0124B65
:1018A0001B680193134B1B680093019B062B17D1F8
:1018B000009B033B032B13D801A252F823F000BF77
:1018C000D1180000D5180000D9180000DD1800005C
:1018D000012306E0012304E0012302E0012300E0EC
:1018E0000023184602B0704730010010E00F00F0EE
:1018F000E80F00F03401001082B0144B1B68DBB21B
:101900000193134B1B681B0903F00F030093019B0A
:10191000062B17D1009B033B032B13D801A252F8CF
:1019200023F000BF35190000391900003D190000EF
:1019300041190000012306E0002304E0002302E037
:10194000002300E00023184602B07047E00F00F0CB
:10195000E80F00F082B01A4B1B68B3F1FF3F0AD1C9
:10196000184B1B68DBB20193174B1B681B0903F074
:101970000F03009305E0124B1B680193134B1B6888
:101980000093019B062B17D1009B033B032B13D81D
:1019900001A252F823F000BFA9190000AD19000000
:1019A000B1190000B5190000012306E0012304E08D
:1019B000012302E0012300E00023184602B0704733
:1019C00030010010E00F00F0E80F00F034010010CB
:1019D00082B0144B1B68DBB20193134B1B681B09CD
:1019E00003F00F030093019B062B17D1009B033BD1
:1019F000032B13D801A252F823F000BF0D1A0000E8
:101A0000111A0000151A0000191A0000012306E03F
:101A1000002304E0002302E0002300E00023184636
:101A200002B07047E00F00F0E80F00F082B01A4BF0
:101A30001B68B3F1FF3F0AD1184B1B68DBB201935F
:101A4000174B1B681B0903F00F03009305E0124BB3
:101A50001B680193134B1B680093019B062B17D146
:101A6000009B033B032B13D801A252F823F000BFC5
:101A7000811A0000851A0000891A00008D1A0000E2
:101A8000012306E0012304E0012302E0012300E03A
:101A90000023184602B0704730010010E00F00F03C
:101AA000E80F00F03401001082B0144B1B68DBB269
:101AB0000193134B1B681B0903F00F030093019B59
:101AC000062B17D1009B033B032B13D801A252F81E
:101AD00023F000BFE51A0000E91A0000ED1A00002B
:101AE000F11A0000012306E0002304E0002302E0D5
:101AF000002300E00023184602B07047E00F00F01A
:101B0000E80F00F082B0144B1B68DBB20193134B5B
:101B10001B681B0903F00F030093019B062B17D1D1
:101B2000009B033B032B13D801A252F823F000BF04
:101B3000411B0000451B0000491B00004D1B00001D
:101B4000012306E0002304E0002302E0002300E07C
:101B50000023184602B07047E00F00F0E80F00F0D5
:101B600082B01A4B1B68B3F1FF3F0AD1184B1B68B8
:101B7000DBB20193174B1B681B0903F00F030093A3
:101B800005E0124B1B680193134B1B680093019BEC
:101B9000062B17D1009B033B032B13D801A252F84D
:101BA00023F000BFB51B0000B91B0000BD1B0000E7
:101BB000C11B0000002306E0002304E0012302E033
:101BC000012300E00023184602B0704730010010E6
:101BD000E00F00F0E80F00F03401001082B01A4B63
:101BE0001B68B3F1FF3F0AD1184B1B68DBB20193AE
:101BF000174B1B681B0903F00F03009305E0124B02
:101C00001B680193134B1B680093019B062B17D194
:101C1000009B033B032B13D801A252F823F000BF13
:101C2000311C0000351C0000391C00003D1C000068
:101C3000012306E0012304E0012302E0012300E088
:101C40000023184602B0704730010010E00F00F08A
:101C5000E80F00F03401001082B01A4B1B68B3F19A
:101C6000FF3F0AD1184B1B68DBB20193174B1B686F
:101C70001B0903F00F03009305E0124B1B6801934F
:101C8000134B1B680093019B062B17D1009B033B52
:101C9000032B13D801A252F823F000BFAD1C0000A3
:101CA000B11C0000B51C0000B91C0000012306E0B7
:101CB000012304E0012302E0012300E00023184691
:101CC00002B0704730010010E00F00F0E80F00F0A4
:101CD0003401001082B0124B1B680193114B1B683A
:101CE0000093019B062B17D1009B033B032B13D8BA
:101CF00001A252F823F000BF091D00000D1D0000D5
:101D0000111D0000151D0000002306E0002304E063
:101D1000002302E0012300E00023184602B07047D0
:101D20003001001034010010024B034A1A6000BF5A
:101D3000704700BF000000200090D00308B5FFF7F7
:101D40009DFD0346002B06D0A04B1B681B0AA04A32
:101D500003F01F031360FFF7CFFD0346002B02D0F3
:101D60009C4B9D4A1A60FFF7F5FD0346002B06D0F9
:101D70009A4B1B685B0B9A4A03F007031360FFF74B
:101D800027FE0346002B05D0964BDB68954A23F0CF
:101D90008073D360FFF74AFE0346002B0ED04FF04E
:101DA00080430022C3F80C214FF080430022C3F887
:101DB00010214FF080430022C3F83825FFF774FE4E
:101DC0000346002B02D0884B03221A60FFF79AFECD
:101DD0000346002B0BD0854B05221A60844B012251
:101DE0001A60844B00221A60834B3F221A60FFF76F
:101DF000B7FE0346002B76D04FF080537F4AD3F8CE
:101E00000434C2F820354FF080537C4AD3F80834AC
:101E1000C2F824354FF08053784AD3F80C34C2F816
:101E200028354FF08053754AD3F81034C2F82C355A
:101E30004FF08053714AD3F81434C2F830354FF064
:101E400080536E4AD3F81834C2F834354FF08053BB
:101E50006A4AD3F81C34C2F840354FF08053674AC1
:101E6000D3F82034C2F844354FF08053634AD3F896
:101E70002434C2F848354FF08053604AD3F82834F0
:101E8000C2F84C354FF080535C4AD3F82C34C2F87A
:101E900050354FF08053594AD3F83034C2F8543596
:101EA0004FF08053554AD3F83434C2F860354FF0C0
:101EB0008053524AD3F83834C2F864354FF0805317
:101EC0004E4AD3F83C34C2F868354FF080534B4A41
:101ED000D3F84034C2F86C354FF08053474AD3F8FA
:101EE0004434C2F87035FFF779FE0346002B05D065
:101EF000434B1B68434A03F04F031360FFF7ACFEEC
:101F00000346002B0DD04FF08043D3F8003403F08C
:101F10000103002B05D04FF080436FF00102C3F89E
:101F20000024FFF7D7FE0346002B05D0364B1B6875
:101F3000354A43F480631360344BD3F88830334A16
:101F400043F47003C2F88830BFF34F8F00BFBFF374
:101F50006F8F00BF4FF01023D3F80032002B05DB4A
:101F60004FF01023D3F80432002B2BDA284B012238
:101F7000C3F8042500BF264BD3F80034002BFAD059
:101F80004FF010231522C3F8002200BF204BD3F8D6
:101F90000034002BFAD04FF010231522C3F804228E
:101FA00000BF1B4BD3F80034002BFAD0184B002293
:101FB000C3F8042500BF164BD3F80034002BFAD029
:101FC000FFF748FCFFF7B0FE00BF08BD2403001078
:101FD0004035014074C007400DF0ADBA4402001016
:101FE0003C050040F0ED00E0A00500401056004028
:101FF00088560040185600401456004000C000406B
:1020000058020010E40E00403C17004000ED00E0D4
:0420100000E00140AB
:102014002E2E2F2E2E2F2E2E2F2E2E2F2E2E2F2ED7
:102024002E2F6D6F64756C65732F6E7266782F68D2
:10203400616C2F6E72665F6770696F2E68000000B6
:10204400433A5C55736572735C6D696D6F72726946
:10205400735C446F63756D656E74735C53656E7306
:102064006F72735C4C616767696E67576561725C18
:102074004669726D776172655C6C616767696E67EA
:10208400776561722D5C6E5246355F53444B5F3108
:10209400375C636F6D706F6E656E74735C626F61D5
:1020A4007264735C626F617264732E63000000007B
:1020B400090A00000D0E0F100090004000040000FB
:1020C400433A5C55736572735C6D696D6F727269C6
:1020D400735C446F63756D656E74735C53656E7386
:1020E4006F72735C4C616767696E67576561725C98
:1020F4004669726D776172655C6C616767696E676A
:10210400776561722D5C6E5246355F53444B5F3187
:10211400375C636F6D706F6E656E74735C6C69624F
:102124007261726965735C73696D706C655F746903
:102134006D65725C6170705F73696D706C655F74FE
:10214400696D65722E6300002E2E2F2E2E2F2E2EDB
:102154002F2E2E2F2E2E2F2E2E2F696E7465677222
:102164006174696F6E2F6E7266782F6E7266785F17
:10217400676C75652E6800002E2E2F2E2E2F2E2EA6
:102184002F2E2E2F2E2E2F2E2E2F6D6F64756C65F5
:10219400732F6E7266782F68616C2F6E72665F673C
:1021A40070696F2E68000000433A5C557365727362
:1021B4005C6D696D6F727269735C446F63756D6594
:1021C4006E74735C53656E736F72735C4C61676796
:1021D400696E67576561725C4669726D7761726595
:1021E4005C6C616767696E67776561722D5C6E52BE
:1021F40046355F53444B5F31375C6D6F64756C6576
:10220400735C6E7266785C647269766572735C7313
:1022140072635C6E7266785F6770696F74652E6353
:10222400000000002E2E2F2E2E2F2E2E2F2E2E2F7E
:102234002E2E2F2E2E2F696E746567726174696F4E
:102244006E2F6E7266782F6E7266785F676C756536
:102254002E680000433A5C55736572735C6D696D5A
:102264006F727269735C446F63756D656E74735CD1
:1022740053656E736F72735C4C616767696E675701
:102284006561725C4669726D776172655C6C6167E9
:1022940067696E67776561722D5C6E5246355F5370
:1022A400444B5F31375C6D6F64756C65735C6E7243
:1022B40066785C647269766572735C7372635C6E73
:1022C4007266785F74696D65722E6300433A5C557B
:1022D400736572735C6D696D6F727269735C446F60
:1022E40063756D656E74735C53656E736F72735C46
:1022F4004C616767696E67576561725C4669726DA8
:10230400776172655C6C616767696E677765617236
:102314002D5C6E5246355F53444B5F31375C6578B4
:10232400616D706C65735C7065726970686572610B
:102334006C5C73696D706C655F74696D65725C6DFE
:1023440061696E2E63000000000000000338FDD8B0
:022354007047D0
:042358000090D0031E
:040000030000037581
:00000001FF
