:1000000000000120750300005D0300005F03000095
:1000100061030000630300006503000000000000AE
:100020000000000000000000000000006703000066
:1000300069030000000000006B0300006D03000076
:100040006F0300006F0300006F0300006F030000E8
:100050006F0300006F0300006F0300006F030000D8
:10006000F91E00006F0300006F0300006F03000023
:100070006F0300006F0300006F0300006F030000B8
:100080006F0300006F0300006F0300006F030000A8
:100090006F0300006F0300006F0300006F03000098
:1000A0006F0300006F0300006F0300006F03000088
:1000B0006F0300006F03000000000000000000005C
:1000C0006F0300006F0300006F0300006F03000068
:1000D0006F0300006F0300006F03000000000000CA
:1000E0000000000000000000000000000000000010
:1000F0000000000000000000000000000000000000
:1001000000000000000000000000000000000000EF
:1001100000000000000000000000000000000000DF
:1001200000000000000000000000000000000000CF
:1001300000000000000000000000000000000000BF
:1001400000000000000000000000000000000000AF
:10015000000000000000000000000000000000009F
:10016000000000000000000000000000000000008F
:10017000000000000000000000000000000000007F
:10018000000000000000000000000000000000006F
:10019000000000000000000000000000000000005F
:1001A000000000000000000000000000000000004F
:1001B000000000000000000000000000000000003F
:1001C000000000000000000000000000000000002F
:1001D000000000000000000000000000000000001F
:1001E000000000000000000000000000000000000F
:1001F00000000000000000000000000000000000FF
:10020000354936480A1A02D0072291438D463449AF
:1002100034480A1A06D00722914381F30988022242
:1002200082F3148830483149314A00F044F83148AB
:100230003149324A00F03FF831483249324A00F041
:100240003AF832483249334A00F035F832483349F7
:10025000334A00F030F833483349344A00F02BF881
:1002600033483449344A00F026F8344834490022EF
:1002700000F02CF833483449002200F027F83348C6
:100280003349091A082902DB002202604160314A21
:1002900090471F481F49884205D00268043003B4C4
:1002A000904703BCF7E700208646EC46002000217B
:1002B000294A9047FEE7884207D0521A05D00378B2
:1002C00001300B700131013AF9D17047884202D0F8
:1002D00002700130FAE770470000012000E00020C2
:1002E00000000120000001207C32000000000020FE
:1002F00008000020D0030000D0030000DA2800002E
:100300007C320000000000200000002000290000D6
:100310000029000000290000002900000029000039
:100320000029000000290000002900007C320000A4
:10033000843200000800002008000020080000208F
:100340003005002030050020300500203005002059
:10035000302500209D03000051200000FEE7FEE74D
:10036000FEE7FEE7FEE7FEE7FEE7FEE7FEE7FEE765
:1003700000F002B8FFF7FCBF0F484FF007018843B9
:1003800085460E4880470E48016841F470010160BF
:10039000BFF34F8FBFF36F8FFFF732BF09480A4992
:1003A0000A4A884207D0521A05D0037801300B70F0
:1003B0000131013AF9D1704700000120B125000058
:1003C00088ED00E00029000000000020000000206F
:1003D00000B583B001900091019B1B681B680099D8
:1003E0000198984700BF03B05DF804FB00B583B0E7
:1003F0000190019B1B685B680198984700BF03B0A0
:100400005DF804FB00B583B00190019B1B689B68FD
:100410000198984700BF03B05DF804FB82B00190DB
:10042000019BDB6801225A7100BF02B0704782B0A5
:100430000190019BDB685B79184602B070470000B1
:10044000024A034BD31ADB0818467047EC28000019
:10045000DC28000084B00190009100238DF80F305B
:10046000019B1B7803F00403DBB2002B24D0019B1B
:100470001B78C3F30103DBB2012B02D0022B0CD09B
:1004800017E0009B1B68019A1288C2F38312D2B254
:1004900013449A1C009B1A600BE0009B1B68019A96
:1004A0005288C2F3891292B213449A1C009B1A60BC
:1004B00000BF01238DF80F309DF80F30184604B0AF
:1004C0007047000000B58BB00023ADF826303E48E1
:1004D00000F078FF3D4800F075FF3D4B9B680493AA
:1004E0003C4B1B680693049A069B134002339B0007
:1004F000374A13440433089304AB19460898FFF7AE
:10050000A9FF0346002B09D0049A069B134002332F
:100510009B002F4A134404330893EDE700BF0023E8
:10052000079311E0049B5A1C0492069A1340079A01
:10053000920001A90A44264902339B000B445B68E0
:100540001360079B01330793079B012BEAD99DF8A2
:100550000430C3F30103DBB2012B10D0022B1CD1FA
:10056000BDF80A30ADF82630BDF80630C3F3891364
:100570009BB203339A08049B1344049313E0BDF821
:100580000A30ADF82630BDF80430C3F38313DBB274
:100590001A46049B1344049305E00F494FF4C270BC
:1005A00000F083FE00BF094800F018FF0590059B8E
:1005B000002B02D0049B064A9360BDF826301846F3
:1005C0000BB05DF804FB00BFF0040020EC04002039
:1005D000D8000020000000200429000000B585B0EC
:1005E0000021074800F077FE0390039B0293029BD3
:1005F00083F310030193019B184605B05DF804FBDB
:10060000F404002000B589B0039002910192009398
:10061000039B1B0C0793FFF7E1FF0690FFF710FF0A
:100620000246079B934204D3214940F2A91000F0EF
:100630003CFE069B1904009B5A1C0A9B1340079A18
:100640000A431C4902339B000B445A60009A0A9BE0
:10065000134002339B00174A134404330593039B52
:1006600003F00703D9B2059A137861F3C503137039
:10067000019B03F00F03D9B2059A138861F3891324
:100680001380029BC3F31501059A136861F39F233E
:100690001360059A1378012161F301031370059A21
:1006A00013786FF38203137000BF09B05DF804FB89
:1006B00004290000D800002000B58BB003900291FF
:1006C00013468DF80730039B0233089301238DF8FE
:1006D0001F30002000F0A2FD3E4B5A68029B1A60BA
:1006E0003D4B1A683B4B99683A4B5B68CB1A1344F5
:1006F0000133099314E00121384800F033FEFFF77D
:10070000E1FE05900599354800F02CFE324B1A6841
:10071000304B99682F4B5B68CB1A13440133099314
:10072000089A099B9A42E6D89DF81F30002B48D0C2
:10073000002304939DF80730002B17D09DF810304C
:10074000012262F301038DF810309DF8103043F060
:1007500004038DF81030039B03F00F03DAB2BDF8E9
:10076000103062F38913ADF8103016E09DF81030A8
:10077000022262F301038DF810309DF8103043F02F
:1007800004038DF81030039BC3F309039AB2BDF83C
:10079000123062F38F13ADF812300E4B5A680E4BC5
:1007A0001B68134002339B000A4A13440433069328
:1007B000049A069B1A60074B5A68089B1344054A23
:1007C0005360002000F03EFD9DF81F3018460BB02E
:1007D0005DF804FBD800002000000020F404002095
:1007E00000B58BB005900491039202931F4B1B68D8
:1007F000079306AB012219460298FFF75DFF0346F7
:10080000002B24D0069B023309930023089311E0A8
:10081000089B9B00039A1A44099B591C099107994C
:100820000B401268124902339B000B445A60089B2C
:1008300001330893089A029B9A42E9D3069A079BD0
:1008400000931346029A04990598FFF7DBFE084BC4
:100850001B78002B05D000BF00F068F80346002B82
:10086000FAD100BF0BB05DF804FB00BF0000002010
:10087000D800002000B583B0019000910023002231
:1008800000990198FFF7ACFF00BF03B05DF804FBCF
:1008900000B587B0039002910192019B059305AAD0
:1008A000012302990398FFF79BFF00BF07B05DF893
:1008B00004FB00B587B00390029101920093019B65
:1008C0000493009B059304AA022302990398FFF75F
:1008D00087FF00BF07B05DF804FB00B58BB0039045
:1008E000029101920093019B0593009B06930C9B40
:1008F00007930D9B08930E9B099305AA0523029964
:100900000398FFF76DFF00BF0BB05DF804FB00001C
:10091000054B9A68044B5B689A420CBF0123002385
:10092000DBB21846704700BFD800002000B599B070
:10093000FFF7EEFF0346002B01D00023B9E19B4BEC
:100940000022C3F81824BFF34F8F00BF974B9B685A
:100950000493974B1B681093049A109B1340023327
:100960009B00924A134404331193002317930023EE
:10097000169300230F9304AB19461198FFF76AFDF5
:100980000346002B19D0894BD3F81834002B14D10F
:10099000864B5A68049B9A4205D8844B5B68834A0D
:1009A0009360002385E1049A109B134002339B005F
:1009B0007E4A134404331193DDE70023159311E0BD
:1009C000049B5A1C0492109A1340159A920001A994
:1009D0000A44764902339B000B445B681360159B05
:1009E00001331593159B012BEAD99DF8043003F0D0
:1009F0000303DBB2022B40F09C80BDF80630C3F34A
:100A000089139BB20D93BDF80630C3F389139BB2D3
:100A1000502B28BF50239BB20C930C9BC3F30903AC
:100A20009AB2BDF8063062F38F13ADF806300C9B16
:100A300008330B939DF80430C3F3C203DBB20F936A
:100A40000B995C4800F07AFD1790179B002B00F083
:100A5000D380179800F003FE01A9169B082217986F
:100A600000F0B8FE169B08331693049BDA43109BE4
:100A7000134001339B000A930C9A0A9B9A4242D975
:100A80000A9B002B08D0049A109B134002339B0052
:100A9000464A1344043300E0474B08930A9B002B5B
:100AA00002D00A9BDBB201E00C9BDBB28DF81F3059
:100AB0000A9B002B01D0404B00E0002306930A9BC9
:100AC000002B06D00C9BDAB20A9BDBB2D31ADBB246
:100AD00000E000238DF817309DF81F20169B089921
:100AE000179800F077FE9DF81F30169A134416935E
:100AF000069B002B16D09DF81720169B0699179879
:100B000000F068FE0EE0049A109B134002339B0035
:100B1000264A134404330993169B0C9A0999179893
:100B200000F058FE0D9B03339A08049B1344049372
:100B300062E09DF8043003F00303DBB2012B5BD1CC
:100B4000BDF80430C3F38313DBB2062B28BF0623A2
:100B5000DAB2BDF8043062F38913ADF80430BDF8A1
:100B60000430C3F38313DBB202330E939DF80430D9
:100B7000C3F3C203DBB20F930E9B9B0019460D48D3
:100B800000F0DCFC1790179B002B35D0179800F075
:100B900066FD01A9169B0822179800F01BFE169B04
:100BA00008331693002315931DE000BFD8000020E2
:100BB00000000020EC280000E4000020049B5A1CE8
:100BC0000492109A134002339B003C4A1344191DAF
:100BD000169B0422179800F0FDFD169B0433169314
:100BE000159B01331593BDF80430C3F38313DBB2B7
:100BF0001A46159B9342E1D3179B002B39D02F4BFC
:100C0000D3F8103414932D4BD3F81834002B1BD089
:100C1000179800F033FD46E000238DF84F3014980C
:100C2000FFF705FC0346002B02D001238DF84F305F
:100C30009DF84F30002B03D017991498FFF7C8FB8D
:100C4000149BDB681B681493149B002BE4D117984A
:100C500000F014FD002000F0E1FA184BD3F818342E
:100C6000002B02D1049B154A9360002000F0EAFAA1
:100C700019E0124BD3F81034129306E01298FFF7E4
:100C8000C1FB129BDB681B681293129B002BF5D1F2
:100C90000B4A0C4BD31ADB081B0443F002030A492E
:100CA0001846FFF7E7FDFFF733FE034683F0010325
:100CB000DBB2184619B05DF804FB00BFD800002075
:100CC000E4280000DC2800008829000000B583B07B
:100CD0000C4BD3F8103401930A4B01221A7009E02F
:100CE0000198FFF79BFB0198FFF780FB019BDB68F6
:100CF0001B680193019B002BF2D100BF00BF03B022
:100D00005DF804FBD800002000B583B00190019B82
:100D10001B68184600F0D7F80346002B04D105499C
:100D20004FF4F67000F0C1FA4FF0A043184603B03C
:100D30005DF804FB9C29000000B585B001900846D1
:100D400011461A4603468DF803300B468DF80230E3
:100D500013468DF8013001AB1846FFF7D5FF03901D
:100D60009DF803209DF802305B001A439DF8013086
:100D70009B001A439DF818301B0242EA03019DF8BC
:100D80001C301B04019A1943039B02F5E07243F8DF
:100D9000221000BF05B05DF804FB00B585B00390DC
:100DA00000230193002300930023012201210398D3
:100DB000FFF7C2FF00BF05B05DF804FB00B585B0CA
:100DC00003900B468DF80B309DF80B3000220192FA
:100DD00000220092002200210398FFF7ADFF00BF20
:100DE00005B05DF804FB00B585B0019001AB184675
:100DF000FFF78AFF0390019B012202FA03F31946D1
:100E0000039800F04CF800BF05B05DF804FB00B596
:100E100085B0019001AB1846FFF776FF0390019B68
:100E2000012202FA03F31946039800F042F800BFCA
:100E300005B05DF804FB00B585B0019001AB184624
:100E4000FFF762FF0390039BD3F804350293029BE4
:100E5000DA43019B012101FA03F31A40039BC3F813
:100E60000825019B01229A40029B1A40039BC3F86C
:100E70000C2500BF05B05DF804FB00B583B0019000
:100E80000091009B002B03D10198FFF7C0FF02E007
:100E90000198FFF7A8FF00BF03B05DF804FB82B024
:100EA00001900091019B009AC3F8082500BF02B091
:100EB000704782B001900091019B009AC3F80C2505
:100EC00000BF02B0704784B00190019B5B090293A0
:100ED00000230393029B002B03D14FF0FF330393B6
:100EE00000BF019B03F01F030193039A019B22FAA9
:100EF00003F303F00103002B14BF01230023DBB233
:100F0000184604B07047000000B583B00190019B03
:100F1000032B03D90749472000F0C7F9064A019B74
:100F200013441B7801211846FFF7A7FF00BF03B049
:100F30005DF804FBCC2900003C2A000000B583B01A
:100F40000023019305E00198FFF7DEFF019B0133C9
:100F50000193019B032BF6D900BF00BF03B05DF8DE
:100F600004FB000000B583B00190019B032B03D963
:100F700007495F2000F099F9064A019B13441B784A
:100F80001846FFF758FF00BF03B05DF804FB00BF31
:100F9000CC2900003C2A000000B583B00023019357
:100FA00009E0094A019B13441B781846FFF7F5FE38
:100FB000019B01330193019B032BF2D9FFF7BEFF85
:100FC00000BF03B05DF804FB3C2A000000B583B00D
:100FD000002301930AE0094A019B13441B78032173
:100FE0001846FFF7EBFE019B01330193019B032B96
:100FF000F1D900BF00BF03B05DF804FB402A000038
:1010000000B583B00190019B03F00103002B01D0D8
:10101000FFF7C2FF019B03F00203002B01D0FFF793
:10102000D5FF00BF03B05DF804FB000086B003905D
:101030000291019201238DF817309DF81730204A54
:10104000039B13601E4A029B53601D4A019B9360E1
:10105000039B44F20102934212D0039B44F202022A
:10106000934220D1019B164AD360154BDB681B6865
:10107000134A9361124BDB685B68114AD36112E03B
:10108000019B0F4A13610E4B1B699B680C4A53610D
:101090000B4B1B691B680A4A9361094B1B695B6810
:1010A000074AD36100BF72B600BF00BF9DF817307A
:1010B000DBB2002BFAD162B600BF00BF06B07047AA
:1010C000F804002000B583B002900091019244F230
:1010D000010071466A4600F003F803B000BD00BF8E
:1010E00030B58BB007900691059272B600BFFFF73E
:1010F000EDFD00BFFFF71AFC0346002BFAD1079B5A
:1011000044F20102934216D0079B44F2020293423A
:101110003ED1059B09932C4A2C4BD31ADB081B04A8
:1011200043F00100099B5B681A46099B1B6828492C
:10113000FFF7BFFB39E0059B0893234A234BD31AE3
:10114000DB081B0443F00104089B9D68089B9B6817
:10115000184600F05DFB03461846089B5B6819467D
:10116000089B1B68069A02920193009103462A4647
:1011700018492046FFF7B1FB134A144BD31ADB087A
:101180001B0443F0010314491846FFF773FB0CE0FE
:101190000D4A0E4BD31ADB081B0443F00103069AD9
:1011A0000E491846FFF774FB00BF0D4B1B6803F098
:1011B0000103002B00D000BE059A06990798FFF79F
:1011C00035FF00BF0BB030BDE4280000DC28000074
:1011D000442A0000602A0000882A00009C2A00009F
:1011E000F0ED00E072B600BF034B1B680133024A0A
:1011F000136000BF704700BF18050020064B1B6836
:10120000013B054A1360044B1B68002B01D162B6F9
:1012100000BF00BF704700BF1805002000B583B0B5
:10122000019000F025F80346012B03D00449432028
:1012300000F03BF8FFF7D6FF00BF03B05DF804FBFA
:10124000B42A000000B583B003468DF8073000F0E3
:101250000FF80346012B03D00449512000F025F874
:10126000FFF7CCFF00BF03B05DF804FBB42A000019
:1012700084B0EFF305830193019BC3F30803039349
:10128000039B002B0DD1EFF314830093009B02937B
:10129000029B03F00103002B0CBF01230023DBB2F0
:1012A00000E00123184604B0704700B585B003463E
:1012B0000091ADF80630BDF806300293009B039311
:1012C00002AB1A46002144F20200FFF709FF00BFFB
:1012D00005B05DF804FB10B487B001900091019B4C
:1012E000009A53E8004F104643E8000191F0000FC8
:1012F000F7D1059404900391059B184607B05DF85B
:10130000044B704710B487B001900091019B009A84
:1013100053E8004F44EA020043E8000191F0000F57
:10132000F6D1059404900391049B184607B05DF82C
:10133000044B704710B487B001900091019B009A54
:1013400053E8004F04EA020043E8000191F0000F67
:10135000F6D1059404900391059B184607B05DF8FB
:10136000044B704710B487B001900091019B009A24
:1013700053E8004F04EB020043E8000191F0000F36
:10138000F6D1059404900391049B184607B05DF8CC
:10139000044B704710B487B001900091019B009AF4
:1013A00053E8004FA4EB020043E8000191F0000F66
:1013B000F6D1059404900391049B184607B05DF89C
:1013C000044B704700B583B0019001210198FFF7ED
:1013D00099FF0346184603B05DF804FB00B583B0DF
:1013E000019000210198FFF7A5FF0346184603B0BE
:1013F0005DF804FB00B583B001900B468DF8033017
:10140000019B002B03D10849E820FFF74EFF019B09
:10141000DA689DF803300199098A01FB03F313444C
:10142000184603B05DF804FB342B000000B583B010
:1014300001900091019B002B03D10849F520FFF793
:1014400034FF009B019AD2689B1A019A128AB3FB5F
:10145000F2F3DBB2184603B05DF804FB342B000056
:1014600000B585B00190019B002B04D11C494FF4BD
:101470009270FFF71AFF002303930020FFF7CEFEC0
:10148000019B1B681A68019B5B689A421FD9019BEC
:101490001B681A68013A1A601B681B781946019884
:1014A000FFF7A8FF0390019B9A68019B1B681B68CC
:1014B000D31A8DF80B30019B1B681B799DF80B200C
:1014C0009A4204D9019B1B689DF80B201A710020D9
:1014D000FFF7B8FE039B184605B05DF804FB00BF9C
:1014E000342B000010B584B001900091019B002BBB
:1014F00004D1114940F24710FFF7D7FE009B002BA3
:1015000004D10D494FF4A470FFF7CFFE009B039365
:101510000020FFF783FE019B1B681C68621C1A6099
:1015200003990198FFF782FF034623700020FFF71D
:1015300089FE00BF04B010BD342B000000B58BB095
:1015400001900091019B1B8A043B0793009A079B23
:101550001344DA1C079BB2FBF3F38DF81B300198A0
:10156000FFF77EFF0590059B002B01D1002338E09B
:10157000059B00221A71059B01225A71079B9AB2A2
:10158000059BDA80059B09939DF81B30013B049372
:10159000099B019A1A60002308931DE00198FFF748
:1015A0005FFF0390039B002B0ED0059B5B790133FB
:1015B000DAB2059B5A71099B039A1A60039B019A40
:1015C0001A60039B099304E0059800F00EF80023CD
:1015D00007E0089B01330893089A049B9A42DDD3E5
:1015E000059B18460BB05DF804FB00B58BB001906D
:1015F000019B0793079B5B798DF81B30019B089338
:101600009DF81B30013B05930023099305E0089BDF
:101610001B680893099B01330993099A059B9A4219
:10162000F5D3089B1B680493019B0893002309933F
:101630000BE0089B1B68039308990498FFF752FF7F
:10164000039B0893099B013309939DF81B30099A6A
:101650009A42EED300BF00BF0BB05DF804FB00B5AB
:1016600085B00190019B0393039B0433012118462D
:10167000FFF778FE00BF05B05DF804FB00B587B04A
:101680000190019B0593059B043301211846FFF748
:1016900081FE0346039303AB0493049B1B78002B4A
:1016A00002D10198FFF7A1FF00BF07B05DF804FB6E
:1016B00000B591B00390029101920093039B002B1F
:1016C00003D14349B620FFF7F0FD039B0993039B29
:1016D0000F93099BDB881A46099B5B7902FB03F396
:1016E000043B0893009A089B9A4203D33849C420CC
:1016F000FFF7DBFD099BDB880793009B1A1D079B07
:10170000B2FBF3F30E93009B0433079AB3FBF2F2A0
:10171000079901FB02F29B1A0D93019B1A68009B2B
:101720001344089A9A4203D2089A009BD31A01E004
:10173000019B1B680C93019B0C9A1A6005E00F9BA0
:101740001B680F930E9B013B0E930E9B002BF6D153
:1017500000230B93079A0D9BD31A0A930A9A0C9BAA
:10176000934228BF13460A932AE0029A0B9B134424
:1017700006930F9A0D9B1344043305939DF848304C
:10178000002B05D00A9A0599069801F07DF804E02F
:101790000A9A0699059801F077F800230D930F9B9C
:1017A0001B680F930C9A0A9BD31A0C930B9A0A9BF3
:1017B00013440B93079A0C9B934228BF13460A933A
:1017C0000C9B002BD1D100BF00BF11B05DF804FB12
:1017D000B02B000000B589B00590049103920293EC
:1017E000039B079307AA00230093029B0499059883
:1017F000FFF75EFF079B039A9A4203D00349F62046
:10180000FFF753FD00BF09B05DF804FBB02B0000EB
:1018100000B585B00190019800F00EF80390039B8D
:10182000002B01D0039B00E0024B184605B05DF889
:1018300004FB00BF2C2C000086B00190164B0593D2
:10184000164B04931FE0049A059BD31ADB10DA0FA2
:1018500013445B10DB00059A13440393039B1B683E
:101860000293029A019B9A4202D9039B04930AE0D5
:10187000029A019B9A4203D2039B0833059302E02C
:10188000039B5B6804E0059A049B9A42DBD3002328
:10189000184606B0704700BF003000001831000045
:1018A00082B003468DF807309DF90730002B0CDB22
:1018B0009DF8073003F01F0205499DF907305B09C9
:1018C000012000FA02F241F8232000BF02B0704765
:1018D00000E100E082B0034600918DF807309DF9E9
:1018E0000730002B0ADB009BDAB20C499DF9073068
:1018F0005201D2B20B4483F800230BE0009BDAB212
:1019000007499DF8073003F00F03043B5201D2B2A0
:101910000B441A7600BF02B0704700BF00E100E040
:1019200000ED00E082B00190019B1B0B5BB21846FA
:1019300002B0704700B583B003460A468DF8073001
:1019400013468DF806309DF80630072B03D9084959
:101950006B20FFF7AAFC9DF806209DF90730114681
:101960001846FFF7B7FF00BF03B05DF804FB00BFE8
:101970001831000000B583B003468DF807309DF99B
:1019800007301846FFF78CFF00BF03B05DF804FB7B
:1019900082B001900B468DF803309DF80330019A18
:1019A000134401221A6000BF02B0704784B0019056
:1019B0000B46ADF80230BDF80230019A1344002204
:1019C0001A60BDF80230019A13441B680393039B0D
:1019D00000BF04B0704782B001900B46ADF80230F2
:1019E000BDF80230019A13441B68002B14BF012379
:1019F0000023DBB2184602B0704782B0019000911C
:101A0000019BD3F80022009B1A43019BC3F80022DC
:101A100000BF02B0704782B001900091019BD3F8E3
:101A20000022009BDB431A40019BC3F8002200BF49
:101A300002B0704782B001900091019B009AC3F8F8
:101A4000042300BF02B0704782B001900091019B57
:101A5000009AC3F8082300BF02B0704782B001901B
:101A60000091019BD3F80423009B1340002B14BF6B
:101A700001230023DBB2184602B0704782B0019008
:101A80000B468DF80330019BD3F8043523F0030295
:101A90009DF8033003F003031A43019BC3F80425A8
:101AA00000BF02B0704782B001900B468DF8033042
:101AB000019BD3F8083523F003029DF8033003F0AF
:101AC00003031A43019BC3F8082500BF02B0704707
:101AD00082B001900B468DF80330019BD3F810358E
:101AE00023F00F029DF8033003F00F031A43019B0C
:101AF000C3F8102500BF02B0704784B003900B46B6
:101B000001928DF80B309DF80B20039B02F5A87213
:101B1000019943F8221000BF04B0704782B00190D1
:101B2000019B9B0003F5A0739BB2184602B070475F
:101B300082B001904FF48032019B02FA03F3184601
:101B400002B0704710B588B0039002910192039BD8
:101B50001B791A4613465B0013449B00704A1344DA
:101B60000793029B002B03D16E494A20FFF79DFB90
:101B7000019B002B03D16B494B20FFF796FB079B82
:101B80001B7A002B03D008230593059BC4E0039B1D
:101B90001B68654A93420FD1029B9B78012B64D04E
:101BA000029B9B78002B60D0029B9B78022B5CD021
:101BB000029B9B78032B58D0039B1B685B4A934284
:101BC0000FD1029B9B78012B4FD0029B9B78002B5F
:101BD0004BD0029B9B78022B47D0029B9B78032B18
:101BE00043D0039B1B68524A93420FD1029B9B78C0
:101BF000012B3AD0029B9B78002B36D0029B9B781E
:101C0000022B32D0029B9B78032B2ED0039B1B68A8
:101C1000484A93420FD1029B9B78012B25D0029B0F
:101C20009B78002B21D0029B9B78022B1DD0029B1E
:101C30009B78032B19D0039B1B683F4A93420FD11B
:101C4000029B9B78012B10D0029B9B78002B0CD021
:101C5000029B9B78022B08D0029B9B78032B04D01D
:101C600030495F20FFF721FB00E000BF079B019A8E
:101C70001A60029B5A68079B5A6000238DF81B303C
:101C800010E0039B1C689DF81B301846FFF746FFC9
:101C9000034619462046FFF789FE9DF81B300133A5
:101CA0008DF81B30039B5B799DF81B209A42E8D38B
:101CB000039B1B681846FFF735FE03461A46029B36
:101CC000DB7819461046FFF735FE039B1B68184664
:101CD000FFF728FE03461846FFF74CFE039B1A68E1
:101CE000029B5B7819461046FFF7C8FE039B1A68F3
:101CF000029B9B7819461046FFF7D5FE039B1A6896
:101D0000029B1B7819461046FFF7E2FE079B012253
:101D10001A7200230593059B184608B010BD00BF3A
:101D20001C05002050310000008000400090004061
:101D300000A0004000A0014000B0014000B583B009
:101D40000190019B1B791946114A0B465B000B441D
:101D50009B00134408331B78012B03D00D498F20BF
:101D6000FFF7A3FA019B1B6800211846FFF710FE3E
:101D7000019B1B791946064A0B465B000B449B00EE
:101D80001344083302221A7000BF03B05DF804FB4D
:101D90001C0500205031000010B586B00390019260
:101DA0001A460B468DF80B3013468DF80A309DF815
:101DB0000B301846FFF7BCFE05909DF80A30002B4B
:101DC00012D0039B1C689DF80B301846FFF7A6FE47
:101DD000034619462046FFF7E9FD039B1B6805995A
:101DE0001846FFF727FE05E0039B1B680599184678
:101DF000FFF72AFE039B1B689DF80B10019A1846FB
:101E0000FFF77BFE00BF06B010BD00B585B00390A4
:101E100001921A460B468DF80B301346ADF8083088
:101E2000039B18689DF80B304FF480729A409DF820
:101E30000B30012101FA03F313431946FFF7EBFDC1
:101E4000039B1B68BDF8082011461846FFF7D5FD17
:101E50009DF818309DF80B10019A0398FFF79CFF2E
:101E600000BF05B05DF804FB00B587B00390029198
:101E700013468DF8073000238DF8173030E09DF8B9
:101E800017301846FFF74AFE0346ADF814309DF8A8
:101E900017301846FFF74CFE0490BDF81430194671
:101EA0000398FFF798FD0346002B14D0049903987C
:101EB000FFF7D4FD0346002B0DD0BDF814301946B2
:101EC0000398FFF773FD029B1B68029A5168BDF8E7
:101ED0001420104698479DF8173001338DF81730BD
:101EE0009DF817209DF807309A42C8D300BF00BF65
:101EF00007B05DF804FB000008B50422024903485E
:101F0000FFF7B2FF00BF08BD1C05002000800040A5
:101F100082B00190019BD3F81035DBB2184602B0B5
:101F2000704700002DE9F04F87B001908DF8031045
:101F30009DF803100591019900200E460746304692
:101F400039464FF0000A4FF0000B4FEA411B4BEAB5
:101F5000D06B4FEA401A50465946821B61EB07038B
:101F60004FF000004FF00001990041EA927190009B
:101F700002460B4612EB060843EB07094FF000023E
:101F80004FF000034FEAC91343EA58634FEAC812FF
:101F90009046994642464B460599C1F12006A1F16B
:101FA000200022FA01F403FA06F6344323FA00F083
:101FB000044323FA01F5CDE90245DDE90223012BB3
:101FC00004D305494FF43170FFF76FF9029B1846AF
:101FD00007B0BDE8F08F00BFC831000000B583B086
:101FE00001900091019B1B681846FFF791FF034683
:101FF00019460098FFF796FF0346184603B05DF8B0
:1020000004FB000000B585B003460091ADF8063032
:102010000D4B1B685A1C0C490A6003F00303039321
:10202000BDF80630B3F5A07F09D10398FEF79AFFFB
:10203000064B1B8801339AB2044B1A8000E000BFA4
:1020400000BF05B05DF804FB2C050020280500202A
:1020500000B589B04FF4FA7307930023069301206B
:10206000FEF7CEFF144A02AB92E8030083E80300B8
:1020700002AB124A19461248FFF764FD0690069B10
:102080000593059B002B04D00E4A66210598FFF7A7
:1020900019F807990A48FFF7A1FF0490012300935C
:1020A0000123049A00210648FFF7AFFE0448FFF71A
:1020B00045FE30BFFDE700BF6C3200000520000088
:1020C00074320000F8310000BFF34F8F00BF064BA1
:1020D000DB6803F4E0620449044B1343CB60BFF3B5
:1020E0004F8F00BF00BFFDE700ED00E00400FA05E0
:1020F00082B01A4B1B68B3F1FF3F0AD1184B1B6823
:10210000DBB20193174B1B681B0903F00F0300930D
:1021100005E0124B1B680193134B1B680093019B56
:10212000062B17D1009B033B032B13D801A252F8B7
:1021300023F000BF45210000492100004D2100008F
:1021400051210000012306E0012304E0012302E005
:10215000012300E00023184602B070473001001050
:10216000E00F00F0E80F00F03401001082B0144BD3
:102170001B68DBB20193134B1B681B0903F00F03B1
:102180000093019B062B17D1009B033B032B13D815
:1021900001A252F823F000BFA9210000AD210000E8
:1021A000B1210000B5210000012306E0002304E076
:1021B000002302E0002300E00023184602B070472D
:1021C000E00F00F0E80F00F082B01A4B1B68B3F18B
:1021D000FF3F0AD1184B1B68DBB20193174B1B68FA
:1021E0001B0903F00F03009305E0124B1B680193DA
:1021F000134B1B680093019B062B17D1009B033BDD
:10220000032B13D801A252F823F000BF1D220000B7
:10221000212200002522000029220000012306E0DF
:10222000012304E0012302E0012300E0002318461B
:1022300002B0704730010010E00F00F0E80F00F02E
:102240003401001082B0144B1B68DBB20193134BB6
:102250001B681B0903F00F030093019B062B17D18A
:10226000009B033B032B13D801A252F823F000BFBD
:102270008122000085220000892200008D220000BA
:10228000012306E0002304E0002302E0002300E035
:102290000023184602B07047E00F00F0E80F00F08E
:1022A00082B01A4B1B68B3F1FF3F0AD1184B1B6871
:1022B000DBB20193174B1B681B0903F00F0300935C
:1022C00005E0124B1B680193134B1B680093019BA5
:1022D000062B17D1009B033B032B13D801A252F806
:1022E00023F000BFF5220000F9220000FD220000CB
:1022F00001230000012306E0012304E0012302E0A2
:10230000012300E00023184602B07047300100109E
:10231000E00F00F0E80F00F03401001082B0144B21
:102320001B68DBB20193134B1B681B0903F00F03FF
:102330000093019B062B17D1009B033B032B13D863
:1023400001A252F823F000BF592300005D230000D2
:102350006123000065230000012306E0002304E060
:10236000002302E0002300E00023184602B070477B
:10237000E00F00F0E80F00F082B0144B1B68DBB2F6
:102380000193134B1B681B0903F00F030093019B80
:10239000062B17D1009B033B032B13D801A252F845
:1023A00023F000BFB5230000B9230000BD230000C7
:1023B000C1230000012306E0002304E0002302E023
:1023C000002300E00023184602B07047E00F00F041
:1023D000E80F00F082B01A4B1B68B3F1FF3F0AD13F
:1023E000184B1B68DBB20193174B1B681B0903F0EA
:1023F0000F03009305E0124B1B680193134B1B68FE
:102400000093019B062B17D1009B033B032B13D892
:1024100001A252F823F000BF292400002D2400005F
:102420003124000035240000002306E0002304E0EE
:10243000012302E0012300E00023184602B07047A8
:1024400030010010E00F00F0E80F00F03401001040
:1024500082B01A4B1B68B3F1FF3F0AD1184B1B68BF
:10246000DBB20193174B1B681B0903F00F030093AA
:1024700005E0124B1B680193134B1B680093019BF3
:10248000062B17D1009B033B032B13D801A252F854
:1024900023F000BFA5240000A9240000AD24000003
:1024A000B1240000012306E0012304E0012302E03F
:1024B000012300E00023184602B0704730010010ED
:1024C000E00F00F0E80F00F03401001082B01A4B6A
:1024D0001B68B3F1FF3F0AD1184B1B68DBB20193B5
:1024E000174B1B681B0903F00F03009305E0124B09
:1024F0001B680193134B1B680093019B062B17D19C
:10250000009B033B032B13D801A252F823F000BF1A
:102510002125000025250000292500002D2500008B
:10252000012306E0012304E0012302E0012300E08F
:102530000023184602B0704730010010E00F00F091
:10254000E80F00F03401001082B0124B1B680193B9
:10255000114B1B680093019B062B17D1009B033B7B
:10256000032B13D801A252F823F000BF7D250000F1
:10257000812500008525000089250000002306E054
:10258000002304E0002302E0012300E000231846BA
:1025900002B070473001001034010010024B034AB2
:1025A0001A6000BF704700BF040000200090D003F5
:1025B00008B5FFF79DFD0346002B06D0A04B1B6816
:1025C0001B0AA04A03F01F031360FFF7CFFD034669
:1025D000002B02D09C4B9D4A1A60FFF7F5FD034685
:1025E000002B06D09A4B1B685B0B9A4A03F007033B
:1025F0001360FFF727FE0346002B05D0964BDB68E0
:10260000954A23F08073D360FFF74AFE0346002B00
:102610000ED04FF080430022C3F80C214FF08043CE
:102620000022C3F810214FF080430022C3F8382560
:10263000FFF774FE0346002B02D0884B03221A607A
:10264000FFF79AFE0346002B0BD0854B05221A603C
:10265000844B01221A60844B00221A60834B3F2274
:102660001A60FFF7B7FE0346002B76D04FF0805379
:102670007F4AD3F80434C2F820354FF080537C4AA7
:10268000D3F80834C2F824354FF08053784AD3F891
:102690000C34C2F828354FF08053754AD3F8103403
:1026A000C2F82C354FF08053714AD3F81434C2F875
:1026B00030354FF080536E4AD3F81834C2F83435B1
:1026C0004FF080536A4AD3F81C34C2F840354FF0BB
:1026D0008053674AD3F82034C2F844354FF0805312
:1026E000634AD3F82434C2F848354FF08053604A27
:1026F000D3F82834C2F84C354FF080535C4AD3F8F5
:102700002C34C2F850354FF08053594AD3F8303446
:10271000C2F854354FF08053554AD3F83434C2F8D8
:1027200060354FF08053524AD3F83834C2F86435DC
:102730004FF080534E4AD3F83C34C2F868354FF01E
:1027400080534B4AD3F84034C2F86C354FF0805375
:10275000474AD3F84434C2F87035FFF779FE034690
:10276000002B05D0434B1B68434A03F04F03136013
:10277000FFF7ACFE0346002B0DD04FF08043D3F89B
:10278000003403F00103002B05D04FF080436FF0BD
:102790000102C3F80024FFF7D7FE0346002B05D043
:1027A000364B1B68354A43F480631360344BD3F8CF
:1027B0008830334A43F47003C2F88830BFF34F8F38
:1027C00000BFBFF36F8F00BF4FF01023D3F800326C
:1027D000002B05DB4FF01023D3F80432002B2BDA4B
:1027E000284B0122C3F8042500BF264BD3F8003440
:1027F000002BFAD04FF010231522C3F8002200BF9F
:10280000204BD3F80034002BFAD04FF010231522C0
:10281000C3F8042200BF1B4BD3F80034002BFAD0BE
:10282000184B0022C3F8042500BF164BD3F8003420
:10283000002BFAD0FFF748FCFFF7B0FE00BF08BD41
:10284000240300104035014074C007400DF0ADBABC
:10285000440200103C050040F0ED00E0A0050040FF
:10286000105600408856004018560040145600404C
:1028700000C0004058020010E40E00403C17004029
:1028800000ED00E000E00140844640EA010313F05F
:10289000030F18D18446202A0BD32DE9F007B1E8A5
:1028A000F807A0E8F807A2F12002202AF7D2BDE835
:1028B000F007042A07D351F8043B40F8043BA2F187
:1028C0000402042AF7D2002A05D011F8013B00F8CF
:0A28D000013B013AF9D16046704760
:1028DC004831000000000000002900000000030344
:1028EC00D000002008000020100000201000002064
:0428FC0018000000C0
:1029000061707000433A5C55736572735C6D696DFC
:102910006F727269735C446F63756D656E74735C1E
:1029200053656E736F72735C4C616767696E67574E
:102930006561725C4669726D776172655C6C616736
:1029400067696E67776561722D5C6E5246355F53BD
:10295000444B5F31375C636F6D706F6E656E74737F
:102960005C6C69627261726965735C6C6F675C73E1
:1029700072635C6E72665F6C6F675F66726F6E74B7
:10298000656E642E630000004261636B656E647364
:1029900020666C7573686564000000002E2E2F2E73
:1029A0002E2F2E2E2F2E2E2F2E2E2F2E2E2F6D6FC2
:1029B00064756C65732F6E7266782F68616C2F6E0C
:1029C00072665F6770696F2E68000000433A5C555D
:1029D000736572735C6D696D6F727269735C446F5D
:1029E00063756D656E74735C53656E736F72735C43
:1029F0004C616767696E67576561725C4669726DA5
:102A0000776172655C6C616767696E677765617233
:102A10002D5C6E5246355F53444B5F31375C636FBC
:102A20006D706F6E656E74735C626F617264735CFF
:102A3000626F617264732E63000000001112131440
:102A40000D0E0F10415353455254494F4E204641ED
:102A5000494C45442061742025733A2575000000D7
:102A60004552524F52202575205B25735D206174BD
:102A70002025733A25750D0A50432061743A2030A1
:102A80007825303878000000456E64206F66206538
:102A900072726F72207265706F727400554E4B4E79
:102AA0004F574E204641554C5420617420307825B4
:102AB00030385800433A5C55736572735C6D696DCC
:102AC0006F727269735C446F63756D656E74735C6D
:102AD00053656E736F72735C4C616767696E67579D
:102AE0006561725C4669726D776172655C6C616785
:102AF00067696E67776561722D5C6E5246355F530C
:102B0000444B5F31375C636F6D706F6E656E7473CD
:102B10005C6C69627261726965735C7574696C5C26
:102B20006170705F7574696C5F706C6174666F72F0
:102B30006D2E6300433A5C55736572735C6D696D0D
:102B40006F727269735C446F63756D656E74735CEC
:102B500053656E736F72735C4C616767696E67571C
:102B60006561725C4669726D776172655C6C616704
:102B700067696E67776561722D5C6E5246355F538B
:102B8000444B5F31375C636F6D706F6E656E74734D
:102B90005C6C69627261726965735C62616C6C6FB6
:102BA000635C6E72665F62616C6C6F632E630000C3
:102BB000433A5C55736572735C6D696D6F727269CF
:102BC000735C446F63756D656E74735C53656E738F
:102BD0006F72735C4C616767696E67576561725CA1
:102BE0004669726D776172655C6C616767696E6773
:102BF000776561722D5C6E5246355F53444B5F3191
:102C0000375C636F6D706F6E656E74735C6C696258
:102C10007261726965735C6D656D6F626A5C6E721C
:102C2000665F6D656D6F626A2E630000556E6B6E38
:102C30006F776E206572726F7220636F646500003B
:102C40004E52465F53554343455353004E52465FE1
:102C50004552524F525F5356435F48414E444C4594
:102C6000525F4D495353494E470000004E52465F54
:102C70004552524F525F534F46544445564943457F
:102C80005F4E4F545F454E41424C454400000000AA
:102C90004E52465F4552524F525F494E5445524E36
:102CA000414C00004E52465F4552524F525F4E4FCC
:102CB0005F4D454D000000004E52465F4552524F59
:102CC000525F4E4F545F464F554E44004E52465F42
:102CD0004552524F525F4E4F545F535550504F52D2
:102CE000544544004E52465F4552524F525F494E42
:102CF00056414C49445F504152414D004E52465F4F
:102D00004552524F525F494E56414C49445F5354CD
:102D1000415445004E52465F4552524F525F494E14
:102D200056414C49445F4C454E4754480000000012
:102D30004E52465F4552524F525F494E56414C49A2
:102D4000445F464C414753004E52465F4552524FF6
:102D5000525F494E56414C49445F44415441000042
:102D60004E52465F4552524F525F444154415F5369
:102D7000495A45004E52465F4552524F525F5449A0
:102D80004D454F55540000004E52465F4552524F3C
:102D9000525F4E554C4C00004E52465F4552524FCA
:102DA000525F464F5242494444454E004E52465FA0
:102DB0004552524F525F494E56414C49445F41443F
:102DC000445200004E52465F4552524F525F4255A8
:102DD000535900004E52465F4552524F525F4D4F7D
:102DE00044554C455F4E4F545F494E495449414C00
:102DF000495A4544000000004E52465F4552524F2A
:102E0000525F4D555445585F494E49545F464149BC
:102E10004C4544004E52465F4552524F525F4D550D
:102E20005445585F4C4F434B5F4641494C45440025
:102E30004E52465F4552524F525F4D555445585F72
:102E4000554E4C4F434B5F4641494C4544000000B2
:102E50004E52465F4552524F525F4D555445585F52
:102E6000434F4E445F494E49545F4641494C4544A7
:102E7000000000004E52465F4552524F525F4D4F88
:102E800044554C455F414C52454144595F494E4978
:102E90005449414C495A4544000000004E52465F97
:102EA0004552524F525F53544F524147455F46552A
:102EB0004C4C00004E52465F4552524F525F4150BB
:102EC000495F4E4F545F494D504C454D454E54451A
:102ED000440000004E52465F4552524F525F4645F5
:102EE00041545552455F4E4F545F454E41424C450B
:102EF000440000004E52465F4552524F525F494FC8
:102F00005F50454E44494E47000000004E52465F18
:102F10004552524F525F4452565F5457495F455293
:102F2000525F4F56455252554E0000004E52465F7A
:102F30004552524F525F4452565F5457495F455273
:102F4000525F414E41434B004E52465F4552524FF5
:102F5000525F4452565F5457495F4552525F444E48
:102F600041434B004E52465F4552524F525F424CD6
:102F7000455F495053505F52585F504B545F545215
:102F8000554E4341544544004E52465F4552524FC0
:102F9000525F424C455F495053505F4348414E4E4B
:102FA000454C5F414C52454144595F455849535443
:102FB000530000004E52465F4552524F525F424C02
:102FC000455F495053505F4C494E4B5F4449534312
:102FD0004F4E4E4543544544000000004E52465F5C
:102FE0004552524F525F424C455F495053505F50DB
:102FF0004545525F52454A45435445440000000050
:1030000000000000402C0000010000004C2C0000DB
:10301000020000006C2C000003000000902C000057
:1030200004000000A42C000005000000B82C0000E3
:1030300006000000CC2C000007000000E42C00007B
:1030400008000000FC2C000009000000142D000006
:103050000A000000302D00000B000000482D000089
:103060000C000000602D00000D000000742D000019
:103070000E000000882D00000F000000982D0000B9
:1030800010000000AC2D000011000000C42D000055
:1030900080000000D42D000081000000F82D000009
:1030A00082000000142E000083000000302E00007B
:1030B00084000000502E000085000000742E0000E7
:1030C000860000009C2E000090000000B42E00003E
:1030D00091000000D42E000092000000F42E0000A9
:1030E000008200000C2F0000018200002C2F000045
:1030F00002820000482F000000840000642F0000BE
:1031000001840000882F000002840000B42F00001A
:1031100003840000DC2F00002E2E2F2E2E2F2E2EAB
:103120002F2E2E2F2E2E2F2E2E2F696E7465677246
:103130006174696F6E2F6E7266782F6E7266785F3B
:10314000676C75652E68000054494D4552000000BB
:10315000433A5C55736572735C6D696D6F72726929
:10316000735C446F63756D656E74735C53656E73E9
:103170006F72735C4C616767696E67576561725CFB
:103180004669726D776172655C6C616767696E67CD
:10319000776561722D5C6E5246355F53444B5F31EB
:1031A000375C6D6F64756C65735C6E7266785C64B9
:1031B0007269766572735C7372635C6E7266785F57
:1031C00074696D65722E63002E2E2F2E2E2F2E2EDB
:1031D0002F2E2E2F2E2E2F2E2E2F6D6F64756C6599
:1031E000732F6E7266782F68616C2F6E72665F74D3
:1031F000696D65722E680000433A5C5573657273A1
:103200005C6D696D6F727269735C446F63756D6537
:103210006E74735C53656E736F72735C4C61676739
:10322000696E67576561725C4669726D7761726538
:103230005C6C616767696E67776561722D5C6E5261
:1032400046355F53444B5F31375C6578616D706C18
:1032500065735C7065726970686572616C5C7469D5
:103260006D65725C6D61696E2E630000000003067F
:0C3270000000000000800040000400008E
:08327C00FF0000000090D003E8
:040000030000037581
:00000001FF
