:020000022000DC
:1060000000000120756302005D6302005F6302000F
:106010006163020063630200656302000000000028
:1060200000000000000000000000000067630200A4
:1060300069630200000000006B6302006D630200F0
:106040002D8D02006F6302006F6302006F63020018
:106050006F6302006F6302008D9902006F6302009C
:106060006F6302006F6302006F6302006F630200E0
:106070006F6302006F6302006F6302006F630200D0
:106080006F630200E57A02006F6302006F63020033
:106090006F6302006F63020045CC02006F63020071
:1060A0006F6302006F6302006F6302006F630200A0
:1060B0006F6302006F630200000000000000000038
:1060C0006F6302006F6302006F6302006F63020080
:1060D0006F6302006F6302006F6302000000000044
:1060E00000000000000000000000000000000000B0
:1060F00000000000000000000000000000000000A0
:10610000000000000000000000000000000000008F
:10611000000000000000000000000000000000007F
:10612000000000000000000000000000000000006F
:10613000000000000000000000000000000000005F
:10614000000000000000000000000000000000004F
:10615000000000000000000000000000000000003F
:10616000000000000000000000000000000000002F
:10617000000000000000000000000000000000001F
:10618000000000000000000000000000000000000F
:1061900000000000000000000000000000000000FF
:1061A00000000000000000000000000000000000EF
:1061B00000000000000000000000000000000000DF
:1061C00000000000000000000000000000000000CF
:1061D00000000000000000000000000000000000BF
:1061E00000000000000000000000000000000000AF
:1061F000000000000000000000000000000000009F
:10620000354936480A1A02D0072291438D4634494F
:1062100034480A1A06D00722914381F309880222E2
:1062200082F3148830483149314A00F044F831484B
:106230003149324A00F03FF831483249324A00F0E1
:106240003AF832483249334A00F035F83248334997
:10625000334A00F030F833483349344A00F02BF821
:1062600033483449344A00F026F83448344900228F
:1062700000F02CF833483449002200F027F8334866
:106280003349091A082902DB002202604160314AC1
:1062900090471F481F49884205D00268043003B464
:1062A000904703BCF7E700208646EC46002000211B
:1062B000294A9047FEE7884207D0521A05D0037852
:1062C00001300B700131013AF9D17047884202D098
:1062D00002700130FAE770470000012000E0002062
:1062E000000001200000012058D90200F022002007
:1062F00010230020D0630200D0630200A6D0020069
:1063000058D90200F0220020F0220020E0D0020044
:10631000E0D00200E0D00200E0D00200E0D00200B5
:10632000E0D00200E0D00200E0D0020058D9020024
:1063300078D9020010230020102300201023002011
:10634000FF25002000260020002600200026002037
:10635000004600209D630200DDAD0200FEE7FEE77F
:10636000FEE7FEE7FEE7FEE7FEE7FEE7FEE7FEE705
:1063700000F002B8FFF7FCBF0F484FF00701884359
:1063800085460E4880470E48016841F4700101605F
:10639000BFF34F8FBFF36F8FFFF732BF09480A4932
:1063A0000A4A884207D0521A05D0037801300B7090
:1063B0000131013AF9D1704700000120CDC502003A
:1063C00088ED00E0E0D00200F0220020F022002062
:1063D00084B003468DF807309DF807305B08DBB2C8
:1063E0001A460D4B9B5C8DF80F309DF8073003F07B
:1063F0000103002B04D09DF80F301B09DBB204E031
:106400009DF80F3003F00F03DBB28DF80E309DF8CE
:106410000E30184604B070474823002084B003466D
:106420000A468DF8073013468DF806309DF8073080
:1064300003F00103002B01D00F2300E0F0238DF8BF
:106440000F309DF8073003F00103002B04D09DF8B6
:1064500006301B01DBB201E09DF806308DF80E30EE
:106460009DF807305B08DBB21A46114B9A5C9DF829
:1064700007305B08DBB219469DF80F301340DAB2E3
:106480000B4B5A549DF807305B08DBB21A46084B99
:106490009A5C9DF807305B08DBB219469DF80E3018
:1064A0001343DAB2024B5A5400BF04B0704700BF26
:1064B0004823002000B585B003468DF8073000233F
:1064C000039310E00F4B1A68039BDB001344029305
:1064D000029B1B789DF807209A4201D1029B0DE098
:1064E000039B01330393084B1B781A46039B93428B
:1064F000E8DB0649882003F007FF0023184605B0B3
:106500005DF804FB1023002014230020E4D00200D7
:1065100000B585B003460A468DF8073013468DF85E
:1065200006309DF807301846FFF7C4FF0390039B21
:10653000002B0BD0039B5B68002B07D0039B5B6891
:106540009DF806109DF807201046984700BF05B03B
:106550005DF804FB2DE9F04F87B003460A468DF83D
:106560000F3013468DF80E309DF80F301846FFF7A8
:106570002FFF0346042B00F2C28001A252F823F041
:106580009565020009660200256602005566020054
:106590006B6602009DF80E30002B00F0AD809DF878
:1065A0000F3001211846FFF739FF00238DF817300F
:1065B0000DF11703184600F087FE9DF80F104FF0FD
:1065C00001024FF00003A1F12004C1F1200003FA01
:1065D00001F702FA04F4274322FA00F0074302FA13
:1065E00001F6494BD3E9002346EA020100913B43FF
:1065F0000193454BDDE90012C3E900129DF8173005
:10660000184600F077FE77E09DF80E30002B01D0A1
:10661000022200E000229DF80F3011461846FFF7D5
:10662000FDFE6CE09DF80E30002B0CD09DF80F3075
:1066300003211846FFF7F2FE9DF80F30012118469E
:10664000FFF766FF5BE09DF80F3001211846FFF76A
:10665000E5FE54E09DF80E30002B4FD19DF80F3031
:1066600004211846FFF7DAFE48E09DF80E30002BB3
:1066700006D09DF80F3003211846FFF7CFFE3EE00D
:106680009DF80F3000211846FFF7C8FE9DF80F3027
:1066900000211846FFF73CFF00238DF816300DF15E
:1066A0001603184600F010FE9DF80F104FF001027F
:1066B0004FF00003A1F12006C1F1200003FA01F51B
:1066C00002FA06F6354322FA00F0054302FA01F415
:1066D0006FEA04086FEA05090B4BD3E9002308EAC7
:1066E000020A09EA030B084BC3E900AB9DF8163018
:1066F000184600F0FFFD02E000BF00E000BF00BF51
:1067000007B0BDE8F08F00BF4023002000B583B084
:106710000648074B1B685B080022194600F0F6FC90
:10672000019000BF03B05DF804FB00BF20230020F0
:106730001823002000B587B001900023059328E0BE
:106740001C4B1A68059BDB0013440493049B1B78C5
:10675000184603F06BF803468DF80F30049B5B7806
:10676000012B0CBF01230023DBB21A469DF80F302A
:106770009A420CBF012300238DF80E30049B1B7836
:106780009DF80E2011461846FFF7E4FE059B0133E5
:106790000593094B1B781A46059B9342D0DB074BA8
:1067A000D3E90023134301D0FFF7B0FF00BF07B0C8
:1067B0005DF804FB10230020142300204023002058
:1067C00000B585B001900B468DF80330019BDBB21C
:1067D0001846FFF76FFE0390039B1B78184603F0E3
:1067E00025F803468DF80B30039B5B78012B0CBF1B
:1067F00001230023DBB21A469DF80B309A420CBFEE
:10680000012300238DF80A309DF80A30002B06D0B2
:10681000054BD3E90023134301D1FFF777FF00BFF6
:1068200005B05DF804FB00BF4023002000B58BB02D
:1068300003900B4601928DF80B30019B092B01D878
:10684000072367E002F0E6FE034683F00103DBB2B4
:10685000002B09D002F07AFE0990099B0893089B4F
:10686000002B01D0089B55E02C4A039B13602C4A57
:106870009DF80B3013702B4A019B136010220021EE
:10688000294806F0DDFB29494FF000024FF00003D4
:10689000C1E9002331E09DF80B30DB00039A13447B
:1068A000079303238DF8143000238DF815309DF8DD
:1068B00016306FF300038DF816309DF816306FF325
:1068C00041038DF816309DF816306FF382038DF872
:1068D0001630079B9B788DF81530079B1B78184660
:1068E00005AB134A194602F0A1FE0990099B0693D5
:1068F000069B002B01D0069B0CE09DF80B305A1E26
:106900008DF80B20002BC6D10A4A00210A4800F05E
:10691000C9FB034618460BB05DF804FB10230020AA
:1069200014230020182300204823002040230020A7
:10693000C167020035670200E0D0020000B583B0F5
:10694000114B1B68002B04D1104940F2351003F0A5
:10695000DBFC002301930CE00B4B1A68019BDB006E
:1069600013441B780121184602F0DCFE019B013321
:106970000193074B1B781A46019B9342ECD30023EB
:10698000184603B05DF804FB10230020E4D0020099
:106990001423002086B003900291019201238DF808
:1069A00017309DF81730204A039B13601E4A029B44
:1069B00053601D4A019B9360039B44F20102934282
:1069C00012D0039B44F20202934220D1019B164A4B
:1069D000D360154BDB681B68134A9361124BDB686D
:1069E0005B68114AD36112E0019B0F4A13610E4BA1
:1069F0001B699B680C4A53610B4B1B691B680A4A55
:106A00009361094B1B695B68074AD36100BF72B68B
:106A100000BF00BF9DF81730DBB2002BFAD162B681
:106A200000BF00BF06B070475823002000B583B0F8
:106A300002900091019244F2010071466A4600F012
:106A400003F803B000BD00BF00B587B0039002910A
:106A5000019272B600BF039B44F20202934217D028
:106A6000039B44F20202934218D8039B44F20102B2
:106A7000934210D0039B44F2010293420ED8039B31
:106A8000012B0DD0039B41F2010293420AD005E095
:106A9000019B059307E0019B049304E000BF02E023
:106AA00000BF00E000BF084B1B6803F00103002B90
:106AB00000D000BE019A02990398FFF76BFF00BF58
:106AC00007B05DF804FB00BFF0ED00E02DE9F043F6
:106AD00083B0144800F0EBFF034600221C46154625
:106AE000114BD3E9002314EB020845EB0309CDE970
:106AF00000890E4BD3E90023DDE90001904271EBE0
:106B0000030307D2DDE9002312F1807643F1000789
:106B1000CDE90067DDE900231046194603B0BDE862
:106B2000F08300BFF0220020802300208823002073
:106B300088B001900091019B0793009B0693079BEF
:106B4000D3E90223CDE90423069BD3E90223CDE94F
:106B50000223DDE90423DDE90201904271EB030326
:106B60002CBF01230023DBB2184608B07047000099
:106B7000F0B585B00190019B5B69002B03D12B49D7
:106B8000A22003F0C1FB00238DF80F30284B1B78A7
:106B9000002B45D0019B002B42D0019B1B7FDBB219
:106BA000002B3DD0FFF792FF019BD3E902239042D7
:106BB00071EB03032CD3019B1B69002B02D1019BBA
:106BC00000221A77019B5B69019A926910469847E7
:106BD000019B1B69002B23D0019B1B7FDBB2002B89
:106BE0001ED0019BD3E902230199096900200C46BC
:106BF0000546161943EB0507019BC3E90267019B94
:106C000019460C4801F082FA01238DF80F3007E095
:106C1000019B1946074801F079FA01238DF80F30DE
:106C20009DF80F30184605B0F0BD00BF44D10200FA
:106C30007C23002038D10200F0B589B0019000918A
:106C40000D230793009B00221A70019BD3E9024594
:106C5000FFF73CFF02460B46A61A65EB0307CDE99A
:106C60000467DDE90423012A73F100031BDB049BA5
:106C7000B3F5350F05D300F0A9FA0246154B1344BE
:106C800003E0019BD3E90223134603934FF49603D9
:106C9000039A0021104800F0FDFD0790079B002B90
:106CA00005D1012313E000210B4800F0CBFE079B28
:106CB0000D2B07D10198FFF75BFF03461A46009B97
:106CC0001A7003E00549F52003F01EFB0023184667
:106CD00009B0F0BDFFFFB400F022002044D1020053
:106CE00000B583B0044801F04BFA0190019B1846AF
:106CF00003B05DF804FB00BF38D1020000B583B0DB
:106D0000044801F05FFA0190019B184603B05DF85A
:106D100004FB00BF38D1020000B583B0FFF7E0FFED
:106D20000190019B002B02D0019B00221A77019B4E
:106D3000002BF3D100BF00BF03B05DF804FB0000DF
:106D4000054BD3E9002312F1807043F10001024B9F
:106D5000C3E9000100BF70478023002010B582B056
:106D60000190124B1B68002B1DD0019800F09FFE74
:106D700004460021019800F08BFE03461946204688
:106D800000F018FA0346B3F5960F04D308494FF400
:106D9000957003F0B9FA054B1B681846FFF7E8FE3B
:106DA000024B00221A6000BF02B010BD7823002001
:106DB00044D1020000B583B00190FFF787FE024680
:106DC0000B460349C1E9002300BF03B05DF804FB93
:106DD0008823002000B587B00190FFF78FFF049053
:106DE00000238DF81730049B002B48D02B4B1B68D9
:106DF000002B03D101238DF8173019E0049BD3E950
:106E00000201264B1B68D3E90223904271EB030376
:106E10000ED201238DF81730204B1B681B7FDBB28D
:106E2000002B05D01D4B1B6819461D4801F06EF95B
:106E30009DF81730002B2AD0FFF752FF04900DF178
:106E40000F0319460498FFF7F7FE0346002B12D0F4
:106E5000124B1B68002B02D1019800F027FC0F4A4F
:106E6000049B13609DF80F3083F00103DBB2002B0D
:106E7000B3D000BF0EE0094B00221A60ADE7074B0C
:106E80001B68002B05D1019800F026FC01E000BF33
:106E900000E000BF00BF07B05DF804FB78230020CE
:106EA00038D1020000B587B001902C4A03AB1946D7
:106EB000104600F0FAFE059048E0059B1B78022B77
:106EC0002ED0022B32DC002B02D0012B14D02DE06F
:106ED000059B5B681B7FDBB283F00103DBB2002BF9
:106EE00026D0059B5B6801221A77059B5B681946D3
:106EF0001B4801F00BF91BE0059B5A68194B1B68F6
:106F00009A4203D1174B00221A6012E0059B5B687E
:106F10001946134801F06AF903468DF8133008E06A
:106F2000FFF7FAFE104B01221A7002E000BF00E0EA
:106F300000BF0A4A03AB1946104600F0CFFE074ACD
:106F400003AB1946104600F0B0FE0590059B002BE0
:106F5000B3D100BF00BF07B05DF804FBE8230020F9
:106F600038D10200782300207C23002000B583B0B4
:106F70000190019800F059FD0346002B01D0FFF766
:106F8000DFFE0021019800F06EFD0346002B02D0C9
:106F90000198FFF7E3FE0121019800F064FD03462C
:106FA000002B02D00198FFF705FF0198FFF77AFF49
:106FB0000198FFF70FFF00BF03B05DF804FB00006E
:106FC00008B5024800F080FD00BF08BDF022002097
:106FD00000B585B0034600918DF80730114A02AB29
:106FE0001946104600F034FE0390039B002B13D08B
:106FF000039B9DF807201A70039B009A5A60094A68
:1070000002AB1946104600F03CFE0346002B01D0AF
:10701000FFF7D6FF002300E00423184605B05DF813
:1070200004FB00BFE823002000B583B0164B1B68AB
:107030000093164808235822154900F0D6FD019008
:10704000019B002B01D0019B19E06B46114A1946A8
:10705000114800F0CBFA0190019B002B01D0019B5D
:107060000DE001210C4800F0CFFC01230B4A012167
:10707000094800F047FB0A4B01221A70019B184691
:1070800003B05DF804FB00BF98D10200E8230020A4
:10709000902300206D6F0200F0220020FFFF7F0090
:1070A0007C23002000B587B003900B4601928DF839
:1070B0000B30039B002B04D1134940F22E2003F028
:1070C00023F9019B002B04D10F4940F22F2003F03C
:1070D0001BF9019B002B01D1072310E0039B1B68C8
:1070E0000593059B019A5A619DF80B30012B0CBF4B
:1070F00001230023DBB21A46059B1A6100231846C0
:1071000007B05DF804FB00BF44D10200F0B587B0C2
:10711000039002910192039B002B04D1164940F287
:107120003E2003F0F1F8039B0593059B1B7FDBB228
:10713000002B01D000231CE0059B019A9A61FFF708
:10714000C5FC02460B46029900200C46054616195E
:1071500043EB0507059BC3E90267059B1B69002BF1
:1071600002D0059B029A1A6105990020FFF730FFB3
:107170000346184607B0F0BD44D1020000B585B003
:107180000190019B002B04D109494FF4157003F0C5
:10719000BBF8019B0393039B00221A7703990120FC
:1071A000FFF716FF0346184605B05DF804FB00BF65
:1071B00044D1020082B001900091019A009BD31A41
:1071C00023F07F43184602B07047000008B503481B
:1071D00000F06DFC0346184608BD00BFF0220020F9
:1071E00082B0EFF310830093009B019372B600BF4F
:1071F000019B184602B0704762B600BF00BF7047DF
:1072000000B585B00190FFF7EBFF0390164B9B682C
:10721000002B1BD1144B01229A60144BD3F8802011
:10722000134B1340104A1360104B114AC3F88020CF
:107230000E4BD3F884300C4A53600C4B4FF0FF32A6
:10724000C3F88420019B00221A7002E0019B0122F6
:107250001A70039B002B01D1FFF7CEFF00231846C5
:1072600005B05DF804FB00BFFC23002000E100E056
:10727000FC06FFBD00B585B003468DF80730104B06
:107280009B68002B16D09DF80730002B12D1FFF71A
:10729000A7FF03900B4A0A4B1B681360094A084B6F
:1072A0005B685360064B00229A60039B002B01D160
:1072B000FFF7A2FF0023184605B05DF804FB00BFEE
:1072C000FC23002000E100E000B583B0019000F055
:1072D0002BF80346012B03D00549432003F014F893
:1072E0000198FFF78DFF00BF03B05DF804FB00BFFE
:1072F0009CD1020000B583B003468DF8073000F042
:1073000013F80346012B03D00649512002F0FCFF7D
:107310009DF807301846FFF7ADFF00BF03B05DF8DA
:1073200004FB00BF9CD1020084B0EFF305830193FE
:10733000019BC3F308030393039B002B0DD1EFF3D1
:1073400014830093009B0293029B03F00103002B24
:107350000CBF01230023DBB200E00123184604B078
:107360007047000082B003468DF807309DF9073062
:10737000002B0CDB9DF8073003F01F0205499DF937
:1073800007305B09012000FA02F241F8232000BF18
:1073900002B0704700E100E082B003468DF807308C
:1073A0009DF90730002B0DDB9DF8073003F01F021D
:1073B00006499DF907305B09012000FA02F24033CB
:1073C00041F8232000BF02B0704700BF00E100E099
:1073D00082B0034600918DF807309DF90730002BED
:1073E0000ADB009BDAB20C499DF907305201D2B298
:1073F0000B4483F800230BE0009BDAB207499DF8A9
:10740000073003F00F03043B5201D2B20B441A764B
:1074100000BF02B0704700BF00E100E000ED00E0F7
:1074200000B583B003460A468DF8073013468DF841
:1074300006309DF80630012B03D99DF80630032B4A
:107440000BD99DF80630042B03D99DF80630072B85
:1074500003D908496B2002F057FF9DF806209DF9DB
:10746000073011461846FFF7B3FF00BF03B05DF8C1
:1074700004FB00BFF4D1020000B583B003468DF8D1
:1074800007309DF907301846FFF76CFF00BF03B0C7
:107490005DF804FB00B585B00190019B002B0AD07C
:1074A000074B43F001030393019B9B010293039B52
:1074B0000298984700E000BF05B05DF804FB00BFEC
:1074C000B0D2020084B0039002910192039B029A11
:1074D00002F5A872019943F8221000BF04B070476A
:1074E00082B001900091019B009A02F5A87253F8B6
:1074F0002230184602B0704782B001900091019B83
:10750000009AC3F8042300BF02B0704782B0019014
:107510000091019B009AC3F8082300BF02B0704796
:1075200082B001900B46ADF80230BDF80230019AEE
:1075300013441B68184602B0704784B001900B4694
:10754000ADF80230BDF80230019A134400221A60EF
:10755000BDF80230019A13441B680393039B00BFDC
:1075600004B0704782B00190019BD3F804351846EF
:1075700002B0704700B583B001900091009BB3F555
:10758000805F04D306494FF4BE7002F0BDFE019B3C
:10759000009AC3F8082500BF03B05DF804FB00BFE4
:1075A00024D2020082B001900B468DF803309DF882
:1075B0000320019B13441A460123136000BF02B04D
:1075C000704782B001900091019B009AC3F8442358
:1075D00000BF02B0704782B001900091019B009AF9
:1075E000C3F8482300BF02B07047000000B587B061
:1075F000039002910192039B002B03D1284955204F
:1076000002F082FE029B002B03D12549562002F096
:107610007BFE019B002B03D12149572002F074FE11
:10762000039B5B7919461F4A019B42F82130039B5B
:107630005B791D4ADB0013441B79002B03D0082320
:107640000593059B27E0039B1A68029B1B8819463C
:107650001046FFF78FFF039B93F90420029B9B7852
:1076600019461046FFF7DCFE039B93F904301846D9
:10767000FFF702FF039B5B790B4ADB0013440122F7
:107680001A71039B5B791946074A039B42F8313014
:1076900000230593059B184607B05DF804FB00BF67
:1076A00054D20200082400200C24002000B583B02E
:1076B0000190019B002B03D10649872002F024FE94
:1076C000019B1B6800211846FFF76CFF00BF03B049
:1076D0005DF804FB54D2020000B583B00190019B19
:1076E000002B03D106498D2002F00EFE019B1B6882
:1076F00004211846FFF756FF00BF03B05DF804FBF6
:1077000054D2020000B587B00390029101928DF827
:107710000330039B002B03D12149962002F0F4FD96
:107720004FF48032029B02FA03F30593029B50331D
:107730009BB29B00ADF81230019B23F07F43019375
:10774000039B1B6805991846FFF7E0FE039B1B6827
:1077500005991846FFF73FFF039B1B68BDF81220F1
:1077600011461846FFF7E9FE039B1B68019A029930
:107770001846FFF7A7FE039B1B6805991846FFF7FD
:1077800020FF9DF80330002B05D0039B1B68059953
:107790001846FFF7B1FE00BF07B05DF804FB00BF5D
:1077A00054D2020000B585B00390029113468DF8C3
:1077B0000730039B002B03D10B49A92002F0A4FD45
:1077C000039B1B6802991846FFF7FBFE9DF80730E4
:1077D000002B05D0039B1B6802991846FFF78CFE0F
:1077E00000BF05B05DF804FB54D2020000B583B0C1
:1077F00001900091019B002B03D10A49B32002F0B4
:1078000083FD019B1B6800991846FFF7E4FE019B6E
:107810001B6800991846FFF779FE00BF03B05DF8BA
:1078200004FB00BF54D2020000B583B001900B46A8
:10783000ADF80230019B002B03D10F49BA2002F0B2
:1078400063FD019B1B68BDF8022011461846FFF737
:1078500067FE0346002B09D0019B1B68BDF8022080
:1078600011461846FFF769FE012300E00023184681
:1078700003B05DF804FB00BF54D2020082B0019057
:107880000091019A009BD31A23F07F43184602B05F
:107890007047000000B58BB00390029101920093F5
:1078A000039B002B03D15749CD2002F02DFD4FF44F
:1078B0008032029B02FA03F30993029B50339BB27E
:1078C0009B00ADF82230019B23F07F43019309997F
:1078D0000398FFF78BFF039B1B681846FFF742FED8
:1078E0000790039B1B6802991846FFF7F9FD069065
:1078F000039B1B68079A02991846FFF7E3FD039B59
:107900001B68BDF8222011461846FFF716FE07999E
:107910000698FFF7B3FF0346012B0AD11020FFF7AB
:10792000B9FD039B1B68BDF8222011461846FFF7DE
:1079300004FE039B1B681846FFF714FE0790079987
:107940000198FFF79BFF0590039B1B680999184658
:10795000FFF737FE059B012B15D1039B1868019B90
:1079600001331A460299FFF7ADFD1020FFF792FD93
:10797000039B1B681846FFF7F5FD0246079B9342E1
:1079800035D00D2339E0039B1B68019A02991846F4
:10799000FFF798FD039B1B681846FFF7E3FD079070
:1079A000019B013B07991846FFF768FF0590009B74
:1079B000C3F1FF1303F57F43059A9A4201D90D23C2
:1079C0001BE0059B002B12D1039B1868019B013320
:1079D0001A460299FFF776FD039B1B681846FFF7CE
:1079E000C1FD0246079B934201D00D2305E0012211
:1079F00009990398FFF7D6FE002318460BB05DF8EF
:107A000004FB00BF54D2020000B583B001900B46C6
:107A10008DF803309DF803301A4602210198FFF7D4
:107A2000C1FE00BF03B05DF804FB00B583B0019058
:107A30004FF482710198FFF7F7FE0346184603B032
:107A40005DF804FB00B583B0019000914FF48032E3
:107A5000009B02FA03F319460198FFF7C7FE00BF27
:107A600003B05DF804FB00B585B001900091009B68
:107A700050339BB29B00ADF80E30BDF80E30194666
:107A80000198FFF7D1FE0346184605B05DF804FBE8
:107A900000B583B001900091019B1B6800991846C6
:107AA000FFF71EFD0346184603B05DF804FB00B562
:107AB00083B00190019B1B681846FFF753FD0346F6
:107AC000184603B05DF804FB00B583B00190019B3C
:107AD00093F904301846FFF75FFC00BF03B05DF870
:107AE00004FB000008B5044B1B68044A12681046EA
:107AF000984700BF08BD00BF082400200C240020C8
:107B000086B001900091019B53E8011F8AB2D88989
:107B100002449889824228BF121A1889824202BF01
:107B2000BFF32F8F002307E0C2EA010243E80120E0
:107B30000028E9D14FF001038DF80F300590029134
:107B40000492029A009B1A609DF80F30DBB218462F
:107B500006B0704784B00190019951E8013FC3EA33
:107B6000034341E80132002AF7D10392029300BF98
:107B700004B0704786B001900091019B53E8021F4A
:107B80001FFAA1F2D888824202BFBFF32F8F0023D1
:107B90000DE0D88902449889824228BF121AC1EAAE
:107BA000024243E802200028E8D14FF001038DF89B
:107BB0000F30059002910492029A009B1A609DF882
:107BC0000F30DBB2184606B0704784B001900199BF
:107BD00051E8023FC3EA234341E80232002AF7D1C9
:107BE0000392029300BF04B0704784B003900291E7
:107BF00011461A460B46ADF806301346ADF8043070
:107C0000029B002B01D10E231FE0BDF80630BDF80A
:107C10000420B3FBF2F101FB02F29B1A9BB2002B92
:107C200001D0092311E0039B029A1A60039B0022F2
:107C30005A60039B00229A60039BBDF806209A813C
:107C4000039BBDF80420DA810023184604B0704776
:107C500000B585B001900091009B19460198FFF78F
:107C60004FFF0346002B07D0019B1B68009A128828
:107C700013440393039B00E00023184605B05DF80E
:107C800004FB00B583B001900091009B1A88009B13
:107C90005B889A4204D10198FFF75CFF012300E062
:107CA0000023184603B05DF804FB00B585B00190D1
:107CB0000091009B19460198FFF75CFF0346002BDB
:107CC00007D0019B1B68009A528813440393039BBF
:107CD00000E00023184605B05DF804FB00B583B052
:107CE00001900091009B1A88009B5B889A4204D106
:107CF0000198FFF76AFF012300E00023184603B054
:107D00005DF804FB10B487B001900091019B009ACC
:107D100053E8004F104643E8000191F0000FF7D1FF
:107D2000059404900391059B184607B05DF8044B39
:107D30007047000082B003468DF807309DF9073088
:107D4000002B0DDB9DF8073003F01F0206499DF95B
:107D500007305B09012000FA02F2603341F823206A
:107D600000BF02B0704700BF00E100E0BFF34F8FDB
:107D700000BF064BDB6803F4E0620449044B134385
:107D8000CB60BFF34F8F00BF00BFFDE700ED00E009
:107D90000400FA0500B583B00190019B002B03D1CC
:107DA0000449C42002F0B0FA019B5B68184603B096
:107DB0005DF804FBB8D2020000B583B00190019BCE
:107DC000002B03D10649722002F09EFA019B00228B
:107DD0001A60BFF35F8F00BF00BF03B05DF804FB04
:107DE0000CD3020000B585B00190019B002B03D19C
:107DF0000A49852002F088FA01210198FFF782FFE5
:107E00000390BFF35F8F00BF039B002B0CBF0123C8
:107E10000023DBB2184605B05DF804FB0CD302006A
:107E200000B583B00190019B002B03D10A49922039
:107E300002F06AFA019B1B68012B03D006499320CC
:107E400002F062FABFF35F8F00BF019B00221A604D
:107E500000BF03B05DF804FB0CD3020033DF7047B2
:107E600000BF184641DF704700BF18464FF08043FF
:107E70000122C3F80025BFF34F8F00BF20BFFDE7ED
:107E800000B585B000238DF807300DF107031846C3
:107E9000FFF71AFAF1EE103A0393039B23F09F03C6
:107EA0000293029BE1EE103A00BFBFF35F8F00BF69
:107EB0002620FFF73FFF9DF807301846FFF71AFA14
:107EC000039B03F00703002B03D004497D2002F03D
:107ED0001BFA00BF05B05DF804FB00BF44D30200ED
:107EE00008B5064B00221A700548FFF765FF0549E3
:107EF000054800F0AFF80023184608BD1C240020F8
:107F0000182400209CD302002024002000B583B058
:107F1000FFF7B6FF04F068FE0346002B0ED0FFF714
:107F2000A1FF0190019B002B0BD0019B022B08D0DD
:107F300006494FF4B07002F0E7F902E020BF40BFFD
:107F400020BF00BF03B05DF804FB00BF44D30200B4
:107F500000B583B00FE01E48FFF71CFF0090009BA8
:107F60001B681C4A1278104698470346002B2AD0FB
:107F7000174800F099F81648FFF70CFF0346002B4E
:107F8000E9D1144B1B78032B03D0124B1B78022B27
:107F900001D1FFF7EBFE04F027FE0346002B0FD0C4
:107FA000FFF75CFF0190019B002B07D0019B022B88
:107FB00004D009494FF4D17002F0A6F920BFFDE7C3
:107FC000FFF754FF00E000BF03B05DF804FB00BF03
:107FD000202400201424002044D3020000B583B0E4
:107FE00003468DF807301748FFF7FCFE034683F081
:107FF0000103DBB2002B21D19DF80730042B0ED0FA
:10800000114B1B78002B03D00E48FFF709FF16E039
:108010000E4A9DF8073013700B4B01221A700A4B61
:108020001B78002B04D10A4940F2D51002F06CF9FC
:10803000FFF78EFF0348FFF7F3FE00E000BF03B039
:108040005DF804FB182400201C24002014240020C8
:1080500044D3020000B583B001900091019B002B36
:1080600003D11049502002F04FF9009B002B03D19F
:108070000C49512002F048F9019B009A1A60019BBB
:108080001B681A68019B5A60019B5A68019B1B6818
:108090005B689A4202D1019B00225A6000BF03B084
:1080A0005DF804FBA8D3020000B583B00190019BEA
:1080B000002B03D11449632002F026F9019B1B68B1
:1080C000002B03D11049642002F01EF9019B5B686C
:1080D000002B14D0019B5B681A46019B1B689B68B0
:1080E00013441A46019B5A60019B5A68019B1B6806
:1080F0005B689A4204D1019B00225A6000E000BFF5
:1081000003B05DF804FB00BFA8D3020000B585B042
:1081100001900091019B002B03D118493A2002F0F5
:10812000F3F8009B002B03D114493B2002F0ECF83C
:10813000019B5B6803930FE0019B9B68039A1268A5
:10814000009910469847034683F00103DBB2002BE9
:1081500007D1039B1B680393039B1B68002BEBD188
:1081600000E000BF039B1A68009B1A60039B009A03
:108170001A6000BF05B05DF804FB00BF14D4020014
:1081800000B585B00190019B002B03D10C49512013
:1081900002F0BAF8019B5B681B680393019B5B6864
:1081A0001B68002B06D0019B5B681A68019B5B680B
:1081B00012681A60039B184605B05DF804FB00BF07
:1081C00014D4020000B583B00190019B002B03D1B1
:1081D00005495D2002F098F8019B5B681B68184612
:1081E00003B05DF804FB00BF14D4020000B585B0F5
:1081F00001900091019B002B03D11649692002F0E8
:1082000083F8009B002B03D112496A2002F07CF80E
:1082100000238DF80F30019B5B6802930FE0029BF7
:108220001B68009A9A4207D1009B1A68029B1A6049
:1082300001238DF80F3006E0029B1B680293029B1E
:108240001B68002BEBD19DF80F30184605B05DF888
:1082500004FB00BF14D4020000B583B00190019B61
:108260001B68184600F011F90346002B04D105499C
:108270004FF4F67002F048F84FF0A043184603B0F0
:108280005DF804FB6CD4020000B585B0019008468F
:1082900011461A4603468DF803300B468DF802301E
:1082A00013468DF8013001AB1846FFF7D5FF039058
:1082B0009DF803209DF802305B001A439DF80130C1
:1082C0009B001A439DF818301B0242EA03019DF8F7
:1082D0001C301B04019A1943039B02F5E07243F81A
:1082E000221000BF05B05DF804FB00B585B0039017
:1082F000002301930023009300230122012103980E
:10830000FFF7C2FF00BF05B05DF804FB00B585B004
:1083100003900B468DF80B309DF80B300022019234
:1083200000220092002200210398FFF7ADFF00BF5A
:1083300005B05DF804FB00B585B0019001AB1846AF
:10834000FFF78AFF0390019B012202FA03F319460B
:10835000039800F086F800BF05B05DF804FB00B597
:1083600085B0019001AB1846FFF776FF0390019BA3
:10837000012202FA03F31946039800F07CF800BFCB
:1083800005B05DF804FB00B585B0019001AB18465F
:10839000FFF762FF0390039BD3F804350293029B1F
:1083A000DA43019B012101FA03F31A40039BC3F84E
:1083B0000825019B01229A40029B1A40039BC3F8A7
:1083C0000C2500BF05B05DF804FB00B583B001903B
:1083D0000091009B002B03D10198FFF7C0FF02E042
:1083E0000198FFF7A8FF00BF03B05DF804FB00B5DC
:1083F00085B0019001AB1846FFF72EFF039003985C
:1084000000F01FF80246019B22FA03F303F0010378
:10841000184605B05DF804FB00B585B0019001ABCE
:108420001846FFF719FF0390039800F012F8024670
:10843000019B22FA03F303F00103184605B05DF82F
:1084400004FB82B00190019BD3F81035184602B0AE
:10845000704782B00190019BD3F80435184602B0F2
:10846000704782B001900091019B009AC3F80825E3
:1084700000BF02B0704782B001900091019B009A4A
:10848000C3F80C2500BF02B0704784B00190019B77
:108490005B09029300230393029B002B03D14FF04F
:1084A000FF33039300BF019B03F01F030193039A63
:1084B000019B22FA03F303F00103002B14BF0123F5
:1084C0000023DBB2184604B07047000000B585B049
:1084D0000190019B012B03D911493A2001F014FFAF
:1084E000104A019B13441B781846FFF795FF03467B
:1084F000002B14BF012300238DF80F309DF80F309F
:10850000002B14BF01230023DBB283F00103DBB295
:1085100003F00103DBB2184605B05DF804FB00BFB1
:108520009CD40200E0D4020000B583B00190019B0E
:10853000012B03D90749412001F0E6FE064A019BC1
:1085400013441B7800211846FFF73FFF00BF03B01C
:108550005DF804FB9CD40200E0D4020000B583B0B7
:108560000190019B012B03D90749472001F0CCFE64
:10857000064A019B13441B7801211846FFF725FF8B
:1085800000BF03B05DF804FB9CD40200E0D40200FD
:1085900000B583B00023019305E00198FFF7DEFFEB
:1085A000019B01330193019B012BF6D900BF00BF52
:1085B00003B05DF804FB00B583B00023019305E030
:1085C0000198FFF7B1FF019B01330193019B012B40
:1085D000F6D900BF00BF03B05DF804FB00B583B05F
:1085E0000190019B012B03D907495F2001F08CFE0C
:1085F000064A019B13441B781846FFF7C4FE00BFD0
:1086000003B05DF804FB00BF9CD40200E0D402007C
:1086100000B583B00023019309E0094A019B13448C
:108620001B781846FFF761FE019B01330193019B04
:10863000012BF2D9FFF7ACFF00BF03B05DF804FBDC
:10864000E0D4020000B585B00190019B032B03D953
:108650001149AC2001F058FE104A019B13441B78CD
:108660001846FFF7C4FE0346002B14BF0123002366
:108670008DF80F309DF80F30002B14BF012300231D
:10868000DBB283F00103DBB203F00103DBB2184677
:1086900005B05DF804FB00BF9CD40200E4D40200E6
:1086A00000B583B0002301930AE0094A019B1344FB
:1086B0001B7803211846FFF729FE019B0133019324
:1086C000019B032BF1D900BF00BF03B05DF804FB91
:1086D000E4D4020084B001904FF0FF3302930023F2
:1086E00003930DE00A4A039B13441B781A46019B2F
:1086F000934202D1039B029305E0039B0133039352
:10870000039B032BEED9029B184604B0704700BFB1
:10871000E4D4020000B583B00190019B03F0010393
:10872000002B01D0FFF774FF019B03F00203002B25
:1087300001D0FFF7B5FF00BF03B05DF804FB0000F8
:1087400082B003468DF807309DF90730002B13DB0C
:108750009DF8073003F01F0209499DF907305B09B6
:10876000012000FA02F2203341F82320BFF34F8F9B
:1087700000BFBFF36F8F00BF00BF02B0704700BFE4
:1087800000E100E0044BD3F80034002B14BF0123B8
:108790000023DBB2184670470000014008B504F022
:1087A00023FA034683F00103DBB2002B03D109490E
:1087B0007B2001F0A9FDFFF7E5FF034683F00103ED
:1087C000DBB2002B04D000F091FA034B00229A7028
:1087D00000BF08BDE8D402002824002000B583B003
:1087E00000230193184B1B78002B02D085230193A3
:1087F0001CE0154B00229A60134B00225A60124B6A
:1088000000221A61104B0022DA60104800F034FA9E
:10881000019004F0E9F9034683F00103DBB2002B79
:1088200001D000F04FFA084B01221A70FFF7AAFF9F
:108830000346002B02D0044B01229A70019B18467C
:1088400003B05DF804FB00BF282400202589020046
:1088500084B00190019B1B680393039B002B03D002
:10886000039B1A68019B1A60039B184604B070476B
:1088700000B583B0164B1B78002B04D1154940F28C
:10888000171001F041FD124BDB68002B04D1114998
:108890004FF48C7001F038FD00238DF807300DF196
:1088A00007031846FEF710FD094BDB68013B084A39
:1088B000D360074BDB68002B01D1FFF76FFF9DF8FA
:1088C00007301846FEF716FD00BF03B05DF804FB45
:1088D00028240020E8D4020000B585B003468DF8B6
:1088E00007309DF80730002B02D10C4B039301E0B9
:1088F0000B4B03930398FFF7ABFF0290029B002BF7
:1089000006D0029B5B689DF8072010469847F1E768
:1089100000BF00BF05B05DF804FB00BF302400209D
:108920003824002000B583B003468DF807309DF849
:108930000730002B05D10A4B01225A700020FFF7A7
:10894000CBFF9DF80730012B05D1054B01229A7012
:108950000120FFF7C1FF00BF03B05DF804FB00BFBB
:108960002824002000B583B001900091019B002BCA
:1089700005D1054B01225A700020FFF7ADFF00BF63
:1089800003B05DF804FB00BF2824002000B585B0CB
:10899000034600918DF807309DF80730032B29D04E
:1089A000032B35DC002B02D0012B04D030E000205B
:1089B000FFF7C6FE2DE000238DF80F300DF10F03F9
:1089C0001846FEF781FC154B1B7883F00103DBB2E0
:1089D000002B01D0FFF702FF104BDB6801330F4A79
:1089E000D3600E4B01229A709DF80F301846FEF7A7
:1089F00081FC0EE0094B1B78002B04D1084940F2A2
:108A0000522001F081FC00F05DF9FFF731FF00E03A
:108A100000BF00BF05B05DF804FB00BF28240020A4
:108A2000E8D4020082B003468DF807309DF9073084
:108A3000002B0CDB9DF8073003F01F0205499DF960
:108A400007305B09012000FA02F241F8232000BF41
:108A500002B0704700E100E082B0034600918DF85B
:108A600007309DF90730002B0ADB009BDAB20C4976
:108A70009DF907305201D2B20B4483F800230BE07A
:108A8000009BDAB207499DF8073003F00F03043B5F
:108A90005201D2B20B441A7600BF02B0704700BF39
:108AA00000E100E000ED00E082B00190019B1B0BB3
:108AB0005BB2184602B0704700B583B003460A4661
:108AC0008DF8073013468DF806309DF80630012BDF
:108AD00003D99DF80630032B0BD99DF80630042BE3
:108AE00003D99DF80630072B03D908496B2001F004
:108AF0000BFC9DF806209DF9073011461846FFF73C
:108B0000ABFF00BF03B05DF804FB00BF3CD5020023
:108B100000B583B003468DF807309DF9073018463D
:108B2000FFF780FF00BF03B05DF804FB82B003468F
:108B30008DF807300F4A9DF90730002B00DA1F33FC
:108B40005B115BB252F823209DF90730594203F0C4
:108B50001F0301F01F0158BF4B425BB222FA03F31F
:108B600003F00103002B14BF01230023DBB21846DE
:108B700002B0704700E100E082B001904FF0804207
:108B8000019BC2F8083300BF02B0704782B00346B1
:108B90008DF807309DF8073003F1804301221A60F9
:108BA00000BF02B0704784B00346ADF80630BDF890
:108BB000063003F1804300221A60BDF8063003F14D
:108BC00080431B680393039B00BF04B0704782B0CF
:108BD0000346ADF80630BDF8063003F180431B684C
:108BE000002B14BF01230023DBB2184602B07047EC
:108BF00082B001904FF08042019BC2F8183500BF4F
:108C000002B070474FF08043D3F818341B0C03F0C8
:108C10000103002B14BF01230023DBB21846704769
:108C200000B583B006238DF807304FF08040FFF782
:108C30003BFF03461846FFF779FF034683F0010325
:108C4000DBB2002B13D04FF08040FFF72DFF03461F
:108C50001A469DF8073019461046FFF72DFF4FF0D2
:108C60008040FFF721FF03461846FFF751FF00BF82
:108C700003B05DF804FB000000B585B00190019BD6
:108C8000002B03D10D49A42001F03EFB00230393E8
:108C90000B4B1B79002B02D08523039308E0084A75
:108CA000019B1360064B01221A71054B00225A7179
:108CB000039B184605B05DF804FB00BF6CD50200AD
:108CC0003C24002008B5074B1B79002B03D1064933
:108CD000BD2001F019FBFFF7A3FF0120FFF788FF7C
:108CE00000BF08BD3C2400206CD5020008B50D4B28
:108CF0001B79002B03D10C49F72001F005FB022062
:108D0000FFF73AFF4FF48270FFF74DFF0C20FFF79B
:108D10003DFF00BFFFF776FF0346002BFAD100BFEF
:108D200000BF08BD3C2400206CD5020008B54FF4FC
:108D30008070FFF74CFF0346002B14D04FF4807077
:108D4000FFF731FF0120FFF717FF114B5B7983F02D
:108D50000103DBB2002B06D00D4B01225A710C4BE4
:108D60001B68002098474FF48270FFF730FF0346DE
:108D7000002B0AD04FF48270FFF715FF0220FFF797
:108D8000FBFE034B1B680120984700BF08BD00BFD6
:108D90003C24002082B003468DF807309DF907304F
:108DA000002B0CDB9DF8073003F01F0205499DF9ED
:108DB00007305B09012000FA02F241F8232000BFCE
:108DC00002B0704700E100E082B0034600918DF8E8
:108DD00007309DF90730002B0ADB009BDAB20C4903
:108DE0009DF907305201D2B20B4483F800230BE007
:108DF000009BDAB207499DF8073003F00F03043BEC
:108E00005201D2B20B441A7600BF02B0704700BFC5
:108E100000E100E000ED00E082B00190019B1B0B3F
:108E20005BB2184602B0704700B583B003460A46ED
:108E30008DF8073013468DF806309DF80630012B6B
:108E400003D99DF80630032B0BD99DF80630042B6F
:108E500003D99DF80630072B03D908496B2001F090
:108E600053FA9DF806209DF9073011461846FFF782
:108E7000ABFF00BF03B05DF804FB00BFBCD5020030
:108E800000B583B003468DF807309DF907301846CA
:108E9000FFF780FF00BF03B05DF804FB00B583B0AF
:108EA0000346ADF80630BDF80630184600F026F847
:108EB00003461B68012B0CBF01230023DBB21846BD
:108EC00003B05DF804FB00B585B00346ADF806308D
:108ED000BDF80630184600F011F803461A46002384
:108EE0001360BDF80630184600F008F803461B680A
:108EF0000393039B00BF05B05DF804FB82B00346FB
:108F0000ADF80630BDF8063003F1804303F5C043E9
:108F1000184602B07047000082B00190034A019BDE
:108F2000C2F8043300BF02B0704700BF00600040C9
:108F300082B00190034BD3F80423019B13401846E1
:108F400002B070470060004082B00190084A019B67
:108F500003F5A27352F82330054943F00102019B47
:108F600003F5A27341F8232000BF02B0704700BF91
:108F70000060004084B00390029113468DF80730E2
:108F8000144A039B03F5A27352F82330114923F4CA
:108F9000473323F44073039A02F5A27241F822305A
:108FA0000C4A039B03F5A27352F82320029B1B0279
:108FB00003F4F8519DF807301B0403F440330B43CE
:108FC00004491A43039B03F5A27341F8232000BF11
:108FD00004B070470060004082B00190054A019BD8
:108FE00003F5A27352F823301B0A03F01F0318463F
:108FF00002B070470060004082B00190064A019BB9
:1090000003F5A27352F823301B0C03F00303DBB209
:10901000184602B0704700BF0060004000B583B042
:109020000190019B1B68184600F015F90346002BC0
:1090300004D105494FF4F67001F066F94FF0A043F2
:10904000184603B05DF804FBECD5020000B585B00E
:109050000190084611461A4603468DF803300B4628
:109060008DF8023013468DF8013001AB1846FFF73A
:10907000D5FF03909DF803209DF802305B001A4352
:109080009DF801309B001A439DF818301B0242EAFC
:1090900003019DF81C301B04019A1943039B02F540
:1090A000E07243F8221000BF05B05DF804FB00B584
:1090B00085B003900B468DF80B309DF80B300022E5
:1090C000019200220092002200210398FFF7BEFFC8
:1090D00000BF05B05DF804FB00B585B0019001ABA1
:1090E0001846FFF79BFF0390019A039B02F5E0727D
:1090F00053F8223023F002030293019A039B02F5F6
:10910000E072029943F8221000BF05B05DF804FB3D
:1091100000B585B001900B468DF8033001AB1846C1
:10912000FFF77CFF0390019A039B02F5E07253F86E
:109130002230019A23F44031039B02F5E07243F898
:109140002210019A039B02F5E07253F822309DF839
:10915000032012041146019A1943039B02F5E072A1
:1091600043F8221000BF05B05DF804FB00B585B0E0
:10917000019001AB1846FFF751FF0390039800F0F0
:1091800020F80246019B22FA03F303F0010318467C
:1091900005B05DF804FB00B585B0019001AB184641
:1091A000FFF73CFF0390019A039B02F5E07253F82E
:1091B00022301B0C03F00303DBB2184605B05DF848
:1091C00004FB82B00190019BD3F81035184602B021
:1091D000704786B00390029101924FF0A043049330
:1091E000039B059319E0059B9B0006AA134453F8C3
:1091F000083CD3F82025019B1A60059B9B0006AA1A
:10920000134453F8083C019A1268C3F82025019BC7
:1092100004330193059B01330593039A029B134486
:10922000059A9A42DFD300BF00BF06B0704700B571
:1092300085B0019001AB1846FFF7F0FE0390019B4B
:10924000012202FA03F31A46039BC3F8202500BF4C
:1092500005B05DF804FB84B00190019B5B090293AB
:1092600000230393029B002B03D14FF0FF330393A2
:1092700000BF019B03F01F030193039A019B22FA95
:1092800003F303F00103002B14BF01230023DBB21F
:10929000184604B0704784B001900091009B03937E
:1092A000019BDB080293019B03F00703019301225A
:1092B000019B02FA03F30399029A0A4412781340BD
:1092C000184604B0704784B001900091009B03934E
:1092D000019BDB080293019B03F007030193039AB0
:1092E000029B13441B785AB20121019B01FA03F33C
:1092F0005BB2134359B2039A029B1344CAB21A7069
:1093000000BF04B07047000082B001900C4A019B7E
:109310001344303393F90030002B09DB084A019BDA
:109320001344303393F90030072B01DC012300E0B4
:10933000002303F00103DBB2184602B0704700BF00
:109340004424002082B00190064A019B134430332C
:1093500093F90030072BCCBF01230023DBB2184662
:1093600002B070474424002082B00190064A019B5D
:109370001344303393F90030DB43DBB2DB09DBB25B
:10938000184602B0704700BF4424002084B0039008
:10939000029101928DF80330029B59B20E4A039B51
:1093A000134430330A461A700B49029B019A41F864
:1093B00023209DF8033083F00103DBB2002B08D09B
:1093C000029B083B039A51B2034A13440A4683F8AE
:1093D000502000BF04B070474424002082B00190A8
:1093E000044A019B13443033FF221A7000BF02B0BD
:1093F000704700BF4424002000B583B001900449A9
:109400000198FFF760FF00BF03B05DF804FB00BFE9
:109410009824002082B00190044A019B1344303309
:1094200093F90030184602B0704700BF4424002072
:1094300082B00190034A019B52F82330184602B0D3
:10944000704700BF4424002084B00190074A019B6C
:109450001344503393F900308DF80F309DF80F30DE
:1094600023F0C003184604B0704700BF4424002016
:1094700084B00190074A019B1344503393F90030A4
:109480008DF80F309DF80F309B09DBB2184604B001
:10949000704700BF4424002000B589B003900291BA
:1094A00013468DF80730FF238DF81F309DF80730E5
:1094B000002B01D0002300E0082305939DF807301E
:1094C000002B01D0082300E00C230493059B069396
:1094D00014E00F4A069B52F82330B3F1FF3F0AD144
:1094E0009DF80730029A06990398FFF74FFF069BF5
:1094F0008DF81F3006E0069B01330693069A049B05
:109500009A42E6D39DF91F30184609B05DF804FB76
:109510004424002082B003468DF807309DF80730C0
:10952000094A4FF0FF3142F823109DF80730072B0E
:1095300007D99DF80730083B034A1344FF2283F8FC
:10954000502000BF02B070474424002000B583B013
:109550002D4B93F85830002B03D008230093009B29
:109560004EE000238DF8073011E09DF807301846D3
:10957000FFF771FE0346002B04D09DF80730184614
:10958000FFF72CFF9DF8073001338DF807309DF869
:1095900007301F2BE9D900238DF8073009E09DF82B
:1095A00007301846FFF7B6FF9DF8073001338DF8F6
:1095B00007309DF807300B2BF1D904220021134806
:1095C00003F03EFD1248FFF727FC0346062118462C
:1095D000FFF72AFC0E48FFF71FFC03461846FFF76B
:1095E0004FFC4FF4BE70FFF76EFC4FF00040FFF7EA
:1095F00093FC054B012283F8582000230093009B25
:10960000184603B05DF804FB442400209824002091
:1096100000600040044B93F85830002B14BF012326
:109620000023DBB2184670474424002000B587B001
:109630000390029101920398FFF70DFE0346002B61
:1096400004D136494FF40C7000F05EFE0023059300
:109650000398FFF789FE0346002B02D008230593E9
:1096600057E0029B9B78C3F34003DBB21A46019993
:109670000398FFF711FF03468DF813309DF913305F
:10968000B3F1FF3F43D0029B9B78C3F38003DBB26F
:1096900083F00103DBB2002B13D0029B9B7803F015
:1096A0000103DBB2002B03D00398FFF715FD05E0A3
:1096B000029B5B7819460398FFF7F9FC0398FFF7C4
:1096C0009BFE029B9B7803F00203DBB2002B08D0C9
:1096D0009DF91300029B1B781A460399FFF74AFC79
:1096E00017E09DF91330083B0D4A134493F95010CD
:1096F000029B1B789B015AB29DF91330083B0A4329
:1097000051B2074A13440A4683F8502001E004236B
:109710000593059B184607B05DF804FB1CD60200B4
:109720004424002000B589B001900B468DF8033029
:109730000198FFF790FD0346002B04D13A494FF4FE
:10974000187000F0E1FD0198FFF70EFE0346002BB4
:1097500004D1354940F2612000F0D6FD0198FFF7B1
:10976000F1FD0346002B2AD00198FFF753FE034674
:10977000083B1846FFF77CFE03468DF80F309DF836
:109780000F30032B0BD10198FFF7F0FC0346002BA1
:1097900001D0032300E002238DF81F3008E09DF87C
:1097A0000F30012B01D1022300E003238DF81F307D
:1097B0009DF81F3019460198FFF7AAFC30E0019888
:1097C000FFF7A2FD0346002B2AD00198FFF722FEE7
:1097D00003460693069B9BB240339BB29B00ADF8B9
:1097E0001630069B1846FFF7AFFBBDF8163018463B
:1097F000FFF769FB9DF80330002B11D00198FFF7AC
:1098000009FE03461846FFF713FE0490049B002B45
:1098100006D00122069B02FA03F31846FFF77CFBF1
:1098200000BF09B05DF804FB1CD6020000B583B090
:1098300001900198FFF70FFD0346002B04D1094961
:1098400040F2AF2000F060FD0198FFF78FFC034667
:10985000002B14BF01230023DBB2184603B05DF8D0
:1098600004FB00BF1CD6020000B585B00190019A30
:1098700001210020FFF7ADFC002303930BE0039BC5
:109880009B00019A13441B68002B01D0012306E0C2
:10989000039B01330393039B002BF0D00023184656
:1098A00005B05DF804FB000000B587B0019000230F
:1098B00005935BE0344A059B1344503393F9003021
:1098C000B3F1FF3F4ED00598FFF7BEFD049001991C
:1098D0000498FFF7E0FC0346002B44D00598FFF7FF
:1098E000C7FD03468DF80F300498FFF754FC03467C
:1098F0008DF80E309DF80E30022B01D1032300E0CD
:1099000002238DF80D309DF80D3019460498FFF7AD
:10991000FFFB0498FFF78BFC0498FFF77BFD0346E1
:109920001846FFF785FD0290029B002B1BD09DF887
:109930000F30032B0FD09DF80E30022B03D19DF872
:109940000F30012B07D09DF80E30032B0BD19DF863
:109950000F30022B07D19DF80F20029B114604986F
:10996000984700E000BF059B01330593059B032B3F
:10997000A0D90198FFF778FF0346002B97D100BFCD
:1099800000BF07B05DF804FB4424002000B589B097
:1099900000230793002300934FF48073ADF8163033
:1099A000012304930023069321E0BDF816301846E6
:1099B000FFF774FA0346002B0ED00498FFF7B8FAAD
:1099C0000346002B08D0BDF816301846FFF77BFA87
:1099D000079A049B13430793049B5B000493BDF811
:1099E00016300433ADF81630069B01330693069B00
:1099F000072BDAD94FF4BE70FFF750FA0346002B5D
:109A00000DD04FF4BE70FFF75EFA079B43F00043A2
:109A100007936B461A4601210020FFF7DAFB079BEC
:109A2000DBB2002B29D0012304930023069321E00D
:109A3000049A079B1340002B16D00698FFF7CCFA28
:109A400003900698FFF7D8FA03468DF80B30069876
:109A5000FFF7EEFC0190019B002B05D09DF80B2039
:109A6000019B114603989847049B5B000493069B57
:109A700001330693069B072BDAD9079B002B03DAE9
:109A80006B461846FFF710FF00BF09B05DF804FBF6
:109A900000B587B003460A468DF8073013468DF8A7
:109AA000063000238DF81730002304939DF807300B
:109AB0001846FEF70FFE0490049B032B61D89DF817
:109AC0000630022B52D0022B5EDC002B31D0012B52
:109AD0005AD13649049A13465B0013440B441B7851
:109AE0008DF817303149049A13465B0013440B4438
:109AF00001331B78002B0ED02D4B2E4A4FF48041A2
:109B00001846FDF703FB0390039B002B03D1294A62
:109B10009DF8073013702549049A13465B001344DF
:109B20000B4402331978244A049B13440A461A70E2
:109B30002AE01F4B1846FDF721FB1F4A049B1344E4
:109B400019781A48049A13465B00134403440233FD
:109B50001B78994217D11549049A13465B001344A8
:109B60000B4402331B788DF817300CE00F49049A30
:109B700013465B0013440B4401331B788DF81730F8
:109B800002E000BF00E000BF9DF81730002B09D0B5
:109B90000A4B1B68002B05D0084B1B689DF817204B
:109BA0001046984700BF07B05DF804FBF42400207E
:109BB000002500202025002024250020F02400205E
:109BC00000B583B00190019B1B7802211846FFF776
:109BD0005FFF00BF03B05DF804FB000000B583B079
:109BE0000C4B1B78002B0FD00023019308E0019B46
:109BF000022B02D00198FEF7B1FC019B01330193C7
:109C0000019B012BF3D901E0FEF7C2FC00BF03B0BA
:109C10005DF804FBA82400202DE9D04F92B0034644
:109C20008DF83F300023119300231093CC4B1B7809
:109C3000002B04D0CA4A00231370FFF7CFFF9DF812
:109C40003F30172B00F23F8201A252F823F000BFF1
:109C5000B19C0200C99C0200C99C0200659D0200E3
:109C6000019E02007D9E0200119F0200319F0200B2
:109C7000419F02006D9F02008B9F0200A99F02007E
:109C8000C79F0200D59F0200D59F0200D59F02000A
:109C9000D59F0200D59F020069A0020077A00200B4
:109CA0008BA002009FA00200B9A00200B9A0020090
:109CB000FFF794FFAB4B1846FDF760FA1190AA4AE4
:109CC0009DF83F301370FFE10020FEF7FFFB0346D5
:109CD000002B0DD00020FEF741FC9DF83F30022BF9
:109CE00002D14FF4E16301E04FF47A6310930BE08B
:109CF0000020FEF719FC9DF83F30022B01D1C8234C
:109D000001E04FF4C8731093974A9DF83F301370E9
:109D1000944C109B0022009301924FF000024FF0F0
:109D20000003DDE900673946CB03314643EA51437E
:109D30003146CA0312F57A71029143F1000303938D
:109D40004FF4FA624FF00003DDE9020103F0E8F896
:109D500002460B461346002219462046FDF7D6F967
:109D60001190B1E10020FEF7B1FB0346002B0DD0AE
:109D70000020FEF7F3FB9DF83F30032B02D14FF498
:109D8000487301E04FF47A6310930BE00020FEF774
:109D9000CBFB9DF83F30032B01D1C82301E04FF4EA
:109DA000C8731093704A9DF83F3013706D4C109B30
:109DB0000022049305924FF000024FF00003DDE90A
:109DC00004673946CB03314643EA51433146CA035F
:109DD00012F57A71069143F1000307934FF4FA628A
:109DE0004FF00003DDE9060103F09AF802460B4646
:109DF0001346002219462046FDF788F9119063E1C9
:109E00000020FEF763FB0346002B06D00020FEF780
:109E1000A5FB4FF47A63109305E00020FEF784FB66
:109E20004FF4C8731093504A9DF83F3013704D4C57
:109E3000109B00229A4693464FF000024FF0000319
:109E40004FEACB3343EA5A434FEACA3212F57A71EA
:109E5000089143F1000309934FF4FA624FF00003B5
:109E6000DDE9080103F05CF802460B4613460022C8
:109E700019462046FDF74AF9119025E10020FEF72A
:109E800025FB0346002B0CD00020FEF767FB9DF856
:109E90003F30052B01D1C82301E04FF47A631093C2
:109EA0000BE00020FEF740FB9DF83F30052B01D171
:109EB000C82301E04FF4C87310932B4A9DF83F303C
:109EC0001370284C109B0022984691464FF00002D8
:109ED0004FF000034FEAC93343EA58434FEAC83210
:109EE00012F57A710A9143F100030B934FF4FA6271
:109EF0004FF00003DDE90A0103F012F802460B46B9
:109F00001346002219462046FDF700F91190DBE0C8
:109F10000020FEF763FB144A9DF83F301370114B8D
:109F2000002240F266611846FDF7F0F81190CBE090
:109F30000020FEF7F9FA0C4A9DF83F301370C3E099
:109F4000074B01221A700120FEF748FB054B002247
:109F500040F266611846FDF7D9F81190B4E000BFF1
:109F6000A1240020B0240020A0240020594B01226D
:109F70001A700120FEF732FB574B00224FF40051BC
:109F80001846FDF7C3F811909EE0524B01221A705B
:109F90000120FEF723FB504B002240F26661184679
:109FA000FDF7B4F811908FE04A4B01221A7001209E
:109FB000FEF714FB484B00224FF400511846FDF702
:109FC000A5F8119080E0FEF7F6FA444A9DF83F307C
:109FD000137079E0424B1846FDF7D0F811909DF8C8
:109FE0003F30C3F111031093109B002B35D0119B10
:109FF000002B32D1109B012B28D9394C109B9BB2DE
:10A000001A46C82302FB03F3DA171E4617464FF021
:10A0100000024FF00003FB0343EA5643F20312F53C
:10A020007A710C9143F100030D934FF4FA624FF0F3
:10A030000003DDE90C0102F073FF02460B461346F4
:10A04000002219462046FDF761F811900220FEF724
:10A050006BFA244B01221A7036E00220FEF77EFADA
:10A06000204B00221A702FE0FFF7B8FD1B4A9DF825
:10A070003F30137028E0FFF7B1FD0020FEF754FADF
:10A08000164A9DF83F3013701EE0FFF7A7FD012030
:10A09000FEF74AFA114A9DF83F30137014E0FFF7BB
:10A0A0009DFD0020FEF740FA0120FEF73DFA0B4A25
:10A0B0009DF83F30137007E0FEF77DFA074A9DF8E0
:10A0C0003F30137000E000BF119B184612B0BDE88E
:10A0D000D08F00BFA1240020B0240020A0240020A5
:10A0E000D0240020A824002000B583B00190074BA5
:10A0F0001B6803F00103002B04D0054B1B781846A6
:10A10000FFF78AFD00BF03B05DF804FBA424002024
:10A11000A024002000B583B001900220FEF75EFA73
:10A1200000BF03B05DF804FB00B585B0019000915D
:10A13000002303932A4A019B13602A4A009B136061
:10A14000019B03F00203002B2AD00023029308E0B6
:10A1500001220121029800F055F80390029B01337F
:10A160000293029B032B02D8039B002BF0D0039B8E
:10A17000002B06D140F2333204211B48FCF756FB7A
:10A180000390039B002B02D1FCF7D8FB0390039BA9
:10A19000002B05D1154A00211548FCF783FF0390D9
:10A1A000019B03F00103002B14D00120FEF7B2FA4B
:10A1B000039B002B05D10F4A00210F48FCF772FFCB
:10A1C0000390039B002B05D10C4A01210C48FCF79E
:10A1D00069FF0390039B184605B05DF804FB00BFC0
:10A1E000A4240020F024002078D60200C19B0200A5
:10A1F00074D60200E9A002006CD6020015A102008C
:10A2000070D6020084B001900B468DF803301346DF
:10A210008DF8023000230393019B032B3CD89DF85B
:10A220000230012B0BD19DF80330012B04D1019B8F
:10A23000DBB20E33DBB200E000238DF802309DF874
:10A240000330022B0FD0022B23DC002B16D0012B66
:10A250001FD11449019A13465B0013440B449DF827
:10A2600002201A701AE00F49019A13465B0013444A
:10A270000B4401339DF802201A700FE00949019A3E
:10A2800013465B0013440B4402339DF802201A70FE
:10A2900004E00723039301E007230393039B18467D
:10A2A00004B07047F424002033DF704700BF184625
:10A2B00072DF704700BF184673DF704700BF184653
:10A2C00076DF704700BF18467ADF704700BF184638
:10A2D0007CDF704700BF18468FDF704700BF18460D
:10A2E000A8DF704700BF1846AADF704700BF1846B6
:10A2F000AEDF704700BF1846B1DF704700BF184699
:10A3000062DF704700BF184600B583B00346009176
:10A31000ADF80630BDF80630009A19460348FCF740
:10A3200085FB00BF03B05DF804FB00BFEFBEADDEF0
:10A3300000B587B01423ADF81230204B1B884FF6C0
:10A34000FF72934236D01E4B1B78002B32D06B46E7
:10A3500010220021184602F073FE0123ADF81230DE
:10A36000184B1B88ADF8003001238DF80230002314
:10A37000ADF804300DF112030293134B03930F4B0E
:10A380001B886A4611461846FFF7B2FF0590059BE9
:10A39000002B0FD0059B082B0CD0059B132B09D04D
:10A3A000059B43F20142934204D0084AEE210598EE
:10A3B000FCF73CFB00BF07B05DF804FBF82200206F
:10A3C000D6250020CC250020A0250020B0D60200F4
:10A3D00000B587B09DF80030012262F303038DF8C9
:10A3E00000309DF80030012262F307138DF8003031
:10A3F0006B4611221B491846FFF76AFF0590059B23
:10A400000493049B002B05D0174A40F205110498D1
:10A41000FCF70CFB01AB08220021184602F010FEED
:10A420001023ADF804301023ADF806300023ADF84A
:10A4300008304FF4C873ADF80A3001AB1846FFF787
:10A4400043FF0590059B0393039B002B05D0064A11
:10A4500040F211110398FCF7E9FA00BF07B05DF86C
:10A4600004FB00BF10D70200B0D6020000B583B0D5
:10A470000021094801F050FC0190019B0093009BD2
:10A48000002B05D0054A4FF48D710098FCF7CEFAE9
:10A4900000BF03B05DF804FB28250020B0D6020001
:10A4A00000B583B00190054A40F227110198FCF7EE
:10A4B000BDFA00BF03B05DF804FB00BFB0D60200D8
:10A4C00000B585B0002301930B4B019301AB1946F6
:10A4D0000A4801F0EDFC0390039B0293029B002BC2
:10A4E00005D0074A4FF49B710298FCF79FFA00BF12
:10A4F00005B05DF804FB00BFA1A402003C250020CC
:10A50000B0D6020008B5182200210C4802F098FDD0
:10A510000A4B01221A70094B40F6B8329A81074B58
:10A5200000225A60054B00221A75044B20229A60C3
:10A53000024B01225A7500BF08BD00BF88250020CC
:10A5400008B5182200210C4802F07AFD0A4B0422BB
:10A550001A70094B40F6B8329A81074B00225A60B4
:10A56000054B00221A75044BA0229A60024B01226F
:10A570005A7500BF08BD00BF8825002000B599B0FE
:10A5800005238DF85F3001231693169B002B05D110
:10A590002B4A4FF4B8710020FCF748FA03AB3C2279
:10A5A0000021184602F04CFD5923ADF80030182365
:10A5B000ADF80430234B02939DF85F308DF80F30D7
:10A5C0006B460C93204B196803AB204A184601F0E8
:10A5D000CBF81590159B1493149B002B05D0184AAB
:10A5E00040F27D111498FCF721FA194B1B78002BCF
:10A5F00011D0184A00211848FFF75AFE1590159BF4
:10A600001293129B002B17D00D4A4FF4C171129870
:10A61000FCF70CFA10E00F4A0B490F48FFF748FE11
:10A620001590159B1393139B002B05D0044A40F201
:10A6300087111398FCF7FAF900BF19B05DF804FB15
:10A64000B0D60200B4250020FC2200200023002008
:10A65000D825002088250020FA22002000B595B0DA
:10A6600003468DF807300AAB03220021184602F09A
:10A67000E7FC9DF82A30012262F342038DF82A306C
:10A680009DF82830012262F303038DF828309DF8ED
:10A690002830012262F307138DF828309DF8293005
:10A6A000012262F303038DF829309DF8293001223D
:10A6B00062F307138DF829300BAB1C2200211846DA
:10A6C00002F0BEFC9DF82C3043F002038DF82C30D4
:10A6D0009DF82C3043F010038DF82C3000230C93A0
:10A6E00000230E9300230F930AAB109300231193C2
:10A6F0009DF807308DF8123041F22453ADF8103038
:10A7000003AB03220021184602F09AFC9DF80C309E
:10A71000012262F303038DF80C309DF80C30012206
:10A7200062F307138DF80C309DF80D306FF30303BF
:10A730008DF80D309DF80D306FF307138DF80D3047
:10A740009DF80E30012262F342038DF80E309DF821
:10A750000E306FF3C3038DF80E309DF80E306FF39B
:10A7600004138DF80E309DF80E306FF300038DF852
:10A770000E3005AB14220021184602F061FC04AB38
:10A78000059303AB06931423ADF81C300023ADF8FA
:10A790001E301423ADF820300C4B09930C4B188855
:10A7A00005AA0BA90B4BFFF79FFD1390139B129368
:10A7B000129B002B05D0084A4FF4E3711298FCF766
:10A7C00035F900BF15B05DF804FB00BFA0250020DF
:10A7D000D4250020CC250020B0D6020000B585B0DD
:10A7E00041F22353ADF800306B4602331946154849
:10A7F000FFF786FD0390039B0293029B002B05D07D
:10A80000114A40F2D7110298FCF710F96B460F4A33
:10A8100019460120FFF764FD0390039B0193019B00
:10A82000002B05D0084A4FF4ED710198FCF7FEF8B3
:10A830009DF802301846FFF711FF00BF05B05DF824
:10A8400004FB00BFA0D60200B0D60200D425002031
:10A8500000B587B00190134B1846FCF78FFC0590AC
:10A86000059B0493049B002B05D00F4A4FF4F9710C
:10A870000498FCF7DBF80D4B1B8813211846FFF7F3
:10A880001FFD0590059B0393039B002B05D0064AF3
:10A8900040F2F5110398FCF7C9F800BF07B05DF866
:10A8A00004FB00BF48250020B0D60200F82200209B
:10A8B00000B583B00190FFF73BFD00BF03B05DF82A
:10A8C00004FB000000B585B0144B00224FF4A471C6
:10A8D0001846FCF71BFC0390039B0293029B002B82
:10A8E00005D00F4A4FF406710298FCF79FF80D4B04
:10A8F00000224FF4A0311846FCF708FC0390039B9C
:10A900000193019B002B05D0054A4FF40771019874
:10A91000FCF78CF800BF05B05DF804FB482500206B
:10A92000B0D602006825002000B585B0114B18464E
:10A93000FCF724FC0390039B0293029B002B05D0A1
:10A940000D4A40F227210298FCF770F80B4B18468D
:10A95000FCF714FC0390039B0193019B002B05D093
:10A96000054A40F22A210198FCF760F800BF05B0C3
:10A970005DF804FB68250020B0D6020048250020C1
:10A9800000B583B00A4B1B7801211846FFF794FCF1
:10A990000190019B0093009B002B05D0054A40F2DB
:10A9A00035210098FCF742F800BF03B05DF804FBC6
:10A9B000FA220020B0D6020000B585B0FCF734FBC7
:10A9C0000390039B0293029B002B05D0154A40F293
:10A9D00043210298FCF72AF8134A01211348FCF797
:10A9E00061FB0390039B0193019B002B05D00D4A53
:10A9F00040F249210198FCF719F80D4A00210D4851
:10AA0000FCF750FB0390039B0093009B002B05D0A9
:10AA1000044A40F24E210098FCF708F800BF05B048
:10AA20005DF804FBB0D60200B1A8020098D602007F
:10AA300051A802009CD6020000B583B0002103207B
:10AA4000FFF772FB0190019B0093009B002B05D048
:10AA5000044A40F257210098FBF7E8FF00BF03B01B
:10AA60005DF804FBB0D6020000B585B00190019BF3
:10AA700006330393039B1A880F4B9B889A4217D186
:10AA8000039B5B89022B13D1039B0C33184600F008
:10AA90007AFF03461A46094B1A70084B1B78002BA5
:10AAA00004D0FFF70FFFFFF743FC01E0FFF73CFF87
:10AAB00000BF05B05DF804FBCC250020D6250020A2
:10AAC00000B58DB001900091019B1B88262B77DC8F
:10AAD000102B3FDA12E13B3B1B2B00F20F8101A24E
:10AAE00052F823F0A9AC0200FDAC0200FDAC02005C
:10AAF000FDAC0200FDAC0200FDAC0200FDAC0200AA
:10AB0000FDAC0200FDAC0200FDAC0200FDAC020099
:10AB1000FDAC0200FDAC0200FDAC0200FDAC020089
:10AB2000FDAC0200FDAC0200FDAC0200FDAC020079
:10AB3000FDAC0200FDAC0200F5AC0200FDAC020071
:10AB40005BAC0200FDAC0200FDAC0200FDAC0200FB
:10AB5000CFAC0200103B162B00F2D08001A252F8BD
:10AB600023F000BFCDAB0200FDAB0200FDAC020044
:10AB7000FDAC0200FDAC0200FDAC0200FDAC020029
:10AB8000FDAC0200FDAC0200FDAC0200FDAC020019
:10AB9000FDAC0200FDAC0200FDAC0200FDAC020009
:10ABA000FDAC0200FDAC020027AC0200FDAC0200CF
:10ABB000FDAC0200FDAC0200FDAC020083AC020063
:10ABC000562B00F39B803B2B85DA97E0019B9A88FC
:10ABD000544B1A80534B1B881946534801F08AF98D
:10ABE0000B900B9B0493049B002B00F089804F4A31
:10ABF00040F287210498FBF719FF81E0494B4FF69B
:10AC0000FF721A80FFF790FEFFF74EFB0B900B9B35
:10AC10000593059B002B75D0444A40F28F2105987F
:10AC2000FBF704FF6EE000238DF80C3000238DF855
:10AC30000D30019B9B8803AA11461846FFF74CFB79
:10AC40000B900B9B0693069B002B5DD0374A40F27E
:10AC50009A210698FBF7EAFE56E0324B1888032348
:10AC600000220021FFF748FB0B900B9B0993099BE7
:10AC7000002B4BD02D4A40F2A2210998FBF7D6FEBB
:10AC800044E0019B1B7A012B42D1FFF70DFB0B9097
:10AC90000B9B0793079B002B3AD0244A40F2AA2132
:10ACA0000798FBF7C3FE33E0019B9B8813211846EE
:10ACB000FFF706FB0B900B9B0893089B002B29D0FA
:10ACC0001A4A40F2B2210898FBF7B0FE22E0019B3D
:10ACD0009B8813211846FFF7F3FA0B900B9B0A93FE
:10ACE0000A9B002B18D0114A40F2B9210A98FBF7B1
:10ACF0009DFE11E00198FFF7B7FE0EE000BF0CE0EB
:10AD000000BF0AE000BF08E000BF06E000BF04E0AB
:10AD100000BF02E000BF00E000BF00BF0DB05DF863
:10AD200004FB00BFF82200203C250020B0D6020022
:10AD300000B587B001F004FF0590059B0493049BC8
:10AD4000002B05D0164A4FF434710498FBF76EFEC1
:10AD50000023019301AB1946012001F0A9FF0590E2
:10AD6000059B0393039B002B05D00D4A40F2D6218F
:10AD70000398FBF75BFE01AB184602F013F8059051
:10AD8000059B0293029B002B05D0054A40F2DA2175
:10AD90000298FBF74BFE00BF07B05DF804FB00BF55
:10ADA000B0D6020000B583B0FDF79AF80190019B80
:10ADB0000093009B002B05D0044A40F2E721009845
:10ADC000FBF734FE00BF03B05DF804FBB0D6020011
:10ADD00008B5FDF79BF800BF08BD000008B5FFF7F8
:10ADE000EBFDFFF729FEFFF7DDFF0020FDF72AFC52
:10ADF00003461A461D4B1A701C4B1B7883F0010347
:10AE0000DBB2002B06D00120FDF71CFC03461A46DE
:10AE1000174B1A70FFF78CFF144B1B7883F001035C
:10AE2000DBB2002B09D0124B1B7883F00103DBB29D
:10AE3000002B02D00020FDF7D1F8FFF7C9FAFFF789
:10AE400015FBFFF73DFB094B1B78002B04D0FFF7E8
:10AE500059FBFFF7C3FC01E0FFF772FBFFF78EFB26
:10AE6000FFF78EFDFFF7B4FFFCE700BFD7250020FA
:10AE7000D82500206DDF704700BF184679DF704786
:10AE800000BF18467DDF704700BF184664DF70477B
:10AE900000BF184682B003460091ADF80630BDF8F9
:10AEA0000630DAB2009B1A70BDF806301B0A9AB25F
:10AEB000009B0133D2B21A700223184602B07047C9
:10AEC00000B589B0039002911346ADF80630029B9D
:10AED0001B8803F10902BDF806309A4201D90C2300
:10AEE00053E004AB1846FFF7C5FF0790079B069396
:10AEF000069B002B01D0069B47E0029B1B881A464D
:10AF0000039B134408221A70029B1B8801339AB2D8
:10AF1000029B1A80029B1B881A46039B13441B2228
:10AF20001A70029B1B8801339AB2029B1A80029B03
:10AF30001B881A46039B981804AB01330622194656
:10AF400002F055F8029B1B8806339AB2029B1A80C6
:10AF50009DF8103023F00103DBB2002B07D1029BD8
:10AF60001B881A46039B134400221A7006E0029BBA
:10AF70001B881A46039B134401221A70029B1B88EC
:10AF800001339AB2029B1A800023184609B05DF87B
:10AF900004FB00B589B0039002910192ADF8023034
:10AFA000039B1B78012B05D1039B5B78002B01D100
:10AFB000072392E0019B1B889A1CBDF802309A423D
:10AFC0000ED8039B1B78012B0CD1019B1B881A46C2
:10AFD000039B5B7813449A1CBDF802309A4201D956
:10AFE0000C237AE0019B1B88BDF80220D31A9BB288
:10AFF000023BADF81C30BDF81C30ADF81230019B9F
:10B000001B880233029A13440DF1120211461846AE
:10B01000FFF738FF0690069B0593059B002B01D098
:10B02000059B5AE0039B1B78022B06D0039B5B78A1
:10B030009AB2BDF812309A4209D3BDF81230BDF869
:10B040001C209A4203D309238DF81F3017E00823F0
:10B050008DF81F30039B1B78012B0CD1039B5B7871
:10B060009BB2BDF81C209A4205D3039B5B789BB230
:10B07000ADF8123003E0BDF81C30ADF81230BDF869
:10B080001230FE2B01D90C2327E0BDF81230DAB2C2
:10B09000019B1B881946029B0B440132D2B21A70E5
:10B0A000019B1B8801339AB2019B1A80019B1B886C
:10B0B0001A46029B13449DF81F201A70019B1B889F
:10B0C00001339AB2019B1A80019B1A88BDF8123095
:10B0D00013449AB2019B1A800023184609B05DF808
:10B0E00004FB00B589B0039002911346ADF8063019
:10B0F000029B1B881A1DBDF806309A4201D90C2309
:10B100003BE00DF116031846FFF7B8FE0790079BCA
:10B110000693069B002B01D0069B2EE0029B1B880A
:10B120001A46039B134403221A70029B1B880133A7
:10B130009AB2029B1A80029B1B881A46039B1344F7
:10B1400019221A70029B1B8801339AB2029B1A8043
:10B15000BDF81620029B1B881946039B0B44194619
:10B160001046FFF797FE03461946029B1A888BB2DA
:10B1700013449AB2029B1A800023184609B05DF866
:10B1800004FB84B0029101921A4603468DF80F30F9
:10B190001346ADF80C30019B1B88DA1CBDF80C304F
:10B1A0009A4201D90C2328E0019B1B881A46029B76
:10B1B000134402221A70019B1B8801339AB2019B2F
:10B1C0001A80019B1B881A46029B134401221A70A5
:10B1D000019B1B8801339AB2019B1A80019B1B883B
:10B1E0001A46029B13449DF80F201A70019B1B887E
:10B1F00001339AB2019B1A800023184604B07047AD
:10B2000084B0029101921A4603468DF80F3013461E
:10B21000ADF80C30019B1B88DA1CBDF80C309A424B
:10B2200001D90C2328E0019B1B881A46029B13447A
:10B2300002221A70019B1B8801339AB2019B1A806B
:10B24000019B1B881A46029B13440A221A70019B19
:10B250001B8801339AB2019B1A80019B1B881A46F6
:10B26000029B13449DF80F201A70019B1B88013329
:10B270009AB2019B1A800023184604B0704700B5AB
:10B280008FB0039001930B468DF80B3013468DF869
:10B290000A3000238DF83330109B1B88ADF8303016
:10B2A00000230D9371E0039B5A680D9B9B001A4489
:10B2B00005AB106818600DF11B0105AB00221846A4
:10B2C000FFF7E4FD0A900A9B0993099B002B01D02C
:10B2D000099B7CE09DF81B309DF80A209A4251D1D1
:10B2E0009DF83330002B01D0002300E002238DF8BD
:10B2F0002330109B1B881A469DF81B301A449DF87A
:10B3000023301A44BDF844309A4201DD0C235EE03C
:10B310009DF8333083F00103DBB2002B16D0109B75
:10B320001B8801339AB2109B1A80109B1B881A4607
:10B33000019B13449DF80B201A70109B1B8801334E
:10B340009AB2109B1A8001238DF83330109B1B8812
:10B350001A46019B1A440DF11B0105AB1846FFF775
:10B3600095FD0A900A9B0793079B002B01D0079B32
:10B370002DE0109B1A889DF81B309BB213449AB2A3
:10B38000109B1A800D9B01330D93039B1B881A465B
:10B390000D9B934287DB9DF83330002B16D0109B1A
:10B3A0001A88BDF83030D31A9BB2013BADF82E306D
:10B3B000BDF82E30FF2B01D90C2308E0BDF830304A
:10B3C000019A1344BDF82E20D2B21A7000231846F9
:10B3D0000FB05DF804FB00B58BB0059003930B46EE
:10B3E0008DF8133013468DF812309DF81310BDF808
:10B3F000343001930C9B0093039B02220598FFF7C6
:10B400003EFF0990099B0893089B002B01D0089BE5
:10B4100014E09DF81210BDF8343001930C9B00939A
:10B42000039B10220598FFF72AFF0990099B0793B9
:10B43000079B002B01D0079B00E0002318460BB0B0
:10B440005DF804FB82B00190019B1B88052B0AD993
:10B45000019B1B88B3F5486F07D9019B1B884FF6EA
:10B46000FF72934201D0072325E0019B5B88052BE7
:10B470000AD9019B5B88B3F5486F07D9019B5B88AC
:10B480004FF6FF72934201D0072314E0019B1B8803
:10B490004FF6FF7293420DD0019B5B884FF6FF720F
:10B4A000934207D0019B1A88019B5B889A4201D97D
:10B4B000072300E00023184602B0704700B587B0AC
:10B4C000039002910192ADF80230019B1B889A1DF6
:10B4D000BDF802309A4201D90C234DE00398FFF7E2
:10B4E000B1FF0590059B0493049B002B01D0049BA6
:10B4F00042E0019B1B881A46029B134405221A70E6
:10B50000019B1B8801339AB2019B1A80019B1B8807
:10B510001A46029B134412221A70019B1B880133A6
:10B520009AB2019B1A80039B1A88019B1B881946BB
:10B53000029B0B4419461046FFF7ACFC0346194624
:10B54000019B1A888BB213449AB2019B1A80039B09
:10B550005A88019B1B881946029B0B4419461046CA
:10B56000FFF798FC03461946019B1A888BB21344D7
:10B570009AB2019B1A800023184607B05DF804FBBD
:10B5800000B587B0039002910192ADF80230039BA1
:10B590009B8802330593019B1B881A46059B134425
:10B5A0009A1CBDF802309A4201D90C2354E0059B45
:10B5B000FE2B01D90C234FE0059BDAB2019B1B88BF
:10B5C0001946029B0B440132D2B21A70019B1B88B0
:10B5D00001339AB2019B1A80019B1B881A46029B79
:10B5E0001344FF221A70019B1B8801339AB2019BFE
:10B5F0001A80039B1A88019B1B881946029B0B44E7
:10B6000019461046FFF746FC03461946019B1A8867
:10B610008BB213449AB2019B1A80039B9B88002B28
:10B6200019D0039B9B68002B01D1072314E0019BD9
:10B630001B881A46029B9818039B9968039B9B885A
:10B640001A4601F0D4FC019B1A88039B9B88134483
:10B650009AB2019B1A800023184607B05DF804FBDC
:10B6600000B589B0039002910192ADF80230039BBE
:10B670009B6A002B01D1072372E000238DF81F3055
:10B6800066E0039B996A9DF81F2013465B001344F4
:10B690009B000B440693069B9B8802330593059BF6
:10B6A000FE2B01D90C235BE0059BDAB2019B1B88C2
:10B6B0001946029B0B440132D2B21A70019B1B88BF
:10B6C00001339AB2019B1A80019B1B881A46029B88
:10B6D000134416221A70019B1B8801339AB2019BF6
:10B6E0001A80069B1A88019B1B881946029B0B44F3
:10B6F00019461046FFF7CEFB03461946019B1A88F0
:10B700008BB213449AB2019B1A80069B9B88002B34
:10B7100019D0069B9B68002B01D1072320E0019BD9
:10B720001B881A46029B9818069B9968069B9B8863
:10B730001A4601F05CFC019B1A88069B9B88134407
:10B740009AB2019B1A809DF81F3001338DF81F308B
:10B75000039B93F82C309DF81F209A4291D300232D
:10B76000184609B05DF804FB00B595B0059004914A
:10B77000039200231393039B1B88ADF84A30039B6D
:10B7800000221A80059B93F82D30002B0ED0BDF8B7
:10B790004A301A4603990498FFF792FB1390139BC3
:10B7A0001193119B002B01D0119BD8E0059B9B7836
:10B7B000002B0ED0BDF84A301A4603990498FFF7C3
:10B7C00090FC1390139B1093109B002B01D0109BA7
:10B7D000C5E0059BDB78002B10D0059BDB7858B2C9
:10B7E000BDF84A30039A0499FFF7CBFC1390139BE2
:10B7F0000F930F9B002B01D00F9BB0E0059B5B6864
:10B80000002B11D0059B5B6893F90000BDF84A300E
:10B81000039A0499FFF7F4FC1390139B0E930E9B6D
:10B82000002B01D00E9B9AE0059B1B89002B14D0A6
:10B83000059B03F10800BDF84A300193039B009378
:10B84000049B06220221FFF7C6FD1390139B0D9364
:10B850000D9B002B01D00D9B81E0059B1B8A002BCB
:10B8600014D0059B03F11000BDF84A300193039BEF
:10B870000093049B07220321FFF7ADFD1390139B58
:10B880000C930C9B002B01D00C9B68E0059B1B8B41
:10B89000002B14D0059B03F11800BDF84A3001932A
:10B8A000039B0093049B15221421FFF794FD139032
:10B8B000139B0B930B9B002B01D00B9B4FE0059B25
:10B8C0001B6A002B0FD0059B186ABDF84A30039AFB
:10B8D0000499FFF7F3FD1390139B0A930A9B002B27
:10B8E00001D00A9B3BE0059B5B6A002B0FD0059BB8
:10B8F000586ABDF84A30039A0499FFF741FE139045
:10B90000139B0993099B002B01D0099B27E0059B02
:10B9100093F82C30002B0ED0BDF84A30039A0499CE
:10B920000598FFF79DFE1390139B0893089B002B2F
:10B9300001D0089B13E0059B1B78002B0ED0BDF8AF
:10B940004A30039A04990598FFF723FB1390139B41
:10B950000793079B002B01D0079B00E0139B184621
:10B9600015B05DF804FB82B00190019B1B781AB200
:10B97000019B01331B781B021BB213431BB29BB20A
:10B98000184602B0704700B585B001900198FFF7E6
:10B99000EAFF0346ADF80E30BDF80E3003F00103A8
:10B9A000002B14BF01230023DBB2184605B05DF85D
:10B9B00004FB90DF704700BF1846A5DF704700BF4B
:10B9C0001846B5DF704700BF184682B00190019B52
:10B9D00017221A80019B17225A80019B00221A719C
:10B9E000019B00225A71019B1B229A71019B1B2211
:10B9F000DA7100BF02B0704700B589B003460A464D
:10BA0000ADF806301346ADF80430BDF80430ADF89B
:10BA10001430BDF80430ADF816300023ADF81830FE
:10BA20000023ADF81A3003AB00221A609A8003AAF3
:10BA300005A9BDF806301846FFF7BBFF0790079B26
:10BA4000002B02D0BDF80C30002B079B184609B024
:10BA50005DF804FB00B587B001900091009B9B88C6
:10BA6000ADF81630BDF81630DB00019A13440633EA
:10BA70000493019B1A79049B9A71009BDB7B012B39
:10BA800002D0022B05D009E0019B1A88049B1A8082
:10BA900004E0019B5A88049B1A8000BF049B1A880B
:10BAA000049B5B889A4215D9049B1A88BDF816300E
:10BAB00011461846FFF781FF0390039B002B03D12B
:10BAC000049B01225A7105E0039B112B02D1049BB8
:10BAD00001221A71049B9A79049BDB799A4208D956
