:1000000000000120750300005D0300005F03000095
:1000100061030000630300006503000000000000AE
:100020000000000000000000000000006703000066
:1000300069030000000000006B0300006D03000076
:100040006F0300006F030000F53900002544000035
:100050006F0300006F030000F13800006F03000021
:100060006F0300006F0300006F0300006F030000C8
:100070006F0300006F0300006F0300006F030000B8
:100080006F030000A11A00006F0300006F0300005F
:100090006F0300006F0300006F0300006F03000098
:1000A0006F0300006F0300006F0300006F03000088
:1000B0006F0300006F03000000000000000000005C
:1000C0006F0300006F0300006F0300006F03000068
:1000D0006F0300006F0300006F03000000000000CA
:1000E0000000000000000000000000000000000010
:1000F0000000000000000000000000000000000000
:1001000000000000000000000000000000000000EF
:1001100000000000000000000000000000000000DF
:1001200000000000000000000000000000000000CF
:1001300000000000000000000000000000000000BF
:1001400000000000000000000000000000000000AF
:10015000000000000000000000000000000000009F
:10016000000000000000000000000000000000008F
:10017000000000000000000000000000000000007F
:10018000000000000000000000000000000000006F
:10019000000000000000000000000000000000005F
:1001A000000000000000000000000000000000004F
:1001B000000000000000000000000000000000003F
:1001C000000000000000000000000000000000002F
:1001D000000000000000000000000000000000001F
:1001E000000000000000000000000000000000000F
:1001F00000000000000000000000000000000000FF
:10020000354936480A1A02D0072291438D463449AF
:1002100034480A1A06D00722914381F30988022242
:1002200082F3148830483149314A00F044F83148AB
:100230003149324A00F03FF831483249324A00F041
:100240003AF832483249334A00F035F832483349F7
:10025000334A00F030F833483349344A00F02BF881
:1002600033483449344A00F026F8344834490022EF
:1002700000F02CF833483449002200F027F83348C6
:100280003349091A082902DB002202604160314A21
:1002900090471F481F49884205D00268043003B4C4
:1002A000904703BCF7E700208646EC46002000217B
:1002B000294A9047FEE7884207D0521A05D00378B2
:1002C00001300B700131013AF9D17047884202D0F8
:1002D00002700130FAE770470000012000E00020C2
:1002E0000000012000000120006D0000000000203F
:1002F00060000020D0030000D003000094580000EC
:10030000006D0000000000200000002000590000E7
:100310000059000000590000005900000059000079
:10032000005900000059000000590000FE6C000058
:10033000606D000060000020600000206000002070
:10034000FC0E0020FC0E0020FC0E0020FC0E002005
:10035000FC2E00209D030000E54A0000FEE7FEE7BA
:10036000FEE7FEE7FEE7FEE7FEE7FEE7FEE7FEE765
:1003700000F002B8FFF7FCBF0F484FF007018843B9
:1003800085460E4880470E48016841F470010160BF
:10039000BFF34F8FBFF36F8FFFF732BF09480A4992
:1003A0000A4A884207D0521A05D0037801300B70F0
:1003B0000131013AF9D17047000001209D5300003E
:1003C00088ED00E00059000000000020000000203F
:1003D00000B585B00190019B002B0AD0074B43F07C
:1003E00001030393019B9B010293039B029898478F
:1003F00000E000BF05B05DF804FB00BF105900002D
:1004000000B583B00190019B002B0AD04FF47A70A5
:10041000FFF7DEFF019B013B0193019B002BF5D110
:1004200000E000BF03B05DF804FB08B504F03CFD3C
:1004300000BF08BD00B589B0039002910192019BF5
:10044000002B33D00023079303230693029A079BC4
:100450001344019A1946002004F0D6FC0590079A2F
:10046000059B13440793019A059BD31A0193059B9F
:10047000002B13D10F4B1B7883F00103DBB2002B51
:1004800013D10120FFF7BCFF069B013B0693069B9F
:10049000002B03D1074B00221A7007E0054B012205
:1004A0001A70019B002BD1D100E000BF00BF09B042
:1004B0005DF804FB6000002000B585B00390029158
:1004C000054B00934023054A0299039800F012F867
:1004D00000BF05B05DF804FB350400006400002097
:1004E00082B0019000BF02B0704782B0019000BF9F
:1004F00002B0704700B5A1B0059004910392029339
:10050000049802F0E3F8039B1593029B16930023D3
:10051000179300238DF8603000231993229B1A93C0
:1005200000231F930FA91F9B0822049802F0A8F92B
:1005300008231F93119B1293BDF84030ADF84C3047
:10054000BDF84230ADF84E3000238DF851309DF8A3
:100550003C3003F00303DBB2012B26D10F9BC3F326
:1005600095231C939DF83C30C3F3C203DBB28DF896
:100570005030BDF83C30C3F38313DBB21B931B9B9D
:100580009A0009A91F9B049802F07AF91B9B9B0013
:100590001F9A13441F9312AA09A915AB009313467F
:1005A0001B9A1C9800F0D2FE2FE09DF83C3003F01F
:1005B0000303DBB2022B28D1BDF83E30C3F389130D
:1005C0009BB21E939DF83C30C3F3C203DBB28DF89F
:1005D00050301E9B082B28BF08231D9307A91F9B83
:1005E0001D9A049802F04CF91F9A1D9B13441F9307
:1005F0001E9A1D9BD31A1E9315AB12AA07A81D990C
:1006000000F046FF1E9B002BE3D1049802F06DF82A
:1006100000BF21B05DF804FB82B00190019BDB6854
:1006200001225A7100BF02B07047000000B583B0CC
:100630004FF0FF330193FFF7F8FE0421084800F064
:10064000A1FD0190019B002B03DA0649412001F036
:1006500035FA0348FFF7E0FF00BF03B05DF804FB85
:10066000DC5800002859000000B583B001900091CB
:10067000019B1B681B6800990198984700BF03B055
:100680005DF804FB00B583B00190019B1B685B68BB
:100690000198984700BF03B05DF804FB00B583B034
:1006A0000190019B1B689B680198984700BF03B0AD
:1006B0005DF804FB82B001900B468DF80330019B7E
:1006C000DB689DF803201A7100BF02B0704782B04A
:1006D0000190019BDB681B79184602B0704782B01D
:1006E0000190019BDB6801225A7100BF02B0704784
:1006F00082B00190019BDB685B79184602B07047BD
:1007000000B585B0019000910C4B01221A700C4885
:1007100001F040FF0390039B002B01D0039B08E0F6
:10072000084802F0CDF8084A084BD31ADB080293B8
:100730000023184605B05DF804FB00BF0C02002042
:10074000EC580000B4590000DC5800009458000038
:10075000024A034BD31ADB0818467047DC580000E6
:100760009458000000B587B001900B468DF8033017
:100770009DF80330002B1FD0FFF7EAFF0490002301
:10078000059313E0059B9B000E4A13440393039BC0
:100790001B881A46019B1B689A4204D1019B059A4B
:1007A0001A60002309E0059B01330593059A049B19
:1007B0009A42E7D3052300E00023184607B05DF80E
:1007C00004FB00BF0000002000B585B001900B467F
:1007D0008DF803309DF8032001AB11461846FFF752
:1007E000C1FF0346002B07D1019BDB00054A1344E0
:1007F0000393039B1B6800E00023184605B05DF8D7
:1008000004FB00BF9458000084B001900B468DF8A3
:100810000330019BDB00174A134402939DF8033019
:10082000013B032B1CD801A252F823F03D08000025
:10083000450800004D0800005708000002238DF80D
:100840000F3011E004238DF80F300DE0029B1B796F
:100850008DF80F3008E0029B5B798DF80F3003E0D4
:1008600000238DF80F3000BF9DF80F30184604B0FC
:10087000704700BF9458000084B00190009100239D
:100880008DF80F30019B1B7803F00403DBB2002BC3
:1008900024D0019B1B78C3F30103DBB2012B02D0F0
:1008A000022B0CD017E0009B1B68019A1288C2F340
:1008B0008312D2B213449A1C009B1A600BE0009B77
:1008C0001B68019A5288C2F3891292B213449A1C8F
:1008D000009B1A6000BF01238DF80F309DF80F3088
:1008E000184604B07047000000B58BB00023ADF887
:1008F00026303E4801F06FF93D4801F06CF93D4B60
:100900009B6804933C4B1B680693049A069B134018
:1009100002339B00374A13440433089304AB19464F
:100920000898FFF7A9FF0346002B09D0049A069BFD
:10093000134002339B002F4A134404330893EDE71E
:1009400000BF0023079311E0049B5A1C0492069AEF
:100950001340079A920001A90A44264902339B00DA
:100960000B445B681360079B01330793079B012BC4
:10097000EAD99DF80430C3F30103DBB2012B10D098
:10098000022B1CD1BDF80A30ADF82630BDF8063078
:10099000C3F389139BB203339A08049B1344049353
:1009A00013E0BDF80A30ADF82630BDF80430C3F3CB
:1009B0008313DBB21A46049B1344049305E00F49EA
:1009C0004FF4C27001F07AF800BF094801F00FF946
:1009D0000590059B002B02D0049B064A9360BDF84E
:1009E000263018460BB05DF804FB00BF240600203B
:1009F000200600200C02002008000020C45900003E
:100A000000B585B00021074801F06EF80390039B04
:100A10000293029B83F310030193019B184605B0D8
:100A20005DF804FB2806002000B589B00390029110
:100A300001920093039B1B0C0793FFF7E1FF0690C5
:100A4000FFF786FE0246079B934204D3214940F2FA
:100A5000A91001F033F8069B1904009B5A1C0A9B4D
:100A60001340079A0A431C4902339B000B445A6007
:100A7000009A0A9B134002339B00174A1344043325
:100A80000593039B03F00703D9B2059A137861F32A
:100A9000C5031370019B03F00F03D9B2059A1388A5
:100AA00061F389131380029BC3F31501059A136840
:100AB00061F39F231360059A1378012161F3010309
:100AC0001370059A13786FF38203137000BF09B097
:100AD0005DF804FBC45900000C02002000B58BB087
:100AE0000390029113468DF80730039B023308935D
:100AF00001238DF81F30002000F08AFF3E4B5A681A
:100B0000029B1A603D4B1A683B4B99683A4B5B68F5
:100B1000CB1A13440133099314E00121384801F042
:100B20002AF8FFF7E1FE05900599354801F023F812
:100B3000324B1A68304B99682F4B5B68CB1A1344C1
:100B400001330993089A099B9A42E6D89DF81F3011
:100B5000002B48D0002304939DF80730002B17D0BA
:100B60009DF81030012262F301038DF810309DF8DA
:100B7000103043F004038DF81030039B03F00F0393
:100B8000DAB2BDF8103062F38913ADF8103016E018
:100B90009DF81030022262F301038DF810309DF8A9
:100BA000103043F004038DF81030039BC3F30903A6
:100BB0009AB2BDF8123062F38F13ADF812300E4BBB
:100BC0005A680E4B1B68134002339B000A4A1344B9
:100BD00004330693049A069B1A60074B5A68089BD5
:100BE0001344054A5360002000F026FF9DF81F3093
:100BF00018460BB05DF804FB0C0200200800002032
:100C00002806002000B58BB0059004910392029352
:100C10001F4B1B68079306AB012219460298FFF78A
:100C20005DFF0346002B24D0069B0233099300236B
:100C3000089311E0089B9B00039A1A44099B591CD6
:100C4000099107990B401268124902339B000B442B
:100C50005A60089B01330893089A029B9A42E9D391
:100C6000069A079B00931346029A04990598FFF78A
:100C7000DBFE084B1B78002B05D000BF00F07EF890
:100C80000346002BFAD100BF0BB05DF804FB00BF98
:100C9000080000200C02002000B583B001900091F4
:100CA0000023002200990198FFF7ACFF00BF03B0BA
:100CB0005DF804FB00B587B0039002910192019B9F
:100CC000059305AA012302990398FFF79BFF00BF34
:100CD00007B05DF804FB00B587B003900291019264
:100CE0000093019B0493009B059304AA022302999D
:100CF0000398FFF787FF00BF07B05DF804FB00B55E
:100D000089B00390029101920093019B0593009B8F
:100D100006930A9B079305AA032302990398FFF7FA
:100D200071FF00BF09B05DF804FB00B58BB0039004
:100D3000029101920093019B0593009B06930C9BEB
:100D400007930D9B08930E9B099305AA052302990F
:100D50000398FFF757FF00BF0BB05DF804FB0000DE
:100D6000054B9A68044B5B689A420CBF0123002331
:100D7000DBB21846704700BF0C02002000B599B0E6
:100D8000FFF7EEFF0346002B01D00023B9E19B4B98
:100D90000022C3F81824BFF34F8F00BF974B9B6806
:100DA0000493974B1B681093049A109B13400233D3
:100DB0009B00924A1344043311930023179300239A
:100DC000169300230F9304AB19461198FFF754FDB7
:100DD0000346002B19D0894BD3F81834002B14D1BB
:100DE000864B5A68049B9A4205D8844B5B68834AB9
:100DF0009360002385E1049A109B134002339B000B
:100E00007E4A134404331193DDE70023159311E068
:100E1000049B5A1C0492109A1340159A920001A93F
:100E20000A44764902339B000B445B681360159BB0
:100E300001331593159B012BEAD99DF8043003F07B
:100E40000303DBB2022B40F09C80BDF80630C3F3F5
:100E500089139BB20D93BDF80630C3F389139BB27F
:100E6000502B28BF50239BB20C930C9BC3F3090358
:100E70009AB2BDF8063062F38F13ADF806300C9BC2
:100E800008330B939DF80430C3F3C203DBB20F9316
:100E90000B995C4801F089FB1790179B002B00F021
:100EA000D380179801F012FC01A9169B082217980D
:100EB00001F0C8FC169B08331693049BDA43109B81
:100EC000134001339B000A930C9A0A9B9A4242D921
:100ED0000A9B002B08D0049A109B134002339B00FE
:100EE000464A1344043300E0474B08930A9B002B07
:100EF00002D00A9BDBB201E00C9BDBB28DF81F3005
:100F00000A9B002B01D0404B00E0002306930A9B74
:100F1000002B06D00C9BDAB20A9BDBB2D31ADBB2F1
:100F200000E000238DF817309DF81F20169B0899CC
:100F3000179801F087FC9DF81F30169A13441693FA
:100F4000069B002B16D09DF81720169B0699179824
:100F500001F078FC0EE0049A109B134002339B00D2
:100F6000264A134404330993169B0C9A099917983F
:100F700001F068FC0D9B03339A08049B134404930F
:100F800062E09DF8043003F00303DBB2012B5BD178
:100F9000BDF80430C3F38313DBB2062B28BF06234E
:100FA000DAB2BDF8043062F38913ADF80430BDF84D
:100FB0000430C3F38313DBB202330E939DF8043085
:100FC000C3F3C203DBB20F930E9B9B0019460D487F
:100FD00001F0EBFA1790179B002B35D0179801F012
:100FE00075FB01A9169B0822179801F02BFC169B94
:100FF00008331693002315931DE000BF0C02002058
:1010000008000020EC58000018020020049B5A1C25
:101010000492109A134002339B003C4A1344191D5A
:10102000169B0422179801F00DFC169B04331693AF
:10103000159B01331593BDF80430C3F38313DBB262
:101040001A46159B9342E1D3179B002B39D02F4BA7
:10105000D3F8103414932D4BD3F81834002B1BD035
:10106000179801F042FB46E000238DF84F301498AA
:10107000FFF73EFB0346002B02D001238DF84F30D3
:101080009DF84F30002B03D017991498FFF7ECFA16
:10109000149BDB681B681493149B002BE4D11798F6
:1010A00001F023FB002000F0B3FC184BD3F81834F8
:1010B000002B02D1049B154A9360002000F0BCFC79
:1010C00019E0124BD3F81034129306E01298FFF790
:1010D000E5FA129BDB681B681293129B002BF5D17B
:1010E0000B4A0C4BD31ADB081B0443F002030A49DA
:1010F0001846FFF7D1FDFFF733FE034683F00103E7
:10110000DBB2184619B05DF804FB00BF0C020020EA
:10111000BC58000094580000485A000000B585B043
:101120000023039323E0164BD3F8103402930123DA
:101130008DF807300FE00298FFF7C9FA03461A4608
:10114000039B934203D100238DF8073006E0029BF6
:10115000DB681B680293029B002BECD19DF80730E3
:10116000002B01D0039B07E0039B01330393039BF8
:10117000092BD8DD4FF0FF33184605B05DF804FBAE
:101180000C02002000B585B001900B468DF80330AD
:10119000FFF7C4FF0390039BB3F1FF3F01D1039B13
:1011A00022E0039BDBB219460198FFF783FA104B4C
:1011B000D3F81034002B08D10D4A019BC2F810342B
:1011C000019BDB6800221A600DE0094BD3F8103454
:1011D000DA68019BDB6812681A60054BD3F810349B
:1011E000DB68019A1A60039B184605B05DF804FBA2
:1011F0000C02002000B583B00C4BD3F810340193DF
:101200000A4B01221A7009E00198FFF768FA019869
:10121000FFF738FA019BDB681B680193019B002BE9
:10122000F2D100BF00BF03B05DF804FB0C02002048
:1012300082B00190009100BF02B0704710B584B039
:1012400003900291039BDB88002B0AD0039BDB8871
:101250001A461F4B009313461E4A1F49029800F07E
:10126000F5FD039B1B7A052B2ED0039B5B7A002B8D
:1012700012D0039B9B881A46039B1B7A1946104683
:10128000FFF7C2FA03461A46144B53F822301A46A7
:101290001349029800F0DAFD039B1B681946029877
:1012A000FFF7C6FF039B1B7A1A460E4B53F82240EA
:1012B000039B9B8800211846FFF786FA03462246C7
:1012C0000949029800F0C2FD00BF04B010BD00BF84
:1012D0007C5A00008C5A0000C45A000020000020F4
:1012E000DC5A00000C000020E05A000000B585B078
:1012F0000390029113468DF80730039B1B7A052B50
:101300000FD0039B5B7A002B06D00D4B1B681A464F
:101310000C49029800F09AFD0B49029800F096FDE6
:1013200007E09DF80730002B03D00749029800F032
:101330008DFD029800F068FD00BF05B05DF804FB6C
:1013400020000020DC5A0000EC5A000030B58BB0C1
:1013500007900691059204930E9B1B7B8DF8273016
:101360000E9B00221A730E990498FFF767FF059BE6
:10137000062B7FD801A252F823F000BF991300007A
:10138000A3130000B3130000C7130000E51300000F
:101390000D1400003D14000007990E9800F056FD52
:1013A00069E0069B1B681A4607990E9800F04EFDEF
:1013B00061E0069B1A68069B04331B6807990E9828
:1013C00000F044FD57E0069B1A68069B0433196839
:1013D000069B08331B6800930B4607990E9800F094
:1013E00035FD48E0069B1968069B04331868069B88
:1013F00008331B68069A0C32126801920093034668
:101400000A4607990E9800F021FD34E0069B186803
:10141000069B04331C68069B08331B68069A0C3233
:1014200012680699103109680291019200932346CF
:10143000024607990E9800F009FD1CE0069B1C6807
:10144000069B04331D68069B08331B68069A0C3202
:1014500012680699103109680698143000680390E4
:101460000291019200932B46224607990E9800F0B4
:10147000EDFC00E000BF00220E990498FFF736FF54
:101480000E9B9DF827201A7300BF0BB030BD00BF24
:1014900000B587B00390029101920093029B082B44
:1014A00060D8009B1B7B8DF81330009B00221A73C1
:1014B00000990198FFF7C2FE0023059314E0059AF6
:1014C000029B9A4209D2039A059B13441B781A4641
:1014D0002649009800F0BAFC03E02549009800F086
:1014E000B5FC059B01330593059B072BE7D92149E3
:1014F000009800F0ABFC0023059326E0059A029BC0
:101500009A421BD2039A059B13441B788DF8123024
:101510009DF812307E2B0AD89DF81230184604F040
:1015200025F90346002B02D09DF8123000E02E234F
:101530001A461149009800F089FC03E00F49009811
:1015400000F084FC059B01330593059B072BD5D93F
:10155000012200990198FFF7C9FE009B9DF8132016
:101560001A7300E000BF07B05DF804FBF05A0000FA
:10157000F85A0000FC5A0000005B0000045B000009
:1015800000B583B00190019B1B68184600F0B5F8C8
:101590000346002B04D105494FF4F67000F08EFA93
:1015A0004FF0A043184603B05DF804FB085B000051
:1015B00000B585B00190084611461A4603468DF8DD
:1015C00003300B468DF8023013468DF8013001AB25
:1015D0001846FFF7D5FF03909DF803209DF80230D1
:1015E0005B001A439DF801309B001A439DF81830A8
:1015F0001B0242EA03019DF81C301B04019A1943A7
:10160000039B02F5E07243F8221000BF05B05DF8BD
:1016100004FB00B585B003900023019300230093E1
:101620000023012201210398FFF7C2FF00BF05B08C
:101630005DF804FB00B585B003900B468DF80B30C8
:101640009DF80B300022019200220092002200211E
:101650000398FFF7ADFF00BF05B05DF804FB00B5D0
:1016600085B0019001AB1846FFF78AFF0390019BFC
:10167000012202FA03F31946039800F02AF800BF8A
:1016800005B05DF804FB00B585B0019001AB1846CC
:10169000FFF776FF0390019B012202FA03F319463C
:1016A000039800F020F800BF05B05DF804FB00B51A
:1016B00083B001900091009B002B03D10198FFF7AC
:1016C000E2FF02E00198FFF7CAFF00BF03B05DF838
:1016D00004FB82B001900091019B009AC3F8082599
:1016E00000BF02B0704782B001900091019B009A48
:1016F000C3F80C2500BF02B0704784B00190019B75
:101700005B09029300230393029B002B03D14FF04C
:10171000FF33039300BF019B03F01F030193039A60
:10172000019B22FA03F303F00103002B14BF0123F2
:101730000023DBB2184604B07047000000B583B048
:101740000190019B012B03D90749472000F0B6F90E
:10175000064A019B13441B7800211846FFF7A7FF98
:1017600000BF03B05DF804FB385B0000A85B00001D
:1017700000B583B00023019305E00198FFF7DEFF79
:10178000019B01330193019B012BF6D900BF00BFE0
:1017900003B05DF804FB000000B583B000230193A3
:1017A00009E0094A019B13441B781846FFF731FFF3
:1017B000019B01330193019B012BF2D9FFF7D8FF65
:1017C00000BF03B05DF804FBA85B000000B583B068
:1017D0000023019307E0002303211846FFF72AFFA7
:1017E000019B01330193019B002BF4D000BF00BF8C
:1017F00003B05DF804FB00B583B00190019B03F0DA
:101800000103002B01D0FFF7C7FF019B03F0020388
:10181000002B01D0FFF7DAFF00BF03B05DF804FB37
:1018200086B003900291019201238DF817309DF844
:101830001730204A039B13601E4A029B53601D4AC7
:10184000019B9360039B44F20102934212D0039BDD
:1018500044F20202934220D1019B164AD360154BF9
:10186000DB681B68134A9361124BDB685B68114AA3
:10187000D36112E0019B0F4A13610E4B1B699B68F9
:101880000C4A53610B4B1B691B680A4A9361094B55
:101890001B695B68074AD36100BF72B600BF00BF17
:1018A0009DF81730DBB2002BFAD162B600BF00BF43
:1018B00006B070472C06002000B583B0029000915E
:1018C000019244F2010071466A4600F003F803B049
:1018D00000BD00BF30B58BB007900691059272B67F
:1018E00000BFFFF787FC00BFFFF748FA0346002B55
:1018F000FAD1079B44F20102934216D0079B44F2AF
:10190000020293423ED1059B09932C4A2C4BD31AD9
:10191000DB081B0443F00100099B5B681A46099B26
:101920001B682849FFF7D7F939E0059B0893234A3C
:10193000234BD31ADB081B0443F00104089B9D686A
:10194000089B9B68184600F0D9FF03461846089B81
:101950005B681946089B1B68069A029201930091E6
:1019600003462A4618492046FFF7DFF9134A144B6D
:10197000D31ADB081B0443F0010314491846FFF790
:101980008BF90CE00D4A0E4BD31ADB081B0443F015
:101990000103069A0E491846FFF78CF900BF0D4B5C
:1019A0001B6803F00103002B00D000BE059A0699C6
:1019B0000798FFF735FF00BF0BB030BDBC580000E3
:1019C00094580000345C0000505C0000785C00001B
:1019D0008C5C0000F0ED00E072B600BF034B1B68AA
:1019E0000133024A136000BF704700BF4C0600205D
:1019F000064B1B68013B054A1360044B1B68002B18
:101A000001D162B600BF00BF704700BF4C06002086
:101A100000B583B0019000F025F80346012B03D0F8
:101A20000449432000F04AF8FFF7D6FF00BF03B097
:101A30005DF804FB305D000000B583B003468DF80F
:101A4000073000F00FF80346012B03D00449512062
:101A500000F034F8FFF7CCFF00BF03B05DF804FBE3
:101A6000305D000084B0EFF305830193019BC3F365
:101A700008030393039B002B0DD1EFF31483009312
:101A8000009B0293029B03F00103002B0CBF012378
:101A90000023DBB200E00123184604B070470000C9
:101AA00008B5044B1B68044A12681046984700BFEB
:101AB00008BD00BF500600205406002000B585B0C8
:101AC00003460091ADF80630BDF806300293009B46
:101AD000039302AB1A46002144F20200FFF7FAFE1C
:101AE00000BF05B05DF804FB10B487B00190009111
:101AF000019B009A53E8004F104643E8000191F023
:101B0000000FF7D1059404900391059B184607B088
:101B10005DF8044B704710B487B001900091019BB1
:101B2000009A53E8004F44EA020043E8000191F0B4
:101B3000000FF6D1059404900391049B184607B05A
:101B40005DF8044B704710B487B001900091019B81
:101B5000009A53E8004F04EA020043E8000191F0C4
:101B6000000FF6D1059404900391059B184607B029
:101B70005DF8044B704710B487B001900091019B51
:101B8000009A53E8004F04EB020043E8000191F093
:101B9000000FF6D1059404900391049B184607B0FA
:101BA0005DF8044B704710B487B001900091019B21
:101BB000009A53E8004FA4EB020043E8000191F0C3
:101BC000000FF6D1059404900391049B184607B0CA
:101BD0005DF8044B704700B583B001900121019876
:101BE000FFF799FF0346184603B05DF804FB00B504
:101BF00083B0019000210198FFF7A5FF0346184626
:101C000003B05DF804FB000000B583B001900B4603
:101C10008DF80330019B002B03D10849E820FFF722
:101C20004DFF019BDA689DF803300199098A01FB99
:101C300003F31344184603B05DF804FBB05D0000E5
:101C400000B583B001900091019B002B03D108499E
:101C5000F520FFF733FF009B019AD2689B1A019A87
:101C6000128AB3FBF2F3DBB2184603B05DF804FB53
:101C7000B05D000000B585B00190019B002B01D143
:101C80000E234CE0019B1B68002B03D12649FF204B
:101C9000FFF714FF019B5B68002B04D122494FF42E
:101CA0008070FFF70BFF019B9B68002B04D11E493E
:101CB00040F20110FFF702FF019BDB68002B04D10B
:101CC00019494FF48170FFF7F9FE019B1B8A002B25
:101CD00004D1154940F20310FFF7F0FE019B9A680A
:101CE000019B5B68D31A8DF80F30019B1B68019A2A
:101CF00052681A6007E0019B1A681368591C11604A
:101D00009DF80F201A709DF80F305A1E8DF80F2085
:101D1000002BF0D1019B1B6800221A71002318468A
:101D200005B05DF804FB00BFB05D000000B585B0F4
:101D30000190019B002B04D11C494FF49270FFF7D6
:101D4000BDFE002303930020FFF762FE019B1B688A
:101D50001A68019B5B689A421FD9019B1B681A682D
:101D6000013A1A601B681B7819460198FFF74CFF6F
:101D70000390019B9A68019B1B681B68D31A8DF81E
:101D80000B30019B1B681B799DF80B209A4204D9EC
:101D9000019B1B689DF80B201A710020FFF74CFE79
:101DA000039B184605B05DF804FB00BFB05D000062
:101DB00010B584B001900091019B002B04D1114912
:101DC00040F24710FFF77AFE009B002B04D10D492B
:101DD0004FF4A470FFF772FE009B03930020FFF7FF
:101DE00017FE019B1B681C68621C1A60039901980E
:101DF000FFF726FF034623700020FFF71DFE00BFFC
:101E000004B010BDB05D000000B583B00190019B2F
:101E1000002B03D10C493120FFF750FE019B9B683A
:101E2000002B0CD0019B5B69019A1069019A116823
:101E3000019A92689847019B00229A6000E000BFD7
:101E400003B05DF804FB00BF2C5E00000EB400B5CB
:101E500084B00190019B002B03D118494220FFF769
:101E60002DFE019B5B69002B03D114494320FFF732
:101E700025FE019B1B68002B03D110494420FFF76E
:101E80001DFE019B5B68002B03D10C494520FFF729
:101E900015FE059B002B0AD00023039306AB03938A
:101EA00003AB1A460599019800F0B0F900E000BFB5
:101EB00004B05DF804EB03B0704700BF2C5E000077
:101EC00000B583B001900B468DF80330019B1A6872
:101ED000019B9B68581C0199886013449DF803205E
:101EE0001A70019B9A68019B5B689A4202D3019821
:101EF000FFF78AFF00BF03B05DF804FB00B587B0B1
:101F0000039002910192009300230593009B03F03C
:101F10000103002B24D00BE0029B01330293059BAD
:101F2000013305939DF8133019460398FFF7C8FF56
:101F3000029B1B788DF813309DF81330002BEBD1EA
:101F400006E0019B013B019320210398FFF7B8FFB6
:101F5000019A059B9A422ED9019B002BF1D12AE0D0
:101F6000029B002B0BD0029803F064FC059006E066
:101F7000019B013B019320210398FFF7A1FF019AE8
:101F8000059B9A420FD9019B002BF1D10BE0029BDC
:101F900001330293059B013305939DF813301946D5
:101FA0000398FFF78DFF029B1B788DF813309DF887
:101FB0001330002BEBD100BF07B05DF804FB00002D
:101FC00000B589B00390029101920093029B0793A0
:101FD0000123069307E0079A019BB2FBF3F30793F3
:101FE000069B01330693079A019B9A42F3D2009A0B
:101FF000069B9A4201D9009B06930B9B03F00103B9
:10200000002B22D10A9B002B1FD00B9B03F0020355
:10201000002B06D0009B002B03D130238DF8173006
:1020200002E020238DF8173008E00A9B013B0A9359
:102030009DF8173019460398FFF742FF0A9B002BC3
:1020400003D0069A0A9B9A42EFD301230793009B81
:10205000012B03D9009B013B009309E0029A079BE7
:10206000B2FBF3F30493049A019B9A4200D205E079
:10207000079B019A02FB03F30793E8E7029A079B89
:10208000B2FBF3F30493049B079A02FB03F3029A57
:10209000D31A0293154A049B13441B7819460398DC
:1020A000FFF70EFF079A019BB2FBF3F30793079B21
:1020B000002BE3D10B9B03F00103002B11D00A9BF3
:1020C000002B0ED006E00A9B013B0A9320210398C7
:1020D000FFF7F6FE0A9B002B03D0069A0A9B9A4252
:1020E000F1D300BF09B05DF804FB00BF185F00002A
:1020F00000B589B00590049103920293049B002BD4
:10210000B8BF5B4206930123079307E0039B069A3F
:1021100092FBF3F30693079B01330793039B069A05
:102120009A42F3DA029A079B9A4201D9029B0793DB
:102130000A9B002B0AD0049B002B04DB0B9B03F0B3
:102140000403002B02D00A9B013B0A930B9B03F074
:102150000203002B02D0029B002B16D00B9B03F036
:102160000103002B11D10A9B002B0ED006E00A9B25
:10217000013B0A9320210598FFF7A2FE0A9B002B42
:1021800003D0079A0A9B9A42F1D3049B002B07DAEB
:10219000049B5B4204932D210598FFF791FE08E014
:1021A0000B9B03F00403002B03D02B210598FFF7B2
:1021B00087FE0B9B03F00203002B19D00B9B03F04F
:1021C0000103002B14D1029B002B11D10A9B002B81
:1021D0000ED006E00A9B013B0A9330210598FFF7D9
:1021E0006FFE0A9B002B03D0079A0A9B9A42F1D3F9
:1021F00004990B9B01930A9B0093029B039A0598F9
:10220000FFF7DEFE00BF09B05DF804FB00B58FB03C
:10221000059004910392059B002B04D1AD4940F237
:102220005220FFF74BFC059B5B69002B04D1A949A9
:102230004FF41570FFF742FC059B1B68002B04D17F
:10224000A44940F25520FFF739FC059B5B68002B41
:1022500004D1A04940F25620FFF730FC049B002B2C
:1022600000F09381049B1B788DF83730049B013379
:1022700004939DF83730002B00F07E819DF83730B5
:10228000252B40F06D8100230A9301230C93049BBE
:102290001B788DF837309DF83730302B0DD0302B30
:1022A0001BDC2B2B11D02D2B17D10A9B43F00103E4
:1022B0000A93049B0133049312E00A9B43F0020348
:1022C0000A93049B013304930AE00A9B43F004033E
:1022D0000A93049B0133049302E000230C9300BF94
:1022E0000C9B002BD3D1002309939DF837302A2B68
:1022F0000CD1039B1B68191D039A11601B68099A76
:1023000013440993049B013304931AE0049B1B7844
:102310008DF837309DF837302F2B12D99DF8373094
:10232000392B0ED8049B01330493099A13469B0062
:1023300013445B001A469DF837301344303B099331
:10234000D3E700230B93049B1B788DF837309DF85F
:1023500037302E2B1DD1049B01330493049B1B7833
:102360008DF837309DF837302F2B12D99DF8373044
:10237000392B0ED8049B013304930B9A13469B0010
:1023800013445B001A469DF837301344303B0B93DF
:10239000E4E7049B1B788DF837309DF837306C2BC1
:1023A00003D09DF83730682B07D1049B0133049389
:1023B000049B1B788DF83730EFE79DF83730252BDD
:1023C00000F0C480252BC0F2C680782B00F3C380B8
:1023D000582BC0F2C080583B202B00F2BC8001A2D9
:1023E00052F823F0D924000057250000572500009B
:1023F00057250000572500005725000057250000ED
:1024000057250000572500005725000057250000DC
:10241000692400008B240000572500005725000088
:1024200057250000572500008B2400005725000089
:1024300057250000572500005725000057250000AC
:1024400057250000192500005725000057250000DA
:10245000FD24000057250000AF2400005725000090
:1024600057250000D9240000039B1B68191D039AFF
:1024700011601B680C930C9B8DF81F309DF81F306A
:1024800019460598FFF71CFD66E0039B1B68191DA4
:10249000039A11601B680C930A9B0193099B00939C
:1024A0000B9B0A220C990598FFF722FE54E0039B30
:1024B0001B68191D039A11601B680C930C990A9BE9
:1024C0000193099B00930B9B0A220598FFF778FD67
:1024D00042E000BFA05E0000039B1B68191D039A29
:1024E00011601B680C930C990A9B0193099B009344
:1024F0000B9B10220598FFF763FD2DE0039B1B68E3
:10250000191D039A11601B6808930A9B099A089980
:102510000598FFF7F3FC1FE0039B1B68191D039A46
:1025200011601B680C9330210598FFF7C9FC7821D6
:102530000598FFF7C5FC0C9900230193082300932D
:10254000082310220598FFF73BFD05E0252105989B
:10255000FFF7B6FC00E000BF049B0133049305E0E5
:102560009DF8373019460598FFF7AAFC049B1B78A5
:10257000002B7FF477AE00E000BF059B1B7B002B98
:1025800004D00598FFF740FC00E000BF0FB05DF8F5
:1025900004FB00BF00B583B001900198FFF76AFB10
:1025A0000346184603B05DF804FB00B58BB00190FC
:1025B0000091019B1B8A043B0793009A079B1344DD
:1025C000DA1C079BB2FBF3F38DF81B300198FFF781
:1025D000ADFB0590059B002B01D1002338E0059B46
:1025E00000221A71059B01225A71079B9AB2059B22
:1025F000DA80059B09939DF81B30013B0493099BEE
:10260000019A1A60002308931DE00198FFF78EFBE2
:102610000390039B002B0ED0059B5B790133DAB24C
:10262000059B5A71099B039A1A60039B019A1A60D1
:10263000039B099304E0059800F00EF8002307E0DF
:10264000089B01330893089A049B9A42DDD3059BAB
:1026500018460BB05DF804FB00B58BB00190019BF0
:102660000793079B5B798DF81B30019B08939DF8BE
:102670001B30013B05930023099305E0089B1B6871
:102680000893099B01330993099A059B9A42F5D354
:10269000089B1B680493019B0893002309930BE09C
:1026A000089B1B68039308990498FFF781FB039B21
:1026B0000893099B013309939DF81B30099A9A42AC
:1026C000EED300BF00BF0BB05DF804FB00B585B0D2
:1026D0000190019B0393039B043301211846FFF7EC
:1026E0004AFA00BF05B05DF804FB00B587B0019061
:1026F000019B0593059B043301211846FFF753FA0C
:102700000346039303AB0493049B1B78002B02D175
:102710000198FFF7A1FF00BF07B05DF804FB0000C0
:1027200000B591B00390029101920093039B002B9E
:1027300003D14349B620FFF7C1F9039B0993039BDB
:102740000F93099BDB881A46099B5B7902FB03F315
:10275000043B0893009A089B9A4203D33849C4204B
:10276000FFF7ACF9099BDB880793009B1A1D079BB9
:10277000B2FBF3F30E93009B0433079AB3FBF2F220
:10278000079901FB02F29B1A0D93019B1A68009BAB
:102790001344089A9A4203D2089A009BD31A01E084
:1027A000019B1B680C93019B0C9A1A6005E00F9B20
:1027B0001B680F930E9B013B0E930E9B002BF6D1D3
:1027C00000230B93079A0D9BD31A0A930A9A0C9B2A
:1027D000934228BF13460A932AE0029A0B9B1344A4
:1027E00006930F9A0D9B1344043305939DF84830CC
:1027F000002B05D00A9A0599069802F0BFFF04E065
:102800000A9A0699059802F0B9FF00230D930F9BD1
:102810001B680F930C9A0A9BD31A0C930B9A0A9B72
:1028200013440B93079A0C9B934228BF13460A93B9
:102830000C9B002BD1D100BF00BF11B05DF804FB91
:10284000285F000000B589B00590049103920293BF
:10285000039B079307AA00230093029B0499059802
:10286000FFF75EFF079B039A9A4203D00349F620C5
:10287000FFF724F900BF09B05DF804FB285F0000F2
:1028800000B589B00590049103920293039B0793CE
:1028900007AA01230093029B04990598FFF740FFC4
:1028A000079B039A9A4204D004494FF48070FFF7C3
:1028B00005F900BF09B05DF804FB00BF285F000008
:1028C00082B00190019B9B6800229A60019B9B68EB
:1028D00000221A61019B9B6800225A61019B9B6840
:1028E0000022DA60019B9B6800225A60019B9B6872
:1028F00000221A6000BF02B07047000000B585B02A
:102900000190019800F00EF80390039B002B01D07A
:10291000039B00E0024B184605B05DF804FB00BFC6
:102920003060000086B00190164B0593164B04935F
:102930001FE0049A059BD31ADB10DA0F13445B10D7
:10294000DB00059A13440393039B1B680293029ACE
:10295000019B9A4202D9039B04930AE0029A019BCD
:102960009A4203D2039B0833059302E0039B5B6802
:1029700004E0059A049B9A42DBD30023184606B074
:10298000704700BF046400001C65000000B589B0FA
:1029900001900091009B0793019B1B788DF80830F4
:1029A000019B5B680393019B9B68DBB28DF8103041
:1029B000019BDB680593019B1B69DBB28DF8183026
:1029C000074A079B52F823300649079A51F822100C
:1029D00002AA1046984700BF09B05DF804FB00BF8B
:1029E0005C0600206806002010B58AB003900291B2
:1029F00001920093039B1B7809932249099B019A3A
:102A000041F823202049099B009A41F82320002304
:102A100008931E4B04AC0FCB84E80F00029B1B787D
:102A20008DF81030029B5B788DF81130029B9B78FB
:102A30008DF81230029BDB788DF81330029B1B79E6
:102A40008DF81530029B5B798DF81630029B9B68E0
:102A50000693029B1B7B8DF81C30029B5B7B8DF8E1
:102A60001D30039B181D019B002B01D0084A00E07C
:102A70000022099B04A901F05DFA0890089B184602
:102A80000AB010BD5C060020680600201C6500002E
:102A90008D29000082B003468DF807309DF907307C
:102AA000002B0CDB9DF8073003F01F0205499DF950
:102AB00007305B09012000FA02F241F8232000BF31
:102AC00002B0704700E100E082B0034600918DF84B
:102AD00007309DF90730002B0ADB009BDAB20C4966
:102AE0009DF907305201D2B20B4483F800230BE06A
:102AF000009BDAB207499DF8073003F00F03043B4F
:102B00005201D2B20B441A7600BF02B0704700BF28
:102B100000E100E000ED00E082B00190019B1B0BA2
:102B20005BB2184602B0704700B583B003460A4650
:102B30008DF8073013468DF806309DF80630072BC8
:102B400003D908496B20FEF7B9FF9DF806209DF9CF
:102B5000073011461846FFF7B7FF00BF03B05DF816
:102B600004FB00BF2C65000000B583B003468DF860
:102B700007309DF907301846FFF78CFF00BF03B000
:102B80005DF804FB00B583B00346ADF80630BDF830
:102B90000630184600F026F803461B68012B0CBFD0
:102BA00001230023DBB2184603B05DF804FB00B537
:102BB00085B00346ADF80630BDF80630184600F083
:102BC00011F803461A4600231360BDF80630184674
:102BD00000F008F803461B680393039B00BF05B091
:102BE0005DF804FB82B00346ADF80630BDF8063050
:102BF00003F1804303F5C043184602B0704700005C
:102C000082B00190034A019BC2F8043300BF02B0B6
:102C1000704700BF0060004082B00190034BD3F8C2
:102C20000423019B1340184602B070470060004027
:102C300082B00190084A019B03F5A27352F8233039
:102C4000054943F00102019B03F5A27341F82320DB
:102C500000BF02B0704700BF0060004084B0039026
:102C6000029113468DF80730144A039B03F5A273B3
:102C700052F82330114923F4473323F44073039A65
:102C800002F5A27241F822300C4A039B03F5A273AD
:102C900052F82320029B1B0203F4F8519DF80730E1
:102CA0001B0403F440330B4304491A43039B03F50D
:102CB000A27341F8232000BF04B0704700600040B9
:102CC00082B00190054A019B03F5A27352F82330AC
:102CD0001B0A03F01F03184602B070470060004053
:102CE00082B00190064A019B03F5A27352F823308B
:102CF0001B0C03F00303DBB2184602B0704700BFA1
:102D00000060004084B00390029111461A460B46C1
:102D10008DF8073013468DF80630184A039B03F5EB
:102D2000A27352F82330154923F4981323F4F8536F
:102D3000039A02F5A27241F82230104A039B03F570
:102D4000A27352F82320029B1B0203F4F8519DF852
:102D500007301B0403F4403319439DF806301B056C
:102D600003F480130B4305491A43039B03F5A27335
:102D700041F8232000BF04B0704700BF006000404E
:102D800000B583B00190019B1B68184600F084F9E0
:102D90000346002B04D105494FF4F670FEF78EFE72
:102DA0004FF0A043184603B05DF804FB5C650000DB
:102DB00000B585B00190084611461A4603468DF8C5
:102DC00003300B468DF8023013468DF8013001AB0D
:102DD0001846FFF7D5FF03909DF803209DF80230B9
:102DE0005B001A439DF801309B001A439DF8183090
:102DF0001B0242EA03019DF81C301B04019A19438F
:102E0000039B02F5E07243F8221000BF05B05DF8A5
:102E100004FB00B585B003900023019300230093C9
:102E20000023012201210398FFF7C2FF00BF05B074
:102E30005DF804FB00B585B003900B468DF80B30B0
:102E40009DF80B3000220192002200920022002106
:102E50000398FFF7ADFF00BF05B05DF804FB00B5B8
:102E600085B0019001AB1846FFF78AFF0390019AE5
:102E7000039B02F5E07253F8223023F00203029321
:102E8000019A039B02F5E072029943F8221000BFF9
:102E900005B05DF804FB00B585B001900B468DF8D8
:102EA000033001AB1846FFF76BFF0390019A039BB9
:102EB00002F5E07253F82230019A23F44031039B6B
:102EC00002F5E07243F82210019A039B02F5E072CA
:102ED00053F822309DF8032012041146019A194339
:102EE000039B02F5E07243F8221000BF05B05DF8C5
:102EF00004FB00B585B0019001AB1846FFF740FF19
:102F00000390019B012202FA03F31946039800F093
:102F10006DF800BF05B05DF804FB00B585B0019009
:102F200001AB1846FFF72CFF0390019B012202FA28
:102F300003F31946039800F063F800BF05B05DF88D
:102F400004FB00B585B0019001AB1846FFF718FFF0
:102F50000390039BD3F804350293029BDA43019B51
:102F6000012101FA03F31A40039BC3F80825019BD2
:102F700001229A40029B1A40039BC3F80C2500BF14
:102F800005B05DF804FB00B585B0019001AB1846B3
:102F9000FFF7F6FE0390039800F020F80246019B2D
:102FA00022FA03F303F00103184605B05DF804FBB1
:102FB00000B585B0019001AB1846FFF7E1FE039024
:102FC000019A039B02F5E07253F822301B0C03F0C8
:102FD0000303DBB2184605B05DF804FB82B0019034
:102FE000019BD3F81035184602B0704782B00190AB
:102FF0000091019B009AC3F8082500BF02B07047FA
:1030000082B001900091019B009AC3F80C2500BF8B
:1030100002B0704786B00390029101924FF0A04336
:103020000493039B059319E0059B9B0018336B44A5
:1030300053F8083CD3F82025019B1A60059B9B00A0
:1030400018336B4453F8083C019A1268C3F82025E2
:10305000019B04330193059B01330593039A029B63
:103060001344059A9A42DFD300BF00BF06B07047F1
:1030700000B585B0019001AB1846FFF781FE0390C3
:10308000019B012202FA03F31A46039BC3F8202591
:1030900000BF05B05DF804FB84B00190019B5B09A3
:1030A000029300230393029B002B03D14FF0FF33C5
:1030B000039300BF019B03F01F030193039A019B3D
:1030C00022FA03F303F00103002B14BF01230023B2
:1030D000DBB2184604B0704784B001900091009BA9
:1030E0000393019BDB080293019B03F00703019309
:1030F0000122019B02FA03F30399029A0A4412780F
:103100001340184604B0704784B001900091009BB2
:103110000393019BDB080293019B03F007030193D8
:10312000039A029B13441B785AB20121019B01FAB6
:1031300003F35BB2134359B2039A029B1344CAB21E
:103140001A7000BF04B0704782B00190074A019B1B
:103150001344303393F90030B3F1FF3F14BF012320
:103160000023DBB2184602B0704700BF740600208F
:1031700082B001900C4A019B1344303393F9003024
:10318000002B09DB084A019B1344303393F90030CC
:10319000072B01DC012300E0002303F00103DBB275
:1031A000184602B0704700BF7406002082B001903C
:1031B000064A019B1344303393F90030072BCCBFF0
:1031C00001230023DBB2184602B0704774060020CA
:1031D00082B00190064A019B1344303393F90030CA
:1031E000DB43DBB2DB09DBB2184602B0704700BF3D
:1031F0007406002084B00390029101928DF8033090
:10320000029B59B20E4A039B134430330A461A708C
:103210000B49029B019A41F823209DF8033083F06B
:103220000103DBB2002B08D0029B083B039A51B28A
:10323000034A13440A4683F8502000BF04B0704785
:103240007406002082B00190044A019B134430337D
:10325000FE221A7000BF02B0704700BF7406002043
:1032600082B00190044A019B13443033FF221A704C
:1032700000BF02B0704700BF7406002000B583B0E5
:10328000019004490198FFF73FFF00BF03B05DF8CC
:1032900004FB00BFC806002082B00190044A019BD5
:1032A0001344303393F90030184602B0704700BF22
:1032B0007406002082B00190034A019B52F823302B
:1032C000184602B0704700BF7406002084B0019019
:1032D000074A019B1344503393F900308DF80F30A7
:1032E0009DF80F3023F0C003184604B0704700BFAC
:1032F0007406002084B00190074A019B13445033A8
:1033000093F900308DF80F309DF80F309B09DBB238
:10331000184604B0704700BF7406002000B589B09D
:103320000390029113468DF80730FF238DF81F306C
:103330009DF80730002B01D0002300E008230593FF
:103340009DF80730002B01D0082300E00C230493E4
:10335000059B069314E00F4A069B52F82330B3F105
:10336000FF3F0AD19DF80730029A06990398FFF7AC
:1033700041FF069B8DF81F3006E0069B0133069344
:10338000069A049B9A42E6D39DF91F30184609B06D
:103390005DF804FB7406002082B003468DF8073008
:1033A0009DF80730094A4FF0FF3142F823109DF88D
:1033B0000730072B07D99DF80730083B034A134411
:1033C000FF2283F8502000BF02B07047740600202F
:1033D00000B583B02D4B93F85830002B03D0082351
:1033E0000093009B4EE000238DF8073011E09DF81C
:1033F00007301846FFF750FE0346002B04D09DF817
:1034000007301846FFF72CFF9DF8073001338DF881
:1034100007309DF807301F2BE9D900238DF80730BE
:1034200009E09DF807301846FFF7B6FF9DF8073012
:1034300001338DF807309DF807300B2BF1D90422AA
:103440000021134802F0C3F91248FFF765FB034659
:1034500006211846FFF768FB0E48FFF75DFB0346A1
:103460001846FFF781FB4FF4BE70FFF7A0FB4FF04B
:103470000040FFF7C5FB054B012283F858200023CD
:103480000093009B184603B05DF804FB740600200F
:10349000C80600200060004000B585B00190009192
:1034A0000198FFF7F9FD0346002B04D12D4940F2A6
:1034B0004910FEF703FB2C4B93F85830012B04D036
:1034C00028494FF4A570FEF7F9FA009B002B04D1B0
:1034D000244940F24B10FEF7F1FA002303930198C0
:1034E000FFF732FE0346002B02D00823039334E09B
:1034F000009B9B78002B19D0012200210198FFF737
:103500000DFF03468DF80B309DF90B30B3F1FF3FF3
:1035100009D09DF90B00009B1A78009B5B780199FC
:10352000FFF7F0FB05E00423039302E00198FFF7A7
:1035300089FE039B002B10D1009B5B78012B03D1EC
:103540000198FFF7D6FC02E00198FFF7E6FC01982E
:10355000FFF75FFC0198FFF791FE039B184605B04B
:103560005DF804FB946500007406002000B583B08C
:1035700001900198FFF790FD0346002B04D11249FA
:1035800040F2A910FEF79AFA0198FFF7DDFD034615
:10359000002B04D10C494FF4D570FEF78FFA019837
:1035A000FFF7E6FD034683F00103DBB2002B04D1F5
:1035B000054940F2AB10FEF781FA0198FFF7C1FC14
:1035C00000BF03B05DF804FB9465000000B587B050
:1035D0000390029101920398FFF75EFD0346002BD2
:1035E00004D136494FF40C70FEF768FA00230593B6
:1035F0000398FFF7EDFD0346002B02D00823059347
:1036000057E0029B9B78C3F34003DBB21A46019953
:103610000398FFF783FE03468DF813309DF91330AE
:10362000B3F1FF3F43D0029B9B78C3F38003DBB22F
:1036300083F00103DBB2002B13D0029B9B7803F0D5
:103640000103DBB2002B03D00398FFF708FC05E071
:10365000029B5B7819460398FFF7ECFB0398FFF792
:103660000DFE029B9B7803F00203DBB2002B08D017
:103670009DF91300029B1B781A460399FFF7EEFA97
:1036800017E09DF91330083B0D4A134493F950108D
:10369000029B1B789B015AB29DF91330083B0A43E9
:1036A00051B2074A13440A4683F8502001E004232C
:1036B0000593059B184607B05DF804FB9465000070
:1036C0007406002000B589B001900B468DF80330D8
:1036D0000198FFF7E1FC0346002B04D13A494FF46F
:1036E0001870FEF7EBF90198FFF772FD0346002B07
:1036F00004D1354940F26120FEF7E0F90198FFF767
:1037000055FD0346002B2AD00198FFF7C5FD03465F
:10371000083B1846FFF7EEFD03468DF80F309DF885
:103720000F30032B0BD10198FFF72DFC0346002B24
:1037300001D0032300E002238DF81F3008E09DF83C
:103740000F30012B01D1022300E003238DF81F303D
:103750009DF81F3019460198FFF79DFB30E0019856
:10376000FFF706FD0346002B2AD00198FFF794FDD2
:1037700003460693069B9BB240339BB29B00ADF879
:103780001630069B1846FFF753FABDF81630184658
:10379000FFF70DFA9DF80330002B11D00198FFF7C9
:1037A0007BFD03461846FFF785FD0490049B002B24
:1037B00006D00122069B02FA03F31846FFF720FA0F
:1037C00000BF09B05DF804FB9465000000B585B04A
:1037D0000190019A01210020FFF71CFC00230393B4
:1037E0000BE0039B9B00019A13441B68002B01D044
:1037F000012306E0039B01330393039B002BF0D0CE
:103800000023184605B05DF804FB000000B587B042
:103810000190002305935BE0344A059B1344503329
:1038200093F90030B3F1FF3F4ED00598FFF74EFDFE
:10383000049001990498FFF74FFC0346002B44D0F5
:103840000598FFF757FD03468DF80F300498FFF7F2
:10385000AFFB03468DF80E309DF80E30022B01D1E0
:10386000032300E002238DF80D309DF80D3019463A
:103870000498FFF710FB0498FFF7FAFB0498FFF792
:103880000BFD03461846FFF715FD0290029B002B27
:103890001BD09DF80F30032B0FD09DF80E30022B5C
:1038A00003D19DF80F30012B07D09DF80E30032B6C
:1038B0000BD19DF80F30022B07D19DF80F20029BF2
:1038C00011460498984700E000BF059B013305931B
:1038D000059B032BA0D90198FFF778FF0346002B27
:1038E00097D100BF00BF07B05DF804FB740600204D
:1038F00000B589B000230693002300934FF4807332
:10390000ADF81230012307930023059321E0BDF8A1
:1039100012301846FFF736F90346002B0ED00798F1
:10392000FFF77AF90346002B08D0BDF8123018468D
:10393000FFF73DF9069A079B13430693079B5B002D
:103940000793BDF812300433ADF81230059B0133F4
:103950000593059B072BDAD94FF4BE70FFF712F9D8
:103960000346002B0DD04FF4BE70FFF720F9069BE5
:1039700043F0004306936B461A4601210020FFF7EF
:1039800049FB069BDBB2002B29D0012307930023C0
:10399000059321E0079A069B1340002B16D005984B
:1039A000FFF78EF903900598FFF79AF903468DF813
:1039B0000B300598FFF77EFC0190019B002B05D092
:1039C0009DF80B20019B114603989847079B5B00CD
:1039D0000793059B01330593059B072BDAD9069BBB
:1039E000002B03DA6B461846FFF710FF00BF09B043
:1039F0005DF804FB08B5064B1B68002B03D1054995
:103A00005120FEF75BF8024B1B68984700BF08BDCA
:103A1000D00600201466000082B00190019B044A89
:103A2000934201D1034B00E00023184602B07047D7
:103A300000200040D006002000B587B00190009122
:103A4000019B002B03D118497720FEF737F8019826
:103A5000FFF7E2FF0590059B002B1ED000238DF899
:103A600013300020FDF7D4FF059B1B79002B03D0FA
:103A700001238DF8133005E0059B009A1A60059B21
:103A800001221A710020FDF7D7FF9DF81330002B9B
:103A900003D011230393039B02E000230393039BB2
:103AA000184607B05DF804FB1466000082B00346B8
:103AB0008DF807309DF90730002B0CDB9DF807309F
:103AC00003F01F0205499DF907305B09012000FA48
:103AD00002F241F8232000BF02B0704700E100E08D
:103AE00082B0034600918DF807309DF90730002B16
:103AF0000ADB009BDAB20C499DF907305201D2B2C1
:103B00000B4483F800230BE0009BDAB207499DF8D1
:103B1000073003F00F03043B5201D2B20B441A7674
:103B200000BF02B0704700BF00E100E000ED00E020
:103B300082B00190019B03F06043B3F1005F0CBFC2
:103B400001230023DBB2184602B0704782B0019017
:103B5000019B1B0B5BB2184602B0704700B583B0E7
:103B600003460A468DF8073013468DF806309DF857
:103B70000630072B03D908496B20FDF79FFF9DF8FE
:103B800006209DF9073011461846FFF7A9FF00BF30
:103B900003B05DF804FB00BF9066000000B583B081
:103BA00003468DF807309DF907301846FFF77EFF72
:103BB00000BF03B05DF804FB82B001900B468DF8A6
:103BC00003309DF80330019A134401221A6000BFAC
:103BD00002B0704784B001900B46ADF80230BDF8DA
:103BE0000230019A134400221A60BDF80230019A93
:103BF00013441B680393039B00BF04B0704782B05B
:103C000001900B46ADF80230BDF80230019A134422
:103C10001B68002B14BF01230023DBB2184602B03F
:103C2000704782B001900091019B009AC3F8042371
:103C300000BF02B0704782B001900091019B009AD2
:103C4000C3F8082300BF02B0704782B00190019B07
:103C50000722C3F8002500BF02B0704784B003906C
:103C6000029101920093039B029AC3F80825039BDB
:103C7000019AC3F80C25039B009AC3F8102500BFD6
:103C800004B0704782B001900091009A019BC3F884
:103C9000242500BF02B0704784B0039002910192C6
:103CA000029A039BC3F84425039B019AC3F8482555
:103CB00000BF04B0704784B0039002910192029A51
:103CC000039BC3F83425039B019AC3F8382500BF32
:103CD00004B0704784B001900B468DF80330134652
:103CE0008DF802309DF80230002B14BF0123002311
:103CF000DBB203939DF80330032B10D0032B13DCAE
:103D0000012B02D0022B05D00EE0039B43F00203EF
:103D100003930AE0039B43F00403039305E0039B32
:103D200043F00603039300E000BF019B039AC3F82E
:103D3000542500BF04B0704782B001900B468DF847
:103D400003309DF80320019BC3F8C02500BF02B0DB
:103D5000704782B00190019B0122C3F8502500BF3B
:103D600002B0704782B00190019B0022C3F8502539
:103D700000BF02B0704782B00190019B0122C3F8DE
:103D8000402500BF02B0704782B00190019B002225
:103D9000C3F8402500BF02B07047000000B583B0F3
:103DA0000190019B1B68184600F0A3F80346002B06
:103DB00004D105494FF4F670FDF780FE4FF0A043A3
:103DC000184603B05DF804FBC066000000B585B07E
:103DD0000190084611461A4603468DF803300B46FB
:103DE0008DF8023013468DF8013001AB1846FFF70D
:103DF000D5FF03909DF803209DF802305B001A4325
:103E00009DF801309B001A439DF818301B0242EACE
:103E100003019DF81C301B04019A1943039B02F512
:103E2000E07243F8221000BF05B05DF804FB00B556
:103E300085B0039000230193002300930023012207
:103E400001210398FFF7C2FF00BF05B05DF804FB36
:103E500000B585B003900B468DF80B309DF80B3004
:103E60000022019200220092002200210398FFF715
:103E7000ADFF00BF05B05DF804FB00B585B0019053
:103E800001AB1846FFF78AFF0390019B012202FA5B
:103E900003F31946039800F018F800BF05B05DF869
:103EA00004FB00B585B0019001AB1846FFF776FF23
:103EB0000390019B012202FA03F31946039800F0D4
:103EC0000EF800BF05B05DF804FB82B001900091D0
:103ED000019B009AC3F8082500BF02B0704782B06A
:103EE00001900091019B009AC3F80C2500BF02B01D
:103EF000704784B00190019B5B09029300230393F8
:103F0000029B002B03D14FF0FF33039300BF019BB3
:103F100003F01F030193039A019B22FA03F303F0BA
:103F20000103002B14BF01230023DBB2184604B0A9
:103F30007047000000B58DB0059004910392029384
:103F4000049B002B03D16C49AD20FDF7B7FD059B09
:103F50001B791A461346DB0013449B00674A13443F
:103F60000A930A9B1B7F002B03D008230793079B10
:103F7000BDE0059B1B680993059B1A68059B1B798F
:103F800019465F4B53F8213019461046FFF754FD90
:103F90000346002B03D011230793079BA7E00A9B3E
:103FA000039A1A600A9B029A5A60049B1B7B012B9E
:103FB00005D8049B1B781846FFF773FF04E0049BA9
:103FC0001B781846FFF759FF049B1B7818460023FF
:103FD000019300230093002300220121FFF7F6FE46
:103FE000049B5B78FF2B09D0049B5B780B930B98A9
:103FF000FFF757FF0B98FFF71AFF02E04FF0FF3370
:104000000B93049B9B78FF2B07D0049B9B78089312
:1040100001210898FFF71CFF02E04FF0FF330893DF
:10402000049B9A780A9B83F82020049BDA780A9BE9
:10403000DA77049BDB78FF2B17D0049B1B79002BCE
:1040400005D0049BDB781846FFF72BFF04E0049BA8
:10405000DB781846FFF711FF049BDB781846FFF763
:10406000E6FE049B1A790A9B9A77049B1B781946F3
:10407000089B0B9A0998FFF7F1FD049B9B68194672
:104080000998FFF7FFFD049B197B049B5B7B1A4695
:104090000998FFF71FFE049B9B7919460998FFF7C3
:1040A0004BFE0998FFF7D1FD0A9B1B68002B15D02A
:1040B000059B1B681846FFF749FD03461A46049BFB
:1040C0005B7919461046FFF749FD059B1B681846AA
:1040D000FFF73CFD03461846FFF760FD0A9B0022F0
:1040E0005A770A9B01221A7700230793079B1846E9
:1040F0000DB05DF804FB00BFF8660000D806002094
:104100007067000000B583B00190019BDB7FFF2B3F
:104110000ED0019B9B7F002B05D0019BDB7F1846B7
:10412000FFF7BFFE04E0019BDB7F1846FFF7A5FE0B
:10413000019B00225A77019B00221A72019B1B6887
:10414000019A02F10800019A52681146984700BF8F
:1041500003B05DF804FB00B583B001900B468DF809
:1041600003309DF8033083F00103DBB2002B04D051
:1041700040210198FFF75FFD03E040210198FFF720
:1041800050FD00BF03B05DF804FB00B583B00190A3
:104190000091009B03F00103002B03D00198FFF76F
:1041A000D8FD02E00198FFF7DDFD009B03F002035C
:1041B000002B03D00198FFF7DEFD02E00198FFF726
:1041C000E3FD00BF03B05DF804FB00B587B00390CA
:1041D000029101920093019B1B68002B0AD0019B66
:1041E0001B681846FFF7A4FC034683F00103DBB20B
:1041F000002B0ED1019B9B68002B11D0019B9B686B
:104200001846FFF795FC034683F00103DBB2002B51
:1042100006D0029B00225A7710230593059B54E099
:10422000019B1968019B5B681A460398FFF734FDF0
:10423000019B9968019BDB681A460398FFF73BFDD9
:104240004FF48C710398FFF7C5FC00990398FFF7B2
:104250009CFF009B03F00803002B03D1102103985F
:10426000FFF7AAFC029B1B68002B1FD100BF4FF475
:104270008C710398FFF7C3FC034683F00103DBB2A4
:10428000002BF4D1029BDB7FFF2B1BD0029B9B7F7B
:10429000002B05D0029BDB7F1846FFF702FE11E0E2
:1042A000029BDB7F1846FFF7E8FD0BE0009B03F065
:1042B0000403002B0CBF01230023DBB21946039833
:1042C000FFF749FF00230593059B184607B05DF8EB
:1042D00004FB000010B586B0039002910192039B8D
:1042E0001B791A461346DB0013449B00394A1344DA
:1042F0000593059B1B7F002B04D1374940F22D20ED
:10430000FDF7DCFB029B1B68002B08D1029B5B685E
:10431000002B04D0304940F22E20FDF7CFFB029B4A
:104320009B68002B08D1029BDB68002B04D02A4934
:1043300040F22F20FDF7C2FB039B1B79002B07D116
:10434000029BDB68FF2B03D8029B5B68FF2B04D921
:1043500021494FF40C70FDF7B1FB00230493059B3A
:104360005B7FDBB2002B03D011230493049B2EE070
:10437000059B1B68002B07D0019B03F01403002B47
:1043800002D1059B01225A77059B029A03F10C0486
:1043900013460FCB84E80F00059BDB7FFF2B0ED06D
:1043A000059B9B7F002B05D0059BDB7F1846FFF705
:1043B00064FD04E0059BDB7F1846FFF772FD039B5D
:1043C0001868019B029A0599FFF7FFFE03461846FD
:1043D00006B010BDD8060020F866000000B583B016
:1043E000019000914FF48C710198FFF708FC03468F
:1043F000002B10D04FF48C710198FFF7EBFB009B62
:104400001B68002B04D1064940F29720FDF756FBAC
:104410000098FFF777FE00BF03B05DF804FB00BF14
:10442000F866000008B503490348FFF7D7FF00BF4F
:1044300008BD00BFD80600200030004000B585B0A0
:104440000190019B002B0AD0074B43F0010303931B
:10445000019B9B010293039B0298984700E000BFD9
:1044600005B05DF804FB00BFA06A000000B58FB086
:1044700003900291009313468DF8073000230D93AB
:10448000029B09939DF807300A93009B0B939DF8BC
:1044900040300C93039B043309A900221846FFF710
:1044A00019FF0D900D9B18460FB05DF804FB00003E
:1044B00000B583B00190019B1B68184600F08EF890
:1044C0000346002B04D105494FF4F670FDF7F6FAC8
:1044D0004FF0A043184603B05DF804FB34690000B8
:1044E00000B585B00190084611461A4603468DF87E
:1044F00003300B468DF8023013468DF8013001ABC6
:104500001846FFF7D5FF03909DF803209DF8023071
:104510005B001A439DF801309B001A439DF8183048
:104520001B0242EA03019DF81C301B04019A194347
:10453000039B02F5E07243F8221000BF05B05DF85E
:1045400004FB00B585B00390002301930023009382
:104550000023012201210398FFF7C2FF00BF05B02D
:104560005DF804FB00B585B0019001AB1846FFF77C
:104570009FFF0390019B012202FA03F3194603985F
:1045800000F018F800BF05B05DF804FB00B585B079
:10459000019001AB1846FFF78BFF0390019B0122AE
:1045A00002FA03F31946039800F00EF800BF05B0B5
:1045B0005DF804FB82B001900091019B009AC3F862
:1045C000082500BF02B0704782B001900091019BA6
:1045D000009AC3F80C2500BF02B0704784B0019068
:1045E000019B5B09029300230393029B002B03D1E1
:1045F0004FF0FF33039300BF019B03F01F030193B0
:10460000039A019B22FA03F303F00103002B14BF6A
:1046100001230023DBB2184604B0704700B583B015
:104620000190019B002B0AD04FF47A70FFF706FF30
:10463000019B013B0193019B002BF5D100E000BFE2
:1046400003B05DF804FB000082B001900091034BC1
:1046500001221A7000BF02B0704700BF640C002036
:1046600000B587B003468DF80F300220FFF7D6FF64
:10467000184B1B78DBB21A460021174801F0A7F847
:10468000164B00221A709DF80F3063F07F03DBB2E7
:104690008DF8103000238DF811300E4B02221A7065
:1046A0000C4B1B78DAB20B4B1B78DBB204A90093DE
:1046B000094B0B48FFF7DAFE0590059B002B04D051
:1046C000084A9B210598FDF7F7F800BF07B05DF891
:1046D00004FB00BF44000020680C0020640C002094
:1046E000886A00006469000000B587B003460A4686
:1046F0008DF80F3013468DF80E3000E020BF1D4BB3
:104700001B78DBB283F00103DBB2002BF6D11A4B2E
:104710001B78DBB21A460021184801F058F8154BF7
:1047200000221A709DF80F3003F07F03DBB28DF882
:1047300010309DF80E308DF811300F4B02221A7098
:104740000D4B1B78DAB20C4B1B78DBB204A900933B
:104750000A4B0B48FFF78AFE0590059B002B04D0FF
:10476000084AA8210598FDF7A7F800BF07B05DF833
:1047700004FB00BF640C002044000020680C0020F3
:10478000886A00006469000000B583B001900B46A0
:104790008DF80330124A134BD31ADB081B0443F085
:1047A0000300114B1B685A1C0F490A601A460F4937
:1047B000FCF780FA0E4B01221A700A20FFF7E6FE82
:1047C0000920FFF7CFFE1920FFF728FF0920FFF788
:1047D000DDFE1B20FEF7CAFE00BF03B05DF804FB40
:1047E000BC58000094580000700C0020D8690000EC
:1047F0006C0C002000B587B02A4A2B4BD31ADB087B
:104800001B0443F0030329491846FCF745FAFEF759
:10481000DFFD01238DF8083000238DF809300023D7
:104820008DF80A3002AB19461B20FEF735FE0590C5
:10483000059B0493049B002B04D01D4AC6210498B9
:10484000FDF73AF81B4A01AB126811461980023392
:10485000120C1A7001238DF8053001238DF80430F5
:104860009DF806306FF300038DF806309DF8063092
:104870006FF341038DF8063001AB0F4A19460B2048
:10488000FEF7A4FE0590059B0393039B002B04D029
:10489000074ACF210398FDF70FF800BF07B05DF876
:1048A00004FB00BFBC58000094580000EC690000F5
:1048B00064690000006A00008947000008B5012112
:1048C0000B20FEF7FFFE00BF08BD08B51320FFF761
:1048D00038FE1320FFF746FEA0211020FFF704FF4B
:1048E000FF210620FFF700FF07210720FFF7FCFE4E
:1048F00001210820FFF7F8FE00210920FFF7F4FE50
:1049000044211220FFF7F0FE94211320FFF7ECFE64
:1049100000211420FFF7E8FE20210D20FFF7E4FE20
:1049200080211820FFF7E0FE1220FFF799FE1320E8
:10493000FFF796FE1420FFF793FE0620FFF790FE88
:104940000720FFF78DFE0A20FFF78AFE0D20FFF7F4
:1049500087FE1820FFF784FEA0210A20FFF7C4FE7F
:10496000A1210A20FFF7C0FE0A20FFF7FBFD00BFD0
:1049700008BD000010B586B04A4A4B4BD31ADB087D
:104980001B0443F0030349491846FCF785F9484ADC
:1049900002AB1268114619800233120C1A70454B93
:1049A00003221A7000238DF817300023ADF814305D
:1049B0000023ADF812306AE09DF8173001338DF80E
:1049C00017303C4B1B78DBB21A4600213A4800F006
:1049D000FEFE3A4B00221A70364B1B78DAB2354B8A
:1049E0001B78DBB202A90093334B3548FFF73EFD3D
:1049F0000390039B002B07D0324A40F21711039813
:104A0000FCF75AFF00E020BF2C4B1B78DBB283F091
:104A10000103DBB2002BF6D19DF81730012B2AD110
:104A2000254B9B781B02244A52781A43BDF8143058
:104A300091B2254A22F813101A4A1B4BD31ADB08ED
:104A40001B0443F00300BDF81420BDF81430591CBA
:104A5000ADF8141019461C4B33F811301C46164B98
:104A60009B781B02144949780B430093234617494E
:104A7000FCF745F906E09DF81730032B02D100231F
:104A80008DF81730BDF812300133ADF81230BDF893
:104A9000123040F2FC7293428ED900BF00BF06B0C4
:104AA00010BD00BFBC580000945800001C6A0000F4
:104AB0005C6A000044000020680C0020640C0020A8
:104AC000886A000064690000FC060020386A000063
:104AD00008B50920FFF735FD0A20FFF732FD00BFBA
:104AE00008BD000010B586B00120FCF784FE4FF42D
:104AF00080410020FBF704FE0590059B002B05D0AC
:104B0000354A40F241110598FCF7D6FEFBF78EFDC1
:104B1000324B6C460FCB84E80F0011238DF8033025
:104B20000C238DF802300F238DF8013010238DF8FF
:104B30000030694600232A4A2A48FDF755FF0490B1
:104B4000049B002B05D0244A40F249110498FCF73D
:104B5000B3FEFFF74FFEFFF7B1FE00BFFCF70EF903
:104B60000346002BFAD1FFF7B3FF1F4A1F4BD31A9E
:104B7000DB081B0443F003031D491846FCF78CF8BF
:104B80000F20FFF76DFDFFF7A0FE1A4B40F2011258
:104B90001A803B20FFF764FD00E020BF164B1B7816
:104BA000DBB283F00103DBB2002BF6D1134B1B7891
:104BB000002BEED0FFF7DEFEA0210A20FFF794FDC8
:104BC000A1210A20FFF790FD0A20FFF7CBFC0B4B39
:104BD00000221A70DDE700BF64690000786A0000F7
:104BE00049460000886A0000BC5800009458000044
:104BF000606A0000FC060020640C00206C0C0020A1
:104C000082B0204B0193019B02221A61019B022278
:104C10005A61019B1C4A9A61019B1C4ADA61019B03
:104C20004FF400721A62019B00229A62019B0022DB
:104C30005A62019B0022DA62019B134A9A64019B2B
:104C4000134ADA64019B10221A65019B00229A65BF
:104C5000019B00225A65019B0022DA65019B073304
:104C60000C4A10681860019B0B4A10681860918804
:104C7000927999809A71019B20229A7100BF02B0AB
:104C8000704700BF740C0020A86A0000EC0C0020E4
:104C9000EC0E0020B46A0000B86A000000B589B0CC
:104CA00003900291019200230693039BDB68059316
:104CB000039B1B690493049A059B9A4205D9049AA5
:104CC000059BD31A013B079307E0039B9A6804995D
:104CD000059BCB1A1344013B0793039B9A68059BE2
:104CE000D31A079A934228BF13460793079A019B4A
:104CF000934228BF13460793039B5A68059B1344AE
:104D0000079A0299184600F039FD069A079B13444A
:104D10000693029A079B13440293019A079BD31AA6
:104D20000193059A079B13440593039B9B68059A7F
:104D30009A4201D100230593039B059ADA60019BF7
:104D4000002BB5D1069B184609B05DF804FB00B5F1
:104D500089B0039002910192039BDB680793039B48
:104D60009A68079BD31A0693069A019B9A420ED91A
:104D7000039B5A68079B1344019A0299184600F056
:104D8000FDFC079A019B1A44039BDA601AE0069B1C
:104D90000593039B5A68079B1344059A029918468A
:104DA00000F0ECFC019A069BD31A0593039B58680C
:104DB000029A069B1344059A194600F0DFFC039BF8
:104DC000059ADA6000BF09B05DF804FB86B0019077
:104DD000019B1B690493019BDB680393049A039B6B
:104DE0009A4208D8019B9A68039BD21A049B1344E9
:104DF000013B059304E0049A039BD31A013B0593FE
:104E0000059B184606B0704700B589B00390029123
:104E10000192029B0693039B5A1C13465B001344AA
:104E2000DB00204A13440593059B5B69022B29D0C4
:104E3000022B2ED8002B02D0012B13D029E005988D
:104E4000FFF7C4FF0490049A019B9A4202D2002308
:104E5000079321E0019B0793019A06990598FFF7B4
:104E600076FF19E00598FFF7B1FF0490019A049BC3
:104E7000934228BF13460793079A06990598FFF7B0
:104E800066FF09E0019A06990598FFF707FF07906A
:104E900002E00023079300BF079B184609B05DF8A6
:104EA00004FB00BF740C002008B5FFF7A9FE00BF8B
:104EB00008BD0000BFF34F8F00BF064BDB6803F453
:104EC000E0620449044B1343CB60BFF34F8F00BF34
:104ED00000BFFDE700ED00E00400FA0582B01A4BC8
:104EE0001B68B3F1FF3F0AD1184B1B68DBB201937B
:104EF000174B1B681B0903F00F03009305E0124BCF
:104F00001B680193134B1B680093019B062B17D161
:104F1000009B033B032B13D801A252F823F000BFE0
:104F2000314F0000354F0000394F00003D4F000069
:104F3000012306E0012304E0012302E0012300E055
:104F40000023184602B0704730010010E00F00F057
:104F5000E80F00F03401001082B0144B1B68DBB284
:104F60000193134B1B681B0903F00F030093019B74
:104F7000062B17D1009B033B032B13D801A252F839
:104F800023F000BF954F0000994F00009D4F000097
:104F9000A14F0000012306E0002304E0002302E00B
:104FA000002300E00023184602B07047E00F00F035
:104FB000E80F00F082B01A4B1B68B3F1FF3F0AD133
:104FC000184B1B68DBB20193174B1B681B0903F0DE
:104FD0000F03009305E0124B1B680193134B1B68F2
:104FE0000093019B062B17D1009B033B032B13D887
:104FF00001A252F823F000BF095000000D5000003C
:105000001150000015500000012306E0012304E0C8
:10501000012302E0012300E00023184602B070479C
:1050200030010010E00F00F0E80F00F03401001034
:1050300082B0144B1B68DBB20193134B1B681B0936
:1050400003F00F030093019B062B17D1009B033B3A
:10505000032B13D801A252F823F000BF6D500000BB
:10506000715000007550000079500000012306E0E7
:10507000002304E0002302E0002300E000231846A0
:1050800002B07047E00F00F0E80F00F082B01A4B5A
:105090001B68B3F1FF3F0AD1184B1B68DBB20193C9
:1050A000174B1B681B0903F00F03009305E0124B1D
:1050B0001B680193134B1B680093019B062B17D1B0
:1050C000009B033B032B13D801A252F823F000BF2F
:1050D000E1500000E5500000E9500000ED500000F4
:1050E000012306E0012304E0012302E0012300E0A4
:1050F0000023184602B0704730010010E00F00F0A6
:10510000E80F00F03401001082B0144B1B68DBB2D2
:105110000193134B1B681B0903F00F030093019BC2
:10512000062B17D1009B033B032B13D801A252F887
:1051300023F000BF45510000495100004D510000CF
:1051400051510000012306E0002304E0002302E0A7
:10515000002300E00023184602B07047E00F00F083
:10516000E80F00F082B0144B1B68DBB20193134BC5
:105170001B681B0903F00F030093019B062B17D13B
:10518000009B033B032B13D801A252F823F000BF6E
:10519000A1510000A5510000A9510000AD5100002F
:1051A000012306E0002304E0002302E0002300E0E6
:1051B0000023184602B07047E00F00F0E80F00F03F
:1051C00082B01A4B1B68B3F1FF3F0AD1184B1B6822
:1051D000DBB20193174B1B681B0903F00F0300930D
:1051E00005E0124B1B680193134B1B680093019B56
:1051F000062B17D1009B033B032B13D801A252F8B7
:1052000023F000BF15520000195200001D5200008B
:1052100021520000002306E0002304E0012302E005
:10522000012300E00023184602B07047300100104F
:10523000E00F00F0E80F00F03401001082B01A4BCC
:105240001B68B3F1FF3F0AD1184B1B68DBB2019317
:10525000174B1B681B0903F00F03009305E0124B6B
:105260001B680193134B1B680093019B062B17D1FE
:10527000009B033B032B13D801A252F823F000BF7D
:105280009152000095520000995200009D5200007A
:10529000012306E0012304E0012302E0012300E0F2
:1052A0000023184602B0704730010010E00F00F0F4
:1052B000E80F00F03401001082B01A4B1B68B3F104
:1052C000FF3F0AD1184B1B68DBB20193174B1B68D9
:1052D0001B0903F00F03009305E0124B1B680193B9
:1052E000134B1B680093019B062B17D1009B033BBC
:1052F000032B13D801A252F823F000BF0D53000076
:10530000115300001553000019530000012306E05B
:10531000012304E0012302E0012300E000231846FA
:1053200002B0704730010010E00F00F0E80F00F00D
:105330003401001082B0124B1B680193114B1B68A3
:105340000093019B062B17D1009B033B032B13D823
:1053500001A252F823F000BF695300006D53000012
:105360007153000075530000002306E0002304E0A1
:10537000002302E0012300E00023184602B070473A
:105380003001001034010010024B034A1A6000BFC4
:10539000704700BF480000200090D00308B5FFF719
:1053A0009DFD0346002B06D0B74B1B681B0AB74A6E
:1053B00003F01F031360FFF7CFFD0346002B02D05D
:1053C000B34BB44A1A60FFF7F5FD0346002B06D035
:1053D000B14B1B685B0BB14A03F007031360FFF787
:1053E00027FE0346002B05D0AD4BDB68AC4A23F00B
:1053F0008073D360FFF74AFE0346002B0ED04FF0B8
:1054000080430022C3F80C214FF080430022C3F8F0
:1054100010214FF080430022C3F83825FFF774FEB7
:105420000346002B02D09F4B03221A60FFF79AFE1F
:105430000346002B0BD09C4B05221A609B4B01228C
:105440001A609B4B00221A609A4B3F221A60FFF7AA
:10545000B7FE0346002B76D04FF08053964AD3F820
:105460000434C2F820354FF08053934AD3F80834FF
:10547000C2F824354FF080538F4AD3F80C34C2F869
:1054800028354FF080538C4AD3F81034C2F82C35AD
:105490004FF08053884AD3F81434C2F830354FF0B7
:1054A0008053854AD3F81834C2F834354FF080530E
:1054B000814AD3F81C34C2F840354FF080537E4AFD
:1054C000D3F82034C2F844354FF080537A4AD3F8E9
:1054D0002434C2F848354FF08053774AD3F8283443
:1054E000C2F84C354FF08053734AD3F82C34C2F8CD
:1054F00050354FF08053704AD3F83034C2F85435E9
:105500004FF080536C4AD3F83434C2F860354FF012
:105510008053694AD3F83834C2F864354FF0805369
:10552000654AD3F83C34C2F868354FF08053624A7C
:10553000D3F84034C2F86C354FF080535E4AD3F84C
:105540004434C2F87035FFF779FE0346002B05D0CE
:105550005A4B1B685A4A03F04F031360FFF7ACFE27
:105560000346002B0DD04FF08043D3F8003403F0F6
:105570000103002B05D04FF080436FF00102C3F808
:105580000024FFF7D7FE0346002B05D04D4B1B68C8
:105590004C4A43F4806313604B4BD3F888304A4A3B
:1055A00043F47003C2F88830BFF34F8F00BFBFF3DE
:1055B0006F8F00BF4FF01023D3F80C3203F00103BC
:1055C000012B25D1414B0122C3F8042500BF3F4BDD
:1055D000D3F80034002BFAD04FF01023D3F80C325C
:1055E0004FF0102223F00103C2F80C3200BF374BFA
:1055F000D3F80034002BFAD0344B0022C3F8042532
:1056000000BF324BD3F80034002BFAD0FFF752FC26
:105610004FF01023D3F80032002B05DB4FF010239E
:10562000D3F80432002B2BDA284B0122C3F80425CF
:1056300000BF264BD3F80034002BFAD04FF01023D4
:105640001522C3F8002200BF204BD3F80034002BF2
:10565000FAD04FF010231522C3F8042200BF1B4BD1
:10566000D3F80034002BFAD0184B0022C3F80425DD
:1056700000BF164BD3F80034002BFAD0FFF71AFC0A
:10568000FFF782FE00BF08BD240300104035014033
:1056900074C007400DF0ADBA440200103C05004054
:1056A000F0ED00E0A0050040105600408856004094
:1056B000185600401456004000C000405802001028
:1056C000E40E00403C17004000ED00E000E0014027
:1056D0007F2805D8034A044B105C5B5C1840704778
:1056E00000207047CC6A00004C6B0000A0F1610301
:1056F000192B98BF20387047A0F14103192B98BF90
:10570000203070477F299ABF017001206FF02E0072
:10571000704700BF5AB10A787F2A0AD800B10260E8
:105720000021501AC3E9001118BF0120704710462C
:1057300070476FF02E007047A0F16103192B98BFDE
:1057400020387047A0F14103192B98BF20307047D3
:105750007F2805D8034A044B105C5B5C18407047F7
:1057600000207047CC6A00004C6B0000024B5B6865
:105770009B6809211B6818474C000020844640EABA
:10578000010313F0030F18D18446202A0BD32DE90F
:10579000F007B1E8F807A0E8F807A2F12002202AF4
:1057A000F7D2BDE8F007042A07D351F8043B40F8CC
:1057B000043BA2F10402042AF7D2002A05D011F812
:1057C000013B00F8013B013AF9D16046704784463D
:1057D000002A2DD010F0030F04D000F8011B013A6D
:1057E00026D0F7E7C9B241EA012141EA0141202A66
:1057F00012D3A2F120022DE9F0030B460C460D4610
:105800000E460F4688468946A0E8FA03203AFBD2A6
:10581000BDE8F00320320BD0042A05D340F8041B66
:10582000043A05D0042AF9D200F8011B013AFBD151
:105830006046704700F1010110F0030F11D010F81D
:10584000012B002A23D010F0030F0AD010F8012BEF
:10585000002A1CD010F0030F03D010F8012B002AEF
:1058600015D02DE970004FF001324FF0803350F821
:10587000044BA4EB020525EA04051D4000D1F6E720
:10588000A0F1040070BC10F8012B002AFBD1A0EBA2
:04589000010070475C
:105894008C6500000000000010660000000000009D
:1058A400F066000000000000D46700000000000063
:1058B400B468000000000000C059000000000303A9
:1058C400AC5B000000000000A45C000000000000CD
:0858D400A45F000000000000C9
:1058DC0000590000000000001859000000000020D2
:1058EC006C010020A4000020AC000020AC000020C3
:0458FC001800000090
:10590000B9040000EB040000E10400000000000006
:105910000338FDD8704700007274745F6C6F675F66
:105920006261636B656E6400433A5C5573657273C4
:105930005C6D696D6F727269735C446F63756D65E0
:105940006E74735C53656E736F72735C4C616767E2
:10595000696E67576561725C4669726D77617265E1
:105960005C6C616767696E67776561722D5C6E520A
:1059700046355F53444B5F31375C636F6D706F6EBC
:10598000656E74735C6C69627261726965735C6C7C
:105990006F675C7372635C6E72665F6C6F675F6487
:1059A000656661756C745F6261636B656E64732EAE
:1059B00063000000740100207F000000F40100205B
:1059C00061707000433A5C55736572735C6D696D0C
:1059D0006F727269735C446F63756D656E74735C2E
:1059E00053656E736F72735C4C616767696E67575E
:1059F0006561725C4669726D776172655C6C616746
:105A000067696E67776561722D5C6E5246355F53CC
:105A1000444B5F31375C636F6D706F6E656E74738E
:105A20005C6C69627261726965735C6C6F675C73F0
:105A300072635C6E72665F6C6F675F66726F6E74C6
:105A4000656E642E630000004261636B656E647373
:105A500020666C7573686564000000006572726F83
:105A6000720000007761726E696E6700696E666F22
:105A70000000000064656275670000001B5B306D0C
:105A8000000000001B5B313B33306D001B5B313B82
:105A900033316D001B5B313B33326D001B5B313B9F
:105AA00033336D001B5B313B33346D001B5B313B8B
:105AB00033356D001B5B313B33366D001B5B313B77
:105AC00033376D0025734C6F67732064726F70708D
:105AD0006564202825642925730D0A0025730000BC
