:1000000000000120750300005D0300005F03000095
:1000100061030000630300006503000000000000AE
:100020000000000000000000000000006703000066
:1000300069030000000000006B0300006D03000076
:100040006F0300006F0300006F0300006F030000E8
:100050006F0300006F0300006F0300006F030000D8
:100060006F0300006F0300006F0300006F030000C8
:100070006F0300006F0300006F0300006F030000B8
:100080006F0300006F0300006F0300006F030000A8
:100090006F0300006F0300006F0300006F03000098
:1000A0006F0300006F0300006F0300006F03000088
:1000B0006F0300006F03000000000000000000005C
:1000C0006F0300006F0300006F0300006F03000068
:1000D0006F0300006F0300006F03000000000000CA
:1000E0000000000000000000000000000000000010
:1000F0000000000000000000000000000000000000
:1001000000000000000000000000000000000000EF
:1001100000000000000000000000000000000000DF
:1001200000000000000000000000000000000000CF
:1001300000000000000000000000000000000000BF
:1001400000000000000000000000000000000000AF
:10015000000000000000000000000000000000009F
:10016000000000000000000000000000000000008F
:10017000000000000000000000000000000000007F
:10018000000000000000000000000000000000006F
:10019000000000000000000000000000000000005F
:1001A000000000000000000000000000000000004F
:1001B000000000000000000000000000000000003F
:1001C000000000000000000000000000000000002F
:1001D000000000000000000000000000000000001F
:1001E000000000000000000000000000000000000F
:1001F00000000000000000000000000000000000FF
:10020000354936480A1A02D0072291438D463449AF
:1002100034480A1A06D00722914381F30988022242
:1002200082F3148830483149314A00F044F83148AB
:100230003149324A00F03FF831483249324A00F041
:100240003AF832483249334A00F035F832483349F7
:10025000334A00F030F833483349344A00F02BF881
:1002600033483449344A00F026F8344834490022EF
:1002700000F02CF833483449002200F027F83348C6
:100280003349091A082902DB002202604160314A21
:1002900090471F481F49884205D00268043003B4C4
:1002A000904703BCF7E700208646EC46002000217B
:1002B000294A9047FEE7884207D0521A05D00378B2
:1002C00001300B700131013AF9D17047884202D0F8
:1002D00002700130FAE770470000012000E00020C2
:1002E0000000012000000120181300000000002081
:1002F00004000020D0030000D0030000B81100006B
:10030000181300000000002000000020B8110000B9
:10031000B8110000B8110000B8110000B8110000B9
:10032000B8110000B8110000B81100001613000049
:100330001C13000004000020040000200400002022
:10034000240000202400002024000020240000209D
:10035000242000209D03000079090000FEE7FEE74D
:10036000FEE7FEE7FEE7FEE7FEE7FEE7FEE7FEE765
:1003700000F002B8FFF7FCBF0F484FF007018843B9
:1003800085460E4880470E48016841F470010160BF
:10039000BFF34F8FBFF36F8FFFF732BF09480A4992
:1003A0000A4A884207D0521A05D0037801300B70F0
:1003B0000131013AF9D1704700000120E10E00003F
:1003C00088ED00E0B81100000000002000000020CF
:1003D00000B583B00190019B1B68184600F0B5F88A
:1003E0000346002B04D105494FF4F67000F0CAF91A
:1003F0004FF0A043184603B05DF804FBB8110000AD
:1004000000B585B00190084611461A4603468DF89E
:1004100003300B468DF8023013468DF8013001ABE6
:100420001846FFF7D5FF03909DF803209DF8023092
:100430005B001A439DF801309B001A439DF8183069
:100440001B0242EA03019DF81C301B04019A194368
:10045000039B02F5E07243F8221000BF05B05DF87F
:1004600004FB00B585B003900023019300230093A3
:100470000023012201210398FFF7C2FF00BF05B04E
:100480005DF804FB00B585B003900B468DF80B308A
:100490009DF80B30002201920022009200220021E0
:1004A0000398FFF7ADFF00BF05B05DF804FB00B592
:1004B00085B0019001AB1846FFF78AFF0390019BBE
:1004C000012202FA03F31946039800F02AF800BF4C
:1004D00005B05DF804FB00B585B0019001AB18468E
:1004E000FFF776FF0390019B012202FA03F31946FE
:1004F000039800F020F800BF05B05DF804FB00B5DC
:1005000083B001900091009B002B03D10198FFF76D
:10051000E2FF02E00198FFF7CAFF00BF03B05DF8F9
:1005200004FB82B001900091019B009AC3F808255A
:1005300000BF02B0704782B001900091019B009A09
:10054000C3F80C2500BF02B0704784B00190019B36
:100550005B09029300230393029B002B03D14FF00E
:10056000FF33039300BF019B03F01F030193039A22
:10057000019B22FA03F303F00103002B14BF0123B4
:100580000023DBB2184604B07047000000B583B00A
:100590000190019B012B03D90749472000F0F2F895
:1005A000064A019B13441B7801211846FFF7A7FF59
:1005B00000BF03B05DF804FBE81100005812000012
:1005C00000B583B00023019305E00198FFF7DEFF3B
:1005D000019B01330193019B012BF6D900BF00BFA2
:1005E00003B05DF804FB000000B583B00023019365
:1005F00009E0094A019B13441B781846FFF731FFB5
:10060000019B01330193019B012BF2D9FFF7D8FF26
:1006100000BF03B05DF804FB5812000000B583B0C2
:10062000002301930AE0094A019B13441B7803212C
:100630001846FFF727FF019B01330193019B032B12
:10064000F1D900BF00BF03B05DF804FB5C120000ED
:1006500000B583B00190019B03F00103002B01D092
:10066000FFF7C2FF019B03F00203002B01D0FFF74D
:10067000D5FF00BF03B05DF804FB000086B0039017
:100680000291019201238DF817309DF81730204A0E
:10069000039B13601E4A029B53601D4A019B93609B
:1006A000039B44F20102934212D0039B44F20202E4
:1006B000934220D1019B164AD360154BDB681B681F
:1006C000134A9361124BDB685B68114AD36112E0F5
:1006D000019B0F4A13610E4B1B699B680C4A5361C7
:1006E0000B4B1B691B680A4A9361094B1B695B68CA
:1006F000074AD36100BF72B600BF00BF9DF8173034
:10070000DBB2002BFAD162B600BF00BF06B0704763
:100710000400002000B583B002900091019244F2E1
:10072000010071466A4600F003F803B000BD00BF47
:1007300000B587B003900291019272B600BF039B8F
:1007400044F20102934207D0039B44F20202934217
:1007500005D1019B059303E0019B049300E000BFDA
:10076000074B1B6803F00103002B00D000BE019A69
:1007700002990398FFF782FF00BF07B05DF804FB02
:10078000F0ED00E000B585B003460091ADF806300D
:10079000BDF806300293009B039302AB1A4600217A
:1007A00044F20200FFF7C4FF00BF05B05DF804FB90
:1007B00000B585B00190019B002B0AD0074B43F098
:1007C00001030393019B9B010293039B02989847AB
:1007D00000E000BF05B05DF804FB00BF101300008F
:1007E00000B583B00190019B002B0AD04FF47A70C2
:1007F000FFF7DEFF019B013B0193019B002BF5D12D
:1008000000E000BF03B05DF804FB000000B583B05A
:100810000190019B1B68184600F08EF80346002BE0
:1008200004D105494FF4F670FFF7ACFF4FF0A04339
:10083000184603B05DF804FB6012000000B585B0F7
:100840000190084611461A4603468DF803300B46C0
:100850008DF8023013468DF8013001AB1846FFF7D2
:10086000D5FF03909DF803209DF802305B001A43EA
:100870009DF801309B001A439DF818301B0242EA94
:1008800003019DF81C301B04019A1943039B02F5D8
:10089000E07243F8221000BF05B05DF804FB00B51C
:1008A00085B00390002301930023009300230122CD
:1008B00001210398FFF7C2FF00BF05B05DF804FBFC
:1008C00000B585B0019001AB1846FFF79FFF03907C
:1008D000019B012202FA03F31946039800F018F86D
:1008E00000BF05B05DF804FB00B585B0019001AB19
:1008F0001846FFF78BFF0390019B012202FA03F3D6
:100900001946039800F00EF800BF05B05DF804FB2F
:1009100082B001900091019B009AC3F8082500BFA6
:1009200002B0704782B001900091019B009AC3F819
:100930000C2500BF02B0704784B00190019B5B0999
:10094000029300230393029B002B03D14FF0FF334C
:10095000039300BF019B03F01F030193039A019BC4
:1009600022FA03F303F00103002B14BF0123002339
:10097000DBB2184604B0704700B585B0002302937F
:10098000029B0193019B002B04D01A4A4921019834
:10099000FFF7C0FE0120FFF75BFE0920FFF77FFF96
:1009A0000A20FFF77CFF002303931EE04FF4FA7048
:1009B000FFF716FF0920FFF783FF4FF4FA70FFF7E8
:1009C0000FFF0A20FFF77CFF4FF4FA70FFF708FFD4
:1009D0000920FFF789FF4FF4FA70FFF701FF0A20A3
:1009E000FFF782FF039B01330393039B012BDDDDA4
:1009F000D9E700BF90120000BFF34F8F00BF064B36
:100A0000DB6803F4E0620449044B1343CB60BFF39B
:100A10004F8F00BF00BFFDE700ED00E00400FA05C6
:100A200082B01A4B1B68B3F1FF3F0AD1184B1B6809
:100A3000DBB20193174B1B681B0903F00F030093F4
:100A400005E0124B1B680193134B1B680093019B3D
:100A5000062B17D1009B033B032B13D801A252F89E
:100A600023F000BF750A0000790A00007D0A00002B
:100A7000810A0000012306E0012304E0012302E0D3
:100A8000012300E00023184602B070473001001037
:100A9000E00F00F0E80F00F03401001082B0144BBA
:100AA0001B68DBB20193134B1B681B0903F00F0398
:100AB0000093019B062B17D1009B033B032B13D8FC
:100AC00001A252F823F000BFD90A0000DD0A00009D
:100AD000E10A0000E50A0000012306E0002304E02B
:100AE000002302E0002300E00023184602B0704714
:100AF000E00F00F0E80F00F082B01A4B1B68B3F172
:100B0000FF3F0AD1184B1B68DBB20193174B1B68E0
:100B10001B0903F00F03009305E0124B1B680193C0
:100B2000134B1B680093019B062B17D1009B033BC3
:100B3000032B13D801A252F823F000BF4D0B000085
:100B4000510B0000550B0000590B0000012306E07B
:100B5000012304E0012302E0012300E00023184602
:100B600002B0704730010010E00F00F0E80F00F015
:100B70003401001082B0144B1B68DBB20193134B9D
:100B80001B681B0903F00F030093019B062B17D171
:100B9000009B033B032B13D801A252F823F000BFA4
:100BA000B10B0000B50B0000B90B0000BD0B00003D
:100BB000012306E0002304E0002302E0002300E01C
:100BC0000023184602B07047E00F00F0E80F00F075
:100BD00082B01A4B1B68B3F1FF3F0AD1184B1B6858
:100BE000DBB20193174B1B681B0903F00F03009343
:100BF00005E0124B1B680193134B1B680093019B8C
:100C0000062B17D1009B033B032B13D801A252F8EC
:100C100023F000BF250C0000290C00002D0C000063
:100C2000310C0000012306E0012304E0012302E06F
:100C3000012300E00023184602B070473001001085
:100C4000E00F00F0E80F00F03401001082B0144B08
:100C50001B68DBB20193134B1B681B0903F00F03E6
:100C60000093019B062B17D1009B033B032B13D84A
:100C700001A252F823F000BF890C00008D0C000087
:100C8000910C0000950C0000012306E0002304E015
:100C9000002302E0002300E00023184602B0704762
:100CA000E00F00F0E80F00F082B0144B1B68DBB2DD
:100CB0000193134B1B681B0903F00F030093019B67
:100CC000062B17D1009B033B032B13D801A252F82C
:100CD00023F000BFE50C0000E90C0000ED0C000063
:100CE000F10C0000012306E0002304E0002302E0F1
:100CF000002300E00023184602B07047E00F00F028
:100D0000E80F00F082B01A4B1B68B3F1FF3F0AD125
:100D1000184B1B68DBB20193174B1B681B0903F0D0
:100D20000F03009305E0124B1B680193134B1B68E4
:100D30000093019B062B17D1009B033B032B13D879
:100D400001A252F823F000BF590D00005D0D000014
:100D5000610D0000650D0000002306E0002304E0A3
:100D6000012302E0012300E00023184602B070478F
:100D700030010010E00F00F0E80F00F03401001027
:100D800082B01A4B1B68B3F1FF3F0AD1184B1B68A6
:100D9000DBB20193174B1B681B0903F00F03009391
:100DA00005E0124B1B680193134B1B680093019BDA
:100DB000062B17D1009B033B032B13D801A252F83B
:100DC00023F000BFD50D0000D90D0000DD0D00009F
:100DD000E10D0000012306E0012304E0012302E00D
:100DE000012300E00023184602B0704730010010D4
:100DF000E00F00F0E80F00F03401001082B01A4B51
:100E00001B68B3F1FF3F0AD1184B1B68DBB201939B
:100E1000174B1B681B0903F00F03009305E0124BEF
:100E20001B680193134B1B680093019B062B17D182
:100E3000009B033B032B13D801A252F823F000BF01
:100E4000510E0000550E0000590E00005D0E00000E
:100E5000012306E0012304E0012302E0012300E076
:100E60000023184602B0704730010010E00F00F078
:100E7000E80F00F03401001082B0124B1B680193A0
:100E8000114B1B680093019B062B17D1009B033B62
:100E9000032B13D801A252F823F000BFAD0E0000BF
:100EA000B10E0000B50E0000B90E0000002306E0F0
:100EB000002304E0002302E0012300E000231846A1
:100EC00002B070473001001034010010024B034A99
:100ED0001A6000BF704700BF000000200090D003E0
:100EE00008B5FFF79DFD0346002B06D0A04B1B68FD
:100EF0001B0AA04A03F01F031360FFF7CFFD034650
:100F0000002B02D09C4B9D4A1A60FFF7F5FD03466B
:100F1000002B06D09A4B1B685B0B9A4A03F0070321
:100F20001360FFF727FE0346002B05D0964BDB68C6
:100F3000954A23F08073D360FFF74AFE0346002BE7
:100F40000ED04FF080430022C3F80C214FF08043B5
:100F50000022C3F810214FF080430022C3F8382547
:100F6000FFF774FE0346002B02D0884B03221A6061
:100F7000FFF79AFE0346002B0BD0854B05221A6023
:100F8000844B01221A60844B00221A60834B3F225B
:100F90001A60FFF7B7FE0346002B76D04FF0805360
:100FA0007F4AD3F80434C2F820354FF080537C4A8E
:100FB000D3F80834C2F824354FF08053784AD3F878
:100FC0000C34C2F828354FF08053754AD3F81034EA
:100FD000C2F82C354FF08053714AD3F81434C2F85C
:100FE00030354FF080536E4AD3F81834C2F8343598
:100FF0004FF080536A4AD3F81C34C2F840354FF0A2
:101000008053674AD3F82034C2F844354FF08053F8
:10101000634AD3F82434C2F848354FF08053604A0D
:10102000D3F82834C2F84C354FF080535C4AD3F8DB
:101030002C34C2F850354FF08053594AD3F830342D
:10104000C2F854354FF08053554AD3F83434C2F8BF
:1010500060354FF08053524AD3F83834C2F86435C3
:101060004FF080534E4AD3F83C34C2F868354FF005
:1010700080534B4AD3F84034C2F86C354FF080535C
:10108000474AD3F84434C2F87035FFF779FE034677
:10109000002B05D0434B1B68434A03F04F031360FA
:1010A000FFF7ACFE0346002B0DD04FF08043D3F882
:1010B000003403F00103002B05D04FF080436FF0A4
:1010C0000102C3F80024FFF7D7FE0346002B05D02A
:1010D000364B1B68354A43F480631360344BD3F8B6
:1010E0008830334A43F47003C2F88830BFF34F8F1F
:1010F00000BFBFF36F8F00BF4FF01023D3F8003253
:10110000002B05DB4FF01023D3F80432002B2BDA31
:10111000284B0122C3F8042500BF264BD3F8003426
:10112000002BFAD04FF010231522C3F8002200BF85
:10113000204BD3F80034002BFAD04FF010231522A7
:10114000C3F8042200BF1B4BD3F80034002BFAD0A5
:10115000184B0022C3F8042500BF164BD3F8003407
:10116000002BFAD0FFF748FCFFF7B0FE00BF08BD28
:10117000240300104035014074C007400DF0ADBAA3
:10118000440200103C050040F0ED00E0A0050040E6
:101190001056004088560040185600401456004033
:1011A00000C0004058020010E40E00403C17004010
:0811B00000ED00E000E0014049
:1011B8002E2E2F2E2E2F2E2E2F2E2E2F2E2E2F2E42
:1011C8002E2F6D6F64756C65732F6E7266782F683D
:1011D800616C2F6E72665F6770696F2E6800000021
:1011E800433A5C55736572735C6D696D6F727269B1
:1011F800735C446F63756D656E74735C53656E7371
:101208006F72735C4C616767696E67576561725C82
:101218004669726D776172655C6C616767696E6754
:10122800776561722D5C6E5246355F53444B5F3172
:10123800375C636F6D706F6E656E74735C626F613F
:101248007264735C626F617264732E6300000000E5
:10125800090A00000D0E0F102E2E2F2E2E2F2E2EC7
:101268002F2E2E2F2E2E2F2E2E2F6D6F64756C6520
:10127800732F6E7266782F68616C2F6E72665F6767
:1012880070696F2E68000000433A5C55736572738D
:101298005C6D696D6F727269735C446F63756D65BF
:1012A8006E74735C53656E736F72735C4C616767C1
:1012B800696E67576561725C4669726D77617265C0
:1012C8005C6C616767696E67776561722D5C6E52E9
:1012D80046355F53444B5F31375C6578616D706CA0
:1012E80065735C7065726970686572616C5C626C6C
:1012F800696E6B795C6D61696E2E63000000000099
:0E13080000000000000000000338FDD8704710
:041318000090D0036E
:040000030000037581
:00000001FF
