:020000022000DC
:1060000000000120756302005D6302005F6302000F
:106010006163020063630200656302000000000028
:1060200000000000000000000000000067630200A4
:1060300069630200000000006B6302006D630200F0
:106040000DB202006F63020001D9020059E30200A1
:106050006F6302006F630200DDBE02006F63020027
:106060006F6302006F6302006F6302006F630200E0
:106070006F6302006F6302006F6302006F630200D0
:106080006F6302004D8602006F6302006F630200BF
:106090008D8602006F630200016203006F630200DD
:1060A0006F6302006F6302006F6302006F630200A0
:1060B0006F6302006F630200000000000000000038
:1060C0006F6302006F6302006F6302006F63020080
:1060D0006F6302006F6302006F6302000000000044
:1060E00000000000000000000000000000000000B0
:1060F00000000000000000000000000000000000A0
:10610000000000000000000000000000000000008F
:10611000000000000000000000000000000000007F
:10612000000000000000000000000000000000006F
:10613000000000000000000000000000000000005F
:10614000000000000000000000000000000000004F
:10615000000000000000000000000000000000003F
:10616000000000000000000000000000000000002F
:10617000000000000000000000000000000000001F
:10618000000000000000000000000000000000000F
:1061900000000000000000000000000000000000FF
:1061A00000000000000000000000000000000000EF
:1061B00000000000000000000000000000000000DF
:1061C00000000000000000000000000000000000CF
:1061D00000000000000000000000000000000000BF
:1061E00000000000000000000000000000000000AF
:1061F000000000000000000000000000000000009F
:10620000354936480A1A02D0072291438D4634494F
:1062100034480A1A06D00722914381F309880222E2
:1062200082F3148830483149314A00F044F831484B
:106230003149324A00F03FF831483249324A00F0E1
:106240003AF832483249334A00F035F83248334997
:10625000334A00F030F833483349344A00F02BF821
:1062600033483449344A00F026F83448344900228F
:1062700000F02CF833483449002200F027F8334866
:106280003349091A082902DB002202604160314AC1
:1062900090471F481F49884205D00268043003B464
:1062A000904703BCF7E700208646EC46002000211B
:1062B000294A9047FEE7884207D0521A05D0037852
:1062C00001300B700131013AF9D17047884202D098
:1062D00002700130FAE770470000012000E0002062
:1062E000000001200000012000970300003F002073
:1062F000B8450020D0630200D0630200787003002C
:1063000000970300003F0020003F0020E4710300DD
:10631000E4710300E4710300E4710300E47103001D
:10632000E4710300E4710300E4710300FF960300CD
:10633000B89D0300B8450020B8450020B8450020AE
:10634000B8670020B8670020B8670020B867002051
:10635000B88700209D63020065FE0200FEE7FEE7AD
:10636000FEE7FEE7FEE7FEE7FEE7FEE7FEE7FEE705
:1063700000F002B8FFF7FCBF0F484FF00701884359
:1063800085460E4880470E48016841F4700101605F
:10639000BFF34F8FBFF36F8FFFF732BF09480A4932
:1063A0000A4A884207D0521A05D0037801300B7090
:1063B0000131013AF9D1704700000120E9A702003C
:1063C00088ED00E0E4710300003F0020003F002062
:1063D00000B585B00190019B002B0AD0074B43F01C
:1063E00001030393019B9B010293039B029898472F
:1063F00000E000BF05B05DF804FB00BFF0710300D2
:1064000000B583B00190019B002B0AD04FF47A7045
:10641000FFF7DEFF019B013B0193019B002BF5D1B0
:1064200000E000BF03B05DF804FB08B50AF0D4FB40
:1064300000BF08BD00B589B0039002910192019B95
:10644000002B33D00023079303230693029A079B64
:106450001344019A194600200AF06EFB0590079A32
:10646000059B13440793019A059BD31A0193059B3F
:10647000002B13D10F4B1B7883F00103DBB2002BF1
:1064800013D10120FFF7BCFF069B013B0693069B3F
:10649000002B03D1074B00221A7007E0054B0122A5
:1064A0001A70019B002BD1D100E000BF00BF09B0E2
:1064B0005DF804FBB845002000B585B0039002915B
:1064C000054B00934023054A0299039800F012F807
:1064D00000BF05B05DF804FB35640200BC45002038
:1064E00082B0019000BF02B0704782B0019000BF3F
:1064F00002B0704700B5A1B00590049103920293D9
:10650000049803F0C7FA039B1593029B169300238C
:10651000179300238DF8603000231993229B1A9360
:1065200000231F930FA91F9B0822049803F08CFBE4
:1065300008231F93119B1293BDF84030ADF84C30E7
:10654000BDF84230ADF84E3000238DF851309DF843
:106550003C3003F00303DBB2012B26D10F9BC3F3C6
:1065600095231C939DF83C30C3F3C203DBB28DF836
:106570005030BDF83C30C3F38313DBB21B931B9B3D
:106580009A0009A91F9B049803F05EFB1B9B9B00CC
:106590001F9A13441F9312AA09A915AB009313461F
:1065A0001B9A1C9800F0A0FF2FE09DF83C3003F0F0
:1065B0000303DBB2022B28D1BDF83E30C3F38913AD
:1065C0009BB21E939DF83C30C3F3C203DBB28DF83F
:1065D00050301E9B082B28BF08231D9307A91F9B23
:1065E0001D9A049803F030FB1F9A1D9B13441F93C0
:1065F0001E9A1D9BD31A1E9315AB12AA07A81D99AC
:1066000001F014F81E9B002BE3D1049803F051FA1B
:1066100000BF21B05DF804FB82B00190019BDB68F4
:1066200001225A7100BF02B07047000000B583B06C
:106630004FF0FF330193FFF7F8FE0421084800F004
:106640006FFE0190019B002B03DA0649412008F000
:106650001BF90348FFF7E0FF00BF03B05DF804FB40
:10666000D47103000872030000B583B0019000915B
:10667000019B1B681B6800990198984700BF03B0F5
:106680005DF804FB00B583B00190019B1B685B685B
:106690000198984700BF03B05DF804FB00B583B0D4
:1066A0000190019B1B689B680198984700BF03B04D
:1066B0005DF804FB82B001900B468DF80330019B1E
:1066C000DB689DF803201A7100BF02B0704782B0EA
:1066D0000190019BDB681B79184602B0704782B0BD
:1066E0000190019BDB6801225A7100BF02B0704724
:1066F00082B00190019BDB685B79184602B070475D
:1067000000B585B0019000910C4B00221A700C4826
:1067100003F024F90390039B002B01D0039B08E0B6
:10672000084803F04FFB084A084BD31ADB080293D2
:106730000023184605B05DF804FB00BF6447002045
:10674000107103007C720300D471030024710300F4
:10675000024A034BD31ADB0818467047D471030072
:106760002471030000B587B001900B468DF803300B
:106770009DF80330002B1FD0FFF7EAFF04900023A1
:10678000059313E0059B9B000E4A13440393039B60
:106790001B881A46019B1B689A4204D1019B059AEB
:1067A0001A60002309E0059B01330593059A049BB9
:1067B0009A42E7D3052300E00023184607B05DF8AE
:1067C00004FB00BF003F002000B585B001900B46E0
:1067D0008DF803309DF8032001AB11461846FFF7F2
:1067E000C1FF0346002B07D1019BDB00054A134480
:1067F0000393039B1B6800E00023184605B05DF877
:1068000004FB00BF2471030084B001900B468DF897
:106810000330019BDB00174A134402939DF80330B9
:10682000013B032B1CD801A252F823F03D68020063
:10683000456802004D6802005768020002238DF887
:106840000F3011E004238DF80F300DE0029B1B790F
:106850008DF80F3008E0029B5B798DF80F3003E074
:1068600000238DF80F3000BF9DF80F30184604B09C
:10687000704700BF2471030084B001900091002391
:106880008DF80F30019B1B7803F00403DBB2002B63
:1068900024D0019B1B78C3F30103DBB2012B02D090
:1068A000022B0CD017E0009B1B68019A1288C2F3E0
:1068B0008312D2B213449A1C009B1A600BE0009B17
:1068C0001B68019A5288C2F3891292B213449A1C2F
:1068D000009B1A6000BF01238DF80F309DF80F3028
:1068E000184604B07047000000B58BB00023ADF827
:1068F00026303E4802F0FCFA3D4802F0F9FA3D4BE2
:106900009B6804933C4B1B680693049A069B1340B8
:1069100002339B00374A13440433089304AB1946EF
:106920000898FFF7A9FF0346002B09D0049A069B9D
:10693000134002339B002F4A134404330893EDE7BE
:1069400000BF0023079311E0049B5A1C0492069A8F
:106950001340079A920001A90A44264902339B007A
:106960000B445B681360079B01330793079B012B64
:10697000EAD99DF80430C3F30103DBB2012B10D038
:10698000022B1CD1BDF80A30ADF82630BDF8063018
:10699000C3F389139BB203339A08049B13440493F3
:1069A00013E0BDF80A30ADF82630BDF80430C3F36B
:1069B0008313DBB21A46049B1344049305E00F498A
:1069C0004FF4C27007F060FF00BF094802F09CFA64
:1069D0000590059B002B02D0049B064A9360BDF8EE
:1069E000263018460BB05DF804FB00BF7C4B00203E
:1069F000784B002064470020083F00208C72030081
:106A000000B585B00021074802F0E3F90390039B2D
:106A10000293029B83F310030193019B184605B078
:106A20005DF804FB804B002000B589B00390029113
:106A300001920093039B1B0C0793FFF7E1FF069065
:106A4000FFF786FE0246079B934204D3214940F29A
:106A5000A91007F019FF069B1904009B5A1C0A9BFA
:106A60001340079A0A431C4902339B000B445A60A7
:106A7000009A0A9B134002339B00174A13440433C5
:106A80000593039B03F00703D9B2059A137861F3CA
:106A9000C5031370019B03F00F03D9B2059A138845
:106AA00061F389131380029BC3F31501059A1368E0
:106AB00061F39F231360059A1378012161F30103A9
:106AC0001370059A13786FF38203137000BF09B037
:106AD0005DF804FB8C7203006447002000B58DB0A4
:106AE0000390029113468DF80730039B02330A93FB
:106AF00001238DF8273000238DF81B300DF11B0387
:106B0000184602F019F9404B5A68029B1A603F4B35
:106B10001A683D4B99683C4B5B68CB1A13440133B0
:106B20000B9314E001213A4802F0B2F9FFF7DCFEC2
:106B300007900799364802F0ABF9344B1A68324B8C
:106B40009968314B5B68CB1A134401330B930A9A53
:106B50000B9B9A42E6D89DF82730002B48D00023A3
:106B600005939DF80730002B17D09DF814300122B3
:106B700062F301038DF814309DF8143043F00403E0
:106B80008DF81430039B03F00F03DAB2BDF8143014
:106B900062F38913ADF8143016E09DF81430022228
:106BA00062F301038DF814309DF8143043F00403B0
:106BB0008DF81430039BC3F309039AB2BDF8163065
:106BC00062F38F13ADF816300F4B5A680F4B1B68EA
:106BD000134002339B000C4A134404330893059A74
:106BE000089B1A60084B5A680A9B1344064A536074
:106BF0009DF81B30184602F0B5F89DF8273018466E
:106C00000DB05DF804FB00BF64470020083F002082
:106C1000804B002000B58BB0059004910392029345
:106C20001F4B1B68079306AB012219460298FFF71A
:106C300055FF0346002B24D0069B02330993002303
:106C4000089311E0089B9B00039A1A44099B591C66
:106C5000099107990B401268124902339B000B44BB
:106C60005A60089B01330893089A029B9A42E9D321
:106C7000069A079B00931346029A04990598FFF71A
:106C8000D3FE084B1B78002B05D000BF00F03EF967
:106C90000346002BFAD100BF0BB05DF804FB00BF28
:106CA000083F00206447002000B583B001900091A8
:106CB0000023002200990198FFF7ACFF00BF03B04A
:106CC0005DF804FB00B587B0039002910192019B2F
:106CD000059305AA012302990398FFF79BFF00BFC4
:106CE00007B05DF804FB00B587B0039002910192F4
:106CF0000093019B0493009B059304AA022302992D
:106D00000398FFF787FF00BF07B05DF804FB00B5ED
:106D100089B00390029101920093019B0593009B1F
:106D200006930A9B079305AA032302990398FFF78A
:106D300071FF00BF09B05DF804FB00B58BB0039094
:106D4000029101920093019B0593009B06930C9B7B
:106D500007930D9B08930E9B099305AA052302999F
:106D60000398FFF757FF00BF0BB05DF804FB00B5B9
:106D70008BB00390029101920093019B0493009BBE
:106D800005930C9B06930D9B07930E9B08930F9BFB
:106D9000099304AA062302990398FFF73BFF00BF5B
:106DA0000BB05DF804FB000000B58DB003900291BC
:106DB0001346ADF806304B4B1B680B93BDF80630FD
:106DC00003339B0805A900221846FFF787FE0346F8
:106DD000002B78D0059B0A93059B02330593414B0A
:106DE0001A6805990B9B0B40D31A01339B0009933A
:106DF000BDF80630099A9A420ED3059A0B9B1340B0
:106E000002339B00384A13440433BDF8062002992C
:106E100018460FF07FFD17E0059A0B9B13400233D5
:106E20009B00314A13440433099A029918460FF023
:106E300071FD029A099BD118BDF80620099BD31A4F
:106E40001A462A480FF066FD039B1B0C0893FFF7B8
:106E5000D7FD0790079B19040A9B5A1C0B9B1340F4
:106E6000089A0A43204902339B000B445A600A9A4D
:106E70000B9B134002339B001B4A134404330693BD
:106E8000039B03F00703D9B2069A137861F3C50395
:106E90001370069A13886FF38F131380BDF80630B2
:106EA000C3F3090399B2069A538861F38F13538091
:106EB000069A1378022161F301031370069A13787E
:106EC0006FF382031370084B1B78002B05D000BFB3
:106ED00000F01CF80346002BFAD100BF0DB05DF89E
:106EE00004FB00BF083F00206447002070470020DB
:106EF000054B9A68044B5B689A420CBF0123002340
:106F0000DBB21846704700BF6447002000B599B057
:106F1000FFF7EEFF0346002B01D00023C0E19B4B9F
:106F20000022C3F81824BFF34F8F00BF974B9B6814
:106F30000493974B1B681093049A109B13400233E1
:106F40009B00924A134404331193002317930023A8
:106F5000169300230F9304AB19461198FFF78CFC8E
:106F60000346002B19D0894BD3F81834002B14D1C9
:106F7000864B5A68049B9A4205D8844B5B68834AC7
:106F8000936000238CE1049A109B134002339B0012
:106F90007E4A134404331193DDE70023159311E077
:106FA000049B5A1C0492109A1340159A920001A94E
:106FB0000A44764902339B000B445B681360159BBF
:106FC00001331593159B012BEAD99DF8043003F08A
:106FD0000303DBB2022B40F09C80BDF80630C3F304
:106FE00089139BB20D93BDF80630C3F389139BB28E
:106FF000502B28BF50239BB20C930C9BC3F3090367
:107000009AB2BDF8063062F38F13ADF806300C9BD0
:1070100008330B939DF80430C3F3C203DBB20F9324
:107020000B995C4802F0A5FC1790179B002B00F011
:10703000D380179802F02EFD01A9169B08221798FD
:1070400002F0E4FD169B08331693049BDA43109B71
:10705000134001339B000A930C9A0A9B9A4242D92F
:107060000A9B002B08D0049A109B134002339B000C
:10707000464A1344043300E0474B08930A9B002B15
:1070800002D00A9BDBB201E00C9BDBB28DF81F3013
:107090000A9B002B01D0404B00E0002306930A9B83
:1070A000002B06D00C9BDAB20A9BDBB2D31ADBB200
:1070B00000E000238DF817309DF81F20169B0899DB
:1070C000179802F0A3FD9DF81F30169A13441693EB
:1070D000069B002B16D09DF81720169B0699179833
:1070E00002F094FD0EE0049A109B134002339B00C3
:1070F000264A134404330993169B0C9A099917984E
:1071000002F084FD0D9B03339A08049B13440493FF
:1071100062E09DF8043003F00303DBB2012B5BD186
:10712000BDF80430C3F38313DBB2062B28BF06235C
:10713000DAB2BDF8043062F38913ADF80430BDF85B
:107140000430C3F38313DBB202330E939DF8043093
:10715000C3F3C203DBB20F930E9B9B0019460D488D
:1071600002F007FC1790179B002B35D0179802F000
:1071700091FC01A9169B0822179802F047FD169B67
:1071800008331693002315931DE000BF64470020C9
:10719000083F00201071030070470020049B5A1C18
:1071A0000492109A134002339B003F4A1344191D66
:1071B000169B0422179802F029FD169B04331693A0
:1071C000159B01331593BDF80430C3F38313DBB271
:1071D0001A46159B9342E1D3179B002B40D0324BAC
:1071E000D3F810341493304BD3F81834002B1BD041
:1071F000179802F05EFC4DE000238DF84F30149894
:10720000FFF776FA0346002B02D001238DF84F30AA
:107210009DF84F30002B03D017991498FFF724FAEC
:10722000149BDB681B681493149B002BE4D1179804
:1072300002F03FFC00238DF803300DF103031846E4
:1072400001F07AFD184BD3F81834002B02D1049BBF
:10725000154A93609DF80330184601F083FD19E04C
:10726000114BD3F81034129306E01298FFF716FA78
:10727000129BDB681B681293129B002BF5D10B4A03
:107280000B4BD31ADB081B0443F0020309491846D1
:10729000FFF70AFDFFF72CFE034683F00103DBB284
:1072A000184619B05DF804FB6447002054710300D0
:1072B00024710300F872030000B585B00023039326
:1072C00023E0164BD3F81034029301238DF80730D6
:1072D0000FE00298FFF7FBF903461A46039B93421F
:1072E00003D100238DF8073006E0029BDB681B68A2
:1072F0000293029B002BECD19DF80730002B01D0AC
:10730000039B07E0039B01330393039B092BD8DD09
:107310004FF0FF33184605B05DF804FB64470020CA
:1073200000B585B001900B468DF80330FFF7C4FF20
:107330000390039BB3F1FF3F01D1039B22E0039B2A
:10734000DBB219460198FFF7B5F9104BD3F81034AA
:10735000002B08D10D4A019BC2F81034019BDB6859
:1073600000221A600DE0094BD3F81034DA68019B53
:10737000DB6812681A60054BD3F81034DB68019A99
:107380001A60039B184605B05DF804FB64470020B3
:1073900000B583B00C4BD3F8103401930A4B012293
:1073A0001A7009E00198FFF79AF90198FFF76AF956
:1073B000019BDB681B680193019B002BF2D100BF8E
:1073C00000BF03B05DF804FB6447002082B0019069
:1073D000009100BF02B0704710B584B003900291D5
:1073E000039BDB88002B0AD0039BDB881A461F4BCC
:1073F000009313461E4A1F49029801F00BFF039B9E
:107400001B7A052B2ED0039B5B7A002B12D0039B9B
:107410009B881A46039B1B7A19461046FFF7F4F91E
:1074200003461A46144B53F822301A461349029861
:1074300001F0F0FE039B1B6819460298FFF7C6FF98
:10744000039B1B7A1A460E4B53F82240039B9B88E2
:1074500000211846FFF7B8F9034622460949029869
:1074600001F0D8FE00BF04B010BD00BF2C730300B4
:107470003C73030074730300203F00208C730300EF
:107480000C3F00209073030000B585B0039002917B
:1074900013468DF80730039B1B7A052B0FD0039BF7
:1074A0005B7A002B06D00D4B1B681A460C490298DC
:1074B00001F0B0FE0B49029801F0ACFE07E09DF828
:1074C0000730002B03D00749029801F0A3FE029871
:1074D00001F07EFE00BF05B05DF804FB203F0020F8
:1074E0008C7303009C73030030B58BB0079006913A
:1074F000059204930E9B1B7B8DF827300E9B002278
:107500001A730E990498FFF767FF059B062B7FD827
:1075100001A252F823F000BF357502003F7502004A
:107520004F7502006375020081750200A9750200A3
:10753000D975020007990E9801F06CFE69E0069B70
:107540001B681A4607990E9801F064FE61E0069BDD
:107550001A68069B04331B6807990E9801F05AFEBF
:1075600057E0069B1A68069B04331968069B08338C
:107570001B6800930B4607990E9801F04BFE48E0FC
:10758000069B1968069B04331868069B08331B6822
:10759000069A0C3212680192009303460A46079934
:1075A0000E9801F037FE34E0069B1868069B043302
:1075B0001C68069B08331B68069A0C3212680699F1
:1075C00010310968029101920093234602460799FF
:1075D0000E9801F01FFE1CE0069B1C68069B0433FE
:1075E0001D68069B08331B68069A0C3212680699C0
:1075F00010310968069814300068039002910192D6
:1076000000932B46224607990E9801F003FE00E0F6
:1076100000BF00220E990498FFF736FF0E9B9DF8DD
:1076200027201A7300BF0BB030BD00BF00B587B074
:107630000390029101920093029B082B60D8009B5B
:107640001B7B8DF81330009B00221A730099019860
:10765000FFF7C2FE0023059314E0059A029B9A42AD
:1076600009D2039A059B13441B781A4626490098B1
:1076700001F0D0FD03E02549009801F0CBFD059B0A
:1076800001330593059B072BE7D92149009801F0A9
:10769000C1FD0023059326E0059A029B9A421BD266
:1076A000039A059B13441B788DF812309DF8123015
:1076B0007E2B0AD89DF8123018460FF0BFF803460B
:1076C000002B02D09DF8123000E02E231A461149FB
:1076D000009801F09FFD03E00F49009801F09AFD2A
:1076E000059B01330593059B072BD5D901220099F2
:1076F0000198FFF7C9FE009B9DF813201A7300E064
:1077000000BF07B05DF804FBA0730300A87303007B
:10771000AC730300B0730300B473030086B003902E
:107720000291019201238DF817309DF81730204AFD
:10773000039B13601E4A029B53601D4A019B93608A
:10774000039B44F20102934212D0039B44F20202D3
:10775000934220D1019B164AD360154BDB681B680E
:10776000134A9361124BDB685B68114AD36112E0E4
:10777000019B0F4A13610E4B1B699B680C4A5361B6
:107780000B4B1B691B680A4A9361094B1B695B68B9
:10779000074AD36100BF72B600BF00BF9DF8173023
:1077A000DBB2002BFAD162B600BF00BF06B0704753
:1077B000844B002000B583B002900091019244F206
:1077C000010071466A4600F003F803B000BD00BF37
:1077D00030B58BB007900691059272B600BFFFF7E7
:1077E000D7FD00BFFFF792FB0346002BFAD1079BA2
:1077F00044F2020293422FD0079B44F202029342CA
:1078000069D8079B44F20102934237D0079B44F2A8
:10781000010293425FD8079B012B05D0079B41F2E1
:10782000010293420CD056E0394A3A4BD31ADB0896
:107830001B0443F0010338491846FFF735FA57E0B7
:10784000334A344BD31ADB081B0443F0010333499A
:107850001846FFF729FA4BE0059B09932C4A2D4B5C
:10786000D31ADB081B0443F00100099B5B681A462E
:10787000099B1B682A49FFF736FA39E0059B0893F4
:10788000234A244BD31ADB081B0443F00104089B52
:107890009D68089B9B68184602F0B2FA034618469A
:1078A000089B5B681946089B1B68069A0292019325
:1078B000009103462A461B492046FFF73EFA144A28
:1078C000144BD31ADB081B0443F001031649184676
:1078D000FFF7EAF90CE00E4A0E4BD31ADB081B0443
:1078E00043F00103069A11491846FFF7EBF900BF70
:1078F0000F4B1B6803F00103002B00D000BE059A5C
:1079000006990798FFF70AFF00BF0BB030BD00BF14
:1079100054710300247103002874030048740300A9
:107920006C74030088740300B0740300C474030013
:10793000F0ED00E084B00190019B9B680393019BF4
:10794000DA68039BD31A184604B0704782B00190DE
:107950000B468DF80330019B1A68019BDB68019987
:1079600089880B4013449DF803201A70019BDB6843
:107970005A1C019BDA6000BF02B0704784B00390CC
:107980000B460192ADF80A30039B1A68039B996875
:10799000BDF80A300B44039989880B4013441A78C8
:1079A000019B1A7000BF04B0704700B583B001900E
:1079B0000091009A00210198FFF7E0FF019B9B686E
:1079C0005A1C019B9A6000BF03B05DF804FB84B0B1
:1079D000039002911346ADF80630029B002B01D1B3
:1079E0000E231DE0BDF80630002B07D0BDF8063091
:1079F0005A1EBDF806301340002B01D009230FE0BA
:107A0000039B029A1A60BDF80630013B9AB2039BB1
:107A10009A80039B00229A60039B0022DA60002375
:107A2000184604B0704700B583B001900B468DF83E
:107A300003300198FFF77EFF0246019B9B889A4224
:107A400007D89DF8033019460198FFF77FFF002300
:107A500000E00423184603B05DF804FB00B583B0D2
:107A6000019000910198FFF765FF0346002B05D0B8
:107A700000990198FFF799FF002300E005231846BD
:107A800003B05DF804FB82B00190019B03F0030397
:107A9000002B0CBF01230023DBB2184602B0704755
:107AA00082B003468DF807309DF807309AB2064B36
:107AB0001B889A4204D29DF807300133DBB200E004
:107AC0000023184602B07047B04B002082B0084B2C
:107AD0001B788DF80730074B1B78DBB29DF8072029
:107AE0009A420CBF01230023DBB2184602B0704754
:107AF000AC4B0020AD4B002000B585B00346009292
:107B0000ADF806300B46ADF80430BDF80430013353
:107B10009BB2DB00ADF80E300098FFF7B4FF0346D0
:107B200083F00103DBB2002B01D0072317E00E4ADC
:107B3000009B1360BDF80E30009A13440B4A13608B
:107B40000B4B00221A700B4B00221A700A4ABDF828
:107B500006301380094ABDF804301380002318460C
:107B600005B05DF804FB00BFA44B0020A84B00202B
:107B7000AD4B0020AC4B0020AE4B0020B04B0020A2
:107B8000002318467047000000B585B02FE0204B59
:107B90001B78DBB2ADF80E301E4B1B68BDF80E2013
:107BA0001D49098801FB02F2134402931B4B1A681A
:107BB000BDF80E30DB0013449B88ADF80630174B40
:107BC0001A68BDF80E30DB0013441B680093BDF843
:107BD0000620009B1146029898470D4B1B78DBB29C
:107BE0001846FFF75DFF03461A46094B1A70FFF768
:107BF000C7FF034683F00103DBB2002B04D0FFF77D
:107C000065FF0346002BC2D000BF05B05DF804FB42
:107C1000AC4B0020A84B0020AE4B0020A44B002012
:107C200082B003468DF807309DF90730002B0CDB3E
:107C30009DF8073003F01F0205499DF907305B09E5
:107C4000012000FA02F241F8232000BF02B0704781
:107C500000E100E082B003468DF807309DF907305F
:107C6000002B13DB9DF8073003F01F0209499DF933
:107C700007305B09012000FA02F2203341F823208B
:107C8000BFF34F8F00BFBFF36F8F00BF00BF02B0C5
:107C9000704700BF00E100E082B003468DF8073076
:107CA0009DF90730002B0DDB9DF8073003F01F0214
:107CB00006499DF907305B09012000FA02F24033C2
:107CC00041F8232000BF02B0704700BF00E100E090
:107CD00082B003468DF807309DF90730002B0DDB8D
:107CE0009DF8073003F01F0206499DF907305B0934
:107CF000012000FA02F2603341F8232000BF02B0F5
:107D0000704700BF00E100E082B0034600918DF8AB
:107D100007309DF90730002B0ADB009BDAB20C49D3
:107D20009DF907305201D2B20B4483F800230BE0D7
:107D3000009BDAB207499DF8073003F00F03043BBC
:107D40005201D2B20B441A7600BF02B0704700BF96
:107D500000E100E000ED00E000B585B00190019B7E
:107D6000002B0AD0074B43F001030393019B9B01B7
:107D70000293039B0298984700E000BF05B05DF8AE
:107D800004FB00BFE074030000B583B00190064A15
:107D9000019BC2F8083506211120FFF7B5FF00BF8F
:107DA00003B05DF804FB00BF0010014008B50D4BA7
:107DB0004FF48032C3F844230A4B4FF48032C3F8A7
:107DC00004231120FFF784FF1120FFF729FF054B43
:107DD00001221A602F20FFF7BFFF034B01221A7008
:107DE00000BF08BD00100140D24C002008B5112092
:107DF000FFF730FF0E4B4FF48032C3F848230C4B93
:107E00004FF48032C3F80823094B01225A602F2017
:107E1000FFF7A2FF064B01229A60064B00221A6070
:107E20002F20FFF799FF044B00221A7000BF08BDF6
:107E300000100140C44C0020D24C0020024BD3F86B
:107E400004351846704700BF0010014082B0019011
:107E50000091019A009BD31A23F07F43184602B089
:107E60007047000082B00190034A019BC2F8403580
:107E700000BF02B0704700BF0010014086B0019003
:107E8000284B1B68002B03D1264A019B136045E059
:107E9000019B1A68234B1B681B689A4210D8214B20
:107EA0001B681968019B1A681E4B1B688A1A1A60A6
:107EB0001C4B1A68019BDA611A4A019B13602DE082
:107EC000019B1B680393174B1B680593154B1B689D
:107ED000049309E0049B1B68039AD31A0393049B41
:107EE0000593049BDB690493049B002B04D0049B43
:107EF0001B68039A9A42EDD8049B002B05D0049B83
:107F00001A68039BD21A049B1A60019B039A1A6099
:107F1000019B049ADA61059B019ADA6100BF06B001
:107F2000704700BFC04C002000B587B001902A4BBD
:107F30001B680393284B1B680593059B049308E07B
:107F4000049A019B9A4208D0049B0593049BDB6929
:107F50000493049B002BF3D100E000BF049B002B93
:107F600001D1002333E0059A049B9A4214D11A4BA5
:107F70001B68DB69184A1360174B1B68002B0BD179
:107F8000164B01229A60164B00221A60154B0122F3
:107F90001A702F20FFF7E0FE049B1B680293049BDE
:107FA000DA69059BDA61059BDB690493049B002B6E
:107FB00005D0049B1A68029B1A44049B1A60064B66
:107FC0001B68039A9A4214BF01230023DBB21846B0
:107FD00007B05DF804FB00BFC04C0020001001405A
:107FE000C44C0020D34C002008B51120FFF754FEEC
:107FF00000BF08BD08B51420FFF74EFE00BF08BD46
:1080000000B583B00190019B5B69019A92691046AB
:10801000984700BF03B05DF804FB000000B585B0D1
:108020002B4B1B68002B4ED000230193FFF706FF5C
:108030000246284B1B6819461046FFF707FF0290BF
:10804000234B1B6803931DE0039B1B68029A9A4213
:108050001CD3039B1B68029AD31A0293039B1B68D1
:10806000019A13440193039B0093039BDB690393E1
:10807000009B1B7C002B05D0009B00221A740098EB
:10808000FFF7BEFF039B002BDED100E000BF124BC9
:108090001A78124B1B789A420CD1104B1B78013383
:1080A000DAB20E4B1A700D4B1B78022B02D10B4B20
:1080B00000221A70094B1B781946094A019B42F8A5
:1080C0002130FFF797FF00BF05B05DF804FB00BF4C
:1080D000C04C0020C44C0020D04C0020D14C0020CB
:1080E000C84C002082B00190184B1A78184B1B78AE
:1080F0009A4223D0154B1B780133DAB2134B1A7016
:10810000124B1B78022B02D1104B00221A700F4B1E
:108110001B781A460F4B53F82220019B1A60019BD3
:108120001A680D4B1B6813440B4A13600A4B1B68FB
:1081300023F07F43084A1360012303E0019B0022E0
:108140001A600023184602B0704700BFD04C0020D0
:10815000D14C0020C84C0020C44C002088B00390B3
:10816000029101920023079338E0204B1B6806938D
:10817000069B1B68039A9A4206D2069B1A68039BC9
:10818000D21A069B1A602EE0069B1B68039AD31A2C
:108190000393069B1B68079A13440793069B0022D0
:1081A0001A60124B1B680593069BDB690F4A13602C
:1081B000069BDB68002B11D0029A079B134423F027
:1081C0007F42069B5A60069BDA68069B9A60019B79
:1081D0001A68069BDA61019B059A1A60034B1B68BB
:1081E000002BC2D100BF00BF08B07047C04C0020B8
:1081F00000B589B0019000238DF81F30664B1B68D5
:108200000593AAE0019B002B05D0019B0693069BDA
:10821000DB69019361E0614B1B781A4613465B00F2
:108220001344DB005D4A1344043304935B4B1B7817
:108230000133DAB2594B1A70584B1A78574B9B7866
:108240009A4202D1554B00221A70049B5B68069338
:10825000049B1B78032B1ED0032B7EDC012B1FD02D
:10826000022B7AD1049B5B681846FFF75DFE03463C
:10827000002B02D001238DF81F30069B00221A74B8
:108280006BE0454B1B680393039B00221A74039B0E
:10829000DB69414A1360404B1B68002BF1D15CE065
:1082A00000BF069B1B7C002B00D056E0049B9A6805
:1082B000069B5A60049BDA68069B9A60049B1A69C5
:1082C000069BDA60049B5A69069B9A61344B1B78C3
:1082D000002B02D0069B00225A60069B5A68314B45
:1082E0001B68D31A23F07F432F4A93420ED8069B74
:1082F0005B682C4A126811461846FFF7A7FD024634
:10830000069B9B681A44069B1A6017E0254B1A6867
:10831000069B5B6819461046FFF798FD0290069B86
:108320009B68029A9A4206D2069B9A68029BD21ACE
:10833000069B1A6002E0069B00221A60069B002240
:108340005A60069B00229A60069B01221A74069BC3
:108350000022DA610698FFF791FD019B002B7FF464
:1083600051AF0E4B1A780D4B5B789A427FF44AAFAF
:108370009DF81F30002B04D1074B1B68059A9A42C9
:1083800001D0012300E0002303F00103DBB2184613
:1083900009B05DF804FB00BFC04C0020B44B0020C6
:1083A000D34C0020C44C0020FEFF7F0010B588B0E5
:1083B0000190274B1B68002B44D0254B1B681B6882
:1083C0000793FFF73BFD0690224B1B680593059929
:1083D0000698FFF73BFD0346033304931E4B1B78BF
:1083E00083F00103DBB2002B01D0FFF7DFFC049A1E
:1083F000079B934238BF1346059A13440593059B88
:1084000023F07F4305930598FFF72CFDFFF716FD3A
:10841000039006990398FFF719FD0346DC1C0699A3
:108420000598FFF713FD03469C420DD9FFF706FDA3
:1084300003461846FFF716FD2F20FFF78DFCFFF7C8
:10844000D3FD01E0FFF7D2FC00BF08B010BD00BFB4
:10845000C04C0020C44C0020D24C002000B587B096
:108460000023019300238DF81730194B1B680493E8
:10847000184B1B6803936B461846FFF733FE034601
:108480008DF80B309DF80B30002B08D0009B01AA13
:1084900004991846FFF762FE01238DF81730019BFF
:1084A0001846FFF7A5FE0346002B02D001238DF8E6
:1084B00017309DF81730002B02D00398FFF776FF96
:1084C000054B00221A7000BF07B05DF804FB00BF27
:1084D000C44C0020C04C0020D34C002082B0034686
:1084E0008DF80730034A9DF80730537000BF02B083
:1084F000704700BFB44B002084B00190144B5B78F0
:1085000001338DF80F30124B9B789DF80F209A4263
:1085100002D100238DF80F300D4B1B789DF80F20F2
:108520009A4201D100230FE0019B9DF80F201A70A1
:10853000074B5B781A4613465B001344DB00044A82
:10854000134404330293029B184604B0704700BFE3
:10855000B44B002000B589B00390029101920093C2
:108560000023079300238DF816300DF116031846EB
:1085700000F0E2FB0DF117031846FFF7BDFF069070
:10858000069B002B02D10423079318E0069B0122CF
:108590001A70069B039A5A60FFF750FC0246069B2E
:1085A0009A60069B029ADA60069B019A1A61069B02
:1085B000009A5A619DF817301846FFF78FFF9DF813
:1085C0001630184600F0CEFB079B002B01D1FFF7B9
:1085D00011FD079B184609B05DF804FB00B587B094
:1085E00001900B468DF803300023059300238DF88E
:1085F0000E300DF10E03184600F09EFB0DF10F0337
:108600001846FFF779FF0490049B002B02D1042346
:1086100005930BE0049B9DF803201A70049B019ABC
:108620005A609DF80F301846FFF758FF9DF80E303E
:10863000184600F097FB059B002B01D1FFF7DAFCF1
:10864000059B184607B05DF804FB000008B50E4B0B
:108650000022C3F840210C4B0022C3F844210A4BEE
:108660000022C3F84821084B0022C3F84C21064BD6
:108670000022C3F80021044B0022C3F80421FFF7B5
:10868000CDFC00BF08BD00BF0010014008B5FFF7DA
:10869000E5FE00BF08BD000008B5FFF7A7FB134BC0
:1086A00000221A70114B00225A70104B0B229A7044
:1086B0000F4B00221A600F4B00221A700E4B002243
:1086C0001A701420FFF704FB06211420FFF71CFB8F
:1086D0001420FFF7A5FA0020FFF756FBFFF7AEFBCB
:1086E0000346064A13600023184608BDB44B002019
:1086F000C04C0020D04C0020D14C0020C44C0020A5
:1087000086B003900B4601928DF80B30134B9B788B
:10871000002B01D108231EE0019B002B01D1072370
:1087200019E0039B002B01D1072314E0039B1B6876
:108730001B7C002B01D008230DE0039B1B680593D5
:10874000059B00221A74059B9DF80B205A74059B0B
:10875000019A5A610023184606B07047B44B0020B6
:1087600000B587B0039002910192039B0593164BCD
:108770009B78002B01D1082322E0039B002B01D121
:1087800008231DE0029B042B03D9029BB3F1807FD9
:1087900001D3072314E0059B5B69002B01D108235B
:1087A0000EE0059B5B7C012B01D1029B00E00023C6
:1087B0000493019B049A02990598FFF7CBFE0346A8
:1087C000184607B05DF804FBB44B002000B585B037
:1087D0000190019B03930D4B9B78002B01D1082343
:1087E00010E0019B002B03D0039B5B69002B01D1A0
:1087F000082307E0039B00221A7402210398FFF765
:10880000EDFE0346184605B05DF804FBB44B0020AE
:1088100000B587B00390029113468DF8073000230E
:108820000593039B1B781A46114B9B5C002B09D0C8
:10883000039B04339DF807200299184604F068FD55
:1088400005900FE0039B1B781A46094B9B5C002B9D
:1088500008D1039B0C339DF807200299184603F0BA
:1088600001FF0590059B184607B05DF804FB00BFAB
:10887000384D002000B585B0019000238DF80F30F1
:10888000019B1B781A46114B9B5C002B08D0019B67
:108890000433184604F0FAFD03468DF80F300EE05D
:1088A000019B1B781A46094B9B5C002B07D1019B4F
:1088B0000C33184603F05EFF03468DF80F309DF829
:1088C0000F30184605B05DF804FB00BF384D00209E
:1088D00000B587B00390029113468DF8073000234E
:1088E0000593039B1B781A46114B9B5C002B09D008
:1088F000039B04339DF807200299184604F0DEFD1F
:1089000005900FE0039B1B781A46094B9B5C002BDC
:1089100008D1039B0C339DF807200299184603F0F9
:1089200081FF0590059B184607B05DF804FB00BF6A
:10893000384D002084B00190019B9B680393019BFC
:10894000DA68039BD31A184604B0704700B587B0A5
:1089500001900091019B1B78022B45D0022B6ADC11
:10896000002B52D0012B66D1019B1B7A002B05D125
:10897000012233493348FFF7ABFF5DE0019B5B68A1
:108980001B7819463048FFF74EF80590059B002BE1
:108990000AD001238DF80C30059B04932B4B1B68E8
:1089A00003AA104698470DE02748FFF7C3FF034688
:1089B000002B07D000238DF80C30244B1B6803AA32
:1089C000104698472048FFF7B5FF03461E4A928895
:1089D000934205D801221A491A48FFF779FF2BE084
:1089E0001B4B01221A7027E002238DF80C30019BEB
:1089F000DB680493012212491248FFF769FF134B09
:108A00001B6803AA1046984716E012491248FFF760
:108A100025F80346002B05D101220E490948FFF72E
:108A2000F7FE09E003238DF80C30084B1B6803AAFE
:108A30001046984700E000BF00BF07B05DF804FB98
:108A4000DC4C0020443F0020E04C0020D44C0020AF
:108A5000DD4C0020D84C0020F04C002030B591B007
:108A60000390029101928DF803303C4A019B136000
:108A7000029B002B01D107236DE0029B1968029B2A
:108A80005B689BB21A463648FEF7A1FF0F900F9B1A
:108A90000E930E9B002B01D00E9B5CE0029B99680D
:108AA000029BDB689BB21A462E48FEF790FF0F90A0
:108AB0000F9B0D930D9B002B01D00D9B4BE02A4B80
:108AC00004AC1D460FCD0FC495E80F0084E80F00DD
:108AD000039B5B690A93039B1B7C002B14BF012340
:108AE0000023DBB28DF824309DF803308DF82C3054
:108AF000039B5B7C002B01D00E2300E000238DF84C
:108B00002530039BDB680693039B9B680793039BBD
:108B10001B680593039B5B68049304AB134A1946D7
:108B2000134802F08FF90F900F9B0C930C9B002BB6
:108B300001D00C9B0FE00F4B00221A70039B1B68A7
:108B4000B3F1FF3F06D001220B490948FFF7C0FEF1
:108B5000034600E00023184611B030BDD44C00207D
:108B6000E04C0020F04C0020E87403004D89020026
:108B7000443F0020DD4C0020DC4C002000B587B0D5
:108B80000190019B002B03D11449CA2005F07CFE03
:108B9000134B1B788DF8173001991248FEF75EFFD2
:108BA00004909DF81730002B12D00D4B00221A7044
:108BB00001220D490D48FFF78BFE0390039B0293A2
:108BC000029B002B04D0054AD6210298FEF7F2FD45
:108BD000049B184607B05DF804FB00BF087503004E
:108BE000DD4C0020E04C0020DC4C0020443F002005
:108BF00000B585B003468DF807309DF8073019465B
:108C00001048FEF710FF0390039B002B15D10E4870
:108C1000FFF730FE034683F00103DBB2002B0CD0DC
:108C20000A490848FEF71AFF0346002B05D1012226
:108C300006490548FFF7ECFD0390039B184605B075
:108C40005DF804FBF04C0020443F0020D84C00208D
:108C500082B0EFF310830093009B019372B600BFC4
:108C6000019B184602B0704762B600BF00BF704754
:108C700000B585B00190FFF7EBFF0390164B9B68A2
:108C8000002B1BD1144B01229A60144BD3F8802087
:108C9000134B1340104A1360104B114AC3F8802045
:108CA0000E4BD3F884300C4A53600C4B4FF0FF321C
:108CB000C3F88420019B00221A7002E0019B01226C
:108CC0001A70039B002B01D1FFF7CEFF002318463B
:108CD00005B05DF804FB00BF004D002000E100E09E
:108CE000FC06FFBD00B585B003468DF80730104B7C
:108CF0009B68002B16D09DF80730002B12D1FFF790
:108D0000A7FF03900B4A0A4B1B681360094A084BE4
:108D10005B685360064B00229A60039B002B01D1D5
:108D2000FFF7A2FF0023184605B05DF804FB00BF63
:108D3000004D002000E100E000B583B0019000F09C
:108D40002BF80346012B03D00549432005F09CFD79
:108D50000198FFF78DFF00BF03B05DF804FB00BF73
:108D60006C75030000B583B003468DF8073000F042
:108D700013F80346012B03D00649512005F084FD6A
:108D80009DF807301846FFF7ADFF00BF03B05DF850
:108D900004FB00BF6C75030084B0EFF305830193FF
:108DA000019BC3F308030393039B002B0DD1EFF347
:108DB00014830093009B0293029B03F00103002B9A
:108DC0000CBF01230023DBB200E00123184604B0EE
:108DD000704710B487B001900091019B009A53E84E
:108DE000004F104643E8000191F0000FF7D10594C1
:108DF00004900391059B184607B05DF8044B70473B
:108E000010B487B001900091019B009A53E8004F85
:108E100044EA020043E8000191F0000FF6D1059406
:108E200004900391049B184607B05DF8044B70470B
:108E300010B487B001900091019B009A53E8004F55
:108E400004EA020043E8000191F0000FF6D1059416
:108E500004900391059B184607B05DF8044B7047DA
:108E600010B487B001900091019B009A53E8004F25
:108E700004EA020043E8000191F0000FF6D10594E6
:108E800004900391049B184607B05DF8044B7047AB
:108E900010B487B001900091019B009A53E8004FF5
:108EA00004EB020043E8000191F0000FF6D10594B5
:108EB00004900391049B184607B05DF8044B70477B
:108EC00010B487B001900091019B009A53E8004FC5
:108ED000A4EB020043E8000191F0000FF6D10594E5
:108EE00004900391049B184607B05DF8044B70474B
:108EF00000B583B0019001210198FFF781FF03467F
:108F0000184603B05DF804FB00B583B00190002162
:108F10000198FFF78DFF0346184603B05DF804FB88
:108F200000B585B001900091009B5B099B00019A00
:108F30001A44009B03F01F03012101FA03F31946B1
:108F40001046FFF75DFF039000BF05B05DF804FB1E
:108F500000B585B001900091009B5B099B00019AD0
:108F60001A44009B03F01F03012101FA03F3DB43C2
:108F700019461046FFF774FF039000BF05B05DF877
:108F800004FB82B001900091009B5B099B00019A59
:108F900013441A68009B03F01F0322FA03F303F043
:108FA0000103002B14BF01230023DBB2184602B0DB
:108FB0007047000000B583B001900B468DF8033078
:108FC000019B002B03D10849E82005F05DFC019BC3
:108FD000DA689DF803300199098A01FB03F3134411
:108FE000184603B05DF804FBD475030000B583B0E8
:108FF00001900091019B002B03D10849F52005F059
:1090000043FC009B019AD2689B1A019A128AB3FB17
:10901000F2F3DBB2184603B05DF804FBD47503002D
:1090200000B585B00190019B002B01D10E234CE0CF
:10903000019B1B68002B03D12649FF2005F024FC6F
:10904000019B5B68002B04D122494FF4807005F02E
:109050001BFC019B9B68002B04D11E4940F20110B0
:1090600005F012FC019BDB68002B04D119494FF479
:10907000817005F009FC019B1B8A002B04D1154966
:1090800040F2031005F000FC019B9A68019B5B68AD
:10909000D31A8DF80F30019B1B68019A52681A6031
:1090A00007E0019B1A681368591C11609DF80F2096
:1090B0001A709DF80F305A1E8DF80F20002BF0D13A
:1090C000019B1B6800221A710023184605B05DF849
:1090D00004FB00BFD475030000B585B00190019B6F
:1090E000002B04D11F494FF4927005F0CDFB0023F3
:1090F000039300238DF80A300DF10A031846FFF799
:109100001BFE019B1B681A68019B5B689A421FD972
:10911000019B1B681A68013A1A601B681B78194684
:109120000198FFF747FF0390019B9A68019B1B681A
:109130001B68D31A8DF80B30019B1B681B799DF8B7
:109140000B209A4204D9019B1B689DF80B201A71D1
:109150009DF80A301846FFF705FE039B184605B038
:109160005DF804FBD475030010B584B00190009144
:10917000019B002B04D1154940F2471005F084FBF8
:10918000009B002B04D111494FF4A47005F07CFB27
:10919000009B039300238DF80B300DF10B03184651
:1091A000FFF7CAFD019B1B681C68621C1A600399CB
:1091B0000198FFF71BFF034623709DF80B301846FC
:1091C000FFF7D0FD00BF04B010BD00BFD475030091
:1091D00000B583B00190019B002B03D10C493120D5
:1091E00005F052FB019B9B68002B0CD0019B5B6937
:1091F000019A1069019A1168019A92689847019B37
:1092000000229A6000E000BF03B05DF804FB00BFDD
:10921000387603000EB400B584B00190019B002B9A
:1092200003D11849422005F02FFB019B5B69002BFD
:1092300003D11449432005F027FB019B1B68002B39
:1092400003D11049442005F01FFB019B5B68002BF4
:1092500003D10C49452005F017FB059B002B0AD0D4
:109260000023039306AB039303AB1A4605990198B9
:1092700000F0B0F900E000BF04B05DF804EB03B00B
:10928000704700BF3876030000B583B001900B46ED
:109290008DF80330019B1A68019B9B68581C01994B
:1092A000886013449DF803201A70019B9A68019B03
:1092B0005B689A4202D30198FFF78AFF00BF03B0B0
:1092C0005DF804FB00B587B0039002910192009312
:1092D00000230593009B03F00103002B24D00BE037
:1092E000029B01330293059B013305939DF81330D4
:1092F00019460398FFF7C8FF029B1B788DF81330BF
:109300009DF81330002BEBD106E0019B013B01934C
:1093100020210398FFF7B8FF019A059B9A422ED9A6
:10932000019B002BF1D12AE0029B002B0BD002986D
:109330000DF073FB059006E0019B013B019320219A
:109340000398FFF7A1FF019A059B9A420FD9019B51
:10935000002BF1D10BE0029B01330293059B0133FB
:1093600005939DF8133019460398FFF78DFF029B74
:109370001B788DF813309DF81330002BEBD100BF14
:1093800007B05DF804FB000000B589B003900291BE
:1093900001920093029B07930123069307E0079A2B
:1093A000019BB2FBF3F30793069B01330693079AE5
:1093B000019B9A42F3D2009A069B9A4201D9009BE4
:1093C00006930B9B03F00103002B22D10A9B002B79
:1093D0001FD00B9B03F00203002B06D0009B002B39
:1093E00003D130238DF8173002E020238DF8173099
:1093F00008E00A9B013B0A939DF817301946039831
:10940000FFF742FF0A9B002B03D0069A0A9B9A4261
:10941000EFD301230793009B012B03D9009B013B52
:10942000009309E0029A079BB2FBF3F30493049ABA
:10943000019B9A4200D205E0079B019A02FB03F3CD
:109440000793E8E7029A079BB2FBF3F30493049BAC
:10945000079A02FB03F3029AD31A0293154A049B5C
:1094600013441B7819460398FFF70EFF079A019BD8
:10947000B2FBF3F30793079B002BE3D10B9B03F0A5
:109480000103002B11D00A9B002B0ED006E00A9B93
:10949000013B0A9320210398FFF7F6FE0A9B002B5D
:1094A00003D0069A0A9B9A42F1D300BF09B05DF837
:1094B00004FB00BFF076030000B589B0059004916D
:1094C00003920293049B002BB8BF5B4206930123D7
:1094D000079307E0039B069A92FBF3F30693079B1F
:1094E00001330793039B069A9A42F3DA029A079B89
:1094F0009A4201D9029B07930A9B002B0AD0049B36
:10950000002B04DB0B9B03F00403002B02D00A9B0F
:10951000013B0A930B9B03F00203002B02D0029B3A
:10952000002B16D00B9B03F00103002B11D10A9BDB
:10953000002B0ED006E00A9B013B0A9320210598E0
:10954000FFF7A2FE0A9B002B03D0079A0A9B9A42C0
:10955000F1D3049B002B07DA049B5B4204932D217B
:109560000598FFF791FE08E00B9B03F00403002B26
:1095700003D02B210598FFF787FE0B9B03F0020316
:10958000002B19D00B9B03F00103002B14D1029B7D
:10959000002B11D10A9B002B0ED006E00A9B013B49
:1095A0000A9330210598FFF76FFE0A9B002B03D02A
:1095B000079A0A9B9A42F1D304990B9B01930A9B49
:1095C0000093029B039A0598FFF7DEFE00BF09B0E7
:1095D0005DF804FB00B58FB0059004910392059BE4
:1095E000002B04D1AD4940F2522005F04DF9059B06
:1095F0005B69002B04D1A9494FF4157005F044F9BB
:10960000059B1B68002B04D1A44940F2552005F0AE
:109610003BF9059B5B68002B04D1A04940F2562022
:1096200005F032F9049B002B00F09381049B1B781A
:109630008DF83730049B013304939DF83730002BAD
:1096400000F07E819DF83730252B40F06D8100239E
:109650000A9301230C93049B1B788DF837309DF8F7
:109660003730302B0DD0302B1BDC2B2B11D02D2B7A
:1096700017D10A9B43F001030A93049B013304931F
:1096800012E00A9B43F002030A93049B0133049304
:109690000AE00A9B43F004030A93049B01330493FA
:1096A00002E000230C9300BF0C9B002BD3D10023BE
:1096B00009939DF837302A2B0CD1039B1B68191D89
:1096C000039A11601B68099A13440993049B0133A0
:1096D00004931AE0049B1B788DF837309DF83730DF
:1096E0002F2B12D99DF83730392B0ED8049B01331C
:1096F0000493099A13469B0013445B001A469DF895
:1097000037301344303B0993D3E700230B93049B7A
:109710001B788DF837309DF837302E2B1DD1049BE8
:1097200001330493049B1B788DF837309DF8373054
:109730002F2B12D99DF83730392B0ED8049B0133CB
:1097400004930B9A13469B0013445B001A469DF842
:1097500037301344303B0B93E4E7049B1B788DF8C0
:1097600037309DF837306C2B03D09DF83730682B9D
:1097700007D1049B01330493049B1B788DF8373089
:10978000EFE79DF83730252B00F0C480252BC0F281
:10979000C680782B00F3C380582BC0F2C080583BA2
:1097A000202B00F2BC8001A252F823F0A198020005
:1097B0001F9902001F9902001F9902001F990200C1
:1097C0001F9902001F9902001F9902001F990200B1
:1097D0001F9902001F99020031980200539802005D
:1097E0001F9902001F9902001F9902001F99020091
:1097F000539802001F9902001F9902001F9902004E
:109800001F9902001F9902001F990200E1980200AF
:109810001F9902001F990200C59802001F990200BB
:10982000779802001F9902001F990200A198020078
:10983000039B1B68191D039A11601B680C930C9BFA
:109840008DF81F309DF81F3019460598FFF71CFD55
:1098500066E0039B1B68191D039A11601B680C933B
:109860000A9B0193099B00930B9B0A220C99059874
:10987000FFF722FE54E0039B1B68191D039A116039
:109880001B680C930C990A9B0193099B00930B9BFB
:109890000A220598FFF778FD42E000BF90760300AA
:1098A000039B1B68191D039A11601B680C930C998C
:1098B0000A9B0193099B00930B9B10220598FFF7CD
:1098C00063FD2DE0039B1B68191D039A11601B6843
:1098D00008930A9B099A08990598FFF7F3FC1FE083
:1098E000039B1B68191D039A11601B680C933021A0
:1098F0000598FFF7C9FC78210598FFF7C5FC0C997E
:109900000023019308230093082310220598FFF7F2
:109910003BFD05E025210598FFF7B6FC00E000BF00
:10992000049B0133049305E09DF8373019460598F0
:10993000FFF7AAFC049B1B78002B7FF477AE00E0B6
:1099400000BF059B1B7B002B04D00598FFF740FC54
:1099500000E000BF0FB05DF804FB00BF00B583B0AE
:1099600001900198FFF75CFB0346184603B05DF8D1
:1099700004FB00B58BB001900091019B1B8A043B56
:109980000793009A079B1344DA1C079BB2FBF3F37F
:109990008DF81B300198FFF79FFB0590059B002B6E
:1099A00001D1002338E0059B00221A71059B01229A
:1099B0005A71079B9AB2059BDA80059B09939DF823
:1099C0001B30013B0493099B019A1A600023089302
:1099D0001DE00198FFF780FB0390039B002B0ED046
:1099E000059B5B790133DAB2059B5A71099B039A97
:1099F0001A60039B019A1A60039B099304E005987F
:109A000000F00EF8002307E0089B01330893089A42
:109A1000049B9A42DDD3059B18460BB05DF804FB0E
:109A200000B58BB00190019B0793079B5B798DF884
:109A30001B30019B08939DF81B30013B05930023CD
:109A4000099305E0089B1B680893099B0133099360
:109A5000099A059B9A42F5D3089B1B680493019BC6
:109A60000893002309930BE0089B1B680393089954
:109A70000498FFF779FB039B0893099B0133099333
:109A80009DF81B30099A9A42EED300BF00BF0BB07D
:109A90005DF804FB00B585B00190019B0393039B27
:109AA000043301211846FFF7F3F900BF05B05DF854
:109AB00004FB00B587B00190019B0593059B04331F
:109AC00001211846FFF7FCF90346039303AB049307
:109AD000049B1B78002B02D10198FFF7A1FF00BF68
:109AE00007B05DF804FB000000B591B0039002914F
:109AF00001920093039B002B03D14349B62004F04D
:109B0000C3FE039B0993039B0F93099BDB881A46B3
:109B1000099B5B7902FB03F3043B0893009A089BC3
:109B20009A4203D33849C42004F0AEFE099BDB8877
:109B30000793009B1A1D079BB2FBF3F30E93009B48
:109B40000433079AB3FBF2F2079901FB02F29B1A66
:109B50000D93019B1A68009B1344089A9A4203D202
:109B6000089A009BD31A01E0019B1B680C93019B90
:109B70000C9A1A6005E00F9B1B680F930E9B013B2C
:109B80000E930E9B002BF6D100230B93079A0D9B8F
:109B9000D31A0A930A9A0C9B934228BF13460A933E
:109BA0002AE0029A0B9B134406930F9A0D9B1344D1
:109BB000043305939DF84830002B05D00A9A059987
:109BC00006980CF0A7FE04E00A9A069905980CF096
:109BD000A1FE00230D930F9B1B680F930C9A0A9B09
:109BE000D31A0C930B9A0A9B13440B93079A0C9B62
:109BF000934228BF13460A930C9B002BD1D100BF80
:109C000000BF11B05DF804FB0077030000B589B018
:109C10000590049103920293039B079307AA0023E4
:109C20000093029B04990598FFF75EFF079B039A38
:109C30009A4203D00349F62004F026FE00BF09B083
:109C40005DF804FB0077030000B589B0059004912E
:109C500003920293039B079307AA01230093029B9D
:109C600004990598FFF740FF079B039A9A4204D096
:109C700004494FF4807004F007FE00BF09B05DF89E
:109C800004FB00BF0077030082B003468DF8073065
:109C90009DF90730002B0DDB9DF8073003F01F0204
:109CA00006499DF907305B09012000FA02F2603392
:109CB00041F8232000BF02B0704700BF00E100E080
:109CC00000B583B00190019B002B03D1064972209F
:109CD00004F0DAFD019B00221A60BFF35F8F00BF22
:109CE00000BF03B05DF804FBB877030041DF7047A5
:109CF00000BF184600B585B000238DF807300DF180
:109D000007031846FFF718F8F1EE103A0393039B88
:109D100023F09F030293029BE1EE103A00BFBFF3D2
:109D20005F8F00BF2620FFF7AFFF9DF80730184672
:109D3000FFF718F8039B03F00703002B03D0044937
:109D40007D2004F0A1FD00BF05B05DF804FB00BF5D
:109D5000F877030008B5064B00221A700548FFF794
:109D6000AFFF0549054800F093F80023184608BDE9
:109D7000104D00200C4D002060780300144D002091
:109D800000B583B0FFF7B6FF0CF00CFA0346002BCA
:109D90000ED0FFF7ABFF0190019B002B0BD0019B76
:109DA000022B08D006494FF4B07004F06DFD02E0BC
:109DB00020BF40BF20BF00BF03B05DF804FB00BF61
:109DC000F877030082B00190019B9B6800229A60A3
:109DD000019B9B6800221A61019B9B6800225A61CB
:109DE000019B9B680022DA60019B9B6800225A60FD
:109DF000019B9B6800221A6000BF02B07047000000
:109E000000B585B00190019800F00EF80390039B17
:109E1000002B01D0039B00E0024B184605B05DF813
:109E200004FB00BF6C78030086B00190164B0593CD
:109E3000164B04931FE0049A059BD31ADB10DA0F2C
:109E400013445B10DB00059A13440393039B1B68C8
:109E50000293029A019B9A4202D9039B04930AE05F
:109E6000029A019B9A4203D2039B0833059302E0B6
:109E7000039B5B6804E0059A049B9A42DBD30023B2
:109E8000184606B0704700BF6C7C0300947D030049
:109E900000B583B001900091019B002B03D11049C4
:109EA000502004F0F1FC009B002B03D10C49512001
:109EB00004F0EAFC019B009A1A60019B1B681A6877
:109EC000019B5A60019B5A68019B1B685B689A4220
:109ED00002D1019B00225A6000BF03B05DF804FB71
:109EE000947D030000B583B00190019B002B03D14A
:109EF0001449632004F0C8FC019B1B68002B03D1AC
:109F00001049642004F0C0FC019B5B68002B14D056
:109F1000019B5B681A46019B1B689B6813441A46A9
:109F2000019B5A60019B5A68019B1B685B689A42BF
:109F300004D1019B00225A6000E000BF03B05DF82D
:109F400004FB00BF947D030082B00190019B9B68DD
:109F5000024A12781344184602B07047707E03001C
:109F600000B583B001900091019B002B03D10849FB
:109F7000832004F089FC019B9B68009A9A4202D2DC
:109F8000009B013300E00023184603B05DF804FB9A
:109F9000107E030000B585B00190019B1B681B6813
:109FA0000393019B1B685B680293029A039B9A428E
:109FB00003D3029A039BD31A07E00198FFF7C4FF6B
:109FC0000246039BD21A029B1344184605B05DF863
:109FD00004FB000000B585B00190019B002B03D16C
:109FE0000D49982004F050FC019B1B681B680393EB
:109FF000019B1B685B68029302990198FFF7B0FF11
:10A000000246039B93420CBF01230023DBB2184698
:10A0100005B05DF804FB00BF107E030010B588B0EA
:10A020000190009100230793019B002B03D1564917
:10A03000A32004F029FC009B002B03D15249A4204B
:10A0400004F022FC00238DF80F300DF10F031846A9
:10A05000FEF772FE0198FFF7BDFF03468DF81B3037
:10A060009DF81B3083F00103DBB2002B03D1019B71
:10A070001B7C002B7BD1019B1B685B680593019BBC
:10A080001B685A68019B1C6811460198FFF768FF1E
:10A09000034663609DF81B30002B0AD0019B1B68B0
:10A0A0001A68019B1C6811460198FFF759FF034687
:10A0B0002360019BDB68013B072B38D801A252F8D3
:10A0C00023F000BFE5A00200F5A002002FA10200CE
:10A0D00007A102002FA102002FA102002FA1020060
:10A0E00019A10200019B5A68059B1344009A12783B
:10A0F0001A702DE0019B5A68059B5B001344009A7F
:10A1000012881A8024E0019B5A68059B9B00134427
:10A11000009A12681A601BE0019B5A68059BDB00DD
:10A12000D118009BD3E90023C1E9002310E0019B73
:10A130005B681946019BDB68059A02FB03F30B443D
:10A140001846019BDB681A4600990CF0E3FB00BF40
:10A150000198FFF71FFF0490019B1B689B68049AFE
:10A160009A4207D9019B1B68049A9A6002E0042373
:10A17000079300E000BF9DF80F301846FEF7F2FD90
:10A18000079B184608B010BD107E030010B588B0BC
:10A190000390029113468DF8073000230793039B29
:10A1A000002B03D14549E72004F06EFB029B002BF6
:10A1B00003D14249E82004F067FB00238DF81730F3
:10A1C0000DF117031846FEF7B7FD039800F078F875
:10A1D000034683F00103DBB2002B63D0039B1B68B3
:10A1E0001B6806939DF8073083F00103DBB2002B58
:10A1F0000AD0039B1B681A68039B1C6811460398CE
:10A20000FFF7AEFE03462360039BDB68013B072B91
:10A2100037D801A252F823F039A2020049A2020065
:10A2200083A202005BA2020083A2020083A20200BA
:10A2300083A202006DA20200039B5A68069B13448E
:10A240001A78029B1A702FE0039B5A68069B5B00EA
:10A2500013441A88029B1A8026E0039B5A68069BC7
:10A260009B0013441A68029B1A601DE0039B5A6806
:10A27000069BDB001344D3E900230299C1E90023C4
:10A2800012E0039B5B681946039BDB68069A02FB9E
:10A2900003F30B441946039BDB681A4602980CF043
:10A2A00039FB01E0052307939DF817301846FEF7A8
:10A2B00059FD079B184608B010BD00BF107E030073
:10A2C00000B585B00190019B002B04D10B4940F2F1
:10A2D0002B2004F0D9FA019B1B681B680393019B98
:10A2E0001B685B680293039A029B9A420CBF01238E
:10A2F0000023DBB2184605B05DF804FB107E0300B6
:10A30000BFF34F8F00BF064BDB6803F4E0620449E4
:10A31000044B1343CB60BFF34F8F00BF00BFFDE77B
:10A3200000ED00E00400FA0582B01A4B1B68B3F19F
:10A33000FF3F0AD1184B1B68DBB20193174B1B6818
:10A340001B0903F00F03009305E0124B1B680193F8
:10A35000134B1B680093019B062B17D1009B033BFB
:10A36000032B13D801A252F823F000BF7DA30200F3
:10A3700081A3020085A3020089A30200012306E055
:10A38000012304E0012302E0012300E0002318463A
:10A3900002B0704730010010E00F00F0E80F00F04D
:10A3A0003401001082B0144B1B68DBB20193134BD5
:10A3B0001B681B0903F00F030093019B062B17D1A9
:10A3C000009B033B032B13D801A252F823F000BFDC
:10A3D000E1A30200E5A30200E9A30200EDA302004D
:10A3E000012306E0002304E0002302E0002300E054
:10A3F0000023184602B07047E00F00F0E80F00F0AD
:10A4000082B01A4B1B68B3F1FF3F0AD1184B1B688F
:10A41000DBB20193174B1B681B0903F00F0300937A
:10A4200005E0124B1B680193134B1B680093019BC3
:10A43000062B17D1009B033B032B13D801A252F824
:10A4400023F000BF55A4020059A402005DA402003D
:10A4500061A40200012306E0012304E0012302E0DD
:10A46000012300E00023184602B0704730010010BD
:10A47000E00F00F0E80F00F03401001082B0144B40
:10A480001B68DBB20193134B1B681B0903F00F031E
:10A490000093019B062B17D1009B033B032B13D882
:10A4A00001A252F823F000BFB9A40200BDA402002B
:10A4B000C1A40200C5A40200012306E0002304E0B9
:10A4C000002302E0002300E00023184602B070479A
:10A4D000E00F00F0E80F00F082B01A4B1B68B3F1F8
:10A4E000FF3F0AD1184B1B68DBB20193174B1B6867
:10A4F0001B0903F00F03009305E0124B1B68019347
:10A50000134B1B680093019B062B17D1009B033B49
:10A51000032B13D801A252F823F000BF2DA502008F
:10A5200031A5020035A5020039A50200012306E08D
:10A53000012304E0012302E0012300E00023184688
:10A5400002B0704730010010E00F00F0E80F00F09B
:10A550003401001082B0144B1B68DBB20193134B23
:10A560001B681B0903F00F030093019B062B17D1F7
:10A57000009B033B032B13D801A252F823F000BF2A
:10A5800091A5020095A5020099A502009DA50200D3
:10A59000012306E0002304E0002302E0002300E0A2
:10A5A0000023184602B07047E00F00F0E80F00F0FB
:10A5B00082B0144B1B68DBB20193134B1B681B0961
:10A5C00003F00F030093019B062B17D1009B033B65
:10A5D000032B13D801A252F823F000BFEDA502000F
:10A5E000F1A50200F5A50200F9A50200012306E08D
:10A5F000002304E0002302E0002300E000231846CB
:10A6000002B07047E00F00F0E80F00F082B01A4B84
:10A610001B68B3F1FF3F0AD1184B1B68DBB20193F3
:10A62000174B1B681B0903F00F03009305E0124B47
:10A630001B680193134B1B680093019B062B17D1DA
:10A64000009B033B032B13D801A252F823F000BF59
:10A6500061A6020065A6020069A602006DA60200BE
:10A66000002306E0002304E0012302E0012300E0D0
:10A670000023184602B0704730010010E00F00F0D0
:10A68000E80F00F03401001082B01A4B1B68B3F1E0
:10A69000FF3F0AD1184B1B68DBB20193174B1B68B5
:10A6A0001B0903F00F03009305E0124B1B68019395
:10A6B000134B1B680093019B062B17D1009B033B98
:10A6C000032B13D801A252F823F000BFDDA602002D
:10A6D000E1A60200E5A60200E9A60200012306E0C9
:10A6E000012304E0012302E0012300E000231846D7
:10A6F00002B0704730010010E00F00F0E80F00F0EA
:10A700003401001082B01A4B1B68B3F1FF3F0AD12D
:10A71000184B1B68DBB20193174B1B681B0903F036
:10A720000F03009305E0124B1B680193134B1B684A
:10A730000093019B062B17D1009B033B032B13D8DF
:10A7400001A252F823F000BF59A702005DA7020042
:10A7500061A7020065A70200012306E0012304E0CF
:10A76000012302E0012300E00023184602B07047F5
:10A7700030010010E00F00F0E80F00F0340100108D
:10A7800082B0124B1B680193114B1B680093019B15
:10A79000062B17D1009B033B032B13D801A252F8C1
:10A7A00023F000BFB5A70200B9A70200BDA70200B1
:10A7B000C1A70200002306E0002304E0002302E01A
:10A7C000012300E00023184602B07047300100105A
:10A7D00034010010024B034A1A6000BF704700BFEB
:10A7E000583F00200090D00308B5FFF79DFD0346B9
:10A7F000002B06D0A04B1B681B0AA04A03F01F03C6
:10A800001360FFF7CFFD0346002B02D09C4B9D4AFF
:10A810001A60FFF7F5FD0346002B06D09A4B1B6824
:10A820005B0B9A4A03F007031360FFF727FE03460A
:10A83000002B05D0964BDB68954A23F08073D360DC
:10A84000FFF74AFE0346002B0ED04FF08043002254
:10A85000C3F80C214FF080430022C3F810214FF0C1
:10A8600080430022C3F83825FFF774FE0346002B0F
:10A8700002D0884B03221A60FFF79AFE0346002B92
:10A880000BD0854B05221A60844B01221A60844B41
:10A8900000221A60834B3F221A60FFF7B7FE03467F
:10A8A000002B76D04FF080537F4AD3F80434C2F89F
:10A8B00020354FF080537C4AD3F80834C2F8243551
:10A8C0004FF08053784AD3F80C34C2F828354FF053
:10A8D0008053754AD3F81034C2F82C354FF08053AA
:10A8E000714AD3F81434C2F830354FF080536E4AB1
:10A8F000D3F81834C2F834354FF080536A4AD3F88D
:10A900001C34C2F840354FF08053674AD3F82034E6
:10A91000C2F844354FF08053634AD3F82434C2F868
:10A9200048354FF08053604AD3F82834C2F84C358C
:10A930004FF080535C4AD3F82C34C2F850354FF0B6
:10A940008053594AD3F83034C2F854354FF080530D
:10A95000554AD3F83434C2F860354FF08053524A28
:10A96000D3F83834C2F864354FF080534E4AD3F8E8
:10A970003C34C2F868354FF080534B4AD3F840342A
:10A98000C2F86C354FF08053474AD3F84434C2F8CC
:10A990007035FFF779FE0346002B05D0434B1B684B
:10A9A000434A03F04F031360FFF7ACFE0346002B4E
:10A9B0000DD04FF08043D3F8003403F00103002B97
:10A9C00005D04FF080436FF00102C3F80024FFF779
:10A9D000D7FE0346002B05D0364B1B68354A43F49F
:10A9E00080631360344BD3F88830334A43F47003E8
:10A9F000C2F88830BFF34F8F00BFBFF36F8F00BF27
:10AA00004FF01023D3F80032002B05DB4FF010235A
:10AA1000D3F80432002B2BDA284B0122C3F804258B
:10AA200000BF264BD3F80034002BFAD04FF0102390
:10AA30001522C3F8002200BF204BD3F80034002BAE
:10AA4000FAD04FF010231522C3F8042200BF1B4B8D
:10AA5000D3F80034002BFAD0184B0022C3F8042599
:10AA600000BF164BD3F80034002BFAD0FFF748FC98
:10AA7000FFF7B0FE00BF08BD2403001040350140C1
:10AA800074C007400DF0ADBA440200103C05004010
:10AA9000F0ED00E0A0050040105600408856004050
:10AAA000185600401456004000C0004058020010E4
:10AAB000E40E00403C17004000ED00E000E00140E3
:10AAC00082B003468DF807309DF90730002B13DB69
:10AAD0009DF8073003F01F0209499DF907305B0913
:10AAE000012000FA02F2203341F82320BFF34F8FF8
:10AAF00000BFBFF36F8F00BF00BF02B0704700BF41
:10AB000000E100E0044BD3F80034002B14BF012314
:10AB10000023DBB2184670470000014008B50BF077
:10AB200041FB034683F00103DBB2002B03D109494B
:10AB30007B2003F0A9FEFFF7E5FF034683F0010346
:10AB4000DBB2002B04D000F041FB034B00229A70D3
:10AB500000BF08BD7C7E03001C4D002000B583B003
:10AB600000230193184B1B78002B02D085230193FF
:10AB70001CE0154B00229A60134B00225A60124BC6
:10AB800000221A61104B0022DA60104800F0E4FA4B
:10AB900001900BF007FB034683F00103DBB2002BAF
:10ABA00001D000F0FFFA084B01221A70FFF7AAFF4C
:10ABB0000346002B02D0044B01229A70019B1846D9
:10ABC00003B05DF804FB00BF1C4D0020A5AC0200E3
:10ABD00084B00190019B1B680393039B002B03D05F
:10ABE000039B1A68019B1A60039B184604B07047C8
:10ABF00000B583B0164B1B78002B04D1154940F2E9
:10AC0000171003F041FE124BDB68002B04D11149F1
:10AC10004FF48C7003F038FE00238DF807300DF1EF
:10AC200007031846FEF788F8094BDB68013B084A22
:10AC3000D360074BDB68002B01D1FFF76FFF9DF856
:10AC400007301846FEF78EF800BF03B05DF804FB2E
:10AC50001C4D00207C7E030000B585B003468DF8B6
:10AC600007309DF80730002B02D10C4B039301E015
:10AC70000B4B03930398FFF7ABFF0290029B002B53
:10AC800006D0029B5B689DF8072010469847F1E7C5
:10AC900000BF00BF05B05DF804FB00BF244D0020DD
:10ACA0002C4D002000B583B003468DF807309DF889
:10ACB0000730002B05D10A4B01225A700020FFF704
:10ACC000CBFF9DF80730012B05D1054B01229A706F
:10ACD0000120FFF7C1FF00BF03B05DF804FB00BF18
:10ACE0001C4D002000B583B001900091019B002B0A
:10ACF00005D1054B01225A700020FFF7ADFF00BFC0
:10AD000003B05DF804FB00BF1C4D002000B585B00A
:10AD1000034600918DF807309DF80730032B29D0AA
:10AD2000032B35DC002B02D0012B04D030E00020B7
:10AD3000FFF7C6FE2DE000238DF80F300DF10F0355
:10AD40001846FDF7F9FF154B1B7883F00103DBB2C2
:10AD5000002B01D0FFF702FF104BDB6801330F4AD5
:10AD6000D3600E4B01229A709DF80F301846FDF704
:10AD7000F9FF0EE0094B1B78002B04D1084940F283
:10AD8000522003F081FD00F00DFAFFF731FF00E0E3
:10AD900000BF00BF05B05DF804FB00BF1C4D0020E4
:10ADA0007C7E030000B589B001900091009B079361
:10ADB000019B1B788DF80C30019B5B680493019B11
:10ADC0009B68DBB28DF81430019BDB680693074A61
:10ADD000079B52F823300649079A51F8221003AA1C
:10ADE0001046984700BF09B05DF804FB304D0020C5
:10ADF000344D002000B589B001900091009B07936D
:10AE0000019B1B788DF80C30019B5B680493019BC0
:10AE10009B68DBB28DF81430019BDB680693074A10
:10AE2000079B52F823300649079A51F8221003AACB
:10AE30001046984700BF09B05DF804FB304D002074
:10AE4000344D002030B58FB0039002910192039BE6
:10AE50001B780C9326490C9B019A41F82320029BF6
:10AE60001A6924490C9B41F82320029B5B7F1946F9
:10AE7000214A0C9B13440A461A70029B04AC1D46DF
:10AE80000FCD0FC495E80F0084E80F000C9B0893CA
:10AE900000230D93039B1B781A46174B9B5C002BDA
:10AEA0000DD0039B181D019B002B01D0134A00E01D
:10AEB000002204AB194602F0C5F90D9014E0039B83
:10AEC0001B781A460C4B9B5C002B0DD1039B03F1A6
:10AED0000C00019B002B01D0094A00E0002204ABCA
:10AEE000194601F00BFB0D900D9B18460FB030BDBD
:10AEF000304D0020344D0020384D0020A5AD02001B
:10AF0000F5AD020082B003468DF807309DF9073099
:10AF1000002B0CDB9DF8073003F01F0205499DF95B
:10AF200007305B09012000FA02F241F8232000BF3C
:10AF300002B0704700E100E082B0034600918DF856
:10AF400007309DF90730002B0ADB009BDAB20C4971
:10AF50009DF907305201D2B20B4483F800230BE075
:10AF6000009BDAB207499DF8073003F00F03043B5A
:10AF70005201D2B20B441A7600BF02B0704700BF34
:10AF800000E100E000ED00E082B00190019B1B0BAE
:10AF90005BB2184602B0704700B583B003460A465C
:10AFA0008DF8073013468DF806309DF80630012BDA
:10AFB00003D99DF80630032B0BD99DF80630042BDE
:10AFC00003D99DF80630072B03D908496B2003F0FD
:10AFD0005BFC9DF806209DF9073011461846FFF7E7
:10AFE000ABFF00BF03B05DF804FB00BFE07E0300D1
:10AFF00000B583B003468DF807309DF90730184639
:10B00000FFF780FF00BF03B05DF804FB82B003468A
:10B010008DF807300F4A9DF90730002B00DA1F33F7
:10B020005B115BB252F823209DF90730594203F0BF
:10B030001F0301F01F0158BF4B425BB222FA03F31A
:10B0400003F00103002B14BF01230023DBB21846D9
:10B0500002B0704700E100E082B001904FF0804202
:10B06000019BC2F8083300BF02B0704782B00346AC
:10B070008DF807309DF8073003F1804301221A60F4
:10B0800000BF02B0704784B00346ADF80630BDF88B
:10B09000063003F1804300221A60BDF8063003F148
:10B0A00080431B680393039B00BF04B0704782B0CA
:10B0B0000346ADF80630BDF8063003F180431B6847
:10B0C000002B14BF01230023DBB2184602B07047E7
:10B0D00082B001904FF08042019BC2F8183500BF4A
:10B0E00002B070474FF08043D3F818341B0C03F0C4
:10B0F0000103002B14BF01230023DBB21846704765
:10B1000000B583B006238DF807304FF08040FFF77D
:10B110003BFF03461846FFF779FF034683F0010320
:10B12000DBB2002B13D04FF08040FFF72DFF03461A
:10B130001A469DF8073019461046FFF72DFF4FF0CD
:10B140008040FFF721FF03461846FFF751FF00BF7D
:10B1500003B05DF804FB000000B585B00190019BD1
:10B16000002B03D10D49A42003F08EFB0023039391
:10B170000B4B1B79002B02D08523039308E0084A70
:10B18000019B1360064B01221A71054B00225A7174
:10B19000039B184605B05DF804FB00BF147F030055
:10B1A0003C4D002008B5074B1B79002B03D1064905
:10B1B000BD2003F069FBFFF7A3FF0120FFF788FF25
:10B1C00000BF08BD3C4D0020147F030008B50D4BA7
:10B1D0001B79002B03D10C49F72003F055FB02200B
:10B1E000FFF73AFF4FF48270FFF74DFF0C20FFF797
:10B1F0003DFF00BFFFF776FF0346002BFAD100BFEB
:10B2000000BF08BD3C4D0020147F030008B54FF47B
:10B210008070FFF74CFF0346002B14D04FF4807072
:10B22000FFF731FF0120FFF717FF114B5B7983F028
:10B230000103DBB2002B06D00D4B01225A710C4BDF
:10B240001B68002098474FF48270FFF730FF0346D9
:10B25000002B0AD04FF48270FFF715FF0220FFF792
:10B26000FBFE034B1B680120984700BF08BD00BFD1
:10B270003C4D002082B003468DF807309DF9073021
:10B28000002B0CDB9DF8073003F01F0205499DF9E8
:10B2900007305B09012000FA02F241F8232000BFC9
:10B2A00002B0704700E100E082B0034600918DF8E3
:10B2B00007309DF90730002B0ADB009BDAB20C49FE
:10B2C0009DF907305201D2B20B4483F800230BE002
:10B2D000009BDAB207499DF8073003F00F03043BE7
:10B2E0005201D2B20B441A7600BF02B0704700BFC1
:10B2F00000E100E000ED00E082B00190019B1B0B3B
:10B300005BB2184602B0704700B583B003460A46E8
:10B310008DF8073013468DF806309DF80630012B66
:10B3200003D99DF80630032B0BD99DF80630042B6A
:10B3300003D99DF80630072B03D908496B2003F089
:10B34000A3FA9DF806209DF9073011461846FFF72D
:10B35000ABFF00BF03B05DF804FB00BF747F0300C8
:10B3600000B583B003468DF807309DF907301846C5
:10B37000FFF780FF00BF03B05DF804FB00B583B0AA
:10B380000346ADF80630BDF80630184600F026F842
:10B3900003461B68012B0CBF01230023DBB21846B8
:10B3A00003B05DF804FB00B585B00346ADF8063088
:10B3B000BDF80630184600F011F803461A4600237F
:10B3C0001360BDF80630184600F008F803461B6805
:10B3D0000393039B00BF05B05DF804FB82B00346F6
:10B3E000ADF80630BDF8063003F1804303F5C043E5
:10B3F000184602B07047000082B00190034A019BDA
:10B40000C2F8043300BF02B0704700BF00600040C4
:10B4100082B00190034A019BC2F8083300BF02B01A
:10B42000704700BF0060004082B00190034BD3F82A
:10B430000423019B1340184602B07047006000408F
:10B4400082B00190084A019B03F5A27352F82330A1
:10B45000054943F00102019B03F5A27341F8232043
:10B4600000BF02B0704700BF0060004082B0019092
:10B47000084A019B03F5A27352F82330054923F0D3
:10B480000102019B03F5A27341F8232000BF02B023
:10B49000704700BF0060004084B0039002911346E3
:10B4A0008DF80730144A039B03F5A27352F823303A
:10B4B000114923F4473323F44073039A02F5A2722F
:10B4C00041F822300C4A039B03F5A27352F8232063
:10B4D000029B1B0203F4F8519DF807301B0403F490
:10B4E00040330B4304491A43039B03F5A27341F80D
:10B4F000232000BF04B070470060004082B001907C
:10B50000054A019B03F5A27352F823301B0A03F08E
:10B510001F03184602B070470060004082B00190DF
:10B52000064A019B03F5A27352F823301B0C03F06B
:10B530000303DBB2184602B0704700BF0060004052
:10B5400000B583B00190019B1B68184600F015F907
:10B550000346002B04D105494FF4F67003F094F92B
:10B560004FF0A043184603B05DF804FBA07F030032
:10B5700000B585B00190084611461A4603468DF87D
:10B5800003300B468DF8023013468DF8013001ABC5
:10B590001846FFF7D5FF03909DF803209DF8023071
:10B5A0005B001A439DF801309B001A439DF8183048
:10B5B0001B0242EA03019DF81C301B04019A194347
:10B5C000039B02F5E07243F8221000BF05B05DF85E
:10B5D00004FB00B585B003900B468DF80B309DF849
:10B5E0000B300022019200220092002200210398D9
:10B5F000FFF7BEFF00BF05B05DF804FB00B585B0E6
:10B60000019001AB1846FFF79BFF0390019A039B43
:10B6100002F5E07253F8223023F002030293019AFC
:10B62000039B02F5E072029943F8221000BF05B0B7
:10B630005DF804FB00B585B001900B468DF8033032
:10B6400001AB1846FFF77CFF0390019A039B02F5BC
:10B65000E07253F82230019A23F44031039B02F543
:10B66000E07243F82210019A039B02F5E07253F84E
:10B6700022309DF8032012041146019A1943039BBE
:10B6800002F5E07243F8221000BF05B05DF804FB3C
:10B6900000B585B0019001AB1846FFF751FF03904C
:10B6A000039800F020F80246019B22FA03F303F00E
:10B6B0000103184605B05DF804FB00B585B00190A4
:10B6C00001AB1846FFF73CFF0390019A039B02F57C
:10B6D000E07253F822301B0C03F00303DBB2184670
:10B6E00005B05DF804FB82B00190019BD3F81035E2
:10B6F000184602B0704786B00390029101924FF055
:10B70000A0430493039B059319E0059B9B0018330A
:10B710006B4453F8083CD3F82025019B1A60059B25
:10B720009B0018336B4453F8083C019A1268C3F825
:10B730002025019B04330193059B01330593039A54
:10B74000029B1344059A9A42DFD300BF00BF06B0A4
:10B75000704700B585B0019001AB1846FFF7F0FEC9
:10B760000390019B012202FA03F31A46039BC3F8DC
:10B77000202500BF05B05DF804FB84B00190019B5B
:10B780005B09029300230393029B002B03D14FF02C
:10B79000FF33039300BF019B03F01F030193039A40
:10B7A000019B22FA03F303F00103002B14BF0123D2
:10B7B0000023DBB2184604B0704784B001900091BA
:10B7C000009B0393019BDB080293019B03F007039B
:10B7D00001930122019B02FA03F30399029A0A449E
:10B7E00012781340184604B0704784B0019000915D
:10B7F000009B0393019BDB080293019B03F007036B
:10B800000193039A029B13441B785AB20121019BB6
:10B8100001FA03F35BB2134359B2039A029B134438
:10B82000CAB21A7000BF04B07047000082B0019025
:10B830000C4A019B1344303393F90030002B09DB91
:10B84000084A019B1344303393F90030072B01DC85
:10B85000012300E0002303F00103DBB2184602B02D
:10B86000704700BF444D002082B00190064A019B02
:10B870001344303393F90030072BCCBF012300234E
:10B88000DBB2184602B07047444D002082B00190F0
:10B89000064A019B1344303393F90030DB43DBB29B
:10B8A000DB09DBB2184602B0704700BF444D0020F0
:10B8B00084B00390029101928DF80330029B59B23B
:10B8C0000E4A039B134430330A461A700B49029BFD
:10B8D000019A41F823209DF8033083F00103DBB285
:10B8E000002B08D0029B083B039A51B2034A134431
:10B8F0000A4683F8502000BF04B07047444D002032
:10B9000082B00190044A019B13443033FF221A7025
:10B9100000BF02B0704700BF444D002000B583B0A7
:10B92000019004490198FFF760FF00BF03B05DF884
:10B9300004FB00BF984D002082B00190044A019B97
:10B940001344303393F90030184602B0704700BFFB
:10B95000444D002082B00190034A019B52F82330ED
:10B96000184602B0704700BF444D002084B00190DB
:10B97000074A019B1344503393F900308DF80F3080
:10B980009DF80F3023F0C003184604B0704700BF85
:10B99000444D002084B00190074A019B134450336A
:10B9A00093F900308DF80F309DF80F309B09DBB212
:10B9B000184604B0704700BF444D002000B589B060
:10B9C0000390029113468DF80730FF238DF81F3046
:10B9D0009DF80730002B01D0002300E008230593D9
:10B9E0009DF80730002B01D0082300E00C230493BE
:10B9F000059B069314E00F4A069B52F82330B3F1DF
:10BA0000FF3F0AD19DF80730029A06990398FFF785
:10BA10004FFF069B8DF81F3006E0069B013306930F
:10BA2000069A049B9A42E6D39DF91F30184609B046
:10BA30005DF804FB444D002082B003468DF80730CA
:10BA40009DF80730094A4FF0FF3142F823109DF866
:10BA50000730072B07D99DF80730083B034A1344EA
:10BA6000FF2283F8502000BF02B07047444D0020F1
:10BA700000B583B02D4B93F85830002B03D008232A
:10BA80000093009B4EE000238DF8073011E09DF8F5
:10BA900007301846FFF771FE0346002B04D09DF8CF
:10BAA00007301846FFF72CFF9DF8073001338DF85B
:10BAB00007309DF807301F2BE9D900238DF8073098
:10BAC00009E09DF807301846FFF7B6FF9DF80730EC
:10BAD00001338DF807309DF807300B2BF1D9042284
