:1000000000000120750300005D0300005F03000095
:1000100061030000630300006503000000000000AE
:100020000000000000000000000000006703000066
:1000300069030000000000006B0300006D03000076
:100040006F0300006F0300006F0300006F030000E8
:100050006F0300006F0300000D3500006F03000008
:100060006F0300006F0300006F0300006F030000C8
:100070006F0300006F0300006F0300006F030000B8
:100080006F0300006F0300006F0300006F030000A8
:100090006F0300006F0300006F0300006F03000098
:1000A0006F0300006F0300006F0300006F03000088
:1000B0006F0300006F03000000000000000000005C
:1000C0006F0300006F0300006F0300006F03000068
:1000D0006F0300006F0300006F03000000000000CA
:1000E0000000000000000000000000000000000010
:1000F0000000000000000000000000000000000000
:1001000000000000000000000000000000000000EF
:1001100000000000000000000000000000000000DF
:1001200000000000000000000000000000000000CF
:1001300000000000000000000000000000000000BF
:1001400000000000000000000000000000000000AF
:10015000000000000000000000000000000000009F
:10016000000000000000000000000000000000008F
:10017000000000000000000000000000000000007F
:10018000000000000000000000000000000000006F
:10019000000000000000000000000000000000005F
:1001A000000000000000000000000000000000004F
:1001B000000000000000000000000000000000003F
:1001C000000000000000000000000000000000002F
:1001D000000000000000000000000000000000001F
:1001E000000000000000000000000000000000000F
:1001F00000000000000000000000000000000000FF
:10020000354936480A1A02D0072291438D463449AF
:1002100034480A1A06D00722914381F30988022242
:1002200082F3148830483149314A00F044F83148AB
:100230003149324A00F03FF831483249324A00F041
:100240003AF832483249334A00F035F832483349F7
:10025000334A00F030F833483349344A00F02BF881
:1002600033483449344A00F026F8344834490022EF
:1002700000F02CF833483449002200F027F83348C6
:100280003349091A082902DB002202604160314A21
:1002900090471F481F49884205D00268043003B4C4
:1002A000904703BCF7E700208646EC46002000217B
:1002B000294A9047FEE7884207D0521A05D00378B2
:1002C00001300B700131013AF9D17047884202D0F8
:1002D00002700130FAE770470000012000E00020C2
:1002E00000000120000001204C530000000000200D
:1002F0005C000020D0030000D0030000384500005F
:100300004C53000000000020000000206C4500005D
:100310006C4500006C4500006C4500006C45000019
:100320006C4500006C4500006C4500004A5300001D
:10033000A85300005C0000205C0000205C0000204E
:100340002409002024090020240900202409002079
:10035000242900209D030000C1380000FEE7FEE7CD
:10036000FEE7FEE7FEE7FEE7FEE7FEE7FEE7FEE765
:1003700000F002B8FFF7FCBF0F484FF007018843B9
:1003800085460E4880470E48016841F470010160BF
:10039000BFF34F8FBFF36F8FFFF732BF09480A4992
:1003A0000A4A884207D0521A05D0037801300B70F0
:1003B0000131013AF9D1704700000120E93D000008
:1003C00088ED00E06C4500000000002000000020E7
:1003D00000B583B001900091019B1B681B680099D8
:1003E0000198984700BF03B05DF804FB00B583B0E7
:1003F0000190019B1B685B680198984700BF03B0A0
:100400005DF804FB00B583B00190019B1B689B68FD
:100410000198984700BF03B05DF804FB82B00190DB
:100420000B468DF80330019BDB689DF803201A71A1
:1004300000BF02B0704782B00190019BDB681B795E
:10044000184602B0704782B00190019BDB68012220
:100450005A7100BF02B0704782B00190019BDB6807
:100460005B79184602B0704700B585B001900091E5
:100470000C4B01221A700C4801F01EFF0390039BE5
:10048000002B01D0039B08E0084802F0ABF8084AB3
:10049000084BD31ADB0802930023184605B05DF819
:1004A00004FB00BFC4010020584500006C4500005B
:1004B0004845000038450000024A034BD31ADB08C8
:1004C00018467047484500003845000000B587B021
:1004D00001900B468DF803309DF80330002B1FD0A0
:1004E000FFF7EAFF04900023059313E0059B9B00B0
:1004F0000E4A13440393039B1B881A46019B1B68F7
:100500009A4204D1019B059A1A60002309E0059BD9
:1005100001330593059A049B9A42E7D3052300E033
:100520000023184607B05DF804FB00BF0000002060
:1005300000B585B001900B468DF803309DF803207F
:1005400001AB11461846FFF7C1FF0346002B07D148
:10055000019BDB00054A13440393039B1B6800E0E7
:100560000023184605B05DF804FB00BF38450000C5
:1005700084B001900B468DF80330019BDB00174AD5
:10058000134402939DF80330013B032B1CD801A2B6
:1005900052F823F0A5050000AD050000B5050000E8
:1005A000BF05000002238DF80F3011E004238DF801
:1005B0000F300DE0029B1B798DF80F3008E0029B95
:1005C0005B798DF80F3003E000238DF80F3000BF0A
:1005D0009DF80F30184604B0704700BF3845000042
:1005E00084B00190009100238DF80F30019B1B789F
:1005F00003F00403DBB2002B24D0019B1B78C3F370
:100600000103DBB2012B02D0022B0CD017E0009BC0
:100610001B68019A1288C2F38312D2B213449A1C47
:10062000009B1A600BE0009B1B68019A5288C2F382
:10063000891292B213449A1C009B1A6000BF0123D6
:100640008DF80F309DF80F30184604B07047000049
:1006500000B58BB00023ADF826303E4801F046F9D6
:100660003D4801F043F93D4B9B6804933C4B1B68AC
:100670000693049A069B134002339B00374A1344A7
:100680000433089304AB19460898FFF7A9FF034603
:10069000002B09D0049A069B134002339B002F4A7B
:1006A000134404330893EDE700BF0023079311E0E0
:1006B000049B5A1C0492069A1340079A920001A9BF
:1006C0000A44264902339B000B445B681360079B76
:1006D00001330793079B012BEAD99DF80430C3F33C
:1006E0000103DBB2012B10D0022B1CD1BDF80A3064
:1006F000ADF82630BDF80630C3F389139BB203333F
:100700009A08049B1344049313E0BDF80A30ADF833
:100710002630BDF80430C3F38313DBB21A46049BC2
:100720001344049305E00F494FF4C27001F051F8EF
:1007300000BF094801F0E6F80590059B002B02D0A8
:10074000049B064A9360BDF8263018460BB05DF84E
:1007500004FB00BFDC050020D8050020C4010020F8
:10076000000000207C45000000B585B0002107484E
:1007700001F045F80390039B0293029B83F310035F
:100780000193019B184605B05DF804FBE0050020CD
:1007900000B589B00390029101920093039B1B0C5A
:1007A0000793FFF7E1FF0690FFF786FE0246079BDF
:1007B000934204D3214940F2A91001F00AF8069BA4
:1007C0001904009B5A1C0A9B1340079A0A431C49B0
:1007D00002339B000B445A60009A0A9B1340023379
:1007E0009B00174A134404330593039B03F007034C
:1007F000D9B2059A137861F3C5031370019B03F016
:100800000F03D9B2059A138861F389131380029BF1
:10081000C3F31501059A136861F39F231360059ACA
:100820001378012161F301031370059A13786FF3B4
:100830008203137000BF09B05DF804FB7C45000023
:10084000C401002000B58BB00390029113468DF8CF
:100850000730039B0233089301238DF81F300020DB
:1008600000F070FF3E4B5A68029B1A603D4B1A68BD
:100870003B4B99683A4B5B68CB1A1344013309939D
:1008800014E00121384801F001F8FFF7E1FE05907E
:100890000599354800F0FAFF324B1A68304B9968D9
:1008A0002F4B5B68CB1A134401330993089A099BB9
:1008B0009A42E6D89DF81F30002B48D000230493BD
:1008C0009DF80730002B17D09DF81030012262F3FD
:1008D00001038DF810309DF8103043F004038DF8BB
:1008E0001030039B03F00F03DAB2BDF8103062F34F
:1008F0008913ADF8103016E09DF81030022262F333
:1009000001038DF810309DF8103043F004038DF88A
:100910001030039BC3F309039AB2BDF8123062F39F
:100920008F13ADF812300E4B5A680E4B1B681340F4
:1009300002339B000A4A134404330693049A069B2D
:100940001A60074B5A68089B1344054A53600020FD
:1009500000F00CFF9DF81F3018460BB05DF804FB4B
:10096000C401002000000020E005002000B58BB08D
:1009700005900491039202931F4B1B68079306ABEB
:10098000012219460298FFF75DFF0346002B24D091
:10099000069B023309930023089311E0089B9B00F8
:1009A000039A1A44099B591C099107990B40126834
:1009B000124902339B000B445A60089B0133089391
:1009C000089A029B9A42E9D3069A079B0093134622
:1009D000029A04990598FFF7DBFE084B1B78002B61
:1009E00005D000BF00F068F80346002BFAD100BF25
:1009F0000BB05DF804FB00BF00000020C401002024
:100A000000B583B001900091002300220099019865
:100A1000FFF7ACFF00BF03B05DF804FB00B587B083
:100A2000039002910192019B059305AA012302996B
:100A30000398FFF79BFF00BF07B05DF804FB00B50C
:100A400087B00390029101920093019B0493009B55
:100A5000059304AA022302990398FFF787FF00BFBA
:100A600007B05DF804FB00B58BB0039002910192D2
:100A70000093019B0593009B06930C9B07930D9B92
:100A800008930E9B099305AA052302990398FFF783
:100A90006DFF00BF0BB05DF804FB0000054B9A68CA
:100AA000044B5B689A420CBF01230023DBB218465B
:100AB000704700BFC401002000B599B0FFF7EEFFFA
:100AC0000346002B01D00023B9E19B4B0022C3F861
:100AD0001824BFF34F8F00BF974B9B680493974B2D
:100AE0001B681093049A109B134002339B00924A98
:100AF0001344043311930023179300231693002308
:100B00000F9304AB19461198FFF76AFD0346002BBB
:100B100019D0894BD3F81834002B14D1864B5A685E
:100B2000049B9A4205D8844B5B68834A93600023F8
:100B300085E1049A109B134002339B007E4A1344C4
:100B400004331193DDE70023159311E0049B5A1C35
:100B50000492109A1340159A920001A90A4476490A
:100B600002339B000B445B681360159B01331593A4
:100B7000159B012BEAD99DF8043003F00303DBB287
:100B8000022B40F09C80BDF80630C3F389139BB262
:100B90000D93BDF80630C3F389139BB2502B28BFC9
:100BA00050239BB20C930C9BC3F309039AB2BDF87C
:100BB000063062F38F13ADF806300C9B08330B93AD
:100BC0009DF80430C3F3C203DBB20F930B995C486A
:100BD00001F07DFB1790179B002B00F0D380179836
:100BE00001F006FC01A9169B0822179801F0BCFC35
:100BF000169B08331693049BDA43109B1340013372
:100C00009B000A930C9A0A9B9A4242D90A9B002B9A
:100C100008D0049A109B134002339B00464A1344A9
:100C2000043300E0474B08930A9B002B02D00A9B39
:100C3000DBB201E00C9BDBB28DF81F300A9B002B6E
:100C400001D0404B00E0002306930A9B002B06D006
:100C50000C9BDAB20A9BDBB2D31ADBB200E00023B2
:100C60008DF817309DF81F20169B0899179801F0F2
:100C70007BFC9DF81F30169A13441693069B002B9D
:100C800016D09DF81720169B0699179801F06CFC5A
:100C90000EE0049A109B134002339B00264A134433
:100CA00004330993169B0C9A0999179801F05CFC80
:100CB0000D9B03339A08049B1344049362E09DF850
:100CC000043003F00303DBB2012B5BD1BDF8043029
:100CD000C3F38313DBB2062B28BF0623DAB2BDF8B9
:100CE000043062F38913ADF80430BDF80430C3F367
:100CF0008313DBB202330E939DF80430C3F3C203B7
:100D0000DBB20F930E9B9B0019460D4801F0DFFAF2
:100D10001790179B002B35D0179801F069FB01A99C
:100D2000169B0822179801F01FFC169B0833169398
:100D3000002315931DE000BFC40100200000002027
:100D400058450000D0010020049B5A1C0492109AC0
:100D5000134002339B003C4A1344191D169B042286
:100D6000179801F001FC169B04331693159B013371
:100D70001593BDF80430C3F38313DBB21A46159BF9
:100D80009342E1D3179B002B39D02F4BD3F810346B
:100D900014932D4BD3F81834002B1BD0179801F067
:100DA00036FB46E000238DF84F301498FFF754FBD4
:100DB0000346002B02D001238DF84F309DF84F30B1
:100DC000002B03D017991498FFF702FB149BDB68E4
:100DD0001B681493149B002BE4D1179801F017FBA8
:100DE000002000F0AFFC184BD3F81834002B02D1D0
:100DF000049B154A9360002000F0B8FC19E0124BE8
:100E0000D3F81034129306E01298FFF7FBFA129B06
:100E1000DB681B681293129B002BF5D10B4A0C4B1D
:100E2000D31ADB081B0443F002030A491846FFF7F4
:100E3000E7FDFFF733FE034683F00103DBB21846FC
:100E400019B05DF804FB00BFC4010020404500005C
:100E5000384500000046000000B585B0002303932C
:100E600023E0164BD3F81034029301238DF807309A
:100E70000FE00298FFF7DFFA03461A46039B9342FE
:100E800003D100238DF8073006E0029BDB681B6866
:100E90000293029B002BECD19DF80730002B01D070
:100EA000039B07E0039B01330393039B092BD8DDCE
:100EB0004FF0FF33184605B05DF804FBC401002075
:100EC00000B585B001900B468DF80330FFF7C4FFE5
:100ED0000390039BB3F1FF3F01D1039B22E0039BEF
:100EE000DBB219460198FFF799FA104BD3F810348A
:100EF000002B08D10D4A019BC2F81034019BDB681E
:100F000000221A600DE0094BD3F81034DA68019B17
:100F1000DB6812681A60054BD3F81034DB68019A5D
:100F20001A60039B184605B05DF804FBC40100205D
:100F300000B583B00C4BD3F8103401930A4B012257
:100F40001A7009E00198FFF77EFA0198FFF74EFA50
:100F5000019BDB681B680193019B002BF2D100BF52
:100F600000BF03B05DF804FBC401002082B0019013
:100F7000009100BF02B0704710B584B00390029199
:100F8000039BDB88002B0AD0039BDB881A461F4B90
:100F9000009313461E4A1F49029800F0E1FD039B8F
:100FA0001B7A052B2ED0039B5B7A002B12D0039B60
:100FB0009B881A46039B1B7A19461046FFF7D8FAFE
:100FC00003461A46144B53F822301A461349029826
:100FD00000F0C6FD039B1B6819460298FFF7C6FF89
:100FE000039B1B7A1A460E4B53F82240039B9B88A7
:100FF00000211846FFF79CFA034622460949029849
:1010000000F0AEFD00BF04B010BD00BF34460000CC
:10101000444600007C460000180000209446000072
:10102000040000209846000000B585B003900291AE
:1010300013468DF80730039B1B7A052B0FD0039BBB
:101040005B7A002B06D00D4B1B681A460C490298A0
:1010500000F086FD0B49029800F082FD07E09DF844
:101060000730002B03D00749029800F079FD029861
:1010700000F054FD00BF05B05DF804FB180000202F
:1010800094460000A446000030B58BB0079006914E
:10109000059204930E9B1B7B8DF827300E9B00223C
:1010A0001A730E990498FFF767FF059B062B7FD8EC
:1010B00001A252F823F000BFD5100000DF1000009D
:1010C000EF10000003110000211100004911000081
:1010D0007911000007990E9800F042FD69E0069B27
:1010E0001B681A4607990E9800F03AFD61E0069BCE
:1010F0001A68069B04331B6807990E9800F030FDB0
:1011000057E0069B1A68069B04331968069B083350
:101110001B6800930B4607990E9800F021FD48E0EC
:10112000069B1968069B04331868069B08331B68E6
:10113000069A0C3212680192009303460A460799F8
:101140000E9800F00DFD34E0069B1868069B0433F2
:101150001C68069B08331B68069A0C3212680699B5
:1011600010310968029101920093234602460799C3
:101170000E9800F0F5FC1CE0069B1C68069B0433EF
:101180001D68069B08331B68069A0C321268069984
:10119000103109680698143000680390029101929A
:1011A00000932B46224607990E9800F0D9FC00E0E8
:1011B00000BF00220E990498FFF736FF0E9B9DF8A2
:1011C00027201A7300BF0BB030BD00BF00B587B039
:1011D0000390029101920093029B082B60D8009B20
:1011E0001B7B8DF81330009B00221A730099019825
:1011F000FFF7C2FE0023059314E0059A029B9A4272
:1012000009D2039A059B13441B781A462649009875
:1012100000F0A6FC03E02549009800F0A1FC059B26
:1012200001330593059B072BE7D92149009800F06E
:1012300097FC0023059326E0059A029B9A421BD255
:10124000039A059B13441B788DF812309DF81230D9
:101250007E2B0AD89DF81230184603F0D9F80346C1
:10126000002B02D09DF8123000E02E231A461149BF
:10127000009800F075FC03E00F49009800F070FC46
:10128000059B01330593059B072BD5D901220099B6
:101290000198FFF7C9FE009B9DF813201A7300E028
:1012A00000BF07B05DF804FBA8460000B046000090
:1012B000B4460000B8460000BC46000082B0019071
:1012C000019BDB6801225A7100BF02B07047000029
:1012D00000B583B04FF0FF33019300F044F80421D0
:1012E0000848FFF7EDFD0190019B002B03DA06494A
:1012F000412000F06EFA0348FFF7E0FF00BF03B0A3
:101300005DF804FB48450000D046000000B585B0FC
:101310000190019B002B0AD0074B43F0010303937C
:10132000019B9B010293039B0298984700E000BF3A
:1013300005B05DF804FB00BF7047000000B583B046
:101340000190019B002B0AD04FF47A70FFF7DEFF6B
:10135000019B013B0193019B002BF5D100E000BFF5
:1013600003B05DF804FB08B502F0FEFF00BF08BD46
:1013700000B589B0039002910192019B002B33D0FC
:101380000023079303230693029A079B1344019AB1
:101390001946002002F098FF0590079A059B134418
:1013A0000793019A059BD31A0193059B002B13D138
:1013B0000F4B1B7883F00103DBB2002B13D101200C
:1013C000FFF7BCFF069B013B0693069B002B03D156
:1013D000074B00221A7007E0054B01221A70019B8F
:1013E000002BD1D100E000BF00BF09B05DF804FBC5
:1013F000E405002000B585B003900291054B0093F1
:101400004023054A0299039800F012F800BF05B086
:101410005DF804FB71130000E805002082B0019024
:1014200000BF02B0704782B0019000BF02B07047A9
:1014300000B5A1B00590049103920293049800F0C6
:10144000D7FF039B1593029B16930023179300234A
:101450008DF8603000231993229B1A9300231F9369
:101460000FA91F9B0822049801F09CF808231F93E2
:10147000119B1293BDF84030ADF84C30BDF84230AE
:10148000ADF84E3000238DF851309DF83C3003F01C
:101490000303DBB2012B26D10F9BC3F395231C93CF
:1014A0009DF83C30C3F3C203DBB28DF85030BDF879
:1014B0003C30C3F38313DBB21B931B9B9A0009A937
:1014C0001F9B049801F06EF81B9B9B001F9A13440E
:1014D0001F9312AA09A915AB009313461B9A1C98D7
:1014E000FFF7D2FD2FE09DF83C3003F00303DBB2A1
:1014F000022B28D1BDF83E30C3F389139BB21E9353
:101500009DF83C30C3F3C203DBB28DF850301E9B14
:10151000082B28BF08231D9307A91F9B1D9A049819
:1015200001F040F81F9A1D9B13441F931E9A1D9BA8
:10153000D31A1E9315AB12AA07A81D99FFF746FEF2
:101540001E9B002BE3D1049800F061FF00BF21B087
:101550005DF804FB86B003900291019201238DF89F
:1015600017309DF81730204A039B13601E4A029BD8
:1015700053601D4A019B9360039B44F20102934216
:1015800012D0039B44F20202934220D1019B164ADF
:10159000D360154BDB681B68134A9361124BDB6801
:1015A0005B68114AD36112E0019B0F4A13610E4B35
:1015B0001B699B680C4A53610B4B1B691B680A4AE9
:1015C0009361094B1B695B68074AD36100BF72B620
:1015D00000BF00BF9DF81730DBB2002BFAD162B616
:1015E00000BF00BF06B070472806002000B583B0DA
:1015F00002900091019244F2010071466A4600F0A7
:1016000003F803B000BD00BF30B58BB00790069162
:10161000059272B600BFFFF78BFC00BFFFF74CFAD4
:101620000346002BFAD1079B44F20102934216D0E5
:10163000079B44F2020293423ED1059B09932C4A38
:101640002C4BD31ADB081B0443F00100099B5B6899
:101650001A46099B1B682849FFF7F1F939E0059BF9
:101660000893234A234BD31ADB081B0443F00104DD
:10167000089B9D68089B9B68184600F0D1FF0346B5
:101680001846089B5B681946089B1B68069A0292DD
:101690000193009103462A4618492046FFF7E3F9D3
:1016A000134A144BD31ADB081B0443F001031449FB
:1016B0001846FFF7A5F90CE00D4A0E4BD31ADB08CC
:1016C0001B0443F00103069A0E491846FFF7A6F9DA
:1016D00000BF0D4B1B6803F00103002B00D000BEC0
:1016E000059A06990798FFF735FF00BF0BB030BD8C
:1016F000404500003845000078470000944700004E
:10170000BC470000D0470000F0ED00E072B600BF1B
:10171000034B1B680133024A136000BF704700BFD0
:1017200048060020064B1B68013B054A1360044B2A
:101730001B68002B01D162B600BF00BF704700BF1D
:101740004806002000B583B0019000F025F803465C
:10175000012B03D00449432000F03BF8FFF7D6FFEC
:1017600000BF03B05DF804FBE847000000B583B09C
:1017700003468DF8073000F00FF80346012B03D025
:101780000449512000F025F8FFF7CCFF00BF03B05B
:101790005DF804FBE847000084B0EFF30583019394
:1017A000019BC3F308030393039B002B0DD1EFF3BD
:1017B00014830093009B0293029B03F00103002B10
:1017C0000CBF01230023DBB200E00123184604B064
:1017D000704700B585B003460091ADF80630BDF8FE
:1017E00006300293009B039302AB1A46002144F299
:1017F0000200FFF709FF00BF05B05DF804FB10B45D
:1018000087B001900091019B009A53E8004F104669
:1018100043E8000191F0000FF7D105940490039183
:10182000059B184607B05DF8044B704710B487B0AD
:1018300001900091019B009A53E8004F44EA020096
:1018400043E8000191F0000FF6D105940490039154
:10185000049B184607B05DF8044B704710B487B07E
:1018600001900091019B009A53E8004F04EA0200A6
:1018700043E8000191F0000FF6D105940490039124
:10188000059B184607B05DF8044B704710B487B04D
:1018900001900091019B009A53E8004F04EB020075
:1018A00043E8000191F0000FF6D1059404900391F4
:1018B000049B184607B05DF8044B704710B487B01E
:1018C00001900091019B009A53E8004FA4EB0200A5
:1018D00043E8000191F0000FF6D1059404900391C4
:1018E000049B184607B05DF8044B704700B583B001
:1018F000019001210198FFF799FF0346184603B0B4
:101900005DF804FB00B583B0019000210198FFF75A
:10191000A5FF0346184603B05DF804FB00B583B08D
:1019200001900B468DF80330019B002B03D1084931
:10193000E820FFF74EFF019BDA689DF8033001991C
:10194000098A01FB03F31344184603B05DF804FB56
:101950006848000000B583B001900091019B002B06
:1019600003D10849F520FFF734FF009B019AD268A4
:101970009B1A019A128AB3FBF2F3DBB2184603B04A
:101980005DF804FB6848000000B585B00190019B3C
:10199000002B01D10E234CE0019B1B68002B03D1CF
:1019A0002649FF20FFF715FF019B5B68002B04D140
:1019B00022494FF48070FFF70CFF019B9B68002BBE
:1019C00004D11E4940F20110FFF703FF019BDB68C1
:1019D000002B04D119494FF48170FFF7FAFE019BE7
:1019E0001B8A002B04D1154940F20310FFF7F1FECA
:1019F000019B9A68019B5B68D31A8DF80F30019B9D
:101A00001B68019A52681A6007E0019B1A68136804
:101A1000591C11609DF80F201A709DF80F305A1E46
:101A20008DF80F20002BF0D1019B1B6800221A714A
:101A30000023184605B05DF804FB00BF68480000AD
:101A400000B585B00190019B002B04D11C494FF4D7
:101A50009270FFF7BEFE002303930020FFF772FE93
:101A6000019B1B681A68019B5B689A421FD9019B06
:101A70001B681A68013A1A601B681B78194601989E
:101A8000FFF74CFF0390019B9A68019B1B681B6842
:101A9000D31A8DF80B30019B1B681B799DF80B2026
:101AA0009A4204D9019B1B689DF80B201A710020F3
:101AB000FFF75CFE039B184605B05DF804FB00BF12
:101AC0006848000010B584B001900091019B002B84
:101AD00004D1114940F24710FFF77BFE009B002B19
:101AE00004D10D494FF4A470FFF773FE009B0393DC
:101AF0000020FFF727FE019B1B681C68621C1A6010
:101B000003990198FFF726FF034623700020FFF793
:101B10002DFE00BF04B010BD6848000000B583B0C2
:101B20000190019B002B03D10C493120FFF751FE9E
:101B3000019B9B68002B0CD0019B5B69019A10698B
:101B4000019A1168019A92689847019B00229A6055
:101B500000E000BF03B05DF804FB00BFE4480000F4
:101B60000EB400B584B00190019B002B03D118493D
:101B70004220FFF72EFE019B5B69002B03D1144925
:101B80004320FFF726FE019B1B68002B03D1104961
:101B90004420FFF71EFE019B5B68002B03D10C491C
:101BA0004520FFF716FE059B002B0AD00023039368
:101BB00006AB039303AB1A460599019800F0B8F9F8
:101BC00000E000BF04B05DF804EB03B0704700BF55
:101BD000E448000000B583B001900B468DF8033057
:101BE0009DF803300A2B03D10D210198FFF7F2FF76
:101BF000019B1A68019B9B68581C019988601344DB
:101C00009DF803201A70019B9A68019B5B689A42B9
:101C100002D30198FFF782FF00BF03B05DF804FB19
:101C200000B587B0039002910192009300230593C1
:101C3000009B03F00103002B24D00BE0029B013337
:101C40000293059B013305939DF8133019460398C1
:101C5000FFF7C0FF029B1B788DF813309DF81330FF
:101C6000002BEBD106E0019B013B0193202103985F
:101C7000FFF7B0FF019A059B9A422ED9019B002BDA
:101C8000F1D12AE0029B002B0BD0029802F024FC39
:101C9000059006E0019B013B019320210398FFF78B
:101CA00099FF019A059B9A420FD9019B002BF1D114
:101CB0000BE0029B01330293059B013305939DF8D2
:101CC000133019460398FFF785FF029B1B788DF8A8
:101CD00013309DF81330002BEBD100BF07B05DF837
:101CE00004FB000000B589B00390029101920093BB
:101CF000029B07930123069307E0079A019BB2FB1F
:101D0000F3F30793069B01330693079A019B9A42CC
:101D1000F3D2009A069B9A4201D9009B06930B9B33
:101D200003F00103002B22D10A9B002B1FD00B9B39
:101D300003F00203002B06D0009B002B03D13023BD
:101D40008DF8173002E020238DF8173008E00A9B49
:101D5000013B0A939DF8173019460398FFF73AFFA5
:101D60000A9B002B03D0069A0A9B9A42EFD30123C9
:101D70000793009B012B03D9009B013B009309E0D3
:101D8000029A079BB2FBF3F30493049A019B9A42D5
:101D900000D205E0079B019A02FB03F30793E8E7F3
:101DA000029A079BB2FBF3F30493049B079A02FB8E
:101DB00003F3029AD31A0293154A049B13441B7827
:101DC00019460398FFF706FF079A019BB2FBF3F34E
:101DD0000793079B002BE3D10B9B03F00103002B20
:101DE00011D00A9B002B0ED006E00A9B013B0A9300
:101DF00020210398FFF7EEFE0A9B002B03D0069AE2
:101E00000A9B9A42F1D300BF09B05DF804FB00BF02
:101E1000D049000000B589B0059004910392029367
:101E2000049B002BB8BF5B4206930123079307E096
:101E3000039B069A92FBF3F30693079B01330793E8
:101E4000039B069A9A42F3DA029A079B9A4201D9B7
:101E5000029B07930A9B002B0AD0049B002B04DBF8
:101E60000B9B03F00403002B02D00A9B013B0A9357
:101E70000B9B03F00203002B02D0029B002B16D019
:101E80000B9B03F00103002B11D10A9B002B0ED0FA
:101E900006E00A9B013B0A9320210598FFF79AFE72
:101EA0000A9B002B03D0079A0A9B9A42F1D3049B0A
:101EB000002B07DA049B5B4204932D210598FFF762
:101EC00089FE08E00B9B03F00403002B03D02B21B9
:101ED0000598FFF77FFE0B9B03F00203002B19D040
:101EE0000B9B03F00103002B14D1029B002B11D19B
:101EF0000A9B002B0ED006E00A9B013B0A9330217F
:101F00000598FFF767FE0A9B002B03D0079A0A9BF0
:101F10009A42F1D304990B9B01930A9B0093029B75
:101F2000039A0598FFF7DEFE00BF09B05DF804FBD9
:101F300000B58FB0059004910392059B002B04D14E
:101F4000AD4940F25220FFF744FC059B5B69002B32
:101F500004D1A9494FF41570FFF73BFC059B1B68A2
:101F6000002B04D1A44940F25520FFF732FC059B19
:101F70005B68002B04D1A04940F25620FFF729FCF2
:101F8000049B002B00F09381049B1B788DF8373065
:101F9000049B013304939DF83730002B00F07E81C1
:101FA0009DF83730252B40F06D8100230A930123E3
:101FB0000C93049B1B788DF837309DF83730302B0D
:101FC0000DD0302B1BDC2B2B11D02D2B17D10A9BC6
:101FD00043F001030A93049B0133049312E00A9B2C
:101FE00043F002030A93049B013304930AE00A9B23
:101FF00043F004030A93049B0133049302E000239B
:102000000C9300BF0C9B002BD3D1002309939DF8A8
:1020100037302A2B0CD1039B1B68191D039A1160C2
:102020001B68099A13440993049B013304931AE033
:10203000049B1B788DF837309DF837302F2B12D941
:102040009DF83730392B0ED8049B01330493099A3D
:1020500013469B0013445B001A469DF83730134427
:10206000303B0993D3E700230B93049B1B788DF837
:1020700037309DF837302E2B1DD1049B013304934C
:10208000049B1B788DF837309DF837302F2B12D9F1
:102090009DF83730392B0ED8049B013304930B9AEB
:1020A00013469B0013445B001A469DF837301344D7
:1020B000303B0B93E4E7049B1B788DF837309DF899
:1020C00037306C2B03D09DF83730682B07D1049B39
:1020D00001330493049B1B788DF83730EFE79DF8AC
:1020E0003730252B00F0C480252BC0F2C680782B1A
:1020F00000F3C380582BC0F2C080583B202B00F265
:10210000BC8001A252F823F0FD2100007B220000D8
:102110007B2200007B2200007B2200007B2200004B
:102120007B2200007B2200007B2200007B2200003B
:102130007B2200008D210000AF2100007B220000E7
:102140007B2200007B2200007B220000AF210000E8
:102150007B2200007B2200007B2200007B2200000B
:102160007B2200007B2200003D2200007B22000039
:102170007B220000212200007B220000D3210000EE
:102180007B2200007B220000FD210000039B1B68D6
:10219000191D039A11601B680C930C9B8DF81F305E
:1021A0009DF81F3019460598FFF714FD66E0039B64
:1021B0001B68191D039A11601B680C930A9B0193FD
:1021C000099B00930B9B0A220C990598FFF722FEAE
:1021D00054E0039B1B68191D039A11601B680C9344
:1021E0000C990A9B0193099B00930B9B0A2205986B
:1021F000FFF778FD42E000BF58490000039B1B68D1
:10220000191D039A11601B680C930C990A9B01938A
:10221000099B00930B9B10220598FFF763FD2DE0AF
:10222000039B1B68191D039A11601B6808930A9B86
:10223000099A08990598FFF7F3FC1FE0039B1B68B8
:10224000191D039A11601B680C9330210598FFF744
:10225000C1FC78210598FFF7BDFC0C990023019380
:1022600008230093082310220598FFF73BFD05E0A3
:1022700025210598FFF7AEFC00E000BF049B013369
:10228000049305E09DF8373019460598FFF7A2FC46
:10229000049B1B78002B7FF477AE00E000BF059B0A
:1022A0001B7B002B04D00598FFF738FC00E000BF33
:1022B0000FB05DF804FB00BF00B583B0019001983A
:1022C000FFF762FB0346184603B05DF804FB00B558
:1022D0008BB001900091019B1B8A043B0793009AED
:1022E000079B1344DA1C079BB2FBF3F38DF81B30FA
:1022F0000198FFF7A5FB0590059B002B01D100235A
:1023000038E0059B00221A71059B01225A71079B38
:102310009AB2059BDA80059B09939DF81B30013B1F
:102320000493099B019A1A60002308931DE0019809
:10233000FFF786FB0390039B002B0ED0059B5B7978
:102340000133DAB2059B5A71099B039A1A60039B09
:10235000019A1A60039B099304E0059800F00EF8B7
:10236000002307E0089B01330893089A049B9A42D4
:10237000DDD3059B18460BB05DF804FB00B58BB0B0
:102380000190019B0793079B5B798DF81B30019BA4
:1023900008939DF81B30013B05930023099305E04A
:1023A000089B1B680893099B01330993099A059BB5
:1023B0009A42F5D3089B1B680493019B0893002362
:1023C00009930BE0089B1B68039308990498FFF797
:1023D00079FB039B0893099B013309939DF81B30FC
:1023E000099A9A42EED300BF00BF0BB05DF804FB20
:1023F00000B585B00190019B0393039B0433012139
:102400001846FFF743FA00BF05B05DF804FB00B5BE
:1024100087B00190019B0593059B04330121184669
:10242000FFF74CFA0346039303AB0493049B1B781A
:10243000002B02D10198FFF7A1FF00BF07B05DF8A4
:1024400004FB000000B591B003900291019200934B
:10245000039B002B03D14349B620FFF7BAF9039B36
:102460000993039B0F93099BDB881A46099B5B79B1
:1024700002FB03F3043B0893009A089B9A4203D3A0
:102480003849C420FFF7A5F9099BDB880793009B17
:102490001A1D079BB2FBF3F30E93009B0433079ABC
:1024A000B3FBF2F2079901FB02F29B1A0D93019B19
:1024B0001A68009B1344089A9A4203D2089A009B18
:1024C000D31A01E0019B1B680C93019B0C9A1A60C4
:1024D00005E00F9B1B680F930E9B013B0E930E9B19
:1024E000002BF6D100230B93079A0D9BD31A0A9366
:1024F0000A9A0C9B934228BF13460A932AE0029A39
:102500000B9B134406930F9A0D9B134404330593BE
:102510009DF84830002B05D00A9A0599069801F0DD
:102520007FFF04E00A9A0699059801F079FF0023DD
:102530000D930F9B1B680F930C9A0A9BD31A0C9355
:102540000B9A0A9B13440B93079A0C9B934228BF48
:1025500013460A930C9B002BD1D100BF00BF11B0D2
:102560005DF804FBE049000000B589B005900491D6
:1025700003920293039B079307AA00230093029BF5
:1025800004990598FFF75EFF079B039A9A4203D0D0
:102590000349F620FFF71DF900BF09B05DF804FB01
:1025A000E049000000B589B00590049103920293C0
:1025B000039B079307AA01230093029B04990598A4
:1025C000FFF740FF079B039A9A4204D004494FF457
:1025D0008070FFF7FEF800BF09B05DF804FB00BF94
:1025E000E049000082B00190019B9B6800229A6044
:1025F000019B9B6800221A61019B9B6800225A6123
:10260000019B9B680022DA60019B9B6800225A6054
:10261000019B9B6800221A6000BF02B07047000057
:1026200000B585B00190019800F00EF80390039B6F
:10263000002B01D0039B00E0024B184605B05DF86B
:1026400004FB00BF5C4A000086B00190164B059366
:10265000164B04931FE0049A059BD31ADB10DA0F84
:1026600013445B10DB00059A13440393039B1B6820
:102670000293029A019B9A4202D9039B04930AE0B7
:10268000029A019B9A4203D2039B0833059302E00E
:10269000039B5B6804E0059A049B9A42DBD300230A
:1026A000184606B0704700BF304E0000484F00008B
:1026B00082B003468DF807309DF90730002B0CDB04
:1026C0009DF8073003F01F0205499DF907305B09AB
:1026D000012000FA02F241F8232000BF02B0704747
:1026E00000E100E082B0034600918DF807309DF9CB
:1026F0000730002B0ADB009BDAB20C499DF907304A
:102700005201D2B20B4483F800230BE0009BDAB2F3
:1027100007499DF8073003F00F03043B5201D2B282
:102720000B441A7600BF02B0704700BF00E100E022
:1027300000ED00E082B00190019B1B0B5BB21846DC
:1027400002B0704700B583B003460A468DF80730E3
:1027500013468DF806309DF80630072B03D908493B
:102760006B20FFF736F89DF806209DF907301146DB
:102770001846FFF7B7FF00BF03B05DF804FB00BFCA
:10278000484F000000B583B003468DF807309DF92F
:1027900007301846FFF78CFF00BF03B05DF804FB5D
:1027A00000B583B00346ADF80630BDF806301846D4
:1027B00000F026F803461B68012B0CBF0123002301
:1027C000DBB2184603B05DF804FB00B585B00346E4
:1027D000ADF80630BDF80630184600F011F8034693
:1027E0001A4600231360BDF80630184600F008F8BA
:1027F00003461B680393039B00BF05B05DF804FB11
:1028000082B00346ADF80630BDF8063003F18043D0
:1028100003F5C043184602B07047000082B0019033
:10282000034A019BC2F8043300BF02B0704700BFE7
:102830000060004082B00190034BD3F80423019B59
:102840001340184602B070470060004082B001900B
:10285000084A019B03F5A27352F82330054943F05F
:102860000102019B03F5A27341F8232000BF02B0CF
:10287000704700BF0060004084B00390029113468F
:102880008DF80730144A039B03F5A27352F82330E6
:10289000114923F4473323F44073039A02F5A272DB
:1028A00041F822300C4A039B03F5A27352F823200F
:1028B000029B1B0203F4F8519DF807301B0403F43C
:1028C00040330B4304491A43039B03F5A27341F8B9
:1028D000232000BF04B070470060004082B0019028
:1028E000054A019B03F5A27352F823301B0A03F03B
:1028F0001F03184602B070470060004082B001908C
:10290000064A019B03F5A27352F823301B0C03F017
:102910000303DBB2184602B0704700BF00600040FE
:1029200084B00390029111461A460B468DF8073089
:1029300013468DF80630184A039B03F5A27352F82C
:102940002330154923F4981323F4F853039A02F51E
:10295000A27241F82230104A039B03F5A27352F889
:102960002320029B1B0203F4F8519DF807301B043F
:1029700003F4403319439DF806301B0503F480131C
:102980000B4305491A43039B03F5A27341F8232027
:1029900000BF04B0704700BF0060004000B583B0C6
:1029A0000190019B1B68184600F084F90346002B38
:1029B00004D105494FF4F670FEF70BFF4FF0A0432A
:1029C000184603B05DF804FB784F000000B585B0F1
:1029D0000190084611461A4603468DF803300B460F
:1029E0008DF8023013468DF8013001AB1846FFF721
:1029F000D5FF03909DF803209DF802305B001A4339
:102A00009DF801309B001A439DF818301B0242EAE2
:102A100003019DF81C301B04019A1943039B02F526
:102A2000E07243F8221000BF05B05DF804FB00B56A
:102A300085B003900023019300230093002301221B
:102A400001210398FFF7C2FF00BF05B05DF804FB4A
:102A500000B585B003900B468DF80B309DF80B3018
:102A60000022019200220092002200210398FFF729
:102A7000ADFF00BF05B05DF804FB00B585B0019067
:102A800001AB1846FFF78AFF0390019A039B02F5FA
:102A9000E07253F8223023F002030293019A039B61
:102AA00002F5E072029943F8221000BF05B05DF80C
:102AB00004FB00B585B001900B468DF8033001ABE7
:102AC0001846FFF76BFF0390019A039B02F5E07233
:102AD00053F82230019A23F44031039B02F5E0724F
:102AE00043F82210019A039B02F5E07253F822305A
:102AF0009DF8032012041146019A1943039B02F525
:102B0000E07243F8221000BF05B05DF804FB00B589
:102B100085B0019001AB1846FFF740FF0390019B81
:102B2000012202FA03F31946039800F06DF800BF82
:102B300005B05DF804FB00B585B0019001AB184607
:102B4000FFF72CFF0390019B012202FA03F31946C1
:102B5000039800F063F800BF05B05DF804FB00B512
:102B600085B0019001AB1846FFF718FF0390039B57
:102B7000D3F804350293029BDA43019B012101FA49
:102B800003F31A40039BC3F80825019B01229A40D6
:102B9000029B1A40039BC3F80C2500BF05B05DF8EB
:102BA00004FB00B585B0019001AB1846FFF7F6FEB7
:102BB0000390039800F020F80246019B22FA03F3E9
:102BC00003F00103184605B05DF804FB00B585B0BD
:102BD000019001AB1846FFF7E1FE0390019A039BB9
:102BE00002F5E07253F822301B0C03F00303DBB252
:102BF000184605B05DF804FB82B00190019BD3F844
:102C00001035184602B0704782B001900091019BC8
:102C1000009AC3F8082500BF02B0704782B0019047
:102C20000091019B009AC3F80C2500BF02B07047C9
:102C300086B00390029101924FF0A0430493039B4E
:102C4000059319E0059B9B0018336B4453F8083C2F
:102C5000D3F82025019B1A60059B9B0018336B4419
:102C600053F8083C019A1268C3F82025019B0433ED
:102C70000193059B01330593039A029B1344059A24
:102C80009A42DFD300BF00BF06B0704700B585B0E1
:102C9000019001AB1846FFF781FE0390019B0122D2
:102CA00002FA03F31A46039BC3F8202500BF05B0C0
:102CB0005DF804FB84B00190019B5B090293002343
:102CC0000393029B002B03D14FF0FF33039300BF0C
:102CD000019B03F01F030193039A019B22FA03F364
:102CE00003F00103002B14BF01230023DBB21846BD
:102CF00004B0704784B001900091009B0393019B46
:102D0000DB080293019B03F0070301930122019B5F
:102D100002FA03F30399029A0A4412781340184600
:102D200004B0704784B001900091009B0393019B15
:102D3000DB080293019B03F007030193039A029BB4
:102D400013441B785AB20121019B01FA03F35BB2D1
:102D5000134359B2039A029B1344CAB21A7000BFBC
:102D600004B0704782B00190074A019B134424339A
:102D700093F90030B3F1FF3F14BF01230023DBB20E
:102D8000184602B0704700BF4C06002082B0019088
:102D90000C4A019B1344243393F90030002B09DBC8
:102DA000084A019B1344243393F90030072B01DCBC
:102DB000012300E0002303F00103DBB2184602B058
:102DC000704700BF4C06002082B00190064A019B6C
:102DD0001344243393F90030072BCCBF0123002385
:102DE000DBB2184602B070474C06002082B001905A
:102DF000064A019B1344243393F90030DB43DBB2D2
:102E0000DB09DBB2184602B0704700BF4C06002059
:102E100084B00390029101928DF80330029B59B265
:102E20000E4A039B134424330A461A700B49029B33
:102E3000019A41F823209DF8033083F00103DBB2AF
:102E4000002B08D0029B083B039A51B2034A13445B
:102E50000A4683F8442000BF04B070474C060020A7
:102E600082B00190044A019B13442433FE221A705D
:102E700000BF02B0704700BF4C06002082B0019036
:102E8000044A019B13442433FF221A7000BF02B08E
:102E9000704700BF4C06002000B583B00190044984
:102EA0000198FFF73FFF00BF03B05DF804FB00BFD0
:102EB0009106002082B00190044A019B1344243300
:102EC00093F90030184602B0704700BF4C0600204E
:102ED00082B00190034A019B52F82330184602B099
:102EE000704700BF4C06002084B00190074A019B48
:102EF0001344443393F900308DF80F309DF80F30B0
:102F000023F0C003184604B0704700BF4C060020F1
:102F100084B00190074A019B1344443393F9003075
:102F20008DF80F309DF80F309B09DBB2184604B0C6
:102F3000704700BF4C06002000B589B00390029195
:102F400013468DF80730FF238DF81F309DF80730AA
:102F5000002B01D0002300E0082305939DF80730E3
:102F6000002B01D0082300E009230493059B06935E
:102F700014E00F4A069B52F82330B3F1FF3F0AD109
:102F80009DF80730029A06990398FFF741FF069BC8
:102F90008DF81F3006E0069B01330693069A049BCA
:102FA0009A42E6D39DF91F30184609B05DF804FB3C
:102FB0004C06002082B003468DF807309DF807309C
:102FC000094A4FF0FF3142F823109DF80730072BD4
:102FD00007D99DF80730083B034A1344FF2283F8C2
:102FE000442000BF02B070474C06002000B583B0FB
:102FF0002D4B93F84930002B03D008230093009BFE
:103000004EE000238DF8073011E09DF80730184698
:10301000FFF750FE0346002B04D09DF807301846FA
:10302000FFF72CFF9DF8073001338DF807309DF82E
:1030300007301F2BE9D900238DF8073009E09DF8F0
:1030400007301846FFF7B6FF9DF8073001338DF8BB
:1030500007309DF80730082BF1D9042200211348CE
:1030600001F007FA1248FFF765FB034606211846F0
:10307000FFF768FB0E48FFF75DFB03461846FFF7B6
:1030800081FB4FF4BE70FFF7A0FB4FF00040FFF74D
:10309000C5FB054B012283F8492000230093009BC8
:1030A000184603B05DF804FB4C0600209106002092
:1030B0000060004000B585B0019000910198FFF7D5
:1030C000F9FD0346002B04D12D4940F24910FEF7CB
:1030D00080FB2C4B93F84930012B04D028494FF446
:1030E000A570FEF776FB009B002B04D1244940F22B
:1030F0004B10FEF76EFB002303930198FFF732FE9F
:103100000346002B02D00823039334E0009B9B78F6
:10311000002B19D0012200210198FFF70DFF034673
:103120008DF80B309DF90B30B3F1FF3F09D09DF9BD
:103130000B00009B1A78009B5B780199FFF7F0FB6E
:1031400005E00423039302E00198FFF789FE039B47
:10315000002B10D1009B5B78012B03D10198FFF766
:10316000D6FC02E00198FFF7E6FC0198FFF75FFC50
:103170000198FFF791FE039B184605B05DF804FB2C
:10318000B04F00004C06002000B583B001900198BC
:10319000FFF790FD0346002B04D1124940F2A9101D
:1031A000FEF717FB0198FFF7DDFD0346002B04D166
:1031B0000C494FF4D570FEF70CFB0198FFF7E6FDC4
:1031C000034683F00103DBB2002B04D1054940F232
:1031D000AB10FEF7FEFA0198FFF7C1FC00BF03B089
:1031E0005DF804FBB04F000000B587B0039002917A
:1031F00001920398FFF75EFD0346002B04D1364988
:103200004FF40C70FEF7E5FA002305930398FFF7DF
:10321000EDFD0346002B02D00823059357E0029BE7
:103220009B78C3F34003DBB21A4601990398FFF77A
:1032300083FE03468DF813309DF91330B3F1FF3F41
:1032400043D0029B9B78C3F38003DBB283F001037E
:10325000DBB2002B13D0029B9B7803F00103DBB29F
:10326000002B03D00398FFF708FC05E0029B5B7876
:1032700019460398FFF7ECFB0398FFF70DFE029B3E
:103280009B7803F00203DBB2002B08D09DF91300FA
:10329000029B1B781A460399FFF7EEFA17E09DF997
:1032A0001330083B0D4A134493F94410029B1B78DA
:1032B0009B015AB29DF91330083B0A4351B2074AA9
:1032C00013440A4683F8442001E004230593059B38
:1032D000184607B05DF804FBB04F00004C06002014
:1032E00000B589B001900B468DF803300198FFF7C7
:1032F000E1FC0346002B04D13A494FF41870FEF765
:1033000068FA0198FFF772FD0346002B04D1354996
:1033100040F26120FEF75DFA0198FFF755FD034684
:10332000002B2AD00198FFF7C5FD0346083B18463D
:10333000FFF7EEFD03468DF80F309DF80F30032B9D
:103340000BD10198FFF72DFC0346002B01D003237E
:1033500000E002238DF81F3008E09DF80F30012BAC
:1033600001D1022300E003238DF81F309DF81F30A8
:1033700019460198FFF79DFB30E00198FFF706FD25
:103380000346002B2AD00198FFF794FD03460693CD
:10339000069B9BB240339BB29B00ADF81630069B58
:1033A0001846FFF753FABDF816301846FFF70DFA26
:1033B0009DF80330002B11D00198FFF77BFD0346E9
:1033C0001846FFF785FD0490049B002B06D00122D0
:1033D000069B02FA03F31846FFF720FA00BF09B074
:1033E0005DF804FBB04F000000B585B00190019A74
:1033F00001210020FFF71CFC002303930BE0039B3B
:103400009B00019A13441B68002B01D0012306E0A6
:10341000039B01330393039B002BF0D0002318463A
:1034200005B05DF804FB000000B587B001900023F3
:1034300005935BE0344A059B1344443393F9003011
:10344000B3F1FF3F4ED00598FFF74EFD0490019970
:103450000498FFF74FFC0346002B44D00598FFF774
:1034600057FD03468DF80F300498FFF7AFFB034676
:103470008DF80E309DF80E30022B01D1032300E0B1
:1034800002238DF80D309DF80D3019460498FFF792
:1034900010FB0498FFF7FAFB0498FFF70BFD0346B7
:1034A0001846FFF715FD0290029B002B1BD09DF8DC
:1034B0000F30032B0FD09DF80E30022B03D19DF857
:1034C0000F30012B07D09DF80E30032B0BD19DF848
:1034D0000F30022B07D19DF80F20029B1146049854
:1034E000984700E000BF059B01330593059B002B27
:1034F000A0D00198FFF778FF0346002B97D100BFBB
:1035000000BF07B05DF804FB4C06002000B589B091
:1035100000230693002300934FF48073ADF812301C
:10352000012307930023059321E0BDF812301846CC
:10353000FFF736F90346002B0ED00798FFF77AF90C
:103540000346002B08D0BDF812301846FFF73DF9AE
:10355000069A079B13430693079B5B000793BDF8EE
:1035600012300433ADF81230059B01330593059BEF
:10357000072BDAD94FF4BE70FFF712F90346002B80
:103580000DD04FF4BE70FFF720F9069B43F00043C7
:1035900006936B461A4601210020FFF749FB069B64
:1035A000DBB2002B29D0012307930023059321E0F0
:1035B000079A069B1340002B16D00598FFF78EF94B
:1035C00003900598FFF79AF903468DF80B3005989C
:1035D000FFF77EFC0190019B002B05D09DF80B208E
:1035E000019B114603989847079B5B000793059B37
:1035F00001330593059B072BDAD9069B002B03DAD1
:103600006B461846FFF710FF00BF09B05DF804FBDA
:1036100000B583B00190019B1B68184600F08EF83E
:103620000346002B04D105494FF4F670FEF7D1F89C
:103630004FF0A043184603B05DF804FB2C50000087
:1036400000B585B00190084611461A4603468DF82C
:1036500003300B468DF8023013468DF8013001AB74
:103660001846FFF7D5FF03909DF803209DF8023020
:103670005B001A439DF801309B001A439DF81830F7
:103680001B0242EA03019DF81C301B04019A1943F6
:10369000039B02F5E07243F8221000BF05B05DF80D
:1036A00004FB00B585B00390002301930023009331
:1036B0000023012201210398FFF7C2FF00BF05B0DC
:1036C0005DF804FB00B585B0019001AB1846FFF72B
:1036D0009FFF0390019B012202FA03F3194603980E
:1036E00000F018F800BF05B05DF804FB00B585B028
:1036F000019001AB1846FFF78BFF0390019B01225D
:1037000002FA03F31946039800F00EF800BF05B063
:103710005DF804FB82B001900091019B009AC3F810
:10372000082500BF02B0704782B001900091019B54
:10373000009AC3F80C2500BF02B0704784B0019016
:10374000019B5B09029300230393029B002B03D18F
:103750004FF0FF33039300BF019B03F01F0301935E
:10376000039A019B22FA03F303F00103002B14BF19
:1037700001230023DBB2184604B0704700B583B0C4
:1037800000210020FCF770FE0190019B0093009B3C
:10379000002B04D0054A44210098FDF727FFFDF7D0
:1037A00097FD00BF03B05DF804FB00BF5C50000054
:1037B00000B583B001900B468DF803300B4A0C4BDB
:1037C000D31ADB081B0443F003000A4B1B685A1C86
:1037D00008490A601A460849FDF720F91B20FFF73F
:1037E000D3FC00BF03B05DF804FB00BF4045000000
:1037F0003845000098060020D850000000B587B07A
:10380000FFF7F4FB0590059B0493049B002B04D069
:10381000284A5B210498FDF7E9FE01238DF8043066
:1038200000238DF8053000238DF8063001AB1946D2
:103830001B20FFF73FFC0590059B0393039B002B88
:1038400004D01C4A60210398FDF7D0FE1A4A6B464B
:103850001268114619800233120C1A7001238DF878
:10386000013002238DF800309DF802306FF3000321
:103870008DF802309DF8023043F002038DF80230DB
:103880006B460E4A19461920FFF7AEFC0590059BC2
:103890000293029B002B04D0064A69210298FDF78F
:1038A000A5FE01211920FFF71BFD00BF07B05DF841
:1038B00004FB00BF5C500000E8500000B13700007E
:1038C00008B5FFF75BFFFFF799FF0A4A0A4BD31AC7
:1038D000DB081B0443F0030308491846FDF790F882
:1038E0001A20FFF7DEFE1A20FFF7ECFE1A20FFF782
:1038F000FDFEF8E74045000038450000EC500000B0
:10390000BFF34F8F00BF064BDB6803F4E06204494E
:10391000044B1343CB60BFF34F8F00BF00BFFDE7E5
:1039200000ED00E00400FA0582B01A4B1B68B3F109
:10393000FF3F0AD1184B1B68DBB20193174B1B6882
:103940001B0903F00F03009305E0124B1B68019362
:10395000134B1B680093019B062B17D1009B033B65
:10396000032B13D801A252F823F000BF7D390000C9
:10397000813900008539000089390000012306E003
:10398000012304E0012302E0012300E000231846A4
:1039900002B0704730010010E00F00F0E80F00F0B7
:1039A0003401001082B0144B1B68DBB20193134B3F
:1039B0001B681B0903F00F030093019B062B17D113
:1039C000009B033B032B13D801A252F823F000BF46
:1039D000E1390000E5390000E9390000ED39000067
:1039E000012306E0002304E0002302E0002300E0BE
:1039F0000023184602B07047E00F00F0E80F00F017
:103A000082B01A4B1B68B3F1FF3F0AD1184B1B68F9
:103A1000DBB20193174B1B681B0903F00F030093E4
:103A200005E0124B1B680193134B1B680093019B2D
:103A3000062B17D1009B033B032B13D801A252F88E
:103A400023F000BF553A0000593A00005D3A0000EB
:103A5000613A0000012306E0012304E0012302E0B3
:103A6000012300E00023184602B070473001001027
:103A7000E00F00F0E80F00F03401001082B0144BAA
:103A80001B68DBB20193134B1B681B0903F00F0388
:103A90000093019B062B17D1009B033B032B13D8EC
:103AA00001A252F823F000BFB93A0000BD3A00006D
:103AB000C13A0000C53A0000012306E0002304E0FB
:103AC000002302E0002300E00023184602B0704704
:103AD000E00F00F0E80F00F082B01A4B1B68B3F162
:103AE000FF3F0AD1184B1B68DBB20193174B1B68D1
:103AF0001B0903F00F03009305E0124B1B680193B1
:103B0000134B1B680093019B062B17D1009B033BB3
:103B1000032B13D801A252F823F000BF2D3B000065
:103B2000313B0000353B0000393B0000012306E03B
:103B3000012304E0012302E0012300E000231846F2
:103B400002B0704730010010E00F00F0E80F00F005
:103B50003401001082B0144B1B68DBB20193134B8D
:103B60001B681B0903F00F030093019B062B17D161
:103B7000009B033B032B13D801A252F823F000BF94
:103B8000913B0000953B0000993B00009D3B0000ED
:103B9000012306E0002304E0002302E0002300E00C
:103BA0000023184602B07047E00F00F0E80F00F065
:103BB00082B0144B1B68DBB20193134B1B681B09CB
:103BC00003F00F030093019B062B17D1009B033BCF
:103BD000032B13D801A252F823F000BFED3B0000E5
:103BE000F13B0000F53B0000F93B0000012306E03B
:103BF000002304E0002302E0002300E00023184635
:103C000002B07047E00F00F0E80F00F082B01A4BEE
:103C10001B68B3F1FF3F0AD1184B1B68DBB201935D
:103C2000174B1B681B0903F00F03009305E0124BB1
:103C30001B680193134B1B680093019B062B17D144
:103C4000009B033B032B13D801A252F823F000BFC3
:103C5000613C0000653C0000693C00006D3C0000D8
:103C6000002306E0002304E0012302E0012300E03A
:103C70000023184602B0704730010010E00F00F03A
:103C8000E80F00F03401001082B01A4B1B68B3F14A
:103C9000FF3F0AD1184B1B68DBB20193174B1B681F
:103CA0001B0903F00F03009305E0124B1B680193FF
:103CB000134B1B680093019B062B17D1009B033B02
:103CC000032B13D801A252F823F000BFDD3C000003
:103CD000E13C0000E53C0000E93C0000012306E077
:103CE000012304E0012302E0012300E00023184641
:103CF00002B0704730010010E00F00F0E80F00F054
:103D00003401001082B01A4B1B68B3F1FF3F0AD197
:103D1000184B1B68DBB20193174B1B681B0903F0A0
:103D20000F03009305E0124B1B680193134B1B68B4
:103D30000093019B062B17D1009B033B032B13D849
:103D400001A252F823F000BF593D00005D3D000084
:103D5000613D0000653D0000012306E0012304E011
:103D6000012302E0012300E00023184602B070475F
:103D700030010010E00F00F0E80F00F034010010F7
:103D800082B0124B1B680193114B1B680093019B7F
:103D9000062B17D1009B033B032B13D801A252F82B
:103DA00023F000BFB53D0000B93D0000BD3D00005F
:103DB000C13D0000002306E0002304E0002302E0F0
:103DC000012300E00023184602B0704730010010C4
:103DD00034010010024B034A1A6000BF704700BF55
:103DE000440000200090D00308B5FFF79DFD034676
:103DF000002B06D0A04B1B681B0AA04A03F01F0330
:103E00001360FFF7CFFD0346002B02D09C4B9D4A69
:103E10001A60FFF7F5FD0346002B06D09A4B1B688E
:103E20005B0B9A4A03F007031360FFF727FE034674
:103E3000002B05D0964BDB68954A23F08073D36046
:103E4000FFF74AFE0346002B0ED04FF080430022BE
:103E5000C3F80C214FF080430022C3F810214FF02B
:103E600080430022C3F83825FFF774FE0346002B79
:103E700002D0884B03221A60FFF79AFE0346002BFC
:103E80000BD0854B05221A60844B01221A60844BAB
:103E900000221A60834B3F221A60FFF7B7FE0346E9
:103EA000002B76D04FF080537F4AD3F80434C2F809
:103EB00020354FF080537C4AD3F80834C2F82435BB
:103EC0004FF08053784AD3F80C34C2F828354FF0BD
:103ED0008053754AD3F81034C2F82C354FF0805314
:103EE000714AD3F81434C2F830354FF080536E4A1B
:103EF000D3F81834C2F834354FF080536A4AD3F8F7
:103F00001C34C2F840354FF08053674AD3F8203450
:103F1000C2F844354FF08053634AD3F82434C2F8D2
:103F200048354FF08053604AD3F82834C2F84C35F6
:103F30004FF080535C4AD3F82C34C2F850354FF020
:103F40008053594AD3F83034C2F854354FF0805377
:103F5000554AD3F83434C2F860354FF08053524A92
:103F6000D3F83834C2F864354FF080534E4AD3F852
:103F70003C34C2F868354FF080534B4AD3F8403494
:103F8000C2F86C354FF08053474AD3F84434C2F836
:103F90007035FFF779FE0346002B05D0434B1B68B5
:103FA000434A03F04F031360FFF7ACFE0346002BB8
:103FB0000DD04FF08043D3F8003403F00103002B01
:103FC00005D04FF080436FF00102C3F80024FFF7E3
:103FD000D7FE0346002B05D0364B1B68354A43F409
:103FE00080631360344BD3F88830334A43F4700352
:103FF000C2F88830BFF34F8F00BFBFF36F8F00BF91
:104000004FF01023D3F80032002B05DB4FF01023C4
:10401000D3F80432002B2BDA284B0122C3F80425F5
:1040200000BF264BD3F80034002BFAD04FF01023FA
:104030001522C3F8002200BF204BD3F80034002B18
:10404000FAD04FF010231522C3F8042200BF1B4BF7
:10405000D3F80034002BFAD0184B0022C3F8042503
:1040600000BF164BD3F80034002BFAD0FFF748FC02
:10407000FFF7B0FE00BF08BD24030010403501402B
:1040800074C007400DF0ADBA440200103C0500407A
:10409000F0ED00E0A00500401056004088560040BA
:1040A000185600401456004000C00040580200104E
:1040B000E40E00403C17004000ED00E000E001404D
:1040C00082B0204B0193019B02221A61019B0222C4
:1040D0005A61019B1C4A9A61019B1C4ADA61019B4F
:1040E0004FF400721A62019B00229A62019B002227
:1040F0005A62019B0022DA62019B134A9A64019B77
:10410000134ADA64019B10221A65019B00229A650A
:10411000019B00225A65019B0022DA65019B07334F
:104120000C4A10681860019B0B4A1068186091884F
:10413000927999809A71019B20229A7100BF02B0F6
:10414000704700BF9C060020F450000014070020B8
:1041500014090020005100000451000000B589B08E
:1041600003900291019200230693039BDB68059361
:10417000039B1B690493049A059B9A4205D9049AF0
:10418000059BD31A013B079307E0039B9A680499A8
:10419000059BCB1A1344013B0793039B9A68059B2D
:1041A000D31A079A934228BF13460793079A019B95
:1041B000934228BF13460793039B5A68059B1344F9
:1041C000079A0299184600F02BF9069A079B1344A8
:1041D0000693029A079B13440293019A079BD31AF2
:1041E0000193059A079B13440593039B9B68059ACB
:1041F0009A4201D100230593039B059ADA60019B43
:10420000002BB5D1069B184609B05DF804FB00B53C
:1042100089B0039002910192039BDB680793039B93
:104220009A68079BD31A0693069A019B9A420ED965
:10423000039B5A68079B1344019A0299184600F0A1
:10424000EFF8079A019B1A44039BDA601AE0069B79
:104250000593039B5A68079B1344059A02991846D5
:1042600000F0DEF8019A069BD31A0593039B586869
:10427000029A069B1344059A194600F0D1F8039B55
:10428000059ADA6000BF09B05DF804FB86B00190C2
:10429000019B1B690493019BDB680393049A039BB6
:1042A0009A4208D8019B9A68039BD21A049B134434
:1042B000013B059304E0049A039BD31A013B059349
:1042C000059B184606B0704700B589B0039002916F
:1042D0000192029B0693039B5A1C13465B001344F6
:1042E000DB00204A13440593059B5B69022B29D010
:1042F000022B2ED8002B02D0012B13D029E00598D9
:10430000FFF7C4FF0490049A019B9A4202D2002353
:10431000079321E0019B0793019A06990598FFF7FF
:1043200076FF19E00598FFF7B1FF0490019A049B0E
:10433000934228BF13460793079A06990598FFF7FB
:1043400066FF09E0019A06990598FFF707FF0790B5
:1043500002E00023079300BF079B184609B05DF8F1
:1043600004FB00BF9C06002008B5FFF7A9FE00BFB4
:1043700008BD00007F2805D8034A044B105C5B5C35
:1043800018407047002070471851000098510000F5
:10439000A0F16103192B98BF20387047A0F14103A9
:1043A000192B98BF203070477F299ABF01700120D8
:1043B0006FF02E00704700BF5AB10A787F2A0AD8E2
:1043C00000B102600021501AC3E9001118BF01209A
:1043D0007047104670476FF02E007047A0F16103E0
:1043E000192B98BF20387047A0F14103192B98BFB3
:1043F000203070477F2805D8034A044B105C5B5C73
:104400001840704700207047185100009851000074
:10441000024B5B689B6809211B6818474800002015
:10442000844640EA010313F0030F18D18446202A82
:104430000BD32DE9F007B1E8F807A0E8F807A2F1DF
:104440002002202AF7D2BDE8F007042A07D351F84A
:10445000043B40F8043BA2F10402042AF7D2002AEC
:1044600005D011F8013B00F8013B013AF9D1604653
:1044700070478446002A2DD010F0030F04D000F8B6
:10448000011B013A26D0F7E7C9B241EA012141EA0E
:104490000141202A12D3A2F120022DE9F0030B469C
:1044A0000C460D460E460F4688468946A0E8FA039C
:1044B000203AFBD2BDE8F00320320BD0042A05D30A
:1044C00040F8041B043A05D0042AF9D200F8011B75
:1044D000013AFBD16046704700F1010110F0030F73
:1044E00011D010F8012B002A23D010F0030F0AD0AE
:1044F00010F8012B002A1CD010F0030F03D010F885
:10450000012B002A15D02DE970004FF001324FF039
:10451000803350F8044BA4EB020525EA04051D4046
:1045200000D1F6E7A0F1040070BC10F8012B002ABE
:08453000FBD1A0EB0100704774
:10453800A84F0000000000007845000000000303B9
:104548005C47000000000000C04600003C0000205E
:10455800240100205C00002064000020640000208A
:044568001800000037
:10456C002C0100207F000000AC0100206170700065
:10457C00433A5C55736572735C6D696D6F727269E9
:10458C00735C446F63756D656E74735C53656E73A9
:10459C006F72735C4C616767696E67576561725CBB
:1045AC004669726D776172655C6C616767696E678D
:1045BC00776561722D5C6E5246355F53444B5F31AB
:1045CC00375C636F6D706F6E656E74735C6C696273
:1045DC007261726965735C6C6F675C7372635C6E3D
:1045EC0072665F6C6F675F66726F6E74656E642E59
:1045FC00630000004261636B656E647320666C75CA
:10460C0073686564000000006572726F72000000D0
:10461C007761726E696E6700696E666F00000000EC
:10462C0064656275670000001B5B306D0000000064
:10463C001B5B313B33306D001B5B313B33316D0009
:10464C001B5B313B33326D001B5B313B33336D00F5
:10465C001B5B313B33346D001B5B313B33356D00E1
:10466C001B5B313B33366D001B5B313B33376D00CD
:10467C0025734C6F67732064726F707065642028AB
:10468C0025642925730D0A00257300003C25733E13
:10469C002025733A200000000D0A0000202530323E
:1046AC0078000000202020007C0000002563000022
:1046BC00200000007274745F6C6F675F6261636BE3
:1046CC00656E6400433A5C55736572735C6D696D1D
:1046DC006F727269735C446F63756D656E74735C35
:1046EC0053656E736F72735C4C616767696E675765
:1046FC006561725C4669726D776172655C6C61674D
:10470C0067696E67776561722D5C6E5246355F53D3
:10471C00444B5F31375C636F6D706F6E656E747395
:10472C005C6C69627261726965735C6C6F675C73F7
:10473C0072635C6E72665F6C6F675F6465666175F1
:10474C006C745F6261636B656E64732E6300000052
:10475C00F5130000271400001D14000000000000D9
:10476C00000000000338FDD870470000415353454A
:10477C005254494F4E204641494C454420617420C7
:10478C0025733A25750000004552524F522025756D
:10479C00205B25735D2061742025733A25750D0A05
:1047AC0050432061743A203078253038780000006E
:1047BC00456E64206F66206572726F722072657030
:1047CC006F727400554E4B4E4F574E204641554C10
:1047DC00542061742030782530385800433A5C55A9
:1047EC00736572735C6D696D6F727269735C446F23
:1047FC0063756D656E74735C53656E736F72735C09
:10480C004C616767696E67576561725C4669726D6A
:10481C00776172655C6C616767696E6777656172F9
:10482C002D5C6E5246355F53444B5F31375C636F82
:10483C006D706F6E656E74735C6C696272617269B7
:10484C0065735C7574696C5C6170705F7574696CB0
:10485C005F706C6174666F726D2E6300433A5C55C9
:10486C00736572735C6D696D6F727269735C446FA2
:10487C0063756D656E74735C53656E736F72735C88
:10488C004C616767696E67576561725C4669726DEA
:10489C00776172655C6C616767696E677765617279
:1048AC002D5C6E5246355F53444B5F31375C636F02
:1048BC006D706F6E656E74735C6C69627261726937
:1048CC0065735C62616C6C6F635C6E72665F626177
:1048DC006C6C6F632E630000433A5C5573657273A6
:1048EC005C6D696D6F727269735C446F63756D6535
:1048FC006E74735C53656E736F72735C4C61676737
:10490C00696E67576561725C4669726D7761726535
:10491C005C6C616767696E67776561722D5C6E525E
:10492C0046355F53444B5F31375C65787465726E06
:10493C00616C5C667072696E74665C6E72665F66E2
:10494C007072696E74662E6300000000433A5C5509
:10495C00736572735C6D696D6F727269735C446FB1
:10496C0063756D656E74735C53656E736F72735C97
:10497C004C616767696E67576561725C4669726DF9
:10498C00776172655C6C616767696E677765617288
:10499C002D5C6E5246355F53444B5F31375C657806
:1049AC007465726E616C5C667072696E74665C6E56
:1049BC0072665F667072696E74665F666F726D6147
:1049CC00742E630030313233343536373839414246
:1049DC0043444546433A5C55736572735C6D696D2F
:1049EC006F727269735C446F63756D656E74735C22
:1049FC0053656E736F72735C4C616767696E675752
:104A0C006561725C4669726D776172655C6C616739
:104A1C0067696E67776561722D5C6E5246355F53C0
:104A2C00444B5F31375C636F6D706F6E656E747382
:104A3C005C6C69627261726965735C6D656D6F62E5
:104A4C006A5C6E72665F6D656D6F626A2E630000E4
:104A5C00556E6B6E6F776E206572726F7220636F1E
:104A6C00646500004E52465F535543434553530013
:104A7C004E52465F4552524F525F5356435F484128
:104A8C004E444C45525F4D495353494E470000002C
:104A9C004E52465F4552524F525F534F4654444517
:104AAC00564943455F4E4F545F454E41424C454439
:104ABC00000000004E52465F4552524F525F494E25
:104ACC005445524E414C00004E52465F4552524F97
:104ADC00525F4E4F5F4D454D000000004E52465FF9
:104AEC004552524F525F4E4F545F464F554E440005
:104AFC004E52465F4552524F525F4E4F545F535584
:104B0C0050504F52544544004E52465F4552524FFE
:104B1C00525F494E56414C49445F504152414D0001
:104B2C004E52465F4552524F525F494E56414C4988
:104B3C00445F5354415445004E52465F4552524FC8
:104B4C00525F494E56414C49445F4C454E47544880
:104B5C00000000004E52465F4552524F525F494E84
:104B6C0056414C49445F464C414753004E52465FB8
:104B7C004552524F525F494E56414C49445F444155
:104B8C00544100004E52465F4552524F525F4441D1
:104B9C0054415F53495A45004E52465F4552524F5D
:104BAC00525F54494D454F55540000004E52465FDC
:104BBC004552524F525F4E554C4C00004E52465F80
:104BCC004552524F525F464F5242494444454E0063
:104BDC004E52465F4552524F525F494E56414C49D8
:104BEC00445F4144445200004E52465F4552524F7E
:104BFC00525F4255535900004E52465F4552524F38
:104C0C00525F4D4F44554C455F4E4F545F494E4992
:104C1C005449414C495A4544000000004E52465FED
:104C2C004552524F525F4D555445585F494E495469
:104C3C005F4641494C4544004E52465F4552524FE7
:104C4C00525F4D555445585F4C4F434B5F4641495D
:104C5C004C4544004E52465F4552524F525F4D55A3
:104C6C005445585F554E4C4F434B5F4641494C455C
:104C7C00440000004E52465F4552524F525F4D5514
:104C8C005445585F434F4E445F494E49545F46412B
:104C9C00494C4544000000004E52465F4552524F6D
:104CAC00525F4D4F44554C455F414C524541445920
:104CBC005F494E495449414C495A45440000000053
:104CCC004E52465F4552524F525F53544F524147DA
:104CDC00455F46554C4C00004E52465F4552524F74
:104CEC00525F4150495F4E4F545F494D504C454DBA
:104CFC00454E5445440000004E52465F4552524FBB
:104D0C00525F464541545552455F4E4F545F454E98
:104D1C0041424C45440000004E52465F4552524FB2
:104D2C00525F494F5F50454E44494E4700000000CA
:104D3C004E52465F4552524F525F4452565F545743
:104D4C00495F4552525F4F56455252554E00000036
:104D5C004E52465F4552524F525F4452565F545723
:104D6C00495F4552525F414E41434B004E52465FA4
:104D7C004552524F525F4452565F5457495F455209
:104D8C00525F444E41434B004E52465F4552524F88
:104D9C00525F424C455F495053505F52585F504BE5
:104DAC00545F5452554E4341544544004E52465F55
:104DBC004552524F525F424C455F495053505F43EE
:104DCC0048414E4E454C5F414C52454144595F451C
:104DDC0058495354530000004E52465F4552524FAF
:104DEC00525F424C455F495053505F4C494E4B5FAC
:104DFC00444953434F4E4E45435445440000000034
:104E0C004E52465F4552524F525F424C455F49509D
:104E1C0053505F504545525F52454A4543544544B3
:104E2C000000000000000000704A000001000000BB
:104E3C007C4A0000020000009C4A000003000000B5
:104E4C00C04A000004000000D44A00000500000025
:104E5C00E84A000006000000FC4A000007000000C1
:104E6C00144B0000080000002C4B0000090000004F
:104E7C00444B00000A000000604B00000B000000D7
:104E8C00784B00000C000000904B00000D0000005F
:104E9C00A44B00000E000000B84B00000F000000F7
:104EAC00C84B000010000000DC4B0000110000009B
:104EBC00F44B000080000000044C00008100000056
:104ECC00284C000082000000444C000083000000CD
:104EDC00604C000084000000804C00008500000045
:104EEC00A44C000086000000CC4C00009000000098
:104EFC00E44C000091000000044D00009200000002
:104F0C00244D0000008200003C4D00000182000096
:104F1C005C4D000002820000784D0000008400000F
:104F2C00944D000001840000B84D00000284000084
:104F3C00E44D0000038400000C4E00002E2E2F2E9A
:104F4C002E2F2E2E2F2E2E2F2E2E2F2E2E2F696EF5
:104F5C00746567726174696F6E2F6E7266782F6EEE
:104F6C007266785F676C75652E6800002E2E2F2E8A
:104F7C002E2F2E2E2F2E2E2F2E2E2F2E2E2F6D6FC0
:104F8C0064756C65732F6E7266782F68616C2F6E0A
:104F9C0072665F6770696F2E680000004750494F5A
:104FAC0054450000433A5C55736572735C6D696DD2
:104FBC006F727269735C446F63756D656E74735C4C
:104FCC0053656E736F72735C4C616767696E67577C
:104FDC006561725C4669726D776172655C6C616764
:104FEC0067696E67776561722D5C6E5246355F53EB
:104FFC00444B5F31375C6D6F64756C65735C6E72BE
:10500C0066785C647269766572735C7372635C6EED
:10501C007266785F6770696F74652E6300000000BC
:10502C002E2E2F2E2E2F2E2E2F2E2E2F2E2E2F2E8F
:10503C002E2F6D6F64756C65732F6E7266782F688A
:10504C00616C2F6E72665F6770696F2E680000006E
:10505C00433A5C55736572735C6D696D6F727269FE
:10506C00735C446F63756D656E74735C53656E73BE
:10507C006F72735C4C616767696E67576561725CD0
:10508C004669726D776172655C6C616767696E67A2
:10509C00776561722D5C6E5246355F53444B5F31C0
:1050AC00375C6578616D706C65735C706572697086
:1050BC00686572616C5C70696E5F6368616E676570
:1050CC005F696E745C6D61696E2E630070696E2031
:1050DC006368616E676509256400000003000200C7
:1050EC0073746172746564005465726D696E616C81
:1050FC0000000000525454005345474745520000ED
:10510C0043000000504F534958000000202020203D
:10511C00202020202068282828282020202020201B
:10512C00202020202020202020202020481010107B
:10513C001010101010101010101010108484848493
:10514C008484848484841010101010101081818148
:10515C0081818101010101010101010101010101B3
:10516C000101010101010110101010101082828246
:10517C008282820202020202020202020202020283
:10518C00020202020202021010101020000703207B
:10519C000417020108571040800000000C51000059
:1051AC00105200002453000053756E004D6F6E00BA
:1051BC005475650057656400546875004672690043
:1051CC0053617400000000004A616E004665620085
:1051DC004D617200417072004D6179004A756E002C
:1051EC004A756C0041756700536570004F6374001D
:1051FC004E6F76004465630000000000414D005086
:10520C004D0000004853000044530000445300007C
:10521C004453000044530000445300004453000026
:10522C00445300004453000044530000FFFFFFFFB1
:10523C00FFFFFFFFFFFFFFFFFFFF00008452000096
:10524C00B4510000C0520000D451000008520000BC
:10525C00685200001853000074520000256D2F2571
:10526C00642F25790000000025612025622025652A
:10527C00202554202559000053756E646179004D2A
:10528C006F6E64617900547565736461790057655C
:10529C00646E6573646179005468757273646179C6
:1052AC000046726964617900536174757264617946
:1052BC00000000004A616E75617279004665627289
:1052CC0075617279004D6172636800417072696C2E
:1052DC00004D6179004A756E65004A756C79004124
:1052EC0075677573740053657074656D62657200D3
:1052FC004F63746F626572004E6F76656D62657296
:10530C0000446563656D62657200000025483A25AE
:10531C004D3A2553000000007543000091430000F6
:10532C009D430000F5430000DD430000E94300000D
:0E533C00A9430000B9430000000000002E004D
:10534C00FF00000000000000144600001C46000096
:10535C00244600002C460000344600003C46000069
:10536C00444600004C460000544600005C460000D9
:10537C00644600006C46000074460000000000000B
:10538C00FF0000000090D003A8510000A8510000BD
:0C539C00A8510000A8510000A85100001A
:040000030000037581
:00000001FF
