:1000000000000120750300005D0300005F03000095
:1000100061030000630300006503000000000000AE
:100020000000000000000000000000006703000066
:1000300069030000000000006B0300006D03000076
:100040006F0300006F0300005D2A00006F030000D3
:100050006F0300006F0300006F0300005D2E0000BF
:100060003D3500006F0300006F0300006F030000C8
:100070006F0300006F0300006F0300006F030000B8
:100080006F0300006F0300006F0300006F030000A8
:100090006F0300006F0300006F0300006F03000098
:1000A0006F0300006F0300006F0300006F03000088
:1000B0006F0300006F03000000000000000000005C
:1000C0006F0300006F0300006F0300006F03000068
:1000D0006F0300006F0300006F03000000000000CA
:1000E0000000000000000000000000000000000010
:1000F0000000000000000000000000000000000000
:1001000000000000000000000000000000000000EF
:1001100000000000000000000000000000000000DF
:1001200000000000000000000000000000000000CF
:1001300000000000000000000000000000000000BF
:1001400000000000000000000000000000000000AF
:10015000000000000000000000000000000000009F
:10016000000000000000000000000000000000008F
:10017000000000000000000000000000000000007F
:10018000000000000000000000000000000000006F
:10019000000000000000000000000000000000005F
:1001A000000000000000000000000000000000004F
:1001B000000000000000000000000000000000003F
:1001C000000000000000000000000000000000002F
:1001D000000000000000000000000000000000001F
:1001E000000000000000000000000000000000000F
:1001F00000000000000000000000000000000000FF
:10020000354936480A1A02D0072291438D463449AF
:1002100034480A1A06D00722914381F30988022242
:1002200082F3148830483149314A00F044F83148AB
:100230003149324A00F03FF831483249324A00F041
:100240003AF832483249334A00F035F832483349F7
:10025000334A00F030F833483349344A00F02BF881
:1002600033483449344A00F026F8344834490022EF
:1002700000F02CF833483449002200F027F83348C6
:100280003349091A082902DB002202604160314A21
:1002900090471F481F49884205D00268043003B4C4
:1002A000904703BCF7E700208646EC46002000217B
:1002B000294A9047FEE7884207D0521A05D00378B2
:1002C00001300B700131013AF9D17047884202D0F8
:1002D00002700130FAE770470000012000E00020C2
:1002E0000000012000000120C06C00000000002080
:1002F00078000020D0030000D0030000A45B0000C1
:10030000C06C00000000002000000020185C00000D
:10031000185C0000185C0000185C0000185C00000D
:10032000185C0000185C0000185C0000BE6C000047
:10033000386D000078000020780000207800002050
:10034000D4090020D4090020D4090020D4090020B9
:10035000D42900209D0300001D4F0000FEE7FEE7AA
:10036000FEE7FEE7FEE7FEE7FEE7FEE7FEE7FEE765
:1003700000F002B8FFF7FCBF0F484FF007018843B9
:1003800085460E4880470E48016841F470010160BF
:10039000BFF34F8FBFF36F8FFFF732BF09480A4992
:1003A0000A4A884207D0521A05D0037801300B70F0
:1003B0000131013AF9D17047000001206157000076
:1003C00088ED00E0185C0000000000200000002024
:1003D00000B585B00190019B002B0AD0074B43F07C
:1003E00001030393019B9B010293039B029898478F
:1003F00000E000BF05B05DF804FB00BF305C00000A
:1004000000B583B00190019B002B0AD04FF47A70A5
:10041000FFF7DEFF019B013B0193019B002BF5D110
:1004200000E000BF03B05DF804FB08B504F01EFF58
:1004300000BF08BD00B589B0039002910192019BF5
:10044000002B33D00023079303230693029A079BC4
:100450001344019A1946002004F0B8FE0590079A4B
:10046000059B13440793019A059BD31A0193059B9F
:10047000002B13D10F4B1B7883F00103DBB2002B51
:1004800013D10120FFF7BCFF069B013B0693069B9F
:10049000002B03D1074B00221A7007E0054B012205
:1004A0001A70019B002BD1D100E000BF00BF09B042
:1004B0005DF804FB7800002000B585B00390029140
:1004C000054B00934023054A0299039800F012F867
:1004D00000BF05B05DF804FB350400007C0000207F
:1004E00082B0019000BF02B0704782B0019000BF9F
:1004F00002B0704700B5A1B0059004910392029339
:10050000049802F09BF8039B1593029B169300231B
:10051000179300238DF8603000231993229B1A93C0
:1005200000231F930FA91F9B0822049802F060F973
:1005300008231F93119B1293BDF84030ADF84C3047
:10054000BDF84230ADF84E3000238DF851309DF8A3
:100550003C3003F00303DBB2012B26D10F9BC3F326
:1005600095231C939DF83C30C3F3C203DBB28DF896
:100570005030BDF83C30C3F38313DBB21B931B9B9D
:100580009A0009A91F9B049802F032F91B9B9B005B
:100590001F9A13441F9312AA09A915AB009313467F
:1005A0001B9A1C9800F0E2FF2FE09DF83C3003F00E
:1005B0000303DBB2022B28D1BDF83E30C3F389130D
:1005C0009BB21E939DF83C30C3F3C203DBB28DF89F
:1005D00050301E9B082B28BF08231D9307A91F9B83
:1005E0001D9A049802F004F91F9A1D9B13441F934F
:1005F0001E9A1D9BD31A1E9315AB12AA07A81D990C
:1006000001F056F81E9B002BE3D1049802F025F868
:1006100000BF21B05DF804FB00B583B00190019BE1
:100620001B781A460C4B9B5C002B05D0019B0433B6
:10063000184604F0C1F90BE0019B1B781A46064BE3
:100640009B5C002B04D1019B0C33184603F052FB3A
:1006500000BF03B05DF804FBB406002000B587B00E
:100660000390029113468DF8073000230593039BF6
:100670001B781A46114B9B5C002B09D0039B04335B
:100680009DF807200299184604F0F8F905900FE04C
:10069000039B1B781A46094B9B5C002B08D1039BDC
:1006A0000C339DF807200299184603F09BFB059038
:1006B000059B184607B05DF804FB00BFB406002098
:1006C00082B001900091034B01221A7000BF02B06A
:1006D000704700BFFC00002030B58DB003468DF898
:1006E00007301A4B02AC1D460FCD0FC495E80F0022
:1006F00084E80F00062302934FF0FF3303934FF07B
:10070000FF3304934FF0FF3305934FF0EB730893DF
:100710009DF80730002B01D00D4A00E0002202AB0B
:1007200019460C4802F03AF90B900B9B0A930A9B6E
:10073000002B04D0084A43210A9801F07DF8074AAB
:100740009DF80730137000BF0DB030BD985C0000FD
:10075000C106000000000020385C0000FD00002001
:1007600000B583B001238DF807309DF80730184697
:10077000FFF7B2FF00BF03B05DF804FB00B589B01E
:10078000039002910192019B8DF81F30124B0022C1
:100790001A709DF81F301A4602991048FFF75EFF45
:1007A0000690069B0593059B002B04D00C4A532111
:1007B000059801F041F800BF0A4B1B78002B07D0C9
:1007C000054B1B78DBB283F00103DBB2002BF3D1C6
:1007D00000BF09B05DF804FBFC0000200000002011
:1007E000385C0000FD00002000B585B00390029148
:1007F000054B00934023054A02990398FFF77AFEC0
:1008000000BF05B05DF804FB7D070000BC000020C0
:1008100082B0019000BF02B07047000000B583B005
:1008200001900548FFF7F8FE0020FFF755FF00BFD5
:1008300003B05DF804FB00BF0000002082B001900F
:10084000019BDB6801225A7100BF02B070470000B3
:1008500000B583B04FF0FF330193FFF7E6FD0421AD
:10086000114800F09FFD0190019B002B03DA0F4916
:10087000412001F0D4F80C48FFF7E0FFFFF770FFCC
:1008800004210B4800F08EFD0190019B002B03DA40
:100890000649482001F0C3F80548FFF7CFFF00BF25
:1008A00003B05DF804FB00BFE45B0000E85C0000FF
:1008B000F45B000000B583B001900091019B1B68C0
:1008C0001B6800990198984700BF03B05DF804FBCE
:1008D00000B583B00190019B1B685B680198984745
:1008E00000BF03B05DF804FB00B583B00190019B2D
:1008F0001B689B680198984700BF03B05DF804FB34
:1009000082B001900B468DF80330019BDB689DF8A7
:1009100003201A7100BF02B0704782B00190019BA2
:10092000DB681B79184602B0704782B00190019BCA
:10093000DB6801225A7100BF02B0704782B001909B
:10094000019BDB685B79184602B0704700B585B043
:10095000019000910C4B00221A700C4801F0D2FD5E
:100960000390039B002B01D0039B08E0084801F093
:100970005FFF084A084BD31ADB080293002318468E
:1009800005B05DF804FB00BF68020020045C0000B5
:100990004C5D0000E45B0000A45B0000024A034BD6
:1009A000D31ADB0818467047E45B0000A45B000024
:1009B00000B587B001900B468DF803309DF80330E9
:1009C000002B1FD0FFF7EAFF04900023059313E0EC
:1009D000059B9B000E4A13440393039B1B881A46F6
:1009E000019B1B689A4204D1019B059A1A6000235F
:1009F00009E0059B01330593059A049B9A42E7D3CE
:100A0000052300E00023184607B05DF804FB00BF93
:100A10000000002000B585B001900B468DF8033032
:100A20009DF8032001AB11461846FFF7C1FF0346AE
:100A3000002B07D1019BDB00054A13440393039B62
:100A40001B6800E00023184605B05DF804FB00BFFA
:100A5000A45B000084B001900B468DF80330019B2D
:100A6000DB00174A134402939DF80330013B032B2C
:100A70001CD801A252F823F0890A0000910A000054
:100A8000990A0000A30A000002238DF80F3011E03C
:100A900004238DF80F300DE0029B1B798DF80F3089
:100AA00008E0029B5B798DF80F3003E000238DF89E
:100AB0000F3000BF9DF80F30184604B0704700BFDC
:100AC000A45B000084B00190009100238DF80F30EA
:100AD000019B1B7803F00403DBB2002B24D0019BA5
:100AE0001B78C3F30103DBB2012B02D0022B0CD025
:100AF00017E0009B1B68019A1288C2F38312D2B2DE
:100B000013449A1C009B1A600BE0009B1B68019A1F
:100B10005288C2F3891292B213449A1C009B1A6045
:100B200000BF01238DF80F309DF80F30184604B038
:100B30007047000000B58BB00023ADF826303E486A
:100B400000F0FAFF3D4800F0F7FF3D4B9B6804932F
:100B50003C4B1B680693049A069B134002339B0090
:100B6000374A13440433089304AB19460898FFF737
:100B7000A9FF0346002B09D0049A069B13400233B9
:100B80009B002F4A134404330893EDE700BF002372
:100B9000079311E0049B5A1C0492069A1340079A8B
:100BA000920001A90A44264902339B000B445B686A
:100BB0001360079B01330793079B012BEAD99DF82C
:100BC0000430C3F30103DBB2012B10D0022B1CD184
:100BD000BDF80A30ADF82630BDF80630C3F38913EE
:100BE0009BB203339A08049B1344049313E0BDF8AB
:100BF0000A30ADF82630BDF80430C3F38313DBB2FE
:100C00001A46049B1344049305E00F494FF4C27045
:100C100000F005FF00BF094800F09AFF0590059B12
:100C2000002B02D0049B064A9360BDF8263018467C
:100C30000BB05DF804FB00BF800600207C0600209E
:100C400068020020240000205C5D000000B585B033
:100C50000021074800F0F9FE0390039B0293029BDA
:100C600083F310030193019B184605B05DF804FB64
:100C70008406002000B589B0039002910192009390
:100C8000039B1B0C0793FFF7E1FF0690FFF786FE1F
:100C90000246079B934204D3214940F2A91000F079
:100CA000BEFE069B1904009B5A1C0A9B1340079A20
:100CB0000A431C4902339B000B445A60009A0A9B6A
:100CC000134002339B00174A134404330593039BDC
:100CD00003F00703D9B2059A137861F3C5031370C3
:100CE000019B03F00F03D9B2059A138861F38913AE
:100CF0001380029BC3F31501059A136861F39F23C8
:100D00001360059A1378012161F301031370059AAA
:100D100013786FF38203137000BF09B05DF804FB12
:100D20005C5D00006802002000B58BB0039002916A
:100D300013468DF80730039B0233089301238DF887
:100D40001F30002000F024FE3E4B5A68029B1A60C0
:100D50003D4B1A683B4B99683A4B5B68CB1A13447E
:100D60000133099314E00121384800F0B5FEFFF784
:100D7000E1FE05900599354800F0AEFE324B1A6849
:100D8000304B99682F4B5B68CB1A1344013309939E
:100D9000089A099B9A42E6D89DF81F30002B48D04C
:100DA000002304939DF80730002B17D09DF81030D6
:100DB000012262F301038DF810309DF8103043F0EA
:100DC00004038DF81030039B03F00F03DAB2BDF873
:100DD000103062F38913ADF8103016E09DF8103032
:100DE000022262F301038DF810309DF8103043F0B9
:100DF00004038DF81030039BC3F309039AB2BDF8C6
:100E0000123062F38F13ADF812300E4B5A680E4B4E
:100E10001B68134002339B000A4A134404330693B1
:100E2000049A069B1A60074B5A68089B1344054AAC
:100E30005360002000F0C0FD9DF81F3018460BB035
:100E40005DF804FB680200202400002084060020D6
:100E500000B58BB005900491039202931F4B1B6861
:100E6000079306AB012219460298FFF75DFF034680
:100E7000002B24D0069B023309930023089311E032
:100E8000089B9B00039A1A44099B591C09910799D6
:100E90000B401268124902339B000B445A60089BB6
:100EA00001330893089A029B9A42E9D3069A079B5A
:100EB00000931346029A04990598FFF7DBFE084B4E
:100EC0001B78002B05D000BF00F068F80346002B0C
:100ED000FAD100BF0BB05DF804FB00BF2400002076
:100EE0006802002000B583B0019000910023002229
:100EF00000990198FFF7ACFF00BF03B05DF804FB59
:100F000000B587B0039002910192019B059305AA59
:100F1000012302990398FFF79BFF00BF07B05DF81C
:100F200004FB00B587B00390029101920093019BEE
:100F30000493009B059304AA022302990398FFF7E8
:100F400087FF00BF07B05DF804FB00B58BB00390CE
:100F5000029101920093019B0593009B06930C9BC9
:100F600007930D9B08930E9B099305AA05230299ED
:100F70000398FFF76DFF00BF0BB05DF804FB0000A6
:100F8000054B9A68044B5B689A420CBF012300230F
:100F9000DBB21846704700BF6802002000B599B068
:100FA000FFF7EEFF0346002B01D00023B9E19B4B76
:100FB0000022C3F81824BFF34F8F00BF974B9B68E4
:100FC0000493974B1B681093049A109B13400233B1
:100FD0009B00924A13440433119300231793002378
:100FE000169300230F9304AB19461198FFF76AFD7F
:100FF0000346002B19D0894BD3F81834002B14D199
:10100000864B5A68049B9A4205D8844B5B68834A96
:101010009360002385E1049A109B134002339B00E8
:101020007E4A134404331193DDE70023159311E046
:10103000049B5A1C0492109A1340159A920001A91D
:101040000A44764902339B000B445B681360159B8E
:1010500001331593159B012BEAD99DF8043003F059
:101060000303DBB2022B40F09C80BDF80630C3F3D3
:1010700089139BB20D93BDF80630C3F389139BB25D
:10108000502B28BF50239BB20C930C9BC3F3090336
:101090009AB2BDF8063062F38F13ADF806300C9BA0
:1010A00008330B939DF80430C3F3C203DBB20F93F4
:1010B0000B995C4801F031FA1790179B002B00F058
:1010C000D380179801F0BAFA01A9169B0822179845
:1010D00001F070FB169B08331693049BDA43109BB8
:1010E000134001339B000A930C9A0A9B9A4242D9FF
:1010F0000A9B002B08D0049A109B134002339B00DC
:10110000464A1344043300E0474B08930A9B002BE4
:1011100002D00A9BDBB201E00C9BDBB28DF81F30E2
:101120000A9B002B01D0404B00E0002306930A9B52
:10113000002B06D00C9BDAB20A9BDBB2D31ADBB2CF
:1011400000E000238DF817309DF81F20169B0899AA
:10115000179801F02FFB9DF81F30169A1344169331
:10116000069B002B16D09DF81720169B0699179802
:1011700001F020FB0EE0049A109B134002339B0009
:10118000264A134404330993169B0C9A099917981D
:1011900001F010FB0D9B03339A08049B1344049346
:1011A00062E09DF8043003F00303DBB2012B5BD156
:1011B000BDF80430C3F38313DBB2062B28BF06232C
:1011C000DAB2BDF8043062F38913ADF80430BDF82B
:1011D0000430C3F38313DBB202330E939DF8043063
:1011E000C3F3C203DBB20F930E9B9B0019460D485D
:1011F00001F093F91790179B002B35D0179801F049
:101200001DFA01A9169B0822179801F0D3FA169B24
:1012100008331693002315931DE000BF68020020D9
:1012200024000020045C000074020020049B5A1C6F
:101230000492109A134002339B003C4A1344191D38
:10124000169B0422179801F0B5FA169B04331693E7
:10125000159B01331593BDF80430C3F38313DBB240
:101260001A46159B9342E1D3179B002B39D02F4B85
:10127000D3F8103414932D4BD3F81834002B1BD013
:10128000179801F0EAF946E000238DF84F301498E2
:10129000FFF754FB0346002B02D001238DF84F309B
:1012A0009DF84F30002B03D017991498FFF702FBDD
:1012B000149BDB681B681493149B002BE4D11798D4
:1012C00001F0CBF9002000F063FB184BD3F8183481
:1012D000002B02D1049B154A9360002000F06CFBA8
:1012E00019E0124BD3F81034129306E01298FFF76E
:1012F000FBFA129BDB681B681293129B002BF5D143
:101300000B4A0C4BD31ADB081B0443F002030A49B7
:101310001846FFF7E7FDFFF733FE034683F00103AE
:10132000DBB2184619B05DF804FB00BF680200206C
:10133000D45B0000A45B0000B85D000000B585B080
:101340000023039323E0164BD3F8103402930123B8
:101350008DF807300FE00298FFF7DFFA03461A46D0
:10136000039B934203D100238DF8073006E0029BD4
:10137000DB681B680293029B002BECD19DF80730C1
:10138000002B01D0039B07E0039B01330393039BD6
:10139000092BD8DD4FF0FF33184605B05DF804FB8C
:1013A0006802002000B585B001900B468DF803302F
:1013B000FFF7C4FF0390039BB3F1FF3F01D1039BF1
:1013C00022E0039BDBB219460198FFF799FA104B14
:1013D000D3F81034002B08D10D4A019BC2F8103409
:1013E000019BDB6800221A600DE0094BD3F8103432
:1013F000DA68019BDB6812681A60054BD3F8103479
:10140000DB68019A1A60039B184605B05DF804FB7F
:101410006802002000B583B00C4BD3F81034019360
:101420000A4B01221A7009E00198FFF77EFA019831
:10143000FFF74EFA019BDB681B680193019B002BB1
:10144000F2D100BF00BF03B05DF804FB68020020CA
:1014500082B00190009100BF02B0704710B584B017
:1014600003900291039BDB88002B0AD0039BDB884F
:101470001A461F4B009313461E4A1F49029800F05C
:1014800095FC039B1B7A052B2ED0039B5B7A002BCC
:1014900012D0039B9B881A46039B1B7A1946104661
:1014A000FFF7D8FA03461A46144B53F822301A466F
:1014B0001349029800F07AFC039B1B6819460298B6
:1014C000FFF7C6FF039B1B7A1A460E4B53F82240C8
:1014D000039B9B8800211846FFF79CFA034622468F
:1014E0000949029800F062FC00BF04B010BD00BFC3
:1014F000EC5D0000FC5D0000345E00003C0000205C
:101500004C5E000028000020505E000000B585B051
:101510000390029113468DF80730039B1B7A052B2D
:101520000FD0039B5B7A002B06D00D4B1B681A462D
:101530000C49029800F03AFC0B49029800F036FC86
:1015400007E09DF80730002B03D00749029800F010
:101550002DFC029800F008FC00BF05B05DF804FB0C
:101560003C0000204C5E00005C5E000030B58BB09B
:1015700007900691059204930E9B1B7B8DF82730F4
:101580000E9B00221A730E990498FFF767FF059BC4
:10159000062B7FD801A252F823F000BFB915000036
:1015A000C3150000D3150000E71500000516000064
:1015B0002D1600005D16000007990E9800F0F6FB4E
:1015C00069E0069B1B681A4607990E9800F0EEFB2F
:1015D00061E0069B1A68069B04331B6807990E9806
:1015E00000F0E4FB57E0069B1A68069B0433196879
:1015F000069B08331B6800930B4607990E9800F072
:10160000D5FB48E0069B1968069B04331868069BC7
:1016100008331B68069A0C32126801920093034645
:101620000A4607990E9800F0C1FB34E0069B186843
:10163000069B04331C68069B08331B68069A0C3211
:1016400012680699103109680291019200932346AD
:10165000024607990E9800F0A9FB1CE0069B1C6847
:10166000069B04331D68069B08331B68069A0C32E0
:1016700012680699103109680698143000680390C2
:101680000291019200932B46224607990E9800F092
:101690008DFB00E000BF00220E990498FFF736FF93
:1016A0000E9B9DF827201A7300BF0BB030BD00BF02
:1016B00000B587B00390029101920093029B082B22
:1016C00060D8009B1B7B8DF81330009B00221A739F
:1016D00000990198FFF7C2FE0023059314E0059AD4
:1016E000029B9A4209D2039A059B13441B781A461F
:1016F0002649009800F05AFB03E02549009800F0C5
:1017000055FB059B01330593059B072BE7D9214921
:10171000009800F04BFB0023059326E0059A029BFE
:101720009A421BD2039A059B13441B788DF8123002
:101730009DF812307E2B0AD89DF81230184604F01E
:10174000D3F90346002B02D09DF8123000E02E237F
:101750001A461149009800F029FB03E00F49009850
:1017600000F024FB059B01330593059B072BD5D97E
:10177000012200990198FFF7C9FE009B9DF81320F4
:101780001A7300E000BF07B05DF804FB605E000064
:10179000685E00006C5E0000705E0000745E000019
:1017A00086B003900291019201238DF817309DF8C5
:1017B0001730204A039B13601E4A029B53601D4A48
:1017C000019B9360039B44F20102934212D0039B5E
:1017D00044F20202934220D1019B164AD360154B7A
:1017E000DB681B68134A9361124BDB685B68114A24
:1017F000D36112E0019B0F4A13610E4B1B699B687A
:101800000C4A53610B4B1B691B680A4A9361094BD5
:101810001B695B68074AD36100BF72B600BF00BF97
:101820009DF81730DBB2002BFAD162B600BF00BFC3
:1018300006B070478806002000B583B00290009182
:10184000019244F2010071466A4600F003F803B0C9
:1018500000BD00BF30B58BB007900691059272B6FF
:1018600000BFFFF7D7FD00BFFFF798FB0346002B33
:10187000FAD1079B44F20102934216D0079B44F22F
:10188000020293423ED1059B09932C4A2C4BD31A5A
:10189000DB081B0443F00100099B5B681A46099BA7
:1018A0001B682849FFF73DFB39E0059B0893234A55
:1018B000234BD31ADB081B0443F00104089B9D68EB
:1018C000089B9B68184600F0D1FF03461846089B0A
:1018D0005B681946089B1B68069A02920193009167
:1018E00003462A4618492046FFF72FFB134A144B9C
:1018F000D31ADB081B0443F0010314491846FFF711
:10190000F1FA0CE00D4A0E4BD31ADB081B0443F02E
:101910000103069A0E491846FFF7F2FA00BF0D4B75
:101920001B6803F00103002B00D000BE059A069946
:101930000798FFF735FF00BF0BB030BDD45B000048
:10194000A45B0000785E0000945E0000BC5E0000B6
:10195000D05E0000F0ED00E072B600BF034B1B68E4
:101960000133024A136000BF704700BFA806002081
:10197000064B1B68013B054A1360044B1B68002B98
:1019800001D162B600BF00BF704700BFA8060020AB
:1019900000B583B0019000F025F80346012B03D079
:1019A0000449432000F03BF8FFF7D6FF00BF03B027
:1019B0005DF804FBE85E000000B583B003468DF8D7
:1019C000073000F00FF80346012B03D004495120E3
:1019D00000F025F8FFF7CCFF00BF03B05DF804FB73
:1019E000E85E000084B0EFF305830193019BC3F32D
:1019F00008030393039B002B0DD1EFF31483009393
:101A0000009B0293029B03F00103002B0CBF0123F8
:101A10000023DBB200E00123184604B0704700B594
:101A200085B003460091ADF80630BDF8063002934C
:101A3000009B039302AB1A46002144F20200FFF719
:101A400009FF00BF05B05DF804FB10B487B001903A
:101A50000091019B009A53E8004F104643E80001B3
:101A600091F0000FF7D1059404900391059B18465F
:101A700007B05DF8044B704710B487B00190009137
:101A8000019B009A53E8004F44EA020043E800013A
:101A900091F0000FF6D1059404900391049B184631
:101AA00007B05DF8044B704710B487B00190009107
:101AB000019B009A53E8004F04EA020043E800014A
:101AC00091F0000FF6D1059404900391059B184600
:101AD00007B05DF8044B704710B487B001900091D7
:101AE000019B009A53E8004F04EB020043E8000119
:101AF00091F0000FF6D1059404900391049B1846D1
:101B000007B05DF8044B704710B487B001900091A6
:101B1000019B009A53E8004FA4EB020043E8000148
:101B200091F0000FF6D1059404900391049B1846A0
:101B300007B05DF8044B704700B583B001900121F8
:101B40000198FFF799FF0346184603B05DF804FBC0
:101B500000B583B0019000210198FFF7A5FF03466F
:101B6000184603B05DF804FB00B583B001900B4646
:101B70008DF80330019B002B03D10849E820FFF7C3
:101B80004EFF019BDA689DF803300199098A01FB39
:101B900003F31344184603B05DF804FB405F0000F4
:101BA00000B583B001900091019B002B03D108493F
:101BB000F520FFF734FF009B019AD2689B1A019A27
:101BC000128AB3FBF2F3DBB2184603B05DF804FBF4
:101BD000405F000000B585B00190019B002B01D152
:101BE0000E234CE0019B1B68002B03D12649FF20EC
:101BF000FFF715FF019B5B68002B04D122494FF4CE
:101C00008070FFF70CFF019B9B68002B04D11E49DD
:101C100040F20110FFF703FF019BDB68002B04D1AA
:101C200019494FF48170FFF7FAFE019B1B8A002BC4
:101C300004D1154940F20310FFF7F1FE019B9A68A9
:101C4000019B5B68D31A8DF80F30019B1B68019ACA
:101C500052681A6007E0019B1A681368591C1160EA
:101C60009DF80F201A709DF80F305A1E8DF80F2026
:101C7000002BF0D1019B1B6800221A71002318462B
:101C800005B05DF804FB00BF405F000000B585B003
:101C90000190019B002B04D11C494FF49270FFF777
:101CA000BEFE002303930020FFF772FE019B1B681A
:101CB0001A68019B5B689A421FD9019B1B681A68CE
:101CC000013A1A601B681B7819460198FFF74CFF10
:101CD0000390019B9A68019B1B681B68D31A8DF8BF
:101CE0000B30019B1B681B799DF80B209A4204D98D
:101CF000019B1B689DF80B201A710020FFF75CFE0A
:101D0000039B184605B05DF804FB00BF405F000070
:101D100010B584B001900091019B002B04D11149B2
:101D200040F24710FFF77BFE009B002B04D10D49CA
:101D30004FF4A470FFF773FE009B03930020FFF79E
:101D400027FE019B1B681C68621C1A60039901989E
:101D5000FFF726FF034623700020FFF72DFE00BF8C
:101D600004B010BD405F000000B583B00190019B3E
:101D7000002B03D10C493120FFF751FE019B9B68DA
:101D8000002B0CD0019B5B69019A1069019A1168C4
:101D9000019A92689847019B00229A6000E000BF78
:101DA00003B05DF804FB00BF945F00000EB400B503
:101DB00084B00190019B002B03D118494220FFF70A
:101DC0002EFE019B5B69002B03D114494320FFF7D2
:101DD00026FE019B1B68002B03D110494420FFF70E
:101DE0001EFE019B5B68002B03D10C494520FFF7C9
:101DF00016FE059B002B0AD00023039306AB03932A
:101E000003AB1A460599019800F0B8F900E000BF4D
:101E100004B05DF804EB03B0704700BF945F0000AE
:101E200000B583B001900B468DF803309DF8033068
:101E30000A2B03D10D210198FFF7F2FF019B1A68CD
:101E4000019B9B68581C0199886013449DF80320EE
:101E50001A70019B9A68019B5B689A4202D30198B1
:101E6000FFF782FF00BF03B05DF804FB00B587B049
:101E7000039002910192009300230593009B03F0CD
:101E80000103002B24D00BE0029B01330293059B3E
:101E9000013305939DF8133019460398FFF7C0FFEF
:101EA000029B1B788DF813309DF81330002BEBD17B
:101EB00006E0019B013B019320210398FFF7B0FF4F
:101EC000019A059B9A422ED9019B002BF1D12AE061
:101ED000029B002B0BD0029803F034FE059006E025
:101EE000019B013B019320210398FFF799FF019A81
:101EF000059B9A420FD9019B002BF1D10BE0029B6D
:101F000001330293059B013305939DF81330194665
:101F10000398FFF785FF029B1B788DF813309DF81F
:101F20001330002BEBD100BF07B05DF804FB0000BD
:101F300000B589B00390029101920093029B079330
:101F40000123069307E0079A019BB2FBF3F3079383
:101F5000069B01330693079A019B9A42F3D2009A9B
:101F6000069B9A4201D9009B06930B9B03F0010349
:101F7000002B22D10A9B002B1FD00B9B03F00203E6
:101F8000002B06D0009B002B03D130238DF8173097
:101F900002E020238DF8173008E00A9B013B0A93EA
:101FA0009DF8173019460398FFF73AFF0A9B002B5C
:101FB00003D0069A0A9B9A42EFD301230793009B12
:101FC000012B03D9009B013B009309E0029A079B78
:101FD000B2FBF3F30493049A019B9A4200D205E00A
:101FE000079B019A02FB03F30793E8E7029A079B1A
:101FF000B2FBF3F30493049B079A02FB03F3029AE8
:10200000D31A0293154A049B13441B78194603986C
:10201000FFF706FF079A019BB2FBF3F30793079BB9
:10202000002BE3D10B9B03F00103002B11D00A9B83
:10203000002B0ED006E00A9B013B0A932021039857
:10204000FFF7EEFE0A9B002B03D0069A0A9B9A42EA
:10205000F1D300BF09B05DF804FB00BF2C600000A5
:1020600000B589B00590049103920293049B002B64
:10207000B8BF5B4206930123079307E0039B069AD0
:1020800092FBF3F30693079B01330793039B069A96
:102090009A42F3DA029A079B9A4201D9029B07936C
:1020A0000A9B002B0AD0049B002B04DB0B9B03F044
:1020B0000403002B02D00A9B013B0A930B9B03F005
:1020C0000203002B02D0029B002B16D00B9B03F0C7
:1020D0000103002B11D10A9B002B0ED006E00A9BB6
:1020E000013B0A9320210598FFF79AFE0A9B002BDB
:1020F00003D0079A0A9B9A42F1D3049B002B07DA7C
:10210000049B5B4204932D210598FFF789FE08E0AC
:102110000B9B03F00403002B03D02B210598FFF742
:102120007FFE0B9B03F00203002B19D00B9B03F0E7
:102130000103002B14D1029B002B11D10A9B002B11
:102140000ED006E00A9B013B0A9330210598FFF769
:1021500067FE0A9B002B03D0079A0A9B9A42F1D391
:1021600004990B9B01930A9B0093029B039A059889
:10217000FFF7DEFE00BF09B05DF804FB00B58FB0CD
:10218000059004910392059B002B04D1AD4940F2C8
:102190005220FFF744FC059B5B69002B04D1A94941
:1021A0004FF41570FFF73BFC059B1B68002B04D117
:1021B000A44940F25520FFF732FC059B5B68002BD9
:1021C00004D1A04940F25620FFF729FC049B002BC4
:1021D00000F09381049B1B788DF83730049B01330A
:1021E00004939DF83730002B00F07E819DF8373046
:1021F000252B40F06D8100230A9301230C93049B4F
:102200001B788DF837309DF83730302B0DD0302BC0
:102210001BDC2B2B11D02D2B17D10A9B43F0010374
:102220000A93049B0133049312E00A9B43F00203D8
:102230000A93049B013304930AE00A9B43F00403CE
:102240000A93049B0133049302E000230C9300BF24
:102250000C9B002BD3D1002309939DF837302A2BF8
:102260000CD1039B1B68191D039A11601B68099A06
:1022700013440993049B013304931AE0049B1B78D5
:102280008DF837309DF837302F2B12D99DF8373025
:10229000392B0ED8049B01330493099A13469B00F3
:1022A00013445B001A469DF837301344303B0993C2
:1022B000D3E700230B93049B1B788DF837309DF8F0
:1022C00037302E2B1DD1049B01330493049B1B78C4
:1022D0008DF837309DF837302F2B12D99DF83730D5
:1022E000392B0ED8049B013304930B9A13469B00A1
:1022F00013445B001A469DF837301344303B0B9370
:10230000E4E7049B1B788DF837309DF837306C2B51
:1023100003D09DF83730682B07D1049B0133049319
:10232000049B1B788DF83730EFE79DF83730252B6D
:1023300000F0C480252BC0F2C680782B00F3C38048
:10234000582BC0F2C080583B202B00F2BC8001A269
:1023500052F823F049240000C7240000C7240000DD
:10236000C7240000C7240000C7240000C7240000C1
:10237000C7240000C7240000C7240000C7240000B1
:10238000D9230000FB230000C7240000C72400005D
:10239000C7240000C7240000FB230000C72400005E
:1023A000C7240000C7240000C7240000C724000081
:1023B000C724000089240000C7240000C7240000AF
:1023C0006D240000C72400001F240000C724000063
:1023D000C724000049240000039B1B68191D039AB1
:1023E00011601B680C930C9B8DF81F309DF81F30FB
:1023F00019460598FFF714FD66E0039B1B68191D3D
:10240000039A11601B680C930A9B0193099B00932C
:102410000B9B0A220C990598FFF722FE54E0039BC0
:102420001B68191D039A11601B680C930C990A9B79
:102430000193099B00930B9B0A220598FFF778FDF7
:1024400042E000BFDC5F0000039B1B68191D039A7C
:1024500011601B680C930C990A9B0193099B0093D4
:102460000B9B10220598FFF763FD2DE0039B1B6873
:10247000191D039A11601B6808930A9B099A089911
:102480000598FFF7F3FC1FE0039B1B68191D039AD7
:1024900011601B680C9330210598FFF7C1FC78216F
:1024A0000598FFF7BDFC0C990023019308230093C6
:1024B000082310220598FFF73BFD05E0252105982C
:1024C000FFF7AEFC00E000BF049B0133049305E07E
:1024D0009DF8373019460598FFF7A2FC049B1B783E
:1024E000002B7FF477AE00E000BF059B1B7B002B29
:1024F00004D00598FFF738FC00E000BF0FB05DF88E
:1025000004FB00BF00B583B001900198FFF762FBA8
:102510000346184603B05DF804FB00B58BB001908C
:102520000091019B1B8A043B0793009A079B13446D
:10253000DA1C079BB2FBF3F38DF81B300198FFF711
:10254000A5FB0590059B002B01D1002338E0059BDE
:1025500000221A71059B01225A71079B9AB2059BB2
:10256000DA80059B09939DF81B30013B0493099B7E
:10257000019A1A60002308931DE00198FFF786FB7B
:102580000390039B002B0ED0059B5B790133DAB2DD
:10259000059B5A71099B039A1A60039B019A1A6062
:1025A000039B099304E0059800F00EF8002307E070
:1025B000089B01330893089A049B9A42DDD3059B3C
:1025C00018460BB05DF804FB00B58BB00190019B81
:1025D0000793079B5B798DF81B30019B08939DF84F
:1025E0001B30013B05930023099305E0089B1B6802
:1025F0000893099B01330993099A059B9A42F5D3E5
:10260000089B1B680493019B0893002309930BE02C
:10261000089B1B68039308990498FFF779FB039BB9
:102620000893099B013309939DF81B30099A9A423C
:10263000EED300BF00BF0BB05DF804FB00B585B062
:102640000190019B0393039B043301211846FFF77C
:1026500043FA00BF05B05DF804FB00B587B00190F8
:10266000019B0593059B043301211846FFF74CFAA3
:102670000346039303AB0493049B1B78002B02D106
:102680000198FFF7A1FF00BF07B05DF804FB000051
:1026900000B591B00390029101920093039B002B2F
:1026A00003D14349B620FFF7BAF9039B0993039B73
:1026B0000F93099BDB881A46099B5B7902FB03F3A6
:1026C000043B0893009A089B9A4203D33849C420DC
:1026D000FFF7A5F9099BDB880793009B1A1D079B51
:1026E000B2FBF3F30E93009B0433079AB3FBF2F2B1
:1026F000079901FB02F29B1A0D93019B1A68009B3C
:102700001344089A9A4203D2089A009BD31A01E014
:10271000019B1B680C93019B0C9A1A6005E00F9BB0
:102720001B680F930E9B013B0E930E9B002BF6D163
:1027300000230B93079A0D9BD31A0A930A9A0C9BBA
:10274000934228BF13460A932AE0029A0B9B134434
:1027500006930F9A0D9B1344043305939DF848305C
:10276000002B05D00A9A0599069803F0C2F904E0F7
:102770000A9A0699059803F0BCF900230D930F9B64
:102780001B680F930C9A0A9BD31A0C930B9A0A9B03
:1027900013440B93079A0C9B934228BF13460A934A
:1027A0000C9B002BD1D100BF00BF11B05DF804FB22
:1027B0003C60000000B589B005900491039202933B
:1027C000039B079307AA00230093029B0499059893
:1027D000FFF75EFF079B039A9A4203D00349F62056
:1027E000FFF71DF900BF09B05DF804FB3C60000075
:1027F00000B589B00590049103920293039B07935F
:1028000007AA01230093029B04990598FFF740FF54
:10281000079B039A9A4204D004494FF48070FFF753
:10282000FEF800BF09B05DF804FB00BF3C6000008B
:1028300082B00190019B9B6800229A60019B9B687B
:1028400000221A61019B9B6800225A61019B9B68D0
:102850000022DA60019B9B6800225A60019B9B6802
:1028600000221A6000BF02B07047000000B585B0BA
:102870000190019800F00EF80390039B002B01D00B
:10288000039B00E0024B184605B05DF804FB00BF57
:102890008061000086B00190164B0593164B04939F
:1028A0001FE0049A059BD31ADB10DA0F13445B1068
:1028B000DB00059A13440393039B1B680293029A5F
:1028C000019B9A4202D9039B04930AE0029A019B5E
:1028D0009A4203D2039B0833059302E0039B5B6893
:1028E00004E0059A049B9A42DBD30023184606B005
:1028F000704700BF80650000A866000000B589B081
:1029000001900091009B0793019B1B788DF80C3080
:10291000019B5B680493019B9B68DBB28DF81430CC
:10292000019BDB680693074A079B52F82330064950
:10293000079A51F8221003AA1046984700BF09B021
:102940005DF804FBAC060020B006002000B589B09D
:1029500001900091009B0793019B1B788DF80C3030
:10296000019B5B680493019B9B68DBB28DF814307C
:10297000019BDB680693074A079B52F82330064900
:10298000079A51F8221003AA1046984700BF09B0D1
:102990005DF804FBAC060020B006002030B58FB017
:1029A000039002910192039B1B780C9326490C9B88
:1029B000019A41F82320029B1A6924490C9B41F893
:1029C0002320029B5B7F1946214A0C9B13440A4635
:1029D0001A70029B04AC1D460FCD0FC495E80F0082
:1029E00084E80F000C9B089300230D93039B1B7836
:1029F0001A46174B9B5C002B0DD0039B181D019BA7
:102A0000002B01D0134A00E0002204AB194601F06C
:102A10006DFF0D9014E0039B1B781A460C4B9B5CDA
:102A2000002B0DD1039B03F10C00019B002B01D067
:102A3000094A00E0002204AB194601F0F1F80D90BC
:102A40000D9B18460FB030BDAC060020B00600202C
:102A5000B4060020FD2800004D29000008B5064BF3
:102A60001B68002B03D105495120FEF7D8FF024B0C
:102A70001B68984700BF08BDB8060020B06600007C
:102A800082B00190019B044A934201D1034B00E0C4
:102A90000023184602B0704700200040B80600200E
:102AA00000B587B001900091019B002B03D118491C
:102AB0007720FEF7B4FF0198FFF7E2FF0590059B32
:102AC000002B1ED000238DF813300020FEF760FF8E
:102AD000059B1B79002B03D001238DF8133005E0F3
:102AE000059B009A1A60059B01221A710020FEF7CF
:102AF00063FF9DF81330002B03D011230393039B36
:102B000002E000230393039B184607B05DF804FB23
:102B1000B066000000B585B00190019B002B03D189
:102B20000A499B20FEF77BFF0198FFF7A9FF03905E
:102B3000039B002B05D0039B00221A60039B0022FD
:102B40001A7100BF05B05DF804FB00BFB06600005D
:102B500082B003468DF807309DF90730002B0CDB5F
:102B60009DF8073003F01F0205499DF907305B0906
:102B7000012000FA02F241F8232000BF02B07047A2
:102B800000E100E082B0034600918DF807309DF926
:102B90000730002B0ADB009BDAB20C499DF90730A5
:102BA0005201D2B20B4483F800230BE0009BDAB24F
:102BB00007499DF8073003F00F03043B5201D2B2DE
:102BC0000B441A7600BF02B0704700BF00E100E07E
:102BD00000ED00E000B583B003460A468DF80730EB
:102BE00013468DF806309DF80630072B03D90849A7
:102BF0006B20FEF714FF9DF806209DF90730114663
:102C00001846FFF7BFFF00BF03B05DF804FB00BF2D
:102C10000467000000B583B003468DF807309DF9C6
:102C200007301846FFF794FF00BF03B05DF804FBC0
:102C300000B585B00190019B002B0AD0074B43F0F3
:102C400001030393019B9B010293039B0298984706
:102C500000E000BF05B05DF804FB00BFC0670000E6
:102C600082B003468DF807309DF8073003F18043AA
:102C700003F5E04301221A6000BF02B0704782B042
:102C80000346ADF80630BDF8063003F1804303F586
:102C9000E0431B68002B14BF01230023DBB218465E
:102CA00002B0704784B00346ADF80630BDF8063078
:102CB00003F1804303F5E04300221A60BDF80630BB
:102CC00003F1804303F5E0431B680393039B00BFBC
:102CD00004B0704782B003468DF807300B468DF87C
:102CE000063013468DF805300A499DF807309DF8E7
:102CF000052051331B010B4404331A6005499DF82C
:102D000007309DF8062051331B010B441A6000BFA9
:102D100002B070470070004082B00190034A019BEE
:102D2000C2F8043300BF02B0704700BF007000401B
:102D300082B00190034A019BC2F8083300BF02B081
:102D4000704700BF00700040024B0122C3F800250D
:102D500000BF704700700040024B0022C3F80025FE
:102D600000BF70470070004082B001900091054A9A
:102D7000019BC2F82C36034A009BC2F8303600BFD4
:102D800002B070470070004082B003468DF80730F3
:102D9000034A9DF80730C2F8F03500BF02B0704713
:102DA0000070004082B003468DF80730034A9DF85A
:102DB0000730C2F8F43500BF02B070470070004021
:102DC000024BD3F8F435DBB2184670470070004070
:102DD00000B583B0034600918DF80730009B1B7847
:102DE00003F00302009B5B781B0103F030031A43DE
:102DF000009B9B781B0203F4E0631A43009BDB7883
:102E00001B0303F480531A43009B1B791B0403F438
:102E1000E0231A43009B5B791B0503F4801342EA0D
:102E20000301009B9B791B0603F080720A489DF802
:102E300007300A431B01034403F5A3631A60009B98
:102E4000D979009B1A7A9DF807301846FFF742FFA0
:102E500000BF03B05DF804FB0070004000B58FB008
:102E60004FF48270FFF70BFF0346002B46D04FF460
:102E70008270FFF717FF904B93F82E3083F0010319
:102E8000DBB2002B04D18C4B93F82F30002B35D0C4
:102E900000238DF81C30884B5B680893864B1B8998
:102EA0009BB2ADF82430844BDB68002B03D1824BFE
:102EB00000221A7419E0804B1A8B7F4B5A837E4B89
:102EC000DB687D4A53607C4B1A8B7B4B1A817A4BB3
:102ED0000022DA60784B93F82E3083F00103DBB2E6
:102EE000002B02D00020FFF7BBFE734B1B6807AA24
:102EF00010469847704B002283F82F206E4B93F8B2
:102F00002E30002B62D04FF48070FFF7B8FE0346DE
:102F1000002B5BD04FF48070FFF7C4FE664B5A8BDA
:102F2000654B93F82D309BB29A421CD9624B5A8B59
:102F3000614B93F82D309BB2D31A9AB25E4B5A83F1
:102F40005D4B5A685C4B1B899BB219465A4B5B8B95
:102F5000CB1A5B001344584A92F82D2011461846AC
:102F6000FFF702FF2BE0544B5A8B534B93F82D3055
:102F70009BB29A4214D1504BDB68002B10D04E4BC1
:102F8000012283F82F204C4B00225A834A4BDB68E6
:102F9000494A92F82D2011461846FFF7E5FE0EE04B
:102FA000454B5A8B444B93F82D309BB29A4206D135
:102FB000414B012283F82F203F4B00225A834FF4CC
:102FC0008270FFF76FFE0420FFF74AFE4FF488700F
:102FD000FFF755FE0346002B0ED04FF48870FFF725
:102FE00061FE354B00221A7402238DF81030324BEB
:102FF0001B6804AA104698474FF48A70FFF73FFEFB
:103000000346002B07D04FF48A70FFF74BFE2A4B84
:1030100000221A744CE0284B5B690D9345E00D9B30
:103020000A930A9B002B01D1202303E00A9BB3FAE9
:1030300083F3DBB20C934FF000420C9B22FA03F3B4
:10304000DB430D9A13400D930C9B9BB246339BB20E
:103050009B00ADF82E30BDF82E301846FFF70FFE5E
:103060000346002B21D0BDF82E301846FFF71AFE7C
:1030700001238DF80430BDF82E30A3F58C73DB08E6
:10308000DBB28DF80830BDF82E30A3F58C7303F059
:103090000403002B0CBF01230023DBB28DF80930A1
:1030A000054B1B6801AA104698470D9B002BB6D113
:1030B00000BF0FB05DF804FBC006002000B585B06E
:1030C00001900091019B002B03D13249D820FEF7DB
:1030D000A6FC009B002B03D12E49D920FEF79FFCB4
:1030E0002D4B93F82C30002B03D008230393039B24
:1030F0004CE0294A009B1360019B1B781846FFF7A0
:1031000043FE019B5B781846FFF74CFE019BDA7883
:10311000214B83F82E20204B012283F82C201E4BBC
:1031200000221A741C4B002283F82D201A4B002217
:103130005A61194B002283F82F206FF00040FFF7EF
:10314000F7FD4FF48270FFF7ADFD4FF48070FFF78D
:10315000A9FD4FF48A70FFF7A5FD019B9B781946E6
:103160000720FFF737FD0720FFF754FD0220FFF788
:10317000D3FD094B93F82E30002B02D00120FFF72E
:10318000CBFDFFF7E1FD00230393039B184605B039
:103190005DF804FB6C670000C006002000B585B038
:1031A000034600918DF80730434B93F82C30002BE9
:1031B00004D1424940F22510FEF731FC9DF807305A
:1031C000072B04D93D494FF49370FEF728FCFFF715
:1031D000F7FD0346002B09D0374B93F82D30002B19
:1031E00004D036494FF49470FEF719FC009BDB794C
:1031F000092B03D8009BDB79002B04D12F494FF416
:103200009870FEF70CFC009B1B7A092B04D92B4904
:103210004FF49970FEF703FC274B1B7CDBB2002BAD
:1032200003D011230393039B41E0009B1B79002BE8
:1032300003D0009B1B79012B01D1FFF78DFD9DF879
:1032400007301D4A0C335B0013441B79002B07D158
:10325000194B93F82D300133DAB2174B83F82D2038
:103260009DF80730009AD179134A0C335B00134460
:103270000A461A719DF80730009A117A0E4A0C33EB
:103280005B0013440A465A719DF8073000991846AE
:10329000FFF79EFD009B1B79002B03D0009B1B7941
:1032A000012B01D1FFF750FD00230393039B184628
:1032B00005B05DF804FB00BFC00600206C6700008D
:1032C00000B589B0034600918DF80730504B1B7C48
:1032D000DBB2002B03D011230393039B93E04C4BF1
:1032E00001221A740320FFF723FD01210098FFF744
:1032F0003BFD474B93F82D30012B0FD9002307934B
:1033000009E0079BDBB2002200211846FFF7E2FC30
:10331000079B01330793079B072BF2D99DF80730D2
:103320003B4A0C335B00134419799DF80730384A47
:103330000C335B0013445A799DF807301846FFF7A9
:10334000C9FC0020FFF78CFC0420FFF789FC002358
:103350008DF81B3042F2107305934FF48270FFF723
:103360008EFC0346002B03D001238DF81B3008E0B0
:103370000020FFF75DFC059B013B0593059B002B9F
:10338000EBD19DF81B30002B04D122494FF4D270B1
:10339000FEF745FB4FF48070FFF784FC4FF482701A
:1033A000FFF780FC1A4B93F82D30012B19D900231D
:1033B000049313E0049BD8B2154A049B0C335B00C2
:1033C00013441979124A049B0C335B0013445B7954
:1033D0001A46FFF77FFC049B01330493049B072BE1
:1033E000E8D90B4B93F82E30002B03D00320FFF7C6
:1033F00093FC02E00220FFF78FFC054B00221A74B9
:1034000000230393039B184609B05DF804FB00BF3B
:10341000C00600206C67000084B001900B46ADF838
:103420000230BDF80230019A134400221A60BDF840
:103430000230019A13441B680393039B00BF04B03E
:10344000704782B001900B46ADF80230BDF80230F3
:10345000019A13441B68002B14BF01230023DBB225
:10346000184602B0704782B001900091019BD3F8DA
:103470000423009B1340002B14BF01230023DBB265
:10348000184602B0704782B00190019B9B0003F583
:10349000A0739BB2184602B0704782B001904FF4FF
:1034A0008032019B02FA03F3184602B0704700B560
:1034B00087B00390029113468DF8073000238DF8F2
:1034C000173030E09DF817301846FFF7DCFF034651
:1034D000ADF814309DF817301846FFF7DEFF049062
:1034E000BDF8143019460398FFF7ABFF0346002BD5
:1034F00014D004990398FFF7B6FF0346002B0DD0B4
:10350000BDF8143019460398FFF786FF029B1B682D
:10351000029A5168BDF81420104698479DF817305C
:1035200001338DF817309DF817209DF807309A4227
:10353000C8D300BF00BF07B05DF804FB08B5042284
:1035400002490348FFF7B3FF00BF08BDF0060020A3
:103550000080004082B003468DF807309DF90730A7
:10356000002B0CDB9DF8073003F01F0205499DF985
:1035700007305B09012000FA02F241F8232000BF66
:1035800002B0704700E100E082B003468DF80730DA
:103590009DF90730002B13DB9DF8073003F01F0265
:1035A00009499DF907305B09012000FA02F2203336
:1035B00041F82320BFF34F8F00BFBFF36F8F00BFD1
:1035C00000BF02B0704700BF00E100E082B00346D8
:1035D00000918DF807309DF90730002B0ADB009B26
:1035E000DAB20C499DF907305201D2B20B4483F88C
:1035F00000230BE0009BDAB207499DF8073003F087
:103600000F03043B5201D2B20B441A7600BF02B042
:10361000704700BF00E100E000ED00E082B00190E3
:10362000019B1B0B5BB2184602B0704700B583B01C
:1036300003460A468DF8073013468DF806309DF88C
:103640000630072B03D908496B20FEF7E8F99DF8EF
:1036500006209DF9073011461846FFF7B7FF00BF57
:1036600003B05DF804FB00BF5068000000B583B0F4
:1036700003468DF807309DF907301846FFF76AFFBB
:1036800000BF03B05DF804FB00B583B003468DF8BE
:1036900007309DF907301846FFF776FF00BF03B0EB
:1036A0005DF804FB84B001900B46ADF80230BDF824
:1036B0000230019A134400221A60BDF80230019AC8
:1036C00013441B680393039B00BF04B0704782B090
:1036D00001900B46ADF80230BDF80230019A134458
:1036E0001B68002B14BF01230023DBB2184602B075
:1036F000704782B001900091019B009AC3F80423A7
:1037000000BF02B0704782B001900091019BD3F8D6
:103710000423009B1340002B14BF01230023DBB2C2
:10372000184602B0704782B001900091019B009A48
:10373000C3F8082300BF02B0704784B00190019B1A
:10374000D3F880340393019B039AC3F88024039B2E
:10375000184604B0704782B00190019B0422C3F860
:10376000002500BF02B0704782B00190019B00228B
:10377000C3F8002500BF02B0704784B003900291E7
:103780000192039B019AC3F81425039B029AC3F884
:103790000C2500BF04B0704700B583B001904FF016
:1037A000FF324FF0FF310198FFF7E7FF00BF03B092
:1037B0005DF804FB82B00190019BD3F80C351846EC
:1037C00002B0704782B00190019BD3F814351846BF
:1037D00002B0704782B00190019BD3F808351846BB
:1037E00002B0704782B00190019BD3F810351846A3
:1037F00002B0704784B0039002910192039B029A39
:10380000C3F80825039B019AC3F8102500BF04B034
:10381000704700B583B001904FF0FF324FF0FF3199
:103820000198FFF7E7FF00BF03B05DF804FB82B02B
:103830000190019BD3F81835DBB2184602B07047EF
:1038400082B001900B468DF803309DF80320019B58
:10385000C3F81C2500BF02B0704782B001900B4630
:103860008DF803309DF80330019A134401221A6049
:1038700000BF02B0704782B001900B468DF8033054
:1038800013468DF802309DF803209DF80230134353
:10389000DBB21A46019BC3F86C2500BF02B070472B
:1038A00082B001900091019B009AC3F8242500BFCB
:1038B00002B0704700B583B00190019B1B681846A9
:1038C00000F096F80346002B04D105494FF4F6703A
:1038D000FEF7A5F84FF0A043184603B05DF804FBCF
:1038E0008068000000B585B00190084611461A4670
:1038F00003468DF803300B468DF8023013468DF8E1
:10390000013001AB1846FFF7D5FF03909DF8032067
:103910009DF802305B001A439DF801309B001A436A
:103920009DF818301B0242EA03019DF81C301B046D
:10393000019A1943039B02F5E07243F8221000BF7D
:1039400005B05DF804FB00B585B00390002301933A
:10395000002300930023012201210398FFF7C2FFF7
:1039600000BF05B05DF804FB00B585B003900B46C1
:103970008DF80B309DF80B3000220192002200924E
:10398000002200210398FFF7ADFF00BF05B05DF8EE
:1039900004FB00B585B0039000230193002300933E
:1039A0000023012200210398FFF79CFF00BF05B010
:1039B0005DF804FB00B585B0019001AB1846FFF738
:1039C00079FF0390019B012202FA03F31946039841
:1039D00000F004F800BF05B05DF804FB82B0019070
:1039E0000091019B009AC3F8082500BF02B0704700
:1039F00084B00190019B5B09029300230393029B17
:103A0000002B03D14FF0FF33039300BF019B03F062
:103A10001F030193039A019B22FA03F303F00103AE
:103A2000002B14BF01230023DBB2184604B07047FB
:103A300000B583B001900091009B1B68B3F1FF3F7C
:103A400009D0009B1B681846FFF7B4FF009B1B685A
:103A50001846FFF778FF009B5B68B3F1FF3F05D086
:103A6000009B5B6800211846FFF77EFF019B1A68E8
:103A7000009B9B6919461046FFF712FF019B1868CF
:103A8000009B597D009B1B7D1A46FFF7F4FE019BAE
:103A90001868009B1968009B5B681A46FFF76DFE6B
:103AA000009B1B7D012B22D1009B9B68B3F1FF3F44
:103AB00005D0009B9B6800211846FFF755FF009B2F
:103AC000DB68B3F1FF3F09D0009BDB681846FFF7C6
:103AD00071FF009BDB681846FFF735FF019B1868F4
:103AE000009BD968009B9B681A46FFF783FE00BFC6
:103AF00003B05DF804FB000000B583B001900B46F5
:103B00008DF80330019B1B684FF48E711846FFF748
:103B1000C9FD019B1B684FF4A2711846FFF7C2FD57
:103B2000019B1B680E491846FFF7E3FD019B1B68CC
:103B30001846FFF773FD03461A469DF803301946F1
:103B40001046FFF773FD019B1B681846FFF766FDE3
:103B500003461846FFF78AFD00BF03B05DF804FB7B
:103B60008000020000B583B00190019B1B680849EA
:103B70001846FFF7D8FD019B1B681846FFF74EFD5E
:103B800003461846FFF780FD00BF03B05DF804FB55
:103B90008402020000B587B00190019B1B681846A3
:103BA000FFF708FE0590019B1B681846FFF70AFE09
:103BB0000490019B1B681846FFF70CFE0390019BC5
:103BC0001B681846FFF70EFE0290019B1B68184603
:103BD000FFF7E2FD019B1B681846FFF71AFE059BE5
:103BE000B3F1FF3F02D00598FFF7D3FE049BB3F17A
:103BF000FF3F02D00498FFF7CCFE029BB3F1FF3FDA
:103C000002D00298FFF7C5FE039BB3F1FF3F02D03D
:103C10000398FFF7BEFE00BF07B05DF804FB00008D
:103C200000B587B0039002910192029B002B03D153
:103C30002D49AA20FDF7F3FE039B1B791A462C237E
:103C400002FB03F3294A1344049300230593049BC6
:103C500093F82A30002B03D008230593059B3EE000
:103C6000039B1A68039B1B791946214B53F821309B
:103C700019461046FEF714FF0346002B03D011230C
:103C80000593059B2BE002990398FFF7D1FE049B57
:103C9000019A5A60029B1A69049B1A60049B5B6834
:103CA000002B05D0029B1B7F19460398FFF724FFCA
:103CB000039B1B681846FFF74EFD049B00229A6188
:103CC000049B0022DA61049B002283F82920049BD4
:103CD00000225A61049B012283F82A20059B184682
:103CE00007B05DF804FB00BFB8680000FC060020C8
:103CF0000869000000B585B00190019B1B791A4648
:103D00002C2302FB03F3114A13440393019B1B680A
:103D10001846FFF729FD039B5B68002B02D0019832
:103D2000FFF720FF0198FFF735FF019B1B6818463E
:103D3000FEF7F0FE039B002283F82A20039B00225B
:103D40005A6000BF05B05DF804FB00BFFC06002010
:103D500000B585B0019000914FF48E710198FFF786
:103D6000A1FC009B9A68009B1B6A13441B788DF88A
:103D70000F30009B1B6A5A1C009B1A629DF80F3083
:103D800019460198FFF75CFD00BF05B05DF804FB24
:103D900000B585B001900091009B5B69039316E02C
:103DA000009B93F82830DBB2002B01D0002314E0F5
:103DB0004FF48E710198FFF78AFC034683F00103EC
:103DC000DBB2002BECD100990198FFF7C1FF009BFB
:103DD0001B6A039A9A42EBD80123184605B05DF896
:103DE00004FB000000B587B0039002910192039B91
:103DF0001B791A462C2302FB03F33C4A1344049319
:103E0000049B93F82A30012B04D039494FF48C706D
:103E1000FDF705FE029B002B04D1354940F2191035
:103E2000FDF7FDFD019B002B04D131494FF48D704E
:103E3000FDF7F5FD039800F05DF80346002B03D075
:103E400011230593059B4CE0049B019A5A61049B46
:103E5000029A9A60049B00221A62049B002283F853
:103E6000282000230593039B1B684FF48E7118468E
:103E7000FFF718FC039B1B6808211846FFF7EDFCB1
:103E8000039B1B6804991846FFF762FF049B5B685D
:103E9000002B25D1039B1B6804991846FFF778FF78
:103EA000034683F00103DBB2002B02D00F230593FE
:103EB00013E000BF039B1B684FF48E711846FFF799
:103EC00006FC034683F00103DBB2002BF2D1039B17
:103ED0001B680C211846FFF7C0FC049B00225A61A6
:103EE000059B184607B05DF804FB00BFFC060020E8
:103EF000B868000082B00190019B1B791946074AFF
:103F00002C2301FB03F3134414331B68002B14BF51
:103F100001230023DBB2184602B07047FC060020E4
:103F200010B582B001900091009B9B69002B08D1D5
:103F30004FF484710198FFF7B5FB0198FFF777FC08
:103F400013E04FF484710198FFF7ACFB009BDA6833
:103F5000009B5B6AD4180198FFF769FC0346237045
:103F6000009B5B6A5A1C009B5A6202B010BD00B5F0
:103F700089B003900291019201238DF81030029BC9
:103F80000693019B0593039B5B68039A116804AA3F
:103F90001046984700BF09B05DF804FB00B587B034
:103FA0000190009100238DF80830009B0493019B41
:103FB0009B680393019B00225A61019B5B68019AF5
:103FC000116802AA1046984700BF07B05DF804FBCD
:103FD00000B58BB0019000914FF400710198FFF78C
:103FE00092FB0346002B39D04FF492710198FFF7F2
:103FF0006EFB0346002B31D04FF492710198FFF70E
:1040000051FB4FF401710198FFF78DFB009B93F872
:10401000293083F00103DBB2002B03D00421019887
:10402000FFF71BFC02238DF80C300198FFF785FB8E
:1040300003460693009B9B690593009BDB680493F2
:10404000009B00229A61009B0022DA61009B5B6862
:10405000009A116803AA1046984752E0042101987B
:10406000FFF751FB0346002B4BD04FF484710198AE
:10407000FFF72DFB0346002B43D000990198FFF773
:104080004FFF009B9A69009B5B6A9A4239D1009B63
:10409000DB69002B19D0009BDB680993009B5B6AEE
:1040A0000893009BDA69009B9A61009B1A69009B48
:1040B000DA60009B0022DA61009B00225A62099AB2
:1040C00008990098FFF753FF1BE0009B93F82930F5
:1040D00083F00103DBB2002B03D004210198FFF72A
:1040E000BCFB4FF401710198FFF71DFB009B002200
:1040F0009A61009B596A009BDB681A460098FFF79B
:1041000036FF4FF48E710198FFF7E1FA0346002B5A
:1041100024D0009B5B690793009B1B6A079A9A4215
:104120000DD9009B93F82830DBB283F00103DBB29A
:10413000002B04D000990198FFF70AFE0EE04FF41F
:104140008E710198FFF7AEFA009B5B69002B05D0DA
:10415000009B5B6919460098FFF720FF4FF4A2719E
:104160000198FFF7B4FA0346002B1CD04FF4A2715C
:104170000198FFF797FA009B93F82930002B03D0A2
:1041800000210198FFF769FB009B9B69002B0AD077
:10419000009B00229A61009B596A009BDB681A46CB
:1041A0000098FFF7E4FE00BF0BB05DF804FB0000D1
:1041B00008B503490348FFF70BFF00BF08BD00BF68
:1041C000FC0600200020004082B003468DF8073036
:1041D0009DF90730002B0CDB9DF8073003F01F0220
:1041E00005499DF907305B09012000FA02F241F808
:1041F000232000BF02B0704700E100E082B0034618
:104200008DF807309DF90730002B13DB9DF8073040
:1042100003F01F0209499DF907305B09012000FAEC
:1042200002F2203341F82320BFF34F8F00BFBFF3CA
:104230006F8F00BF00BF02B0704700BF00E100E019
:1042400082B0034600918DF807309DF90730002BAE
:104250000ADB009BDAB20C499DF907305201D2B259
:104260000B4483F800230BE0009BDAB207499DF86A
:10427000073003F00F03043B5201D2B20B441A760D
:1042800000BF02B0704700BF00E100E000ED00E0B9
:1042900082B00190019B03F06043B3F1005F0CBF5B
:1042A00001230023DBB2184602B0704782B00190B0
:1042B000019B1B0B5BB2184602B0704700B583B080
:1042C00003460A468DF8073013468DF806309DF8F0
:1042D0000630072B03D908496B20FDF7A0FB9DF89A
:1042E00006209DF9073011461846FFF7A9FF00BFC9
:1042F00003B05DF804FB00BF0C69000000B583B09B
:1043000003468DF807309DF907301846FFF75CFF2C
:1043100000BF03B05DF804FB00B583B003468DF821
:1043200007309DF907301846FFF768FF00BF03B05C
:104330005DF804FB84B001900B46ADF80230BDF887
:104340000230019A134400221A60BDF80230019A2B
:1043500013441B680393039B00BF04B0704782B0F3
:1043600001900B46ADF80230BDF80230019A1344BB
:104370001B68002B14BF01230023DBB2184602B0D8
:10438000704782B001900091019BD3F80022009BFE
:10439000DB431A40019BC3F8002200BF02B0704704
:1043A00082B001900091019B009AC3F8042300BFE2
:1043B00002B0704782B001900091019B009AC3F84F
:1043C000082300BF02B0704784B00190019BD3F86E
:1043D00080340393019B039AC3F88024039B1846FF
:1043E00004B0704782B00190019B0822C3F80025F9
:1043F00000BF02B0704782B00190019B0022C3F859
:10440000002500BF02B0704784B003900291019272
:10441000039B029AC3F80C25039B019AC3F8142549
:1044200000BF04B0704700B583B001904FF0FF3279
:104430004FF0FF310198FFF7E7FF00BF03B05DF8D1
:1044400004FB82B00190019BD3F80C35184602B0F2
:10445000704782B00190019BD3F81435184602B022
:10446000704782B00190019BD3F80835184602B01E
:10447000704782B00190019BD3F81035184602B006
:10448000704784B0039002910192039B029AC3F893
:104490000825039B019AC3F8102500BF04B070479C
:1044A00000B583B001904FF0FF324FF0FF3101981B
:1044B000FFF7E7FF00BF03B05DF804FB82B0019097
:1044C0000B468DF803309DF80330019A1344012206
:1044D0001A6000BF02B0704782B001900B468DF8A1
:1044E000033013468DF802309DF803209DF802300A
:1044F0001343DBB21A46019BC3F86C2500BF02B020
:10450000704782B001900091019B009AC3F8242566
:1045100000BF02B0704784B0039002910192029AEA
:10452000039BC3F84425039B019AC3F8482500BFA9
:1045300004B0704782B00190019BD3F84C35184607
:1045400002B0704782B00190019BD3F83C35184609
:1045500002B0704700B583B00190019B1B681846FC
:1045600000F096F80346002B04D105494FF4F6708D
:10457000FDF755FA4FF0A043184603B05DF804FB71
:104580003C69000000B585B00190084611461A4606
:1045900003468DF803300B468DF8023013468DF834
:1045A000013001AB1846FFF7D5FF03909DF80320BB
:1045B0009DF802305B001A439DF801309B001A43BE
:1045C0009DF818301B0242EA03019DF81C301B04C1
:1045D000019A1943039B02F5E07243F8221000BFD1
:1045E00005B05DF804FB00B585B00390002301938E
:1045F000002300930023012201210398FFF7C2FF4B
:1046000000BF05B05DF804FB00B585B003900B4614
:104610008DF80B309DF80B300022019200220092A1
:10462000002200210398FFF7ADFF00BF05B05DF841
:1046300004FB00B585B00390002301930023009391
:104640000023012200210398FFF79CFF00BF05B063
:104650005DF804FB00B585B0019001AB1846FFF78B
:1046600079FF0390019B012202FA03F31946039894
:1046700000F004F800BF05B05DF804FB82B00190C3
:104680000091019B009AC3F8082500BF02B0704753
:1046900084B00190019B5B09029300230393029B6A
:1046A000002B03D14FF0FF33039300BF019B03F0B6
:1046B0001F030193039A019B22FA03F303F0010302
:1046C000002B14BF01230023DBB2184604B070474F
:1046D00000B583B001900091009B1B68B3F1FF3FD0
:1046E00009D0009B1B681846FFF7B4FF009B1B68AE
:1046F0001846FFF778FF009B5B68B3F1FF3F05D0DA
:10470000009B5B6800211846FFF77EFF019B1A683B
:10471000009B9B6919461046FFF7F3FE019B186842
:10472000009B597D009B1B7D1A46FFF7D5FE019B20
:104730001868009B1968009B5B681A46FFF764FEC7
:10474000009B1B7D012B22D1009B9B68B3F1FF3F97
:1047500005D0009B9B6800211846FFF755FF009B82
:10476000DB68B3F1FF3F09D0009BDB681846FFF719
:1047700071FF009BDB681846FFF735FF019B186847
:10478000009BD968009B9B681A46FFF77AFE00BF22
:1047900003B05DF804FB000000B583B001900B4648
:1047A0008DF80330019B1B684FF488711846FFF7A2
:1047B000C1FD019B1B684FF490711846FFF7BAFDCD
:1047C000019B1B684FF492711846FFF7B3FD019BE4
:1047D0001B684FF4A2711846FFF7ACFD019B1B68E4
:1047E0004FF4AC711846FFF7A5FD019B1B680F49FC
:1047F0001846FFF7D5FD019B1B681846FFF756FDCD
:1048000003461A469DF8033019461046FFF756FD39
:10481000019B1B681846FFF749FD03461846FFF742
:104820006DFD00BF03B05DF804FB00BF1003420044
:1048300000B583B00190019B1B6808491846FFF73B
:10484000B9FD019B1B681846FFF730FD034618466B
:10485000FFF762FD00BF03B05DF804FB10034200E8
:1048600000B587B00190019B1B681846FFF7E9FD72
:104870000590019B1B681846FFF7EBFD0490019B18
:104880001B681846FFF7EDFD0390019B1B68184657
:10489000FFF7EFFD0290019B1B681846FFF7C3FD71
:1048A000019B1B681846FFF7FBFD059BB3F1FF3F1B
:1048B00002D00598FFF7BDFE049BB3F1FF3F02D085
:1048C0000498FFF7B6FE029BB3F1FF3F02D00298B7
:1048D000FFF7AFFE039BB3F1FF3F02D00398FFF752
:1048E000A8FE00BF07B05DF804FB000000B587B06C
:1048F000039002910192029B002B03D12B49CF2000
:10490000FDF78DF8039B1B791A461346DB00134411
:104910009B00274A1344049300230593049B93F8B8
:104920002030002B03D008230593059B3AE0039B1E
:104930001A68039B1B7919461E4B53F82130194600
:104940001046FEF7ADF80346002B03D01123059364
:10495000059B27E002990398FFF7BAFE049B019A92
:104960005A60029B1A69049B1A60049B5B68002BC7
:1049700005D0029B1B7F19460398FFF70DFF039B91
:104980001B681846FFF72EFD049B00229A61049BCA
:104990000022DA61049B00225A61049B012283F801
:1049A0002020059B184607B05DF804FB74690000E1
:1049B00028070020C469000000B585B00190019B64
:1049C0001B791A461346DB0013449B002A4A134402
:1049D0000393019B1B680293039B5B68002B02D02F
:1049E0000198FFF725FF20210298FFF7CAFC039BDF
:1049F0009B69002B08D04FF4A2710298FFF79AFC34
:104A000004210298FFF75AFD4FF4AC710298FFF7AA
:104A100091FC0C210298FFF751FD00BF4FF4AC71DF
:104A20000298FFF79CFC034683F00103DBB2002BE6
:104A3000F4D1039B9B69002B0AD04FF4A27102981A
:104A4000FFF78DFC034683F00103DBB2002BE5D1B9
:104A50000298FFF7D0FC0198FFF702FF0298FEF7DB
:104A600059F8039B002283F82020039B00225A6000
:104A700000BF05B05DF804FB2807002000B589B031
:104A8000039002910192039B1B791A461346DB00A7
:104A900013449B00564A13440593059B93F820301A
:104AA000012B04D0534940F25310FCF7B8FF029B8E
:104AB000002B04D14F494FF4AA70FCF7B0FF019BC3
:104AC000002B04D14B4940F25510FCF7A8FF039B83
:104AD0001B79002B02D1019BFF2B04D945494FF4D0
:104AE000AB70FCF79CFF0298FFF7D2FB034683F004
:104AF0000103DBB2002B03D010230793079B73E065
:104B0000039800F079F80346002B03D01123079394
:104B1000079B69E0059B019A5A61059B029A9A607E
:104B200000230793039B1B684FF490711846FFF70F
:104B300001FC039B1B684FF4AC711846FFF7FAFBAE
:104B4000039B1868059B9968059B5B691A46FFF7EC
:104B5000E2FC039B1B6808211846FFF7AFFC059B8E
:104B60005B68002B3FD1039B1B684FF49071184684
:104B7000FFF7F5FB03468DF81B30039B1B684FF4D2
:104B8000AC711846FFF7EBFB03468DF81A309DF821
:104B90001B3083F00103DBB2002B06D09DF81A30E6
:104BA00083F00103DBB2002BDDD19DF81A30002B1E
:104BB00002D00F23079313E0039B1B680C211846B8
:104BC000FFF77CFC00BF039B1B684FF4AC711846D9
:104BD000FFF7C5FB034683F00103DBB2002BF2D1E4
:104BE000059B00225A61079B184609B05DF804FB3B
:104BF000280700207469000082B00190019B1B7996
:104C00001946084A0B46DB000B449B00134414333F
:104C10001B68002B14BF01230023DBB2184602B02F
:104C2000704700BF2807002000B589B003900291AB
:104C3000019201238DF81030029B0693019B05938E
:104C4000039B5B68039A116804AA1046984700BF4B
:104C500009B05DF804FB00B587B001900091002316
:104C60008DF80830009B0493019B9B680393019B84
:104C700000225A61019B5B68019A116802AA1046E2
:104C8000984700BF07B05DF804FB00B589B00190FC
:104C900000914FF492710198FFF761FB0346002BDE
:104CA00022D04FF492710198FFF744FB02238DF854
:104CB00008300198FFF788FB034605930198FFF73A
:104CC00041FC03460493009BDB680393009B002296
:104CD0009A61009B0022DA61009B5B68009A116870
:104CE00002AA104698473BE04FF488710198FFF7FD
:104CF00036FB0346002B33D04FF488710198FFF741
:104D000019FB0198FFF71EFC0790009B9B69079A0F
:104D10009A4225D1009BDB69002B17D0009BDB68F2
:104D2000069320210198FFF72CFB009BDA69009B7A
:104D30009A61009B1A69009BDA60009B0022DA618D
:104D4000069A07990098FFF76FFF09E0009B002281
:104D50009A61009BDB681A4607990098FFF764FF89
:104D60004FF4A2710198FFF7FAFA0346002B18D00E
:104D70004FF4A2710198FFF7DDFA009B9B69002BAD
:104D80000FD0009B00229A61009B0022DA610198FB
:104D9000FFF7D8FB0146009BDB681A460098FFF737
:104DA00043FF4FF490710198FFF7D9FA0346002BA7
:104DB00014D04FF490710198FFF7BCFA0C210198C0
:104DC000FFF77CFB009B5B69002B07D00198FFF786
:104DD000B1FB034619460098FFF73DFF4FF4AC7155
:104DE0000198FFF7BCFA0346002B10D04FF4AC71CA
:104DF0000198FFF79FFA009B5B69002B07D0019891
:104E0000FFF798FB034619460098FFF724FF00BF01
:104E100009B05DF804FB000008B503490348FFF73B
:104E200034FF00BF08BD00BF28070020002000405D
:104E300000B585B00190019B002B0AD0074B43F0D1
:104E400001030393019B9B010293039B02989847E4
:104E500000E000BF05B05DF804FB00BF606A000021
:104E600000B583B001900091019B002B01D1054B4F
:104E7000019300990198FEF721F90346184603B003
:104E80005DF804FB506A000000B583B00190019BFF
:104E9000002B0AD04FF47A70FFF7CAFF019B013B49
:104EA0000193019B002BF5D100E000BF03B05DF83A
:104EB00004FB82B0019000BF02B0704700B587B01C
:104EC000134A6B4607CA03C31A7012490020FFF742
:104ED000C7FF0590059B0493049B002B04D00E4A4A
:104EE0005B210498FCF7A8FC6B4619460320FEF7EB
:104EF00055F90590059B0393039B002B04D0064AAC
:104F00005E210398FCF798FC00BF07B05DF804FB36
:104F1000146A0000B34E0000C869000000B585B0F7
:104F200000210020FBF712FD0390039B0293029BDC
:104F3000002B04D01E4A6B210298FCF77DFCFBF786
:104F400087FCFFF7BBFF1B4A1B4BD31ADB081B0474
:104F500043F0030319491846FBF7C4FF0DF10203A0
:104F600019460320FEF7ACF90390039B0193019BC4
:104F7000002B04D00E4A76210198FCF75DFC0D4A07
:104F80000D4BD31ADB081B0443F00303BDF90220C9
:104F90000B491846FBF7B4FF00BFFBF7FFFF0346C2
:104FA000002BFAD14FF47A70FFF76EFFD6E700BFFF
:104FB000C8690000D45B0000A45B0000206A000008
:104FC000446A000082B0204B0193019B02221A61C7
:104FD000019B02225A61019B1C4A9A61019B1C4A57
:104FE000DA61019B4FF400721A62019B00229A62FF
:104FF000019B00225A62019B0022DA62019B134A44
:105000009A64019B134ADA64019B10221A65019B82
:1050100000229A65019B00225A65019B0022DA65F5
:10502000019B07330C4A10681860019B0B4A1068FB
:1050300018609188927999809A71019B20229A71C7
:1050400000BF02B0704700BF4C070020686A000034
:10505000C4070020C4090020746A0000786A0000B8
:1050600000B589B003900291019200230693039B3F
:10507000DB680593039B1B690493049A059B9A4282
:1050800005D9049A059BD31A013B079307E0039BBC
:105090009A680499059BCB1A1344013B0793039B21
:1050A0009A68059BD31A079A934228BF1346079321
:1050B000079A019B934228BF13460793039B5A68A4
:1050C000059B1344079A0299184600F012FD069AB0
:1050D000079B13440693029A079B13440293019A79
:1050E000079BD31A0193059A079B13440593039BCF
:1050F0009B68059A9A4201D100230593039B059A68
:10510000DA60019B002BB5D1069B184609B05DF80B
:1051100004FB00B589B0039002910192039BDB6808
:105120000793039B9A68079BD31A0693069A019BE1
:105130009A420ED9039B5A68079B1344019A02991D
:10514000184600F0D6FC079A019B1A44039BDA60CC
:105150001AE0069B0593039B5A68079B1344059A24
:105160000299184600F0C5FC019A069BD31A0593D4
:10517000039B5868029A069B1344059A194600F04F
:10518000B8FC039B059ADA6000BF09B05DF804FB28
:1051900086B00190019B1B690493019BDB6803931C
:1051A000049A039B9A4208D8019B9A68039BD21ADF
:1051B000049B1344013B059304E0049A039BD31A18
:1051C000013B0593059B184606B0704700B589B0B2
:1051D000039002910192029B0693039B5A1C134673
:1051E0005B001344DB00204A13440593059B5B6975
:1051F000022B29D0022B2ED8002B02D0012B13D04A
:1052000029E00598FFF7C4FF0490049A019B9A4295
:1052100002D20023079321E0019B0793019A06998C
:105220000598FFF776FF19E00598FFF7B1FF0490A6
:10523000019A049B934228BF13460793079A069945
:105240000598FFF766FF09E0019A06990598FFF7B0
:1052500007FF079002E00023079300BF079B184653
:1052600009B05DF804FB00BF4C07002008B5FFF74C
:10527000A9FE00BF08BD0000BFF34F8F00BF064B63
:10528000DB6803F4E0620449044B1343CB60BFF3D3
:105290004F8F00BF00BFFDE700ED00E00400FA05FE
:1052A00082B01A4B1B68B3F1FF3F0AD1184B1B6841
:1052B000DBB20193174B1B681B0903F00F0300932C
:1052C00005E0124B1B680193134B1B680093019B75
:1052D000062B17D1009B033B032B13D801A252F8D6
:1052E00023F000BFF5520000F9520000FD5200000B
:1052F00001530000012306E0012304E0012302E042
:10530000012300E00023184602B07047300100106E
:10531000E00F00F0E80F00F03401001082B0144BF1
:105320001B68DBB20193134B1B681B0903F00F03CF
:105330000093019B062B17D1009B033B032B13D833
:1053400001A252F823F000BF595300005D53000042
:105350006153000065530000012306E0002304E0D0
:10536000002302E0002300E00023184602B070474B
:10537000E00F00F0E80F00F082B01A4B1B68B3F1A9
:10538000FF3F0AD1184B1B68DBB20193174B1B6818
:105390001B0903F00F03009305E0124B1B680193F8
:1053A000134B1B680093019B062B17D1009B033BFB
:1053B000032B13D801A252F823F000BFCD530000F5
:1053C000D1530000D5530000D9530000012306E05B
:1053D000012304E0012302E0012300E0002318463A
:1053E00002B0704730010010E00F00F0E80F00F04D
:1053F0003401001082B0144B1B68DBB20193134BD5
:105400001B681B0903F00F030093019B062B17D1A8
:10541000009B033B032B13D801A252F823F000BFDB
:105420003154000035540000395400003D54000050
:10543000012306E0002304E0002302E0002300E053
:105440000023184602B07047E00F00F0E80F00F0AC
:1054500082B01A4B1B68B3F1FF3F0AD1184B1B688F
:10546000DBB20193174B1B681B0903F00F0300937A
:1054700005E0124B1B680193134B1B680093019BC3
:10548000062B17D1009B033B032B13D801A252F824
:1054900023F000BFA5540000A9540000AD54000043
:1054A000B1540000012306E0012304E0012302E0DF
:1054B000012300E00023184602B0704730010010BD
:1054C000E00F00F0E80F00F03401001082B0144B40
:1054D0001B68DBB20193134B1B681B0903F00F031E
:1054E0000093019B062B17D1009B033B032B13D882
:1054F00001A252F823F000BF095500000D5500002D
:105500001155000015550000012306E0002304E0BA
:10551000002302E0002300E00023184602B0704799
:10552000E00F00F0E80F00F082B0144B1B68DBB214
:105530000193134B1B681B0903F00F030093019B9E
:10554000062B17D1009B033B032B13D801A252F863
:1055500023F000BF65550000695500006D5500003F
:1055600071550000012306E0002304E0002302E05F
:10557000002300E00023184602B07047E00F00F05F
:10558000E80F00F082B01A4B1B68B3F1FF3F0AD15D
:10559000184B1B68DBB20193174B1B681B0903F008
:1055A0000F03009305E0124B1B680193134B1B681C
:1055B0000093019B062B17D1009B033B032B13D8B1
:1055C00001A252F823F000BFD9550000DD550000BC
:1055D000E1550000E5550000002306E0002304E04B
:1055E000012302E0012300E00023184602B07047C7
:1055F00030010010E00F00F0E80F00F0340100105F
:1056000082B01A4B1B68B3F1FF3F0AD1184B1B68DD
:10561000DBB20193174B1B681B0903F00F030093C8
:1056200005E0124B1B680193134B1B680093019B11
:10563000062B17D1009B033B032B13D801A252F872
:1056400023F000BF55560000595600005D5600007B
:1056500061560000012306E0012304E0012302E07B
:10566000012300E00023184602B07047300100100B
:10567000E00F00F0E80F00F03401001082B01A4B88
:105680001B68B3F1FF3F0AD1184B1B68DBB20193D3
:10569000174B1B681B0903F00F03009305E0124B27
:1056A0001B680193134B1B680093019B062B17D1BA
:1056B000009B033B032B13D801A252F823F000BF39
:1056C000D1560000D5560000D9560000DD56000026
:1056D000012306E0012304E0012302E0012300E0AE
:1056E0000023184602B0704730010010E00F00F0B0
:1056F000E80F00F03401001082B0124B1B680193D8
:10570000114B1B680093019B062B17D1009B033B99
:10571000032B13D801A252F823F000BF2D5700002D
:10572000315700003557000039570000002306E0CC
:10573000002304E0002302E0012300E000231846D8
:1057400002B070473001001034010010024B034AD0
:105750001A6000BF704700BF600000200090D003B7
:1057600008B5FFF79DFD0346002B06D0A04B1B6834
:105770001B0AA04A03F01F031360FFF7CFFD034687
:10578000002B02D09C4B9D4A1A60FFF7F5FD0346A3
:10579000002B06D09A4B1B685B0B9A4A03F0070359
:1057A0001360FFF727FE0346002B05D0964BDB68FE
:1057B000954A23F08073D360FFF74AFE0346002B1F
:1057C0000ED04FF080430022C3F80C214FF08043ED
:1057D0000022C3F810214FF080430022C3F838257F
:1057E000FFF774FE0346002B02D0884B03221A6099
:1057F000FFF79AFE0346002B0BD0854B05221A605B
:10580000844B01221A60844B00221A60834B3F2292
:105810001A60FFF7B7FE0346002B76D04FF0805397
:105820007F4AD3F80434C2F820354FF080537C4AC5
:10583000D3F80834C2F824354FF08053784AD3F8AF
:105840000C34C2F828354FF08053754AD3F8103421
:10585000C2F82C354FF08053714AD3F81434C2F893
:1058600030354FF080536E4AD3F81834C2F83435CF
:105870004FF080536A4AD3F81C34C2F840354FF0D9
:105880008053674AD3F82034C2F844354FF0805330
:10589000634AD3F82434C2F848354FF08053604A45
:1058A000D3F82834C2F84C354FF080535C4AD3F813
:1058B0002C34C2F850354FF08053594AD3F8303465
:1058C000C2F854354FF08053554AD3F83434C2F8F7
:1058D00060354FF08053524AD3F83834C2F86435FB
:1058E0004FF080534E4AD3F83C34C2F868354FF03D
:1058F00080534B4AD3F84034C2F86C354FF0805394
:10590000474AD3F84434C2F87035FFF779FE0346AE
:10591000002B05D0434B1B68434A03F04F03136031
:10592000FFF7ACFE0346002B0DD04FF08043D3F8B9
:10593000003403F00103002B05D04FF080436FF0DB
:105940000102C3F80024FFF7D7FE0346002B05D061
:10595000364B1B68354A43F480631360344BD3F8ED
:105960008830334A43F47003C2F88830BFF34F8F56
:1059700000BFBFF36F8F00BF4FF01023D3F800328A
:10598000002B05DB4FF01023D3F80432002B2BDA69
:10599000284B0122C3F8042500BF264BD3F800345E
:1059A000002BFAD04FF010231522C3F8002200BFBD
:1059B000204BD3F80034002BFAD04FF010231522DF
:1059C000C3F8042200BF1B4BD3F80034002BFAD0DD
:1059D000184B0022C3F8042500BF164BD3F800343F
:1059E000002BFAD0FFF748FCFFF7B0FE00BF08BD60
:1059F000240300104035014074C007400DF0ADBADB
:105A0000440200103C050040F0ED00E0A00500401D
:105A1000105600408856004018560040145600406A
:105A200000C0004058020010E40E00403C17004047
:105A300000ED00E000E001407F2805D8034B185C32
:105A4000034B5B5C18407047002070478C6A000075
:105A50000C6B0000A0F16103192B98BF2038704730
:105A6000A0F14103192B98BF203070477F2805D83B
:105A7000034B185C034B5B5C184070470020704779
:105A80008C6A00000C6B0000A0F16103192B98BF19
:105A900020387047A0F14103192B98BF2030704780
:105AA0007F299ABF017001206FF02E0070475AB114
:105AB0000A787F2A0AD800B1026000211960596073
:105AC000501A18BF01207047002070476FF02E0059
:105AD0007047000008B5034B5B689B681B689847DC
