:1000000000000120750300005D0300005F03000095
:1000100061030000630300006503000000000000AE
:100020000000000000000000000000006703000066
:1000300069030000000000006B0300006D03000076
:10004000FD0A00006F0300006F0300006F03000053
:100050006F0300006F030000E91C00006F03000045
:100060006F0300006F0300006F03000049110000E0
:100070006F0300006F0300006F0300006F030000B8
:100080006F0300006F0300006F0300006F030000A8
:100090006F0300006F0300006F0300006F03000098
:1000A0006F0300006F0300006F0300006F03000088
:1000B0006F0300006F03000000000000000000005C
:1000C0006F0300006F0300006F0300006F03000068
:1000D0006F0300006F0300006F03000000000000CA
:1000E0000000000000000000000000000000000010
:1000F0000000000000000000000000000000000000
:1001000000000000000000000000000000000000EF
:1001100000000000000000000000000000000000DF
:1001200000000000000000000000000000000000CF
:1001300000000000000000000000000000000000BF
:1001400000000000000000000000000000000000AF
:10015000000000000000000000000000000000009F
:10016000000000000000000000000000000000008F
:10017000000000000000000000000000000000007F
:10018000000000000000000000000000000000006F
:10019000000000000000000000000000000000005F
:1001A000000000000000000000000000000000004F
:1001B000000000000000000000000000000000003F
:1001C000000000000000000000000000000000002F
:1001D000000000000000000000000000000000001F
:1001E000000000000000000000000000000000000F
:1001F00000000000000000000000000000000000FF
:10020000354936480A1A02D0072291438D463449AF
:1002100034480A1A06D00722914381F30988022242
:1002200082F3148830483149314A00F044F83148AB
:100230003149324A00F03FF831483249324A00F041
:100240003AF832483249334A00F035F832483349F7
:10025000334A00F030F833483349344A00F02BF881
:1002600033483449344A00F026F8344834490022EF
:1002700000F02CF833483449002200F027F83348C6
:100280003349091A082902DB002202604160314A21
:1002900090471F481F49884205D00268043003B4C4
:1002A000904703BCF7E700208646EC46002000217B
:1002B000294A9047FEE7884207D0521A05D00378B2
:1002C00001300B700131013AF9D17047884202D0F8
:1002D00002700130FAE770470000012000E00020C2
:1002E0000000012000000120782D00000000002007
:1002F00004000020D0030000D00300005A290000B1
:10030000782D000000000020000000205C29000083
:100310005C2900005C2900005C2900005C290000C9
:100320005C2900005C2900005C290000762D00009B
:100330007C2D0000040000200400002004000020A8
:10034000A8000020A8000020A8000020A80000208D
:10035000A82000209D03000017210000FEE7FEE713
:10036000FEE7FEE7FEE7FEE7FEE7FEE7FEE7FEE765
:1003700000F002B8FFF7FCBF0F484FF007018843B9
:1003800085460E4880470E48016841F470010160BF
:10039000BFF34F8FBFF36F8FFFF732BF09480A4992
:1003A0000A4A884207D0521A05D0037801300B70F0
:1003B0000131013AF9D17047000001201D260000EB
:1003C00088ED00E05C290000000000200000002013
:1003D00086B003900291019201238DF817309DF8A9
:1003E0001730204A039B13601E4A029B53601D4A2C
:1003F000019B9360039B44F20102934212D0039B42
:1004000044F20202934220D1019B164AD360154B5D
:10041000DB681B68134A9361124BDB685B68114A07
:10042000D36112E0019B0F4A13610E4B1B699B685D
:100430000C4A53610B4B1B691B680A4A9361094BB9
:100440001B695B68074AD36100BF72B600BF00BF7B
:100450009DF81730DBB2002BFAD162B600BF00BFA7
:1004600006B070470400002000B583B002900091F0
:10047000019244F2010071466A4600F003F803B0AD
:1004800000BD00BF00B587B003900291019272B623
:1004900000BF039B44F20102934207D0039B44F246
:1004A0000202934205D1019B059303E0019B049353
:1004B00000E000BF074B1B6803F00103002B00D0D6
:1004C00000BE019A02990398FFF782FF00BF07B0B0
:1004D0005DF804FBF0ED00E072B600BF034B1B6853
:1004E0000133024A136000BF704700BF24000020A0
:1004F000064B1B68013B054A1360044B1B68002B2D
:1005000001D162B600BF00BF704700BF24000020C9
:1005100000B583B0019000F025F80346012B03D00D
:100520000449432000F03BF8FFF7D6FF00BF03B0BB
:100530005DF804FB5C29000000B583B003468DF82C
:10054000073000F00FF80346012B03D00449512077
:1005500000F025F8FFF7CCFF00BF03B05DF804FB07
:100560005C29000084B0EFF305830193019BC3F382
:1005700008030393039B002B0DD1EFF31483009327
:10058000009B0293029B03F00103002B0CBF01238D
:100590000023DBB200E00123184604B0704700B529
:1005A00085B003460091ADF80630BDF806300293E1
:1005B000009B039302AB1A46002144F20200FFF7AE
:1005C00061FF00BF05B05DF804FB0000044BD3F8E9
:1005D0000034002B14BF01230023DBB21846704700
:1005E0000000014000B583B000230193144B1B7839
:1005F000002B02D08523019314E0114B00229A6056
:100600000F4B00225A600E4B00221A610C4B002245
:10061000DA600C4800F01CFA019000F03FFA084B39
:1006200001221A70FFF7D2FF0346002B02D0044BC1
:1006300001229A70019B184603B05DF804FB00BFCD
:10064000280000208907000084B001900091019BE0
:100650001B68039306E0039A009B9A420DD0039B0C
:100660001B680393039B002BF5D1019B1A68009B29
:100670001A60019B009A1A6000E000BF04B0704746
:1006800084B00190019B1B680393039B002B03D054
:10069000039B1A68019B1A60039B184604B07047BD
:1006A00000B583B00190224B1B78002B03D1214968
:1006B000F620FFF774FF1E4B9B78DBB2002B12D0A5
:1006C000019B002B03D0019B5B6801209847002011
:1006D000FFF71EFF164BDB680133154AD36000207D
:1006E000FFF72AFF17E00020FFF712FF019B002B06
:1006F00003D001991048FFF7A7FF0D4BDB68002BD3
:1007000001D100F0DFF90A4BDB680133084AD360FE
:100710000020FFF711FF064BDB68002B04D10549D1
:100720004FF48970FFF73BFF00BF03B05DF804FB97
:1007300028000020DC2900003800002000B585B02A
:1007400003468DF807309DF80730002B02D10C4B83
:10075000039301E00B4B03930398FFF791FF029083
:10076000029B002B06D0029B5B689DF80720104679
:100770009847F1E700BF00BF05B05DF804FB00BF7C
:10078000300000203800002000B583B003468DF80B
:1007900007309DF80730002B05D10A4B01225A7013
:1007A0000020FFF7CBFF9DF80730012B05D1054B4B
:1007B00001229A700120FFF7C1FF00BF03B05DF86E
:1007C00004FB00BF2800002082B003468DF80730EC
:1007D0009DF90730002B0CDB9DF8073003F01F025A
:1007E00005499DF907305B09012000FA02F241F842
:1007F000232000BF02B0704700E100E082B0034652
:1008000000918DF807309DF90730002B0ADB009B23
:10081000DAB20C499DF907305201D2B20B4483F889
:1008200000230BE0009BDAB207499DF8073003F084
:100830000F03043B5201D2B20B441A7600BF02B040
:10084000704700BF00E100E000ED00E082B00190E1
:10085000019B1B0B5BB2184602B0704700B583B01A
:1008600003460A468DF8073013468DF806309DF88A
:100870000630072B03D908496B20FFF790FE9DF83F
:1008800006209DF9073011461846FFF7B7FF00BF55
:1008900003B05DF804FB00BF582A000000B583B028
:1008A00003468DF807309DF907301846FFF78CFF97
:1008B00000BF03B05DF804FB82B003468DF807303B
:1008C0000F4A9DF90730002B00DA1F335B115BB232
:1008D00052F823209DF90730594203F01F0301F01D
:1008E0001F0158BF4B425BB222FA03F303F001032E
:1008F000002B14BF01230023DBB2184602B070475F
:1009000000E100E082B001904FF08042019BC2F80C
:10091000043300BF02B0704782B001904FF08042B4
:10092000019BC2F8083300BF02B0704782B0034693
:100930008DF807309DF8073003F1804301221A60DB
:1009400000BF02B0704784B00346ADF80630BDF872
:10095000063003F1804300221A60BDF8063003F12F
:1009600080431B680393039B00BF04B0704782B0B1
:100970000346ADF80630BDF8063003F180431B682E
:10098000002B14BF01230023DBB2184602B07047CE
:1009900082B001904FF08042019BC2F8183500BF31
:1009A00002B0704700B583B000238DF807304FF0D8
:1009B0008040FFF74BFF03461846FFF77DFF0346D5
:1009C00083F00103DBB2002B13D04FF08040FFF720
:1009D0003DFF03461A469DF8073019461046FFF7BB
:1009E0003DFF4FF08040FFF731FF03461846FFF709
:1009F00055FF00BF03B05DF804FB000084B0124B4C
:100A0000DB680393104A039B43F08073D3600F4B62
:100A10001B6802930D4A029B43F0010313600B4BCA
:100A20005B68019300BF094B5A68019BD31AB3F569
:100A30000A5FF8D3054A029B1360034A039BD36005
:100A400000BF04B0704700BFF0ED00E0001000E010
:100A500000B585B00190019B002B03D10D49A42066
:100A6000FFF79DFD002303930B4B1B79002B02D056
:100A70008523039308E0084A019B1360064B01227B
:100A80001A71054B00225A71039B184605B05DF898
:100A900004FB00BF882A00003C00002008B5074B7B
:100AA0001B79002B03D10649BD20FFF778FDFFF726
:100AB00079FF0120FFF76CFF00BF08BD3C0000205C
:100AC000882A000008B50B4B1B79002B03D10A497B
:100AD000EA20FFF764FD4FF48270FFF734FF022035
:100AE000FFF710FFFFF78AFF0820FFF71FFF00BF87
:100AF00008BD00BF3C000020882A000008B54FF464
:100B00008070FFF734FF0346002B14D04FF4807041
:100B1000FFF719FF0120FFF7FFFE114B5B7983F010
:100B20000103DBB2002B06D00D4B01225A710C4B96
:100B30001B68002098474FF48270FFF718FF0346A8
:100B4000002B0AD04FF48270FFF7FDFE0220FFF762
:100B5000E3FE034B1B680120984700BF08BD00BFA0
:100B60003C00002082B003468DF807309DF9073025
:100B7000002B0CDB9DF8073003F01F0205499DF99F
:100B800007305B09012000FA02F241F8232000BF80
:100B900002B0704700E100E082B0034600918DF89A
:100BA00007309DF90730002B0ADB009BDAB20C49B5
:100BB0009DF907305201D2B20B4483F800230BE0B9
:100BC000009BDAB207499DF8073003F00F03043B9E
:100BD0005201D2B20B441A7600BF02B0704700BF78
:100BE00000E100E000ED00E000B583B003460A46F6
:100BF0008DF8073013468DF806309DF80630072B28
:100C000003D908496B20FFF7CAFC9DF806209DF91F
:100C1000073011461846FFF7BFFF00BF03B05DF86D
:100C200004FB00BF002B000000B583B003468DF825
:100C300007309DF907301846FFF794FF00BF03B057
:100C40005DF804FB84B0039002910192039B029A29
:100C500002F5A872019943F8221000BF04B0704752
:100C600082B001900091019B009AC3F8042300BF59
:100C700002B0704782B001900091019B009AC3F8C6
:100C8000082300BF02B0704782B001900091019B21
:100C9000D3F80423009B1340184602B0704782B07B
:100CA00001900B46ADF80230BDF80230019A1344B2
:100CB0001B68184602B0704784B001900B46ADF82F
:100CC0000230BDF80230019A134400221A60BDF8C8
:100CD0000230019A13441B680393039B00BF04B0C6
:100CE000704782B00190019BD3F80435184602B0DA
:100CF0007047000000B583B001900091009BB3F5F0
:100D0000805F04D306494FF4BE70FFF748FC019B97
:100D1000009AC3F8082500BF03B05DF804FB00BFCC
:100D2000302B000082B001900B468DF803309DF807
:100D30000320019B13441A460123136000BF02B035
:100D4000704782B001900091019B009AC3F8442340
:100D500000BF02B0704782B001900091019B009AE1
:100D6000C3F8482300BF02B07047000000B587B049
:100D7000039002910192029B002B03D13149512033
:100D8000FFF70DFC019B002B03D12E495220FFF7EA
:100D900006FC039B5B7919462B4A019B42F82130E4
:100DA000039B5B791946294A0B465B000B441344AD
:100DB0001B78002B03D008230593059B3DE0039B84
:100DC00093F90420029B9B7819461046FFF70CFF0D
:100DD000039B93F904301846FFF726FF039B1A681C
:100DE000029B1B8819461046FFF784FF039B5B7923
:100DF0001946029B1879154A0B465B000B441344B5
:100E0000013302461A70039B5B791946029BD8781E
:100E10000E4A0B465B000B441344023302461A7021
:100E2000039B5B791946094A0B465B000B4413444C
:100E300001221A7000230593059B184607B05DF840
:100E400004FB00BF602B000044000020480000208D
:100E500000B583B00190019B5B7919460F4A0B46A0
:100E60005B000B4413441B78012B03D00C498220F8
:100E7000FFF795FB019B1B6800211846FFF752FF07
:100E8000019B5B791946054A0B465B000B441344F2
:100E900002221A7000BF03B05DF804FB4800002076
:100EA000602B000000B58BB00390029101928DF889
:100EB0000330039B5B791946484A0B465B000B44A1
:100EC00013441B78002B03D14549B420FFF767FB7F
:100ED000039B9B791A46029B934203D34049B5205A
:100EE000FFF75DFB4FF48032029B02FA03F3089395
:100EF000029B9BB250339BB29B00ADF81E30039B0C
:100F00001B6808991846FFF726FF039B1B68089982
:100F10001846FFF7AFFE019B23F07F430193039B2D
:100F20005B7919462D4A0B465B000B441344013391
:100F30001B78002B2CD0039B1B68019A0299184642
:100F4000FFF780FE039B1B681846FFF7CAFE06905A
:100F5000069A019BD31A0993069A019B9A4205D2DD
:100F6000099B03F1FF1303F57F430993039B5B790F
:100F700019461A4A0B465B000B44134402331B7894
:100F80001A46099B93420ADA0D230593059B21E03B
:100F9000039B1B68019A02991846FFF753FE9DF8C0
:100FA0000330002B0DD0039B1B68BDF81E2011469B
:100FB0001846FFF781FE039B1B6808991846FFF748
:100FC0004FFE039B1B6808991846FFF7BAFE0023E3
:100FD0000593059B18460BB05DF804FB4800002004
:100FE000602B000000B585B001900B468DF80330F2
:100FF0004FF48073ADF80E3001230293019B1B6800
:10100000BDF80E2011461846FFF756FE019B1B68DF
:1010100002991846FFF795FE9DF80330002B05D086
:10102000019B1B6802991846FFF71AFE00BF05B026
:101030005DF804FB00B589B00390029101924FF472
:10104000803306934FF4A073ADF816300023079356
:1010500030E006990398FFF717FE0346002B1ED0D9
:10106000BDF8163019460398FFF719FE0346002B0A
:1010700015D006990398FFF76EFE06990398FFF7BF
:10108000F9FDBDF8163019460398FFF715FE2D4AF5
:10109000029B52F82330079AD2B210469847069B1B
:1010A0005B000693BDF816300433ADF81630079B8D
:1010B00001330793079A019B9A42CAD34FF4807376
:1010C000ADF8163001210398FFF7DEFD0346002B33
:1010D00014D0BDF8163019460398FFF7E0FD03461B
:1010E000002B0BD0BDF8163019460398FFF7E4FD2E
:1010F000144A029B52F82330042098474FF482731D
:10110000ADF8163002210398FFF7BEFD0346002B11
:1011100014D0BDF8163019460398FFF7C0FD0346FA
:10112000002B0BD0BDF8163019460398FFF7C4FD0D
:10113000044A029B52F823300520984700BF09B0AB
:101140005DF804FB4400002008B50322002102489A
:10115000FFF770FF00BF08BD00B0004082B003463B
:101160008DF807309DF90730002B0CDB9DF8073018
:1011700003F01F0205499DF907305B09012000FAC1
:1011800002F241F8232000BF02B0704700E100E006
:1011900082B0034600918DF807309DF90730002B8F
:1011A0000ADB009BDAB20C499DF907305201D2B23A
:1011B0000B4483F800230BE0009BDAB207499DF84B
:1011C000073003F00F03043B5201D2B20B441A76EE
:1011D00000BF02B0704700BF00E100E000ED00E09A
:1011E00082B00190019B1B0B5BB2184602B07047A6
:1011F00000B583B003460A468DF8073013468DF8D4
:1012000006309DF80630072B03D908496B20FFF7FD
:10121000C6F99DF806209DF9073011461846FFF7DC
:10122000B7FF00BF03B05DF804FB00BFD82B000080
:1012300000B583B003468DF807309DF90730184696
:10124000FFF78CFF00BF03B05DF804FB00B583B06F
:101250000346ADF80630BDF80630184600F026F813
:1012600003461B68012B0CBF01230023DBB2184689
:1012700003B05DF804FB00B585B00346ADF8063059
:10128000BDF80630184600F011F803461A46002350
:101290001360BDF80630184600F008F803461B68D6
:1012A0000393039B00BF05B05DF804FB82B00346C7
:1012B000ADF80630BDF8063003F1804303F5C043B6
:1012C000184602B07047000082B00190034A019BAB
:1012D000C2F8043300BF02B0704700BF0060004096
:1012E00082B00190034BD3F80423019B13401846AE
:1012F00002B070470060004082B00190084A019B34
:1013000003F5A27352F82330054943F00102019B13
:1013100003F5A27341F8232000BF02B0704700BF5D
:101320000060004084B00390029113468DF80730AE
:10133000144A039B03F5A27352F82330114923F496
:10134000473323F44073039A02F5A27241F8223026
:101350000C4A039B03F5A27352F82320029B1B0245
:1013600003F4F8519DF807301B0403F440330B439A
:1013700004491A43039B03F5A27341F8232000BFDD
:1013800004B070470060004082B00190054A019BA4
:1013900003F5A27352F823301B0A03F01F0318460B
:1013A00002B070470060004082B00190064A019B85
:1013B00003F5A27352F823301B0C03F00303DBB2D6
:1013C000184602B0704700BF0060004000B583B00F
:1013D0000190019B1B68184600F015F90346002B8D
:1013E00004D105494FF4F670FFF7D9F84FF0A04348
:1013F000184603B05DF804FB082C000000B585B06A
:101400000190084611461A4603468DF803300B46F4
:101410008DF8023013468DF8013001AB1846FFF706
:10142000D5FF03909DF803209DF802305B001A431E
:101430009DF801309B001A439DF818301B0242EAC8
:1014400003019DF81C301B04019A1943039B02F50C
:10145000E07243F8221000BF05B05DF804FB00B550
:1014600085B003900B468DF80B309DF80B300022B1
:10147000019200220092002200210398FFF7BEFF94
:1014800000BF05B05DF804FB00B585B0019001AB6D
:101490001846FFF79BFF0390019A039B02F5E07249
:1014A00053F8223023F002030293019A039B02F5C2
:1014B000E072029943F8221000BF05B05DF804FB0A
:1014C00000B585B001900B468DF8033001AB18468E
:1014D000FFF77CFF0390019A039B02F5E07253F83B
:1014E0002230019A23F44031039B02F5E07243F865
:1014F0002210019A039B02F5E07253F822309DF806
:10150000032012041146019A1943039B02F5E0726D
:1015100043F8221000BF05B05DF804FB00B585B0AC
:10152000019001AB1846FFF751FF0390039800F0BC
:1015300020F80246019B22FA03F303F00103184648
:1015400005B05DF804FB00B585B0019001AB18460D
:10155000FFF73CFF0390019A039B02F5E07253F8FA
:1015600022301B0C03F00303DBB2184605B05DF814
:1015700004FB82B00190019BD3F81035184602B0ED
:10158000704786B00390029101924FF0A0430493FC
:10159000039B059319E0059B9B0018336B4453F89C
:1015A000083CD3F82025019B1A60059B9B0018334B
:1015B0006B4453F8083C019A1268C3F82025019B3C
:1015C00004330193059B01330593039A029B134453
:1015D000059A9A42DFD300BF00BF06B0704700B53E
:1015E00085B0019001AB1846FFF7F0FE0390019B18
:1015F000012202FA03F31A46039BC3F8202500BF19
:1016000005B05DF804FB84B00190019B5B09029377
:1016100000230393029B002B03D14FF0FF3303936E
:1016200000BF019B03F01F030193039A019B22FA61
:1016300003F303F00103002B14BF01230023DBB2EB
:10164000184604B0704784B001900091009B03934A
:10165000019BDB080293019B03F007030193012226
:10166000019B02FA03F30399029A0A441278134089
:10167000184604B0704784B001900091009B03931A
:10168000019BDB080293019B03F007030193039A7C
:10169000029B13441B785AB20121019B01FA03F308
:1016A0005BB2134359B2039A029B1344CAB21A7035
:1016B00000BF04B07047000082B001900C4A019B4B
:1016C0001344303393F90030002B09DB084A019BA7
:1016D0001344303393F90030072B01DC012300E081
:1016E000002303F00103DBB2184602B0704700BFCD
:1016F0004C00002082B00190064A019B1344303315
:1017000093F90030072BCCBF01230023DBB218462E
:1017100002B070474C00002082B00190064A019B45
:101720001344303393F90030DB43DBB2DB09DBB227
:10173000184602B0704700BF4C00002084B00390F0
:10174000029101928DF80330029B59B20E4A039B1D
:10175000134430330A461A700B49029B019A41F830
:1017600023209DF8033083F00103DBB2002B08D067
:10177000029B083B039A51B2034A13440A4683F87A
:10178000502000BF04B070474C00002082B0019090
:10179000044A019B13443033FF221A7000BF02B089
:1017A000704700BF4C00002000B583B00190044991
:1017B0000198FFF760FF00BF03B05DF804FB00BFB6
:1017C000A000002082B00190044A019B13443033F2
:1017D00093F90030184602B0704700BF4C0000205B
:1017E00082B00190034A019B52F82330184602B0A0
:1017F000704700BF4C00002084B00190074A019B55
:101800001344503393F900308DF80F309DF80F30AA
:1018100023F0C003184604B0704700BF4C000020FE
:1018200084B00190074A019B1344503393F9003070
:101830008DF80F309DF80F309B09DBB2184604B0CD
:10184000704700BF4C00002000B589B003900291A2
:1018500013468DF80730FF238DF81F309DF80730B1
:10186000002B01D0002300E0082305939DF80730EA
:10187000002B01D0082300E00C230493059B069362
:1018800014E00F4A069B52F82330B3F1FF3F0AD110
:101890009DF80730029A06990398FFF74FFF069BC1
:1018A0008DF81F3006E0069B01330693069A049BD1
:1018B0009A42E6D39DF91F30184609B05DF804FB43
:1018C0004C00002082B003468DF807309DF80730A9
:1018D000094A4FF0FF3142F823109DF80730072BDB
:1018E00007D99DF80730083B034A1344FF2283F8C9
:1018F000502000BF02B070474C00002000B583B0FC
:101900002D4B93F85830002B03D008230093009BF5
:101910004EE000238DF8073011E09DF8073018469F
:10192000FFF771FE0346002B04D09DF807301846E0
:10193000FFF72CFF9DF8073001338DF807309DF835
:1019400007301F2BE9D900238DF8073009E09DF8F7
:1019500007301846FFF7B6FF9DF8073001338DF8C2
:1019600007309DF807300B2BF1D9042200211348D2
:1019700000F0C0FF1248FFF733FC0346022118466F
:10198000FFF736FC0E48FFF72BFC03461846FFF71F
:101990004FFC4FF4BE70FFF76EFC4FF00040FFF7B6
:1019A00093FC054B012283F8582000230093009BF1
:1019B000184603B05DF804FB4C000020A000002096
:1019C0000060004000B587B0039002910192039837
:1019D000FFF719FE0346002B04D136494FF40C7073
:1019E000FEF7DDFD002305930398FFF795FE034600
:1019F000002B02D00823059357E0029B9B78C3F38A
:101A00004003DBB21A4601990398FFF71DFF034616
:101A10008DF813309DF91330B3F1FF3F43D0029B93
:101A20009B78C3F38003DBB283F00103DBB2002BAE
:101A300013D0029B9B7803F00103DBB2002B03D091
:101A40000398FFF721FD05E0029B5B781946039898
:101A5000FFF705FD0398FFF7A7FE029B9B7803F0B5
:101A60000203DBB2002B08D09DF91300029B1B7808
:101A70001A460399FFF756FC17E09DF91330083B0F
:101A80000D4A134493F95010029B1B789B015AB2E4
:101A90009DF91330083B0A4351B2074A13440A46E2
:101AA00083F8502001E004230593059B184607B0F6
:101AB0005DF804FB382C00004C00002000B589B014
:101AC00001900B468DF803300198FFF79CFD03460B
:101AD000002B04D13A494FF41870FEF760FD0198CD
:101AE000FFF71AFE0346002B04D1354940F261206E
:101AF000FEF755FD0198FFF7FDFD0346002B2AD0A8
:101B00000198FFF75FFE0346083B1846FFF788FE83
:101B100003468DF80F309DF80F30032B0BD1019841
:101B2000FFF7FCFC0346002B01D0032300E0022357
:101B30008DF81F3008E09DF80F30012B01D10223F2
:101B400000E003238DF81F309DF81F3019460198DF
:101B5000FFF7B6FC30E00198FFF7AEFD0346002B1F
:101B60002AD00198FFF72EFE03460693069B9BB2F0
:101B700040339BB29B00ADF81630069B1846FFF72A
:101B8000BBFBBDF816301846FFF775FB9DF8033018
:101B9000002B11D00198FFF715FE03461846FFF7FA
:101BA0001FFE0490049B002B06D00122069B02FA24
:101BB00003F31846FFF788FB00BF09B05DF804FB8C
:101BC000382C000000B585B00190019A0121002059
:101BD000FFF7D7FC002303930BE0039B9B00019AC4
:101BE00013441B68002B01D0012306E0039B013343
:101BF0000393039B002BF0D00023184605B05DF83B
:101C000004FB000000B587B00190002305935BE062
:101C1000344A059B1344503393F90030B3F1FF3F2E
:101C20004ED00598FFF7E8FD049001990498FFF75E
:101C30000AFD0346002B44D00598FFF7F1FD03464B
:101C40008DF80F300498FFF77EFC03468DF80E30B8
:101C50009DF80E30022B01D1032300E002238DF802
:101C60000D309DF80D3019460498FFF729FC0498B3
:101C7000FFF7B5FC0498FFF7A5FD03461846FFF7EC
:101C8000AFFD0290029B002B1BD09DF80F30032B61
:101C90000FD09DF80E30022B03D19DF80F30012B91
:101CA00007D09DF80E30032B0BD19DF80F30022B7F
:101CB00007D19DF80F20029B11460498984700E039
:101CC00000BF059B01330593059B032BA0D9019809
:101CD000FFF778FF0346002B97D100BF00BF07B086
:101CE0005DF804FB4C00002000B589B00023079389
:101CF000002300934FF48073ADF816300123049352
:101D00000023069321E0BDF816301846FFF79EFA2F
:101D10000346002B0ED00498FFF7E2FA0346002B8F
:101D200008D0BDF816301846FFF7A5FA079A049BAD
:101D300013430793049B5B000493BDF816300433F0
:101D4000ADF81630069B01330693069B072BDAD9B4
:101D50004FF4BE70FFF77AFA0346002B0DD04FF414
:101D6000BE70FFF788FA079B43F0004307936B466A
:101D70001A4601210020FFF704FC079BDBB2002B71
:101D800029D0012304930023069321E0049A079BA2
:101D90001340002B16D00698FFF7F6FA039006982A
:101DA000FFF702FB03468DF80B300698FFF718FD8E
:101DB0000190019B002B05D09DF80B20019B114643
:101DC00003989847049B5B000493069B013306939A
:101DD000069B072BDAD9079B002B03DA6B461846C4
:101DE000FFF710FF00BF09B05DF804FB00B585B038
:101DF0000190019B002B0AD0074B43F00103039392
:101E0000019B9B010293039B0298984700E000BF4F
:101E100005B05DF804FB00BF702D000000B583B075
:101E20000190019B1B68184600F08EF80346002BBA
:101E300004D105494FF4F670FEF7B1FB4FF0A04313
:101E4000184603B05DF804FBB42C000000B585B063
:101E50000190084611461A4603468DF803300B469A
:101E60008DF8023013468DF8013001AB1846FFF7AC
:101E7000D5FF03909DF803209DF802305B001A43C4
:101E80009DF801309B001A439DF818301B0242EA6E
:101E900003019DF81C301B04019A1943039B02F5B2
:101EA000E07243F8221000BF05B05DF804FB00B5F6
:101EB00085B00390002301930023009300230122A7
:101EC00001210398FFF7C2FF00BF05B05DF804FBD6
:101ED00000B585B0019001AB1846FFF79FFF039056
:101EE000019B012202FA03F31946039800F018F847
:101EF00000BF05B05DF804FB00B585B0019001ABF3
:101F00001846FFF78BFF0390019B012202FA03F3AF
:101F10001946039800F00EF800BF05B05DF804FB09
:101F200082B001900091019B009AC3F8082500BF80
:101F300002B0704782B001900091019B009AC3F8F3
:101F40000C2500BF02B0704784B00190019B5B0973
:101F5000029300230393029B002B03D14FF0FF3326
:101F6000039300BF019B03F01F030193039A019B9E
:101F700022FA03F303F00103002B14BF0123002313
:101F8000DBB2184604B0704700B583B003468DF845
:101F90000730094BD3F80435002B08D11920FFF77F
:101FA00097FF0520FFF722FF1920FFF7A5FF00BFCD
:101FB00003B05DF804FB00BF0040024008B51920E3
:101FC000FFF775FF00BF08BD00B583B0FEF70AFB41
:101FD0000190019B0093009B002B04D0054A7821BF
:101FE0000098FEF741FA0020FEF75AFB00BF03B04D
:101FF0005DF804FBE42C000000B587B001AB0022C3
:102000001A609A8040F6FF73ADF8043001AB164AAF
:1020100019461648FEF7AAFE0590059B0493049BFB
:10202000002B04D0124A88210498FEF71DFA0121E2
:102030000E48FEF7D7FF0123182200210B48FEF7B8
:1020400031FF0590059B0393039B002B04D0084AA6
:102050008F210398FEF708FA0448FEF7F9FE00BF47
:1020600007B05DF804FB00BF891F00005C2D000075
:10207000E42C000000B583B001900B468DF80330CE
:102080001920FFF725FF1920FFF736FF00BF03B027
:102090005DF804FB00B585B0FFF730FC174A01ABD3
:1020A0001268114619800233120C1A7001238DF840
:1020B000053002238DF804309DF806306FF30003DD
:1020C0008DF806309DF806306FF341038DF8063029
:1020D00001AB0B4A19461F20FFF774FC0390039BCA
:1020E0000293029B002B04D0064AD3210298FEF7EC
:1020F000BBF900BF05B05DF804FB00BF582D000020
:1021000075200000E42C000008B501211F20FFF716
:10211000D5FC00BF08BD08B5FFF750FFFFF754FF1F
:10212000FFF76AFFFFF7B6FFFFF7EEFF40BF20BFE4
:1021300020BFFBE7BFF34F8F00BF064BDB6803F404
:10214000E0620449044B1343CB60BFF34F8F00BFE1
:1021500000BFFDE700ED00E00400FA0582B01A4B75
:102160001B68B3F1FF3F0AD1184B1B68DBB2019328
:10217000174B1B681B0903F00F03009305E0124B7C
:102180001B680193134B1B680093019B062B17D10F
:10219000009B033B032B13D801A252F823F000BF8E
:1021A000B1210000B5210000B9210000BD210000CF
:1021B000012306E0012304E0012302E0012300E003
:1021C0000023184602B0704730010010E00F00F005
:1021D000E80F00F03401001082B0144B1B68DBB232
:1021E0000193134B1B681B0903F00F030093019B22
:1021F000062B17D1009B033B032B13D801A252F8E7
:1022000023F000BF15220000192200001D2200004B
:1022100021220000012306E0002304E0002302E065
:10222000002300E00023184602B07047E00F00F0E2
:10223000E80F00F082B01A4B1B68B3F1FF3F0AD1E0
:10224000184B1B68DBB20193174B1B681B0903F08B
:102250000F03009305E0124B1B680193134B1B689F
:102260000093019B062B17D1009B033B032B13D834
:1022700001A252F823F000BF892200008D22000045
:102280009122000095220000012306E0012304E0D2
:10229000012302E0012300E00023184602B070474A
:1022A00030010010E00F00F0E80F00F034010010E2
:1022B00082B0144B1B68DBB20193134B1B681B09E4
:1022C00003F00F030093019B062B17D1009B033BE8
:1022D000032B13D801A252F823F000BFED22000017
:1022E000F1220000F5220000F9220000012306E09F
:1022F000002304E0002302E0002300E0002318464E
:1023000002B07047E00F00F0E80F00F082B01A4B07
:102310001B68B3F1FF3F0AD1184B1B68DBB2019376
:10232000174B1B681B0903F00F03009305E0124BCA
:102330001B680193134B1B680093019B062B17D15D
:10234000009B033B032B13D801A252F823F000BFDC
:102350006123000065230000692300006D23000055
:10236000012306E0012304E0012302E0012300E051
:102370000023184602B0704730010010E00F00F053
:10238000E80F00F03401001082B0144B1B68DBB280
:102390000193134B1B681B0903F00F030093019B70
:1023A000062B17D1009B033B032B13D801A252F835
:1023B00023F000BFC5230000C9230000CD23000087
:1023C000D1230000012306E0002304E0002302E003
:1023D000002300E00023184602B07047E00F00F031
:1023E000E80F00F082B0144B1B68DBB20193134B73
:1023F0001B681B0903F00F030093019B062B17D1E9
:10240000009B033B032B13D801A252F823F000BF1B
:102410002124000025240000292400002D24000090
:10242000012306E0002304E0002302E0002300E093
:102430000023184602B07047E00F00F0E80F00F0EC
:1024400082B01A4B1B68B3F1FF3F0AD1184B1B68CF
:10245000DBB20193174B1B681B0903F00F030093BA
:1024600005E0124B1B680193134B1B680093019B03
:10247000062B17D1009B033B032B13D801A252F864
:1024800023F000BF95240000992400009D24000043
:10249000A1240000002306E0002304E0012302E061
:1024A000012300E00023184602B0704730010010FD
:1024B000E00F00F0E80F00F03401001082B01A4B7A
:1024C0001B68B3F1FF3F0AD1184B1B68DBB20193C5
:1024D000174B1B681B0903F00F03009305E0124B19
:1024E0001B680193134B1B680093019B062B17D1AC
:1024F000009B033B032B13D801A252F823F000BF2B
:102500001125000015250000192500001D250000DB
:10251000012306E0012304E0012302E0012300E09F
:102520000023184602B0704730010010E00F00F0A1
:10253000E80F00F03401001082B01A4B1B68B3F1B1
:10254000FF3F0AD1184B1B68DBB20193174B1B6886
:102550001B0903F00F03009305E0124B1B68019366
:10256000134B1B680093019B062B17D1009B033B69
:10257000032B13D801A252F823F000BF8D250000D1
:10258000912500009525000099250000012306E013
:10259000012304E0012302E0012300E000231846A8
:1025A00002B0704730010010E00F00F0E80F00F0BB
:1025B0003401001082B0124B1B680193114B1B6851
:1025C0000093019B062B17D1009B033B032B13D8D1
:1025D00001A252F823F000BFE9250000ED2500001C
:1025E000F1250000F5250000002306E0002304E0AB
:1025F000002302E0012300E00023184602B07047E8
:102600003001001034010010024B034A1A6000BF71
:10261000704700BF000000200090D00308B5FFF70E
:102620009DFD0346002B06D0A04B1B681B0AA04A49
:1026300003F01F031360FFF7CFFD0346002B02D00A
:102640009C4B9D4A1A60FFF7F5FD0346002B06D010
:102650009A4B1B685B0B9A4A03F007031360FFF762
:1026600027FE0346002B05D0964BDB68954A23F0E6
:102670008073D360FFF74AFE0346002B0ED04FF065
:1026800080430022C3F80C214FF080430022C3F89E
:1026900010214FF080430022C3F83825FFF774FE65
:1026A0000346002B02D0884B03221A60FFF79AFEE4
:1026B0000346002B0BD0854B05221A60844B012268
:1026C0001A60844B00221A60834B3F221A60FFF786
:1026D000B7FE0346002B76D04FF080537F4AD3F8E5
:1026E0000434C2F820354FF080537C4AD3F80834C4
:1026F000C2F824354FF08053784AD3F80C34C2F82E
:1027000028354FF08053754AD3F81034C2F82C3571
:102710004FF08053714AD3F81434C2F830354FF07B
:1027200080536E4AD3F81834C2F834354FF08053D2
:102730006A4AD3F81C34C2F840354FF08053674AD8
:10274000D3F82034C2F844354FF08053634AD3F8AD
:102750002434C2F848354FF08053604AD3F8283407
:10276000C2F84C354FF080535C4AD3F82C34C2F891
:1027700050354FF08053594AD3F83034C2F85435AD
:102780004FF08053554AD3F83434C2F860354FF0D7
:102790008053524AD3F83834C2F864354FF080532E
:1027A0004E4AD3F83C34C2F868354FF080534B4A58
:1027B000D3F84034C2F86C354FF08053474AD3F811
:1027C0004434C2F87035FFF779FE0346002B05D07C
:1027D000434B1B68434A03F04F031360FFF7ACFE03
:1027E0000346002B0DD04FF08043D3F8003403F0A4
:1027F0000103002B05D04FF080436FF00102C3F8B6
:102800000024FFF7D7FE0346002B05D0364B1B688C
:10281000354A43F480631360344BD3F88830334A2D
:1028200043F47003C2F88830BFF34F8F00BFBFF38B
:102830006F8F00BF4FF01023D3F80032002B05DB61
:102840004FF01023D3F80432002B2BDA284B01224F
:10285000C3F8042500BF264BD3F80034002BFAD070
:102860004FF010231522C3F8002200BF204BD3F8ED
:102870000034002BFAD04FF010231522C3F80422A5
:1028800000BF1B4BD3F80034002BFAD0184B0022AA
:10289000C3F8042500BF164BD3F80034002BFAD040
:1028A000FFF748FCFFF7B0FE00BF08BD240300108F
:1028B0004035014074C007400DF0ADBA440200102D
:1028C0003C050040F0ED00E0A0050040105600403F
:1028D00088560040185600401456004000C0004082
:1028E00058020010E40E00403C17004000ED00E0EC
:1028F00000E001408446002A2DD010F0030F04D0E0
:1029000000F8011B013A26D0F7E7C9B241EA0121DC
:1029100041EA0141202A12D3A2F120022DE9F0035D
:102920000B460C460D460E460F4688468946A0E8E3
:10293000FA03203AFBD2BDE8F00320320BD0042A80
:1029400005D340F8041B043A05D0042AF9D200F854
:0A295000011B013AFBD160467047FD
:10295C00433A5C55736572735C6D696D6F72726925
:10296C00735C446F63756D656E74735C53656E73E5
:10297C006F72735C4C616767696E67576561725CF7
:10298C004669726D776172655C6C616767696E67C9
:10299C00776561722D5C6E5246355F53444B5F31E7
:1029AC00375C636F6D706F6E656E74735C6C6962AF
:1029BC007261726965735C7574696C5C6170705F6F
:1029CC007574696C5F706C6174666F726D2E6300E8
:1029DC00433A5C55736572735C6D696D6F727269A5
:1029EC00735C446F63756D656E74735C53656E7365
:1029FC006F72735C4C616767696E67576561725C77
:102A0C004669726D776172655C6C616767696E6748
:102A1C00776561722D5C6E5246355F53444B5F3166
:102A2C00375C696E746567726174696F6E5C6E7227
:102A3C0066785C6C65676163795C6E72665F647204
:102A4C00765F636C6F636B2E630000002E2E2F2E4F
:102A5C002E2F2E2E2F2E2E2F2E2E2F2E2E2F696E0A
:102A6C00746567726174696F6E2F6E7266782F6E03
:102A7C007266785F676C75652E680000433A5C552A
:102A8C00736572735C6D696D6F727269735C446FA0
:102A9C0063756D656E74735C53656E736F72735C86
:102AAC004C616767696E67576561725C4669726DE8
:102ABC00776172655C6C616767696E677765617277
:102ACC002D5C6E5246355F53444B5F31375C6D6FF6
:102ADC0064756C65735C6E7266785C64726976653D
:102AEC0072735C7372635C6E7266785F636C6F6337
:102AFC006B2E63002E2E2F2E2E2F2E2E2F2E2E2FA2
:102B0C002E2E2F2E2E2F696E746567726174696F6D
:102B1C006E2F6E7266782F6E7266785F676C756555
:102B2C002E6800002E2E2F2E2E2F2E2E2F2E2E2FD7
:102B3C002E2E2F2E2E2F6D6F64756C65732F6E726B
:102B4C0066782F68616C2F6E72665F7274632E6884
:102B5C0000000000433A5C55736572735C6D696DDF
:102B6C006F727269735C446F63756D656E74735CC0
:102B7C0053656E736F72735C4C616767696E6757F0
:102B8C006561725C4669726D776172655C6C6167D8
:102B9C0067696E67776561722D5C6E5246355F535F
:102BAC00444B5F31375C6D6F64756C65735C6E7232
:102BBC0066785C647269766572735C7372635C6E62
:102BCC007266785F7274632E630000002E2E2F2EB7
:102BDC002E2F2E2E2F2E2E2F2E2E2F2E2E2F696E89
:102BEC00746567726174696F6E2F6E7266782F6E82
:102BFC007266785F676C75652E6800002E2E2F2E1E
:102C0C002E2F2E2E2F2E2E2F2E2E2F2E2E2F6D6F53
:102C1C0064756C65732F6E7266782F68616C2F6E9D
:102C2C0072665F6770696F2E68000000433A5C55EE
:102C3C00736572735C6D696D6F727269735C446FEE
:102C4C0063756D656E74735C53656E736F72735CD4
:102C5C004C616767696E67576561725C4669726D36
:102C6C00776172655C6C616767696E6777656172C5
:102C7C002D5C6E5246355F53444B5F31375C6D6F44
:102C8C0064756C65735C6E7266785C64726976658B
:102C9C0072735C7372635C6E7266785F6770696F77
:102CAC0074652E63000000002E2E2F2E2E2F2E2E3C
:102CBC002F2E2E2F2E2E2F2E2E2F6D6F64756C65B2
:102CCC00732F6E7266782F68616C2F6E72665F67F9
:102CDC0070696F2E68000000433A5C55736572731F
:102CEC005C6D696D6F727269735C446F63756D6551
:102CFC006E74735C53656E736F72735C4C61676753
:102D0C00696E67576561725C4669726D7761726551
:102D1C005C6C616767696E67776561722D5C6E527A
:102D2C0046355F53444B5F31375C6578616D706C31
:102D3C0065735C7065726970686572616C5C7274E5
:102D4C00635C6D61696E2E6300000000030002007D
:102D5C0000B000400B000300000000000000000069
:0A2D6C00000000000338FDD8704796
:042D78000090D003F4
:040000030000037581
:00000001FF
